:020000040800F2
:10000000000002206D7700088D63000893630008EC
:10001000996300089F630008A563000800000000C2
:10002000000000000000000000000000AB630008BA
:10003000B963000800000000C7630008D56300082A
:10004000BD770008BD770008BD770008BD770008C0
:10005000BD770008BD770008BD770008BD770008B0
:10006000BD770008BD770008BD770008BD770008A0
:10007000BD770008BD770008BD770008BD77000890
:10008000BD770008BD770008BD77000800000000BC
:10009000000000000000000000000000BD77000824
:1000A000BD770008BD770008BD770008BD77000860
:1000B000BD770008BD770008BD770008BD77000850
:1000C000BD770008BD770008BD770008BD77000840
:1000D000BD770008BD770008BD770008000000006C
:1000E000E1630008BD770008BD770008000000004C
:1000F000000000000000000000000000BD770008C4
:1001000000000000BD770008BD770008BD7700083B
:1001100000000000000000000000000000000000DF
:10012000BD770008BD770008BD770008BD770008DF
:10013000BD77000800000000000000000000000083
:10014000000000000000000000000000BD77000873
:10015000BD770008BD770008BD770008BD770008AF
:10016000BD770008BD770008000000000000000017
:10017000000000000000000000000000000000007F
:1001800000000000BD770008000000000000000033
:08019000BD770008BD770008EF
:1001A00010B5054C237833B9044B13B10448AFF3B1
:1001B00000800123237010BD7C000020000000009F
:1001C0009CA9000808B5034B1BB103490348AFF3D2
:1001D000008008BD00000000800000209CA90008ED
:1001E00001F0FF01102A2BDB10F0070F08D010F8E8
:1001F000013B013A8B422DD010F0070F42B3F6D1EC
:10020000F0B441EA012141EA014122F007047FF004
:1002100000070023F0E80256083C85EA010586EA5B
:10022000010685FA47F5A3FA87F586FA47F6A5FA97
:1002300087F68EB9EED1F0BC01F0FF0102F00702A3
:1002400032B110F8013B013A83EA010313B1F8D14E
:100250000020704701387047002D06BF354603382F
:10026000073815F0010F07D1013015F4807F02BF68
:10027000013015F4C03F0130F0BC0138704700BFB9
:1002800053B94AB9002908BF00281CBF4FF0FF31FD
:100290004FF0FF3000F074B9ADF1080C6DE904CEF9
:1002A00000F006F8DDF804E0DDE9022304B0704751
:1002B0002DE9F047089D04468E46002B4DD18A4219
:1002C000944669D9B2FA82F252B101FA02F3C2F14C
:1002D000200120FA01F10CFA02FC41EA030E9440DD
:1002E0004FEA1C48210CBEFBF8F61FFA8CF708FBFE
:1002F00016E341EA034306FB07F199420AD91CEBD6
:10030000030306F1FF3080F01F81994240F21C8107
:10031000023E63445B1AA4B2B3FBF8F008FB10334F
:1003200044EA034400FB07F7A7420AD91CEB040484
:1003300000F1FF3380F00A81A74240F20781644454
:10034000023840EA0640E41B00261DB1D4400023D9
:10035000C5E900433146BDE8F0878B4209D9002D3D
:1003600000F0EF800026C5E9000130463146BDE8C7
:10037000F087B3FA83F6002E4AD18B4202D3824231
:1003800000F2F980841A61EB030301209E46002DE0
:10039000E0D0C5E9004EDDE702B9FFDEB2FA82F235
:1003A000002A40F09280A1EB0C014FEA1C471FFA93
:1003B0008CFE0126200CB1FBF7F307FB131140EA7A
:1003C00001410EFB03F0884208D91CEB010103F147
:1003D000FF3802D2884200F2CB804346091AA4B209
:1003E000B1FBF7F007FB101144EA01440EFB00FEDD
:1003F000A64508D91CEB040400F1FF3102D2A64542
:1004000000F2BB800846A4EB0E0440EA03409CE7E0
:10041000C6F12007B34022FA07FC4CEA030C20FA8D
:1004200007F401FA06F31C43F9404FEA1C4900FAAD
:1004300006F3B1FBF9F8200C1FFA8CFE09FB18112A
:1004400040EA014108FB0EF0884202FA06F20BD99D
:100450001CEB010108F1FF3A80F08880884240F2ED
:100460008580A8F102086144091AA4B2B1FBF9F031
:1004700009FB101144EA014100FB0EFE8E4508D92C
:100480001CEB010100F1FF346CD28E456AD90238B1
:10049000614440EA0840A0FB0294A1EB0E01A14296
:1004A000C846A64656D353D05DB1B3EB080261EB04
:1004B0000E0101FA07F722FA06F3F1401F43C5E9DE
:1004C000007100263146BDE8F087C2F12003D84014
:1004D0000CFA02FC21FA03F3914001434FEA1C4756
:1004E0001FFA8CFEB3FBF7F007FB10360B0C43EA48
:1004F000064300FB0EF69E4204FA02F408D91CEBF8
:10050000030300F1FF382FD29E422DD902386344F5
:100510009B1B89B2B3FBF7F607FB163341EA034195
:1005200006FB0EF38B4208D91CEB010106F1FF38E4
:1005300016D28B4214D9023E6144C91A46EA0046DB
:1005400038E72E46284605E70646E3E61846F8E66D
:100550004B45A9D2B9EB020864EB0C0E0138A3E7B6
:100560004646EAE7204694E74046D1E7D0467BE797
:10057000023B614432E7304609E76444023842E70F
:10058000704700BF80B500AFC9E18F4B1A888F4B11
:100590001B889A4207D28E4B1A788E4B1A708E4B5C
:1005A00000221A7016E0884B1A88884B1B889A42E2
:1005B0000DD9874B1B78002B0CBF01230023DBB226
:1005C0001A46844B1A70844B01221A7002E0834B46
:1005D00000221A707C4B5A88814B1B889A4207D2A2
:1005E000804B1A78804B1A70804B00221A7016E0EC
:1005F000754B5A887A4B1B889A420DD9794B1B78D8
:10060000002B0CBF01230023DBB21A46764B1A7075
:10061000764B01221A7002E0754B00221A70754B5E
:100620001A88754B1B889A4207D2744B1A78744B00
:100630001A70744B00221A7016E06E4B1A886E4BBB
:100640001B889A420DD96D4B1B78002B0CBF0123E0
:100650000023DBB21A466A4B1A706A4B01221A70E9
:1006600002E0694B00221A70624B5A88674B1B8864
:100670009A4207D2664B1A78664B1A70664B002274
:100680001A7016E05B4B5A88604B1B889A420DD952
:100690005F4B1B78002B0CBF01230023DBB21A46F3
:1006A0005C4B1A705C4B01221A7002E05B4B00221B
:1006B0001A70484B1B781A461021594807F0C4FBA2
:1006C000494B1B781A464FF48061554807F0BCFB34
:1006D0004B4B1B781A464FF48071524807F0B4FB1D
:1006E0004C4B1B781A4620214E4807F0ADFB3220B8
:1006F00000F0CAF900224FF400714A4807F0A4FB49
:10070000364B1B78012B23D101224FF480614548E1
:1007100007F09AFB304B1B78002B06D12A4B1B8825
:1007200001339AB2284B1A8009E02B4B1B78012B1E
:1007300005D1254B1B88013B9AB2234B1A80224BD3
:100740001A88224B1B889A4202D1244B00221A702D
:10075000274B1B78012B22D101220821304807F0BA
:1007600073FB224B1B78002B06D1174B5B880133A0
:100770009AB2154B5A8009E01C4B1B78012B05D10E
:10078000114B5B88013B9AB20F4B5A800E4B5A8833
:10079000134B1B889A4202D1154B00221A701A4B38
:1007A0001B78012B53D1012220211D4807F04CFB5F
:1007B000144B1B78002B37D10E4B1B8801339AB298
:1007C0000C4B1A803AE000BF24060020D00600201F
:1007D000AE060020980000209C000020C4060020E7
:1007E000D2060020AF060020990000209D000020C6
:1007F000C506002028060020D4060020B0060020F0
:100800009A0000209E000020C6060020D606002088
:10081000B10600209B0000209F000020C70600209A
:1008200000040240000002404B4B1B78012B05D115
:100830004A4B1B88013B9AB2484B1A80474B1A8897
:10084000474B1B889A4202D1464B00221A70464BF6
:100850001B78012B22D101224021444807F0F4FAF1
:10086000434B1B78002B06D13C4B5B8801339AB27B
:100870003A4B5A8009E03E4B1B78012B05D1374B90
:100880005B88013B9AB2354B5A80344B5A88394BBE
:100890001B889A4202D1344B00221A70364B1B88B7
:1008A0001A46354B5B881B0413431A46334B1A60B8
:1008B000324B1B681A460F21314809F0A3F8274B29
:1008C0001B881A46254B5B881B0413431A462D4B85
:1008D0001A602C4B1B681A461021294809F092F81F
:1008E000294B1B88184600F0CFF800224FF4806196
:1008F0001E4807F0A9FA00220821244807F0A4FAAC
:1009000000222021214807F09FFA002240211748A9
:1009100007F09AFA1C4B1B88184600F0B5F81C4BE0
:100920001B78012B3FF431AE1A4B1B78012B3FF49F
:100930002CAE0C4B1B78012B3FF427AE0A4B1B78D7
:10094000012B3FF422AE01224FF40071074807F05B
:100950007BFA00BF80BD00BF9E000020280600205B
:10096000D4060020C6060020C70600200000024072
:100970009F000020D6060020240600205C060020F0
:10098000F4000020600600200C000020000402405B
:10099000C4060020C506002080B586B000AF174B06
:1009A0001B783B71154B5B787B710023BB71002377
:1009B0003B6100237B613B1D00221946104808F073
:1009C00099FD0346002B01D000F0FCFB01233B7096
:1009D00001237B700123BB700023FB703B46002288
:1009E0001946074808F07EFE0346002B01D000F0B0
:1009F000E9FB00BF1837BD4680BD00BFA006002040
:100A0000F400002080B58EB002AF07F11803002279
:100A10001946184808F008FE07F12C030022194671
:100A2000144808F0E3FE3B7E1A467B7E1946BB7EE7
:100A300007F10C0000930B460F4909F041FB97F8B2
:100A40002E301A4697F82D30194697F82F3003F5B7
:100A5000FA63384600930B46084909F031FB3A7EA9
:100A6000074B1A707A7E074B1A7000BF3037BD46AD
:100A700080BD00BFF4000020B4A90008C4A900088C
:100A80009C0600209D06002080B483B000AF034682
:100A9000FB80094B1B6800225A6200BF064B1B6893
:100AA0005A6AFB889A42F9D300BF00BF0C37BD4693
:100AB0005DF8047B704700BF1401002080B582B050
:100AC00000AF0346FB80FB88B3F5005F0FD106F053
:100AD000DDFE0246314B1B68D31AC82B07D9304BB9
:100AE00001221A6006F0D2FE03462C4A1360FB88EE
:100AF000B3F5004F03D0FB88B3F5804F43D14FF4DB
:100B00008041284807F088F90346002B19D14FF49B
:100B10000041244807F080F90346012B11D106F06B
:100B2000B5FE02461D4B5B68D31A142B09D91E4B28
:100B30001B68013B1C4A136006F0A8FE0346174AD7
:100B400053604FF48041174807F066F90346012BC4
:100B500019D14FF40041134807F05EF90346002B0A
:100B600011D106F093FE02460C4B5B68D31A142B8E
:100B700009D90D4B1B6801330B4A136006F086FE42
:100B80000346064A5360FFF73DFF01F097FF01F06F
:100B900095FF00BF0837BD4680BD00BFEC010020B7
:100BA000BC06002000040240B806002080B500AF5B
:100BB00006F006FE00F0DAF800F084FA00F040F9E2
:100BC00000F092F900F06AF900F0DEF900F02AFA7C
:100BD000544808F099FF04F019FE4FF4FA6006F04B
:100BE00061FE01224FF400714F4807F02DF91321E7
:100BF0004E4808F021FF03464FF2F002934202D123
:100C000005F046FC02E0442000F0F8FAFFF7FAFE97
:100C1000474B1B78012B0BD0464B1B78012B07D081
:100C2000454B1B78012B03D0444B1B78012B02D181
:100C3000FFF7A8FC28E0424B1B78012B02D105F0FE
:100C40002DFE21E03F4B1B78002B1DD005F020FF2F
:100C50003C4B1B78012B02D1354B01221A70394BCA
:100C60001B78022B02D1334B01221A70354B1B78B3
:100C7000032B02D1304B01221A70324B1B78042B0C
:100C800002D12E4B01221A702F4B1A782F4B1B7852
:100C90009A421DD12C4B5A782D4B1B789A4217D172
:100CA000234B01221A70234B01221A70224B01227E
:100CB0001A70224B01221A70264B00221A80264BF2
:100CC00000221A80254B00221A80254B00221A8010
:100CD0001D4B9A781D4B1B789A4297D11A4BDA78A4
:100CE0001B4B1B789A4291D1114B01221A70114B68
:100CF00001221A70104B01221A70104B01221A7037
:100D0000184B1A88134B1A80164B5A88124B1A80AC
:100D1000154B1A88114B1A80134B5A88104B1A80A6
:100D200074E700BF1401002000000240F40000201E
:100D3000C4060020C5060020C6060020C706002005
:100D4000AC060020AD060020A40600209C06002072
:100D50009D060020D0060020D2060020D4060020E8
:100D6000D60600202C0600203006002080B594B066
:100D700000AF07F1200330220021184609F098F94E
:100D800007F10C0300221A605A609A60DA601A6157
:100D90000023BB60284B1B6C274A43F0805313642D
:100DA000254B1B6C03F08053BB60BB6800237B604A
:100DB000224B1B68214A43F4404313601F4B1B68BE
:100DC00003F440437B607B6806233B620123BB62E4
:100DD0000123FB6210233B630223BB630023FB63FD
:100DE00008233B6454237B640223BB640423FB6419
:100DF00007F12003184607F0D3FD0346002B01D06E
:100E000000F0E0F90F23FB6002233B6100237B61CC
:100E10004FF48053BB610023FB6107F10C030221F7
:100E2000184608F035F80346002B01D000F0CAF947
:100E300000BF5037BD4680BD003802400070004002
:100E400080B500AF124B134A1A60114B124A5A6018
:100E50000F4B00229A600E4B0022DA600C4B4FF4CD
:100E600080421A610A4B00225A61094B00229A61A2
:100E7000074B0022DA61064B00221A62044807F091
:100E800015F80346002B01D000F09CF900BF80BD8F
:100E9000A000002000540040801A060080B500AF7A
:100EA0000F4B104A1A600E4B00225A600C4B7F22E7
:100EB0009A600B4BFF22DA60094B00221A61084B43
:100EC00000225A61064B00229A61054808F09CFAFC
:100ED0000346002B01D000F075F900BF80BD00BFB4
:100EE000F40000200028004080B586B000AF07F174
:100EF000080300221A605A609A60DA603B460022BA
:100F00001A605A601E4B1F4A1A601D4B63225A60BA
:100F10001B4B00229A601A4B4FF6FE72DA60184B98
:100F200000221A61164B00225A61154B00229A6169
:100F3000134808F099FD0346002B01D000F042F958
:100F40004FF48053BB6007F1080319460C4808F0C2
:100F500035FE0346002B01D000F034F900233B603E
:100F600000237B603B461946054809F009F8034613
:100F7000002B01D000F026F900BF1837BD4680BD18
:100F8000140100200000014080B586B000AF07F1D9
:100F9000080300221A605A609A60DA603B46002219
:100FA0001A605A601D4B1E4A1A601C4B00225A6080
:100FB0001A4B00229A60194B4FF6FF72DA60174BFA
:100FC00000221A61154B00229A61144808F04CFD6A
:100FD0000346002B01D000F0F5F84FF48053BB60BE
:100FE00007F1080319460D4808F0E8FD0346002BF9
:100FF00001D000F0E7F800233B6000237B603B4614
:101000001946064808F0BCFF0346002B01D000F04B
:10101000D9F800BF1837BD4680BD00BF5C01002075
:101020000008004080B586B000AF07F10803002239
:101030001A605A609A60DA603B4600221A605A6071
:101040001D4B1E4A1A601C4B4CF2DF425A601A4B71
:1010500000229A60184B1A4ADA60174B00221A6174
:10106000154B00229A61144808F0FEFC0346002B41
:1010700001D000F0A7F84FF48053BB6007F10803DC
:1010800019460D4808F09AFD0346002B01D000F0E8
:1010900099F800233B6000237B603B4619460648D5
:1010A00008F06EFF0346002B01D000F08BF800BF64
:1010B0001837BD4680BD00BFA4010020000C0040D1
:1010C0003F420F0080B588B000AF07F10C0300224B
:1010D0001A605A609A60DA601A610023BB60364B6E
:1010E0001B6B354A43F004031363334B1B6B03F054
:1010F0000403BB60BB6800237B602F4B1B6B2E4A35
:1011000043F0010313632C4B1B6B03F001037B6063
:101110007B6800233B60284B1B6B274A43F002038C
:101120001363254B1B6B03F002033B603B680022FB
:101130004FF4EC61214806F087FE00224FF48761EE
:101140001F4806F081FE4FF4EC63FB6001233B6116
:1011500000237B610023BB6107F10C03194617488C
:1011600006F0D6FC4FF48763FB6001233B6100234C
:101170007B610023BB6107F10C031946104806F0A0
:10118000C7FC4FF46043FB604FF404133B61012341
:101190007B6107F10C031946094806F0B9FC0022EF
:1011A0000021282006F07DFC282006F096FC00BFD8
:1011B0002037BD4680BD00BF00380240000002401D
:1011C0000004024080B400AF72B600BFFEE700002A
:1011D00080B483B000AF78603960064A7B681360E2
:1011E000054A3B68136000BF0C37BD465DF8047BC1
:1011F000704700BFF0010020F401002080B582B0EC
:1012000000AF0346FB7104F021FF002004F0EEFB69
:10121000FB794C2B01F2208401A252F823F000BF8D
:10122000551300085D130008A3130008E913000814
:101230002F14000875140008BB14000801150008DD
:10124000471500088D150008D31500081916000869
:101250005F160008CD16000813170008591700087C
:101260009F170008E51700082B18000871180008E0
:10127000B7180008FD18000843190008891900086C
:10128000CF190008351A00087B1A0008C11A000897
:10129000071B00084D1B0008931B0008D91B000802
:1012A0001F1C0008651C0008AB1C0008F11C00088E
:1012B000371D0008A11D0008E71D00082D1E0008AD
:1012C000731E0008B91E0008FF1E0008451F000815
:1012D0008B1F0008D11F0008172000085D200008A0
:1012E000A320000811210008572100089D210008B3
:1012F000E3210008292200086D220008B12200081D
:10130000F52200084B230008A1230008F72300085A
:101310008D2400080725000881250008FB2500080A
:1013200075260008EF26000857270008F92700084F
:101330006128000899280008D12800080929000818
:101340004129000879290008B1290008E929000885
:10135000212A000804F08DFE01F07FBB0B2129201B
:1013600004F0C6FB0122CF49CF4804F057FC01230B
:1013700003220E21142004F071FD1F21292004F006
:10138000B7FB0122C749C94804F048FC3321292092
:1013900004F0AEFB0122C349C54804F03FFC01F054
:1013A0005CBB0B21292004F0A3FB0122BD49BE48F0
:1013B00004F034FC1F21292004F09AFB0122B949D2
:1013C000BA4804F02BFC012303222321142004F04B
:1013D00045FD3321292004F08BFB0122B149B4489B
:1013E00004F01CFC01F039BB0B21292004F080FB28
:1013F0000122AC49AC4804F011FC1F21292004F063
:1014000077FB0122A749A94804F008FC33212920D1
:1014100004F06EFB0122A349A54804F0FFFB012361
:1014200003223821142004F019FD01F016BB0B2112
:10143000292004F05DFB01229A499C4804F0EEFB50
:101440001F21292004F054FB01229649984804F0FA
:10145000E5FB3321292004F04BFB012291499548FB
:1014600004F0DCFB012303223821142004F0F6FCF5
:1014700001F0F3BA0B21292004F03AFB012289493B
:101480008B4804F0CBFB1F21292004F031FB012203
:101490008449884804F0C2FB3321292004F028FB4A
:1014A00001228049844804F0B9FB0123032238213A
:1014B000142004F0D3FC01F0D0BA0B21292004F051
:1014C00017FB012277497A4804F0A8FB1F21292045
:1014D00004F00EFB01227349764804F09FFB0123C0
:1014E00003222321142004F0B9FC3321292004F025
:1014F000FFFA01226B49704804F090FB01F0ADBA8D
:101500000B21292004F0F4FA01226649684804F00E
:1015100085FB012303220E21142004F09FFC1F21D0
:10152000292004F0E5FA01225E49624804F076FBC6
:101530003321292004F0DCFA01225A495E4804F0E4
:101540006DFB01F08ABA0B21292004F0D1FA0122A7
:101550005449564804F062FB012303220E21142053
:1015600004F07CFC1F21292004F0C2FA01224D491D
:101570004F4804F053FB3321292004F0B9FA01222B
:1015800048494C4804F04AFB01F067BA0B21292076
:1015900004F0AEFA01224349484804F03FFB01231E
:1015A00003220E21142004F059FC1F21292004F0ED
:1015B0009FFA01223B49424804F030FB33212920A5
:1015C00004F096FA012237493E4804F027FB01F067
:1015D00044BA0B21292004F08BFA01223149374803
:1015E00004F01CFB1F21292004F082FA01222D495E
:1015F000334804F013FB012303222321142004F0B9
:101600002DFC3321292004F073FA012225492D48AD
:1016100004F004FB01F021BA0B21292004F068FA40
:1016200001222049254804F0F9FA1F21292004F05D
:101630005FFA01221B49224804F0F0FA33212920E5
:1016400004F056FA012217491E4804F0E7FA012374
:1016500003223821142004F001FC01F0FEB90B2113
:10166000292004F045FA01220E49154804F0D6FA63
:101670001F21292004F03CFA01220A49114804F0F4
:10168000CDFA3321292004F033FA012205490E480E
:1016900004F0C4FA012303223821142004F0DEFBF5
:1016A00001F0DBB900000020D4A90008DCA9000883
:1016B000E4A90008ECA90008F4A9000800AA0008A1
:1016C00008AA000814AA000820AA00080B21292053
:1016D00004F00EFA0122CF49CF4804F09FFA1F21EF
:1016E000292004F005FA0122CA49CC4804F096FAF0
:1016F000012303222321142004F0B0FB33212920ED
:1017000004F0F6F90122C349C54804F087FA01F054
:10171000A4B90B21292004F0EBF90122BD49BE48F0
:1017200004F07CFA012303220E21142004F096FB1E
:101730001F21292004F0DCF90122B649B74804F042
:101740006DFA3321292004F0D3F90122B149B448BC
:1017500004F064FA01F081B90B21292004F0C8F9E2
:101760000122AC49AF4804F059FA012303220E21AB
:10177000142004F073FB1F21292004F0B9F9012281
:10178000A449A54804F04AFA3321292004F0B0F90D
:101790000122A049A44804F041FA01F05EB90B21EE
:1017A000292004F0A5F901229A499E4804F036FA4E
:1017B0001F21292004F09CF901229649964804F043
:1017C0002DFA012303222321142004F047FB3321A7
:1017D000292004F08DF901228E49934804F01EFA65
:1017E00001F03BB90B21292004F082F9012289493B
:1017F0008C4804F013FA1F21292004F079F9012202
:101800008449854804F00AFA3321292004F070F94C
:1018100001228049844804F001FA0123032238217F
:10182000142004F01BFB01F018B90B21292004F04F
:101830005FF901227749784804F0F0F91F21292047
:1018400004F056F901227349774804F0E7F933218F
:10185000292004F04DF901226E49744804F0DEF9A4
:10186000012303223821142004F0F8FA01F0F5B81E
:101870000B21292004F03CF9012266496A4804F052
:10188000CDF91F21292004F033F90122614967486D
:1018900004F0C4F93321292004F02AF901225D491A
:1018A000634804F0BBF9012303223821142004F01B
:1018B000D5FA01F0D2B80B21292004F019F9012240
:1018C0005449594804F0AAF91F21292004F010F9BD
:1018D00001225049554804F0A1F901230322232194
:1018E000142004F0BBFA3321292004F001F901226D
:1018F00048494F4804F092F901F0AFB80B21292074
:1019000004F0F6F801224349474804F087F901231F
:1019100003220E21142004F0A1FA1F21292004F033
:10192000E7F801223B49414804F078F933212920A6
:1019300004F0DEF8012237493D4804F06FF901F068
:101940008CB80B21292004F0D3F801223149354805
:1019500004F064F9012303220E21142004F07EFA1E
:101960001F21292004F0C4F801222A492B4804F041
:1019700055F93321292004F0BBF8012225492A48D2
:1019800004F04CF901F069B80B21292004F0B0F8FB
:1019900001222049234804F041F91F21292004F0A5
:1019A000A7F801221B491D4804F038F9012303223E
:1019B0002321142004F052FA3321292004F098F84E
:1019C00001221449184804F029F901F046B80B2106
:1019D000292004F08DF801220E49124804F01EF966
:1019E0001F21292004F084F801220A490B4804F041
:1019F00015F93321292004F07BF8012205490A4812
:101A000004F00CF9012303223821142004F026FAF3
:101A100001F023B80000002008AA000814AA00085A
:101A200020AA000800AA000828AA00082CAA00087A
:101A300030AA00080B21292004F05AF80122CF49CE
:101A4000CF4804F0EBF81F21292004F051F80122BF
:101A5000CA49CC4804F0E2F83321292004F048F8C0
:101A60000122C649C84804F0D9F8012303223821CD
:101A7000142004F0F3F900F0F0BF0B21292004F04A
:101A800037F80122BD49BF4804F0C8F81F212920BA
:101A900004F02EF80122B949BB4804F0BFF8332105
:101AA000292004F025F80122B449B84804F0B6F81A
:101AB000012303223821142004F0D0F900F0CDBF17
:101AC0000B21292004F014F80122AC49AD4804F0A0
:101AD000A5F81F21292004F00BF80122A749AA48E4
:101AE00004F09CF8012303222321142004F0B6F90A
:101AF0003321292003F0FCFF0122A049A34804F070
:101B00008DF800F0AABF0B21292003F0F1FF01227C
:101B10009A499C4804F082F8012303220E211420E4
:101B200004F09CF91F21292003F0E2FF01229349D0
:101B3000954804F073F83321292003F0D9FF0122DE
:101B40008E49924804F06AF800F087BF0B212920E3
:101B500003F0CEFF012289498D4804F05FF801238C
:101B600003220E21142004F079F91F21292003F00B
:101B7000BFFF01228149874804F050F83321292012
:101B800003F0B6FF01227D497E4804F047F800F0DB
:101B900064BF0B21292003F0ABFF012277497C4869
:101BA00004F03CF81F21292003F0A2FF0122734911
:101BB000784804F033F8012303222321142004F091
:101BC0004DF93321292003F093FF01226B496D4821
:101BD00004F024F800F041BF0B21292003F088FF16
:101BE000012266496A4804F019F81F21292003F0F0
:101BF0007FFF01226149674804F010F83321292052
:101C000003F076FF01225D495E4804F007F80123E6
:101C100003223821142004F021F900F01EBF0B210B
:101C2000292003F065FF012254495A4803F0F6FFCA
:101C30001F21292003F05CFF01225049514803F085
:101C4000EDFF3321292003F053FF01224B494E4879
:101C500003F0E4FF012303223821142004F0FEF8EE
:101C600000F0FBBE0B21292003F042FF0122434973
:101C7000444803F0D3FF1F21292003F039FF01223C
:101C80003E49414803F0CAFF3321292003F030FFC9
:101C900001223A493D4803F0C1FF012303223821C4
:101CA000142004F0DBF800F0D8BE0B21292003F04B
:101CB0001FFF01223149334803F0B0FF1F212920C3
:101CC00003F016FF01222D492F4803F0A7FF01233F
:101CD00003222321142004F0C1F83321292003F02A
:101CE00007FF01222549294803F098FF00F0B5BEFF
:101CF0000B21292003F0FCFE01222049214803F09A
:101D00008DFF012303220E21142004F0A7F81F21C8
:101D1000292003F0EDFE012218491B4803F07EFF45
:101D20003321292003F0E4FE01221449174803F06F
:101D300075FF00F092BE0B21292003F0D9FE01228D
:101D40000E49134803F06AFF012303220E211420D9
:101D500004F084F81F21292003F0CAFE012207495C
:101D60000D4803F05BFF3321292003F0C1FE01225F
:101D700002490A4803F052FF00F06FBE0000002045
:101D800014AA000828AA00082CAA000830AA0008F3
:101D900000AA000820AA000838AA00083CAA0008E7
:101DA0000B21292003F0A4FE0122CF49CF4803F0E4
:101DB00035FF1F21292003F09BFE0122CA49CC4890
:101DC00003F02CFF012303222321142004F046F802
:101DD0003321292003F08CFE0122C349C54803F0BA
:101DE0001DFF00F03ABE0B21292003F081FE0122E5
:101DF000BD49BE4803F012FF1F21292003F078FEE1
:101E00000122B949BA4803F009FF3321292003F020
:101E10006FFE0122B449B74803F000FF01230322FB
:101E20003821142004F01AF800F017BE0B212920E5
:101E300003F05EFE0122AC49AD4803F0EFFE1F2126
:101E4000292003F055FE0122A749AA4803F0E6FE27
:101E50003321292003F04CFE0122A349A64803F0B8
:101E6000DDFE012303223821142003F0F7FF00F0E8
:101E7000F4BD0B21292003F03BFE01229A499C4826
:101E800003F0CCFE1F21292003F032FE01229649E7
:101E9000984803F0C3FE012303222321142003F0FA
:101EA000DDFF3321292003F023FE01228E499248D1
:101EB00003F0B4FE00F0D1BD0B21292003F018FE81
:101EC000012289498A4803F0A9FE012303220E2139
:101ED000142003F0C3FF1F21292003F009FE012273
:101EE0008149844803F09AFE3321292003F000FE43
:101EF00001227D49804803F091FE00F0AEBD0B2128
:101F0000292003F0F5FD01227749784803F086FE89
:101F1000012303220E21142003F0A0FF1F212920FA
:101F200003F0E6FD01227049744803F077FE332187
:101F3000292003F0DDFD01226B49714803F06EFE9C
:101F400000F08BBD0B21292003F0D2FD0122664950
:101F5000664803F063FE1F21292003F0C9FD01221A
:101F60006149664803F05AFE01230322232114200D
:101F700003F074FF3321292003F0BAFD01225A49EE
:101F80005F4803F04BFE00F068BD0B21292003F0F1
:101F9000AFFD01225449554803F040FE1F2129207E
:101FA00003F0A6FD01225049544803F037FE3321C7
:101FB000292003F09DFD01224B49514803F02EFEDC
:101FC000012303223821142003F048FF00F045BD0F
:101FD0000B21292003F08CFD01224349474803F0DF
:101FE0001DFE1F21292003F083FD01223E494448A4
:101FF00003F014FE3321292003F07AFD01223A492F
:10200000404803F00BFE012303223821142003F083
:1020100025FF00F022BD0B21292003F069FD0122DC
:102020003149364803F0FAFD1F21292003F060FDF5
:1020300001222D49324803F0F1FD0123032223211F
:10204000142003F00BFF3321292003F051FD01225E
:1020500025492C4803F0E2FD00F0FFBC0B212920AC
:1020600003F046FD01222049244803F0D7FD012357
:1020700003220E21142003F0F1FE1F21292003F07A
:1020800037FD012218491E4803F0C8FD33212920DD
:1020900003F02EFD012214491A4803F0BFFD00F0A1
:1020A000DCBC0B21292003F023FD01220E490F483F
:1020B00003F0B4FD012303220E21142003F0CEFE11
:1020C0001F21292003F014FD012207490E4803F0C7
:1020D000A5FD3321292003F00BFD012202490B4805
:1020E00003F09CFD00F0B9BC0000002000AA00082D
:1020F00038AA00083CAA000848AA000850AA00080C
:102100005CAA00086CAA00087CAA000888AA00083B
:102110000B21292003F0ECFC0122D149D14803F026
:102120007DFD1F21292003F0E3FC0122CC49CE488C
:1021300003F074FD012303222321142003F08EFEFB
:102140003321292003F0D4FC0122C549C74803F0FC
:1021500065FD00F082BC0B21292003F0C9FC01229F
:10216000BF49C04803F05AFD1F21292003F0C0FCDD
:102170000122BB49BC4803F051FD3321292003F063
:10218000B7FC0122B649B94803F048FD01230322F8
:102190003821142003F062FE00F05FBC0B212920DF
:1021A00003F0A6FC0122AE49AF4803F037FD1F2122
:1021B000292003F09DFC0122A949AC4803F02EFD23
:1021C0003321292003F094FC0122A549A84803F0FB
:1021D00025FD012303223821142003F03FFE00F0E7
:1021E0003CBC0B21292003F083FC01229C499F4821
:1021F00003F014FD1F21292003F07AFC01229849E5
:102200009B4803F00BFD3321292003F071FC0122D0
:102210009349984803F002FD01230322382114203A
:1022200003F01CFE00F019BC0B21292003F060FC18
:1022300001228B498D4803F0F1FC1F21292003F076
:1022400057FC012286498A4803F0E8FC0123032257
:102250002321142003F002FE3321292003F048FC3F
:1022600001227F49834803F0D9FCF6E30B212920A2
:1022700003F03EFC01227A497C4803F0CFFC0123A5
:1022800003220E21142003F0E9FD1F21292003F071
:102290002FFC01227249764803F0C0FC332129202B
:1022A00003F026FC01226E49724803F0B7FCD4E328
:1022B0000B21292003F01CFC012269496A4803F024
:1022C000ADFC012303220E21142003F0C7FD1F21C2
:1022D000292003F00DFC01226149644803F09EFCB3
:1022E0003321292003F004FC01225D49604803F0FA
:1022F00095FCB2E30B21142003F0FAFB01225849AC
:10230000584803F08BFC012303220E210A2003F01E
:10231000A5FD1F21142003F0EBFB01225049564874
:1023200003F07CFC3321142003F0E2FB01224C4932
:10233000524803F073FC33216F2003F0D9FB504B5C
:102340001B78184603F066FE87E30B21142003F088
:10235000CFFB01224249434803F060FC1F211420B7
:1023600003F0C6FB01223E49434803F057FC01231A
:10237000032223210A2003F071FD3321142003F0EE
:10238000B7FB012236493D4803F048FC33216F205A
:1023900003F0AEFB3A4B1B78184603F03BFE5CE3C0
:1023A0000B21142003F0A4FB01222D492D4803F03A
:1023B00035FC1F21142003F09BFB012228492E48E5
:1023C00003F02CFC3321142003F092FB012224495A
:1023D0002A4803F023FC33216F2003F089FB284BAC
:1023E0001B78184603F016FE0123032238210A2029
:1023F00003F034FD31E30B21142003F079FB0122BB
:1024000017491D4803F00AFC1F21142003F070FB3C
:1024100001221349194803F001FC1F216F2003F02A
:1024200067FB174B1B78184603F0F4FD332114208B
:1024300003F05EFB01220A49124803F0EFFB33214F
:102440006F2003F055FB104B1B78184603F0E2FD9C
:102450000123032238210A2003F000FDFDE200BF22
:102460000000002000AA00087CAA000888AA000832
:1024700094AA0008A0AA0008ACAA0008B4AA000800
:10248000AE060020C4AA0008AF0600200B211420CD
:1024900003F02EFB0122CA49CA4803F0BFFB0B21FF
:1024A0006F2003F025FBC84B1B78184603F0B2FDE4
:1024B0001F21142003F01CFB0122C149C34803F073
:1024C000ADFB1F216F2003F013FBC14B1B78184697
:1024D00003F0A0FD3321142003F00AFB0122B849C8
:1024E000BC4803F09BFB33216F2003F001FBBA4B88
:1024F0001B78184603F08EFD0123032238210A20A1
:1025000003F0ACFCA9E20B21142003F0F1FA012244
:10251000AB49AE4803F082FB0B216F2003F0E8FAD1
:10252000AB4B1B78184603F075FD1F21142003F0F8
:10253000DFFA0122A249A74803F070FB1F216F2098
:1025400003F0D6FAA44B1B78184603F063FD332141
:10255000142003F0CDFA01229949A04803F05EFB54
:1025600033216F2003F0C4FA9D4B1B78184603F00B
:1025700051FD0123032238210A2003F06FFC6CE295
:102580000B21142003F0B4FA01228D498F4803F087
:1025900045FB0B216F2003F0ABFA8D4B1B781846DF
:1025A00003F038FD1F21142003F0A2FA0122844910
:1025B000884803F033FB1F216F2003F099FA864B04
:1025C0001B78184603F026FD0123032223210A204D
:1025D00003F044FC3321142003F08AFA01227849E5
:1025E0007E4803F01BFB33216F2003F081FA7C4B04
:1025F0001B78184603F00EFD2FE20B21142003F088
:1026000077FA01226E49714803F008FB0B216F2015
:1026100003F06EFA6E4B1B78184603F0FBFC0123A7
:1026200003220E210A2003F019FC1F21142003F0BD
:102630005FFA01226249674803F0F0FA1F216F2018
:1026400003F056FA644B1B78184603F0E3FC332181
:10265000142003F04DFA01225949604803F0DEFAD4
:1026600033216F2003F044FA5D4B1B78184603F0CA
:10267000D1FCF2E10B21142003F03AFA0122504977
:10268000504803F0CBFA0B216F2003F031FA4E4B88
:102690001B78184603F0BEFC012303220E210A20FA
:1026A00003F0DCFB1F21142003F022FA012244492D
:1026B000464803F0B3FA1F216F2003F019FA444B88
:1026C0001B78184603F0A6FC3321142003F010FAFF
:1026D00001223B493F4803F0A1FA33216F2003F068
:1026E00007FA3D4B1B78184603F094FCB5E10B212B
:1026F000292003F0FDF9012231493A4803F08EFA0E
:10270000012303220E21142003F0A8FB1F212920FE
:1027100003F0EEF901222A49334803F07FFA1F2122
:102720005B2003F0E5F9314B1B68184603F072FC9F
:102730003321292003F0DCF9012221492C4803F040
:102740006DFA33215B2003F0D3F92A4B1B6818463E
:1027500003F060FC81E10B21292003F0C9F901227B
:102760001749204803F05AFA1F21292003F0C0F925
:10277000012213491C4803F051FA1F215B2003F08A
:10278000B7F91A4B1B68184603F044FC01230322D7
:102790002321142003F062FB3321292003F0A8F940
:1027A00001220749124803F039FA33215B2003F074
:1027B0009FF9104B1B68184603F02CFC4DE100BF3D
:1027C00000000020B4AA0008AE060020C4AA000839
:1027D000AF060020D4AA0008B0060020E4AA000832
:1027E000B106002000AA0008F4AA0008F0010020A9
:1027F000FCAA0008F40100200B21292003F078F93D
:1028000001229949994803F009FA1F21292003F070
:102810006FF901229449964803F000FA1F215B20CA
:1028200003F066F9934B1B68184603F0F3FB332162
:10283000292003F05DF901228B498F4803F0EEF95E
:1028400033215B2003F054F98C4B1B68184603F0CE
:10285000E1FB012303223821142003F0FFFAFCE0FE
:102860000B21192003F044F901227F49844803F029
:10287000D5F91F21192003F03BF901227A4981483B
:1028800003F0CCF93321192003F032F90122764903
:102890007D4803F0C3F9E0E00B21192003F028F98B
:1028A00001227149794803F0B9F91F21192003F079
:1028B0001FF901226C49764803F0B0F93321192041
:1028C00003F016F9012268496F4803F0A7F9C4E044
:1028D0000B21192003F00CF9012263496D4803F024
:1028E0009DF91F21192003F003F901225E496A486E
:1028F00003F094F93321192003F0FAF801225A4920
:10290000664803F08BF9A8E00B21192003F0F0F8DA
:10291000012255495F4803F081F91F21192003F076
:10292000E7F8012250495E4803F078F93321192075
:1029300003F0DEF801224C495A4803F06FF98CE0AD
:102940000B21192003F0D4F801224749514803F024
:1029500065F91F21192003F0CBF8012242495248A2
:1029600003F05CF93321192003F0C2F801223E493B
:102970004C4803F053F970E00B21192003F0B8F82C
:1029800001223949434803F049F91F21192003F076
:10299000AFF801223449424803F040F933211920AD
:1029A00003F0A6F801223049404803F037F954E01B
:1029B0000B21192003F09CF801222B49354803F024
:1029C0002DF91F21192003F093F8012226493648DA
:1029D00003F024F93321192003F08AF80122224957
:1029E000324803F01BF938E00B21192003F080F87E
:1029F00001221D49274803F011F91F21192003F076
:102A000077F8012218492A4803F008F933211920E0
:102A100003F06EF801221449264803F0FFF81CE089
:102A20000B21192003F064F801220F49194803F023
:102A3000F5F81F21192003F05BF801220A491C4810
:102A400003F0ECF83321192003F052F80122064973
:102A5000194803F0E3F800E000BF02F095FF00BF63
:102A60000837BD4680BD00BF0000002000AA000856
:102A7000F4AA0008F0010020FCAA0008F4010020DC
:102A800004AB000814AB000824AB000830AB00080E
:102A90003CAB000848AB000854AB000864AB00082E
:102AA00070AB000880AB000888AB000898AB00084A
:102AB000A0AB0008ACAB0008B4AB000880B500AF19
:102AC000034B1B78002B05D003F0E2FF02F090BE11
:102AD000AD0600208F4B1B78002B22D18D4B5B78ED
:102AE000002B1ED18C4B1B68002B1AD18B4B1B78F3
:102AF000002B16D1894B5B78002B12D10120FEF7F9
:102B00007DFB874B1B68012B0BD1824B01221A7076
:102B1000834B00221A60804B00221A607F4B0022F8
:102B20001A707C4B1B78002B1ED17B4B1B68012B32
:102B30001AD17A4B1B78002B16D1784B5B78002B7F
:102B400012D10220FEF75AFB754B1B68012B0BD1EB
:102B5000704B02221A70724B00221A606E4B0022D8
:102B60001A606E4B00221A706A4B1B78002B22D120
:102B7000684B5B78002B1ED1674B1B68022B1AD168
:102B8000664B1B78002B16D1644B5B78002B12D15F
:102B90000320FEF733FB624B1B68012B0BD15D4B0F
:102BA00003221A705E4B00221A605B4B00221A60EF
:102BB0005A4B00221A70574B1B78002B22D1554BD1
:102BC0005B78002B1ED1544B1B68032B1AD1534B3F
:102BD0001B78002B16D1514B5B78002B12D10420AF
:102BE000FEF70CFB4E4B1B68012B0BD1494B04220B
:102BF0001A704B4B00221A60474B00221A60474B59
:102C000000221A70434B1B78002B21D1414B5B787B
:102C1000002B1DD1404B1B68042B19D13F4B5B7817
:102C2000002B15D10520FEF7E9FA3C4B01221A7062
:102C30003B4B1B68012B0BD1364B07221A70384BCC
:102C400000221A60344B00221A60344B00221A70A2
:102C5000304B1B78002B22D12E4B5B78002B1ED1E2
:102C60002D4B1B68032B1AD12C4B1B78012B16D133
:102C70002A4B5B78002B12D10620FEF7BFFA284BB7
:102C80001B68012B0BD1234B04221A70244B00220A
:102C90001A60214B00221A60204B00221A701D4B33
:102CA0001B78002B22D11B4B5B78002B1ED11A4BBB
:102CB0001B68022B1AD1194B1B78012B16D1174B0D
:102CC0005B78002B12D10720FEF798FA144B1B6893
:102CD000012B0BD10F4B03221A70114B00221A60EB
:102CE0000D4B00221A600D4B00221A70094B1B7805
:102CF000002B2BD1074B5B78002B27D1064B1B6891
:102D0000012B23D1054B1B78012B1FD1034B5B7883
:102D1000002B07E0C8060020B8060020CC060020E3
:102D2000BC06002012D10820FEF768FA8F4B1B6802
:102D3000012B0BD18E4B02221A708C4B00221A6091
:102D40008C4B00221A608C4B00221A70884B1B7827
:102D5000002B25D1864B5B78002B21D1854B1B683E
:102D6000002B1DDC844B1B78012B19D1824B5B7827
:102D7000002B15D10120FEF741FA7F4B00221A707B
:102D80007A4B1B68012B0BD1794B01221A70774BC0
:102D900000221A60774B00221A60774B00221A70CB
:102DA000734B1B78002B15D1714B5B78002B11D125
:102DB000704B1B68002B0DDA6F4B1B78002B09D171
:102DC0006D4B5B78002B05D10520FEF717FA694B98
:102DD00004221A60664B1B78002B18D1644B5B7879
:102DE000002B14D1634B1B68042B10DD624B1B7846
:102DF000012B0CD1604B5B78002B08D10120FEF732
:102E0000FDF95C4B00221A605B4B00221A70584B94
:102E10001B78072B26D0564B1B78002B22D0544B07
:102E20005B78002B1ED1534B1B68002B1AD1524BE1
:102E30001B78002B16D1504B5B78002B12D1092048
:102E4000FEF7DCF9494B1B68012B0BD1484B0022E4
:102E50001A70464B00221A60464B00221A60464BFD
:102E600000221A70424B1B78072B26D0404B1B7850
:102E7000002B22D03E4B5B78002B1ED13D4B1B68B4
:102E8000012B1AD13C4B1B78002B16D13A4B5B78A7
:102E9000002B12D10A20FEF7B1F9344B1B68012B2D
:102EA0000BD1334B01225A70304B00221A60314B48
:102EB00000221A60304B00221A702D4B1B78072B12
:102EC00026D02B4B1B78002B22D0294B5B78002B74
:102ED0001ED1284B1B68022B1AD1274B1B78002BC5
:102EE00016D1254B5B78002B12D10B20FEF786F90B
:102EF0001E4B1B68012B0BD11D4B02225A701B4B22
:102F000000221A601B4B00221A601B4B00221A7011
:102F1000174B1B78072B25D0154B1B78002B21D086
:102F2000134B5B78002B1DD1124B1B68032B19D15F
:102F3000114B5B78002B15D10C20FEF75FF90E4B7F
:102F400001221A70094B1B68012B0BD1084B03227D
:102F50005A70064B00221A60064B00221A60064B7C
:102F600000221A70024B1B78072B07E0BC060020DA
:102F7000C8060020B8060020CC06002026D07F4BD3
:102F80001B78002B22D07D4B5B78002B1ED17C4B15
:102F90001B68022B1AD17B4B1B78012B16D1794B66
:102FA0005B78002B12D10D20FEF728F9764B1B68B9
:102FB000012B0BD1714B02225A70734B00221A6005
:102FC0006F4B00221A606F4B00221A706B4B1B78FC
:102FD000072B29D0694B1B78002B25D0674B5B78DA
:102FE000002B21D1664B1B68012B1DD1654B1B7833
:102FF000012B19D1634B5B78002B15D10E20FEF706
:10300000FDF8604B00221A705F4B1B68012B0BD13F
:103010005A4B01225A705C4B00221A60584B002216
:103020001A60584B00221A70544B1B78072B19D08A
:10303000524B1B78002B15D0504B5B78002B11D1D5
:103040004F4B1B68002B0DDA4E4B1B78002B09D120
:103050004C4B5B78002B05D10C20FEF7CFF8484B8A
:1030600004221A60454B1B78072B1CD0434B1B785E
:10307000002B18D0414B5B78002B14D1404B1B68C0
:10308000032B10DD3F4B1B78012B0CD13D4B5B78A4
:10309000002B08D10920FEF7B1F8394B00221A6045
:1030A000384B00221A70354B1B78072B26D0334B38
:1030B0001B78002B22D0314B5B78012B1ED1304B7B
:1030C0001B68002B1AD12F4B1B78002B16D12D4BD0
:1030D0005B78002B12D10F20FEF790F82A4B1B686B
:1030E000012B0BD1254B00225A70274B00221A606E
:1030F000234B00221A60234B00221A701F4B1B78AF
:10310000072B68D01D4B1B78002B64D01B4B5B78C2
:10311000012B60D11A4B1B68012B5CD1194B1B781A
:10312000002B58D1174B5B78002B54D11020FEF7A1
:1031300065F8154B1B68012B4DD1104B1B78012BEB
:1031400006D1124B01221A70114B00221A8033E073
:103150000A4B1B78022B06D10E4B01221A700E4B24
:1031600000221A8028E0054B1B78032B1AD10B4B49
:1031700001221A700A4B00221A801DE0C8060020A6
:10318000B8060020CC060020BC060020C4060020A3
:10319000D0060020C5060020D2060020C60600206A
:1031A000D4060020844B1B78042B05D1834B0122CD
:1031B0001A70834B00221A807F4B00225A707E4B7C
:1031C00000221A707F4B00221A607F4B00221A6087
:1031D0007E4B00221A70784B1B78072B58D0764B09
:1031E0001B78002B54D0744B5B78012B50D1764B5D
:1031F0001B68022B4CD1754B1B78002B48D1734BAD
:103200005B78002B44D11120FDF7F8FF6D4B1B6854
:10321000012B3DD1684B1B78012B07D16C4B012250
:103220001A706C4B1A886C4B1A8022E0624B1B7828
:10323000022B07D1694B01221A70664B5A88684BE2
:103240001A8016E05C4B1B78032B07D1654B0122DB
:103250001A70654B1A88654B1A800AE0564B1B782A
:10326000042B06D1554B01221A705F4B5A88544BE0
:103270001A80514B00225A704F4B00221A70514B4A
:1032800000221A60504B00221A60504B00221A7024
:10329000494B1B78072B58D0474B1B78002B54D039
:1032A000454B5B78012B50D1474B1B68032B4CD10E
:1032B000464B1B78002B48D1444B5B78002B44D104
:1032C0001220FDF79BFF3F4B1B68012B3DD13A4B72
:1032D0001B78012B07D13E4B01221A70444B1A88F0
:1032E0003D4B1A8022E0344B1B78022B07D13B4B1D
:1032F00001221A703E4B5A88394B1A8016E02E4B29
:103300001B78032B07D1374B01221A70394B1A88CF
:10331000364B1A800AE0284B1B78042B06D1274B2A
:1033200001221A70334B5A88254B1A80224B0022F7
:103330005A70214B00221A70224B00221A60224B35
:1033400000221A60214B00221A701B4B1B78072B9E
:1033500068D0194B1B78002B64D0174B5B78012B7E
:1033600060D1194B1B68042B5CD1184B5B78002B88
:1033700058D11320FDF742FF144B01221A70114B54
:103380001B68012B4ED10C4B1B78012B03D1104B2A
:1033900000221A7037E0084B1B78022B03D10F4B29
:1033A00000221A702FE0044B1B78032B24D10D4B05
:1033B00000221A7027E000BFC8060020C7060020C0
:1033C000D6060020BC060020B8060020CC0600204F
:1033D000C406002034060020D0060020C5060020C8
:1033E000D2060020C606002038060020D4060020A1
:1033F0003C060020400600205C4B1B78042B02D1C9
:103400005B4B00221A70594B00225A70574B002216
:103410001A70584B00221A60574B00221A60574B03
:1034200000221A70514B1B78072B58D04F4B1B783A
:10343000002B54D04D4B5B78012B50D14E4B1B6869
:10344000032B4CD14D4B1B78012B48D14B4B5B7858
:10345000002B44D11420FDF7D1FE464B1B68012BF5
:103460003DD1424B1B78012B07D1454B01221A70ED
:10347000444B1A88444B1A8022E03C4B1B78022BA9
:1034800007D1424B01221A703E4B5A88404B1A809A
:1034900016E0364B1B78032B07D13E4B01221A70E6
:1034A0003D4B1A883D4B1A800AE0304B1B78042BA9
:1034B00006D12F4B01221A70374B5A88384B1A808D
:1034C0002A4B00225A70294B00221A70294B0022E5
:1034D0001A60294B00221A60284B00221A70234BD5
:1034E0001B78072B7CD0214B1B78002B78D01F4BEF
:1034F0005B78012B74D1204B1B68022B70D11F4BC2
:103500001B78012B6CD11D4B5B78002B68D11520EB
:10351000FDF774FE194B00221A70164B1B68012B25
:103520005ED1124B1B78012B07D1154B01221A706B
:103530001C4B1A88144B1A8043E00C4B1B78022B4F
:1035400007D1124B01221A70164B5A88104B1A8061
:1035500037E0064B1B78032B28D10E4B01221A7043
:10356000114B1A880D4B1A802BE000BFC8060020B3
:10357000C7060020BC060020B8060020CC060020AC
:10358000C40600203C060020D0060020C50600200E
:10359000D2060020C606002040060020D4060020E7
:1035A000D606002034060020380600208B4B1B78FE
:1035B000042B06D18A4B01221A708A4B5A888A4BF7
:1035C0001A80864B00225A70844B00221A70874B57
:1035D00000221A60864B00221A60864B00221A7065
:1035E0007E4B1B78072B19D07C4B1B78002B15D0FA
:1035F0007A4B5B78012B11D17D4B1B68002B0DDAC8
:103600007C4B1B78002B09D17A4B5B78002B05D1C2
:103610001320FDF7F3FD764B04221A606F4B1B78E5
:10362000072B1CD06D4B1B78002B18D06B4B5B7895
:10363000012B14D16E4B1B68042B10DD6D4B1B78D6
:10364000012B0CD16B4B5B78002B08D10F20FDF7C1
:10365000D5FD674B00221A60664B00221A705F4B43
:103660001B78072B26D05D4B1B78002B22D05B4BA1
:103670005B78022B1ED15E4B1B68002B1AD15D4B71
:103680001B78002B16D15B4B5B78002B12D11620D8
:10369000FDF7B4FD554B1B68012B0BD14F4B00229E
:1036A0005A70524B00221A60514B00221A60514B43
:1036B00000221A70494B1B78072B58D0474B1B78B8
:1036C000002B54D0454B5B78022B50D1484B1B68E4
:1036D000012B4CD1474B1B78002B48D1454B5B78D5
:1036E000002B44D11720FDF789FD404B1B68012BAF
:1036F0003DD13A4B1B78012B07D13F4B01221A7069
:103700003E4B1A883E4B1A8022E0344B1B78022B2A
:1037100007D13C4B01221A70384B5A883A4B1A8019
:1037200016E02E4B1B78032B07D1384B01221A7061
:10373000374B1A88374B1A800AE0284B1B78042B2A
:1037400006D1274B01221A70314B5A88264B1A801A
:10375000224B00225A70214B00221A70234B002268
:103760001A60234B00221A60224B00221A701B4B56
:103770001B78072B78D0194B1B78002B74D0174B74
:103780005B78022B70D11A4B1B68022B6CD1194B42
:103790001B78002B68D1174B5B78002B64D1182065
:1037A000FDF72CFD114B1B68012B5DD10B4B1B78DA
:1037B000012B07D1104B01221A70174B1A88104B9E
:1037C0001A8042E0054B1B78022B27D10D4B0122BA
:1037D0001A70114B5A880C4B1A8036E0C80600202C
:1037E000C706002038060020D6060020BC060020B0
:1037F000B8060020CC060020C40600202C060020BD
:10380000D0060020C5060020D2060020C6060020F3
:1038100030060020D406002034060020884B1B7898
:10382000032B07D1874B01221A70874B1A88874BCD
:103830001A800AE0824B1B78042B06D1844B0122AC
:103840001A70814B5A88834B1A807D4B00225A7024
:103850007B4B00221A70804B00221A607F4B0022A3
:103860001A607F4B00221A70754B1B78072B58D0BB
:10387000734B1B78002B54D0714B5B78022B50D1CB
:10388000764B1B68032B4CD1754B1B78002B48D112
:10389000734B5B78002B44D11920FDF7AFFC6E4BC6
:1038A0001B68012B3DD1664B1B78012B07D16D4B5B
:1038B00001221A706C4B1A886C4B1A8022E0604B04
:1038C0001B78022B07D16A4B01221A70664B5A886B
:1038D000684B1A8016E05A4B1B78032B07D1594BC3
:1038E00001221A70644B1A88584B1A800AE0544B14
:1038F0001B78042B06D1564B01221A705E4B5A8856
:10390000544B1A804E4B00225A704D4B00221A70B5
:10391000514B00221A60514B00221A60504B00227A
:103920001A70474B1B78072B47D0454B1B78002B51
:1039300043D0434B5B78022B3FD1484B1B68042B91
:103940003BD1474B5B78002B37D11A20FDF756FC53
:10395000434B01221A70404B1B68012B2DD1384B71
:103960001B78012B03D13F4B00221A7016E0344B19
:103970001B78022B03D13E4B00221A700EE0304B15
:103980001B78032B03D12F4B00221A7006E02C4B1F
:103990001B78042B02D12E4B00221A70284B0022D8
:1039A0005A70274B00221A702B4B00221A602B4BA7
:1039B00000221A602A4B00221A70214B1B78072B19
:1039C00076D01F4B1B78002B72D01D4B5B78022BDF
:1039D0006ED1224B1B68032B6AD1214B1B78012B24
:1039E00066D11F4B5B78002B62D11B20FDF706FCD4
:1039F000194B1B68012B5BD1114B1B78012B07D195
:103A0000184B01221A70184B1A88184B1A8040E084
:103A10000B4B1B78022B07D1154B01221A70124B4E
:103A20005A88144B1A8034E0054B1B78032B25D1A0
:103A3000044B01221A70104B1A88044B1A8028E09C
:103A4000C8060020C606002038060020D406002044
:103A5000C7060020D6060020BC060020B8060020BD
:103A6000CC060020C40600203C060020D006002022
:103A7000C5060020D206002040060020874B1B7898
:103A8000042B06D1864B01221A70864B5A88864B2E
:103A90001A80824B00225A70804B00221A70834B8E
:103AA00000221A60824B00221A60824B00221A7098
:103AB0007A4B1B78072B5BD0784B1B78002B57D0A9
:103AC000764B5B78022B53D1794B1B68022B4FD17D
:103AD000784B1B78012B4BD1764B5B78002B47D171
:103AE0001C20FDF78BFB734B00221A706F4B1B6879
:103AF000012B3DD1694B1B78012B07D16E4B012265
:103B00001A706E4B1A886E4B1A8022E0634B1B783A
:103B1000022B07D16B4B01221A70684B5A886A4BF3
:103B20001A8016E05D4B1B78032B07D1674B0122EF
:103B30001A70674B1A88674B1A800AE0574B1B783C
:103B4000042B06D1564B01221A70614B5A88564BF2
:103B50001A80524B00225A70504B00221A70534B5D
:103B600000221A60524B00221A60524B00221A7037
:103B70004A4B1B78072B19D0484B1B78002B15D0CC
:103B8000464B5B78022B11D1494B1B68002B0DDA99
:103B9000484B1B78002B09D1464B5B78002B05D195
:103BA0001A20FDF72BFB424B04221A603B4B1B787B
:103BB000072B1CD0394B1B78002B18D0374B5B7868
:103BC000022B14D13A4B1B68042B10DD394B1B78A8
:103BD000012B0CD1374B5B78002B08D11620FDF759
:103BE0000DFB334B00221A60324B00221A702B4B14
:103BF0001B78072B26D0294B1B78002B22D0274B74
:103C00005B78032B1ED12A4B1B68002B1AD1294B42
:103C10001B78002B16D1274B5B78002B12D11D206F
:103C2000FDF7ECFA214B1B68012B0BD11B4B00223B
:103C30005A701E4B00221A601D4B00221A601D4B49
:103C400000221A70154B1B78072B79D0134B1B7869
:103C5000002B75D0114B5B78032B71D1144B1B6873
:103C6000012B6DD1134B1B78002B69D1114B5B7865
:103C7000002B65D11E20FDF7C1FA0C4B1B68012BF0
:103C80005ED1064B1B78012B28D10B4B01221A70F9
:103C9000114B1A880A4B1A8043E000BFC806002067
:103CA000C706002040060020D6060020BC060020E3
:103CB000B8060020CC060020C406002034060020F0
:103CC000D0060020C5060020D2060020C60600202F
:103CD00038060020D4060020440600208C4B1B78B8
:103CE000022B07D18B4B01221A708B4B5A888B4BBE
:103CF0001A8016E0864B1B78032B07D1884B0122D4
:103D00001A70884B1A88884B1A800AE0804B1B78FF
:103D1000042B06D1854B01221A70824B5A88844BA2
:103D20001A807B4B00225A70794B00221A70814B0B
:103D300000221A60804B00221A60804B00221A7009
:103D4000734B1B78072B58D0714B1B78002B54D02A
:103D50006F4B5B78032B50D1774B1B68022B4CD1F8
:103D6000764B1B78002B48D1744B5B78002B44D1E9
:103D70001F20FDF743FA6F4B1B68012B3DD1644BAD
:103D80001B78012B07D16E4B01221A706D4B1A88DC
:103D90006D4B1A8022E05E4B1B78022B07D15D4BE6
:103DA00001221A70674B5A885C4B1A8016E0584BF8
:103DB0001B78032B07D15A4B01221A70634B1A88C8
:103DC000594B1A800AE0524B1B78042B06D1574BF3
:103DD00001221A705D4B5A88554B1A804C4B0022B9
:103DE0005A704B4B00221A70524B00221A60524BF1
:103DF00000221A60514B00221A70454B1B78072B8A
:103E000058D0434B1B78002B54D0414B5B78032B8D
:103E100050D1494B1B68032B4CD1484B1B78002BCE
:103E200048D1464B5B78002B44D12020FDF7E6F9C2
:103E3000404B1B68012B3DD1354B1B78012B07D123
:103E40003F4B01221A70424B1A883F4B1A8022E0E6
:103E50002F4B1B78022B07D12E4B01221A703C4BA3
:103E60005A882E4B1A8016E0294B1B78032B07D15A
:103E70002B4B01221A70374B1A882B4B1A800AE001
:103E8000234B1B78042B06D1284B01221A70314B8F
:103E90005A88274B1A801E4B00225A701C4B002256
:103EA0001A70244B00221A60234B00221A60234B05
:103EB00000221A70164B1B78072B6BD0144B1B7803
:103EC000002B67D0124B5B78032B63D11A4B1B6816
:103ED000042B5FD1194B5B78002B5BD12120FDF7C0
:103EE0008DF9164B01221A70124B1B68012B51D110
:103EF000074B1B78012B03D1114B00221A703AE0BB
:103F0000034B1B78022B27D1024B00221A7032E0A0
:103F1000C8060020C506002044060020D206002066
:103F2000C606002048060020D4060020C706002050
:103F3000D6060020BC060020B8060020CC060020D3
:103F4000C40600204C060020D006002050060020A9
:103F50005406002058060020604B1B78032B03D129
:103F60005F4B00221A7006E05C4B1B78042B02D1D9
:103F70005C4B00221A70594B00225A70574B00229A
:103F80001A70594B00221A60584B00221A60584B85
:103F900000221A70514B1B78072B58D04F4B1B78BF
:103FA000002B54D04D4B5B78032B50D14F4B1B68EB
:103FB000032B4CD14E4B1B78012B48D14C4B5B78DB
:103FC000002B44D12220FDF719F9474B1B68012B28
:103FD0003DD1424B1B78012B07D1464B01221A7071
:103FE000454B1A88454B1A8022E03C4B1B78022B2C
:103FF00007D1434B01221A703F4B5A88414B1A801C
:1040000016E0364B1B78032B07D1354B01221A7073
:104010003D4B1A883D4B1A800AE0304B1B78042B2D
:1040200006D1304B01221A70374B5A88384B1A8010
:104030002A4B00225A70294B00221A702A4B002268
:104040001A602A4B00221A60294B00221A70234B57
:104050001B78072B7CD0214B1B78002B78D01F4B73
:104060005B78032B74D1214B1B68022B70D1204B42
:104070001B78012B6CD11E4B5B78002B68D1232061
:10408000FDF7BCF81A4B00221A70174B1B68012B66
:104090005ED1124B1B78012B07D1164B01221A70EF
:1040A0001C4B1A88154B1A8043E00C4B1B78022BD3
:1040B00007D1134B01221A70164B5A88114B1A80E4
:1040C00037E0064B1B78032B28D1054B01221A70D1
:1040D000114B1A880D4B1A802BE000BFC806002038
:1040E000C6060020C7060020BC060020B806002037
:1040F000CC060020C406002054060020D006002074
:10410000C5060020D206002058060020D406002054
:10411000D60600204C060020500600208D4B1B7850
:10412000042B06D18C4B01221A708C4B5A888C4B75
:104130001A80884B00225A70864B00221A70894BD5
:1041400000221A60884B00221A60884B00221A70E5
:10415000804B1B78072B19D07E4B1B78002B15D07A
:104160007C4B5B78032B11D17F4B1B68002B0DDA46
:104170007E4B1B78002B09D17C4B5B78002B05D143
:104180002120FDF73BF8784B04221A60714B1B7815
:10419000072B1CD06F4B1B78002B18D06D4B5B7816
:1041A000032B14D1704B1B68042B10DD6F4B1B7855
:1041B000012B0CD16D4B5B78002B08D11D20FDF736
:1041C0001DF8694B00221A60684B00221A70614B7F
:1041D0001B78072B26D15F4B1B78002B22D05D4B21
:1041E0005B78002B1ED1604B1B68002B1AD15F4BF4
:1041F0001B78002B16D15D4B5B78002B12D124204D
:10420000FCF7FCFF574B1B68012B0BD1514B0022D5
:104210001A70544B00221A60534B00221A60534B01
:1042200000221A704B4B1B78072B26D1494B1B7869
:10423000002B22D0474B5B78002B1ED14A4B1B68CA
:10424000012B1AD1494B1B78002B16D1474B5B78B9
:10425000002B12D12520FCF7D1FF424B1B68012B0C
:104260000BD13C4B04225A703E4B00221A603E4B4D
:1042700000221A603D4B00221A70364B1B78072B28
:1042800026D1344B1B78002B22D0324B5B78002B8D
:104290001ED1354B1B68022B1AD1344B1B78002BD7
:1042A00016D1324B5B78002B12D12620FCF7A6FFEB
:1042B0002C4B1B68012B0BD1264B05225A70294B26
:1042C00000221A60284B00221A60284B00221A7024
:1042D000204B1B78072B25D11E4B1B78002B21D0A0
:1042E0001C4B5B78002B1DD11F4B1B68032B19D176
:1042F0001E4B5B78002B15D12720FCF77FFF1B4B53
:1043000001221A70174B1B68012B0BD1114B06228F
:104310005A70144B00221A60134B00221A60134B80
:1043200000221A700B4B1B78072B35D1094B1B78D9
:10433000002B31D0074B5B78002B2DD10A4B1B682B
:10434000022B29D1094B1B78012B25D1074B5B7818
:10435000002B0DE0C8060020C706002050060020F4
:10436000D6060020BC060020B8060020CC0600209F
:1043700012D12820FCF742FF8C4B1B68012B0BD17C
:104380008B4B05225A70894B00221A60894B002200
:104390001A60894B00221A70854B1B78072B29D194
:1043A000834B1B78002B25D0814B5B78002B21D1D0
:1043B000804B1B68012B1DD17F4B1B78012B19D122
:1043C0007D4B5B78002B15D12920FCF717FF7A4B2A
:1043D00000221A70754B1B68012B0BD1744B042201
:1043E0005A70724B00221A60724B00221A60724B94
:1043F00000221A706E4B1B78072B19D16C4B1B785F
:10440000002B15D06A4B5B78002B11D1694B1B68D0
:10441000002B0DDA684B1B78002B09D1664B5B78BB
:10442000002B05D12720FCF7E9FE624B03221A601E
:104430005F4B1B78072B1CD15D4B1B78002B18D0D2
:104440005B4B5B78002B14D15A4B1B68032B10DDA0
:10445000594B1B78012B0CD1574B5B78002B08D1A3
:104460002420FCF7CBFE534B00221A60524B002253
:104470001A704F4B1B78072B2AD14D4B1B78002B02
:1044800026D04B4B5B78042B22D1494B9B78002BD9
:104490001ED1484B1B68002B1AD1474B1B78002BB1
:1044A00016D1454B5B78002B12D12A20FCF7A6FED3
:1044B0003E4B1B68012B0BD13D4B00225A703B4BEE
:1044C00000221A603B4B00221A603B4B00221A70FC
:1044D000374B1B78072B2AD1354B1B78002B26D066
:1044E000334B5B78042B22D1314B9B78002B1ED1B0
:1044F000304B1B68012B1AD12F4B1B78002B16D188
:104500002D4B5B78002B12D12B20FCF777FE274B2D
:104510001B68012B0BD1264B01229A70234B0022E2
:104520001A60244B00221A60234B00221A70204B81
:104530001B78072B2AD11E4B1B78002B26D01C4B37
:104540005B78042B22D11A4B9B78002B1ED1194B80
:104550001B68022B1AD1184B1B78002B16D1164B57
:104560005B78002B12D12C20FCF748FE0F4B1B6808
:10457000012B0BD10E4B02229A700C4B00221A60B9
:104580000C4B00221A600C4B00221A70084B1B784F
:10459000072B32D1064B1B78002B2ED0044B5B78B7
:1045A000042B2AD1024B9B78002B07E0BC0600208D
:1045B000C8060020B8060020CC0600201DD18D4B77
:1045C0001B68032B19D18C4B5B78002B15D12D2048
:1045D000FCF714FE884B01221A70884B1B68012BD4
:1045E0000BD1874B03229A70844B00221A60814BB7
:1045F00000221A60804B00221A70814B1B78072B17
:104600002AD17F4B1B78002B26D07D4B5B78042B67
:1046100022D17B4B9B78002B1ED1764B1B68022B43
:104620001AD1754B1B78012B16D1734B5B78002B7D
:1046300012D12E20FCF7E2FD704B1B68012B0BD131
:104640006F4B02229A706D4B00221A60694B002258
:104650001A60694B00221A70694B1B78072B2DD109
:10466000674B1B78002B29D0654B5B78042B25D139
:10467000634B9B78002B21D15E4B1B68012B1DD116
:104680005D4B1B78012B19D15B4B5B78002B15D14F
:104690002F20FCF7B3FD584B00221A70574B1B68B4
:1046A000012B0BD1564B01229A70544B00221A60F9
:1046B000504B00221A60504B00221A70504B1B784E
:1046C000072B1DD14E4B1B78002B19D04C4B5B7820
:1046D000042B15D14A4B9B78002B11D1454B1B68FD
:1046E000002B0DDA444B1B78002B09D1424B5B7831
:1046F000002B05D12D20FCF781FD3E4B03221A60D3
:104700003F4B1B78072B20D13D4B1B78002B1CD037
:104710003B4B5B78042B18D1394B9B78002B14D181
:10472000344B1B68032B10DD334B1B78012B0CD152
:10473000314B5B78002B08D12A20FCF75FFD2D4B15
:1047400000221A602C4B00221A702D4B1B78072B6D
:1047500026D12B4B1B78002B22D0294B5B78052BC5
:104760001ED1244B1B68002B1AD1234B1B78002B26
:1047700016D1214B5B78002B12D13020FCF73EFD87
:104780001E4B1B68012B0BD11D4B00225A701B4B7B
:1047900000221A60174B00221A60174B00221A7071
:1047A000174B1B78072B32D1154B1B78002B2ED0C3
:1047B000134B5B78052B2AD10E4B1B68012B26D19E
:1047C0000D4B1B78002B22D10B4B5B78002B1ED19D
:1047D0003120FCF713FD094B1B68012B17D1094B46
:1047E00001221A70054B00221A60024B00221A6047
:1047F0000AE000BFB8060020CC060020BC0600205E
:10480000C8060020AD0600208D4B00221A708D4B8B
:104810001B78072B26D18B4B1B78002B22D0894B82
:104820005B78052B1ED1884B1B68022B1AD1844B59
:104830001B78002B16D1824B5B78002B12D13220D3
:10484000FCF7DCFC814B1B68012B0BD1804B022257
:104850001A707E4B00221A607B4B00221A60784B44
:1048600000221A70774B1B78072B26D1754B1B78CB
:10487000002B22D0734B5B78052B1ED1724B1B682B
:10488000032B1AD16E4B1B78002B16D16C4B5B7827
:10489000002B12D13320FCF7B1FC6C4B1B68012BB1
:1048A0000BD16B4B03221A70684B00221A60664BC7
:1048B00000221A60624B00221A70624B1B78072B91
:1048C00025D1604B1B78002B21D05E4B5B78052BEC
:1048D0001DD15D4B1B68042B19D1594B5B78002B04
:1048E00015D13420FCF78AFC554B01221A70574B26
:1048F0001B68012B0BD1564B04221A70534B00221C
:104900001A60514B00221A604D4B00221A704D4B19
:104910001B78072B26D14B4B1B78002B22D0494B01
:104920005B78052B1ED1484B1B68032B1AD1444BD7
:104930001B78012B16D1424B5B78002B12D135200E
:10494000FCF75CFC414B1B68012B0BD1404B032255
:104950001A703E4B00221A603B4B00221A60384B03
:1049600000221A70374B1B78072B29D1354B1B7847
:10497000002B25D0334B5B78052B21D1324B1B68A4
:10498000022B1DD12E4B1B78012B19D12C4B5B78A0
:10499000002B15D13620FCF731FC294B00221A7070
:1049A0002A4B1B68012B0BD1294B02221A70274B73
:1049B00000221A60244B00221A60214B00221A7038
:1049C000204B1B78072B19D11E4B1B78002B15D0C1
:1049D0001C4B5B78052B11D11B4B1B68002B0DDA90
:1049E000174B1B78002B09D1154B5B78002B05D199
:1049F0003420FCF703FC144B04221A60114B1B7883
:104A0000072B27D10F4B1B78002B23D00D4B5B7846
:104A1000052B1FD10C4B1B68042B1BDD084B1B788F
:104A2000012B17D1064B5B78002B13D13020FCF7FC
:104A3000E5FB054B00221A60014B00221A7009E0C9
:104A4000CC060020C8060020B8060020BC060020C6
:104A5000AD0600202E4B1B78072B26D12C4B1B7844
:104A6000002B22D02A4B5B78062B1ED1294B1B68CA
:104A7000002B1AD1284B1B78002B16D1264B5B78C4
:104A8000002B12D13820FCF7B9FB244B1B68012BFB
:104A90000BD11F4B00225A70204B00221A601D4B75
:104AA00000221A601C4B00221A70194B1B78072B2E
:104AB0003BD1174B1B78002B37D0154B5B78062B5F
:104AC00033D1144B1B68012B2FD1134B1B78002BB8
:104AD0002BD1114B5B78002B27D13920FCF78EFBB3
:104AE0000E4B1B68012B20D10C4B00221A600A4B85
:104AF00000221A7013210A4804F09EFF03464FF269
:104B0000F00293420ED1024B0A221A700DE000BF50
:104B1000C8060020B8060020CC060020BC060020F5
:104B2000F4000020954B0B221A70944B1B78072B36
:104B300043D1924B1B78002B3FD0904B5B78062BD8
:104B40003BD18F4B1B68022B37D18E4B1B78002B30
:104B500033D18C4B5B78002B2FD13A20FCF74EFBE6
:104B6000894B1B68012B28D1874B00221A60854B8B
:104B700000221A70854B1B78002B0CBF01230023E9
:104B8000DBB21A46814B1A70804B1B781A46804B59
:104B90001B781B021A437F4B1B781B041A437E4B66
:104BA0001B781B0613431A467C4B1A607B4B1B6811
:104BB0001A4602217A4804F025FF704B1B78072B18
:104BC00043D16E4B1B78002B3FD06C4B5B78062B90
:104BD0003BD16B4B1B68032B37D16A4B1B78002BE7
:104BE00033D1684B5B78002B2FD13B20FCF706FBC1
:104BF000654B1B68012B28D1634B00221A60614B67
:104C000000221A70624B1B78002B0CBF012300237B
:104C1000DBB21A465E4B1A705C4B1B781A465C4B33
:104C20001B781B021A435B4B1B781B041A435A4B1D
:104C30001B781B0613431A46584B1A60574B1B68C8
:104C40001A460221564804F0DDFE4C4B1B78072B18
:104C500043D14A4B1B78002B3FD0484B5B78062B47
:104C60003BD1474B1B68042B37D1464B1B78002B9D
:104C700033D1444B5B78002B2FD13C20FCF7BEFA9C
:104C8000414B1B68012B28D13F4B00221A603D4B42
:104C900000221A703F4B1B78002B0CBF012300230E
:104CA000DBB21A463B4B1A70384B1B781A46384B0E
:104CB0001B781B021A43374B1B781B041A43364BD5
:104CC0001B781B0613431A46344B1A60334B1B6880
:104CD0001A460221324804F095FE284B1B78072B18
:104CE00042D1264B1B78002B3ED0244B5B78062B01
:104CF0003AD1234B1B68052B36D1224B5B78002B16
:104D000032D13D20FCF77AFA1E4B01221A701E4B5D
:104D10001B68012B28D11C4B00221A60194B002262
:104D20001A701D4B1B78002B0CBF01230023DBB234
:104D30001A46194B1A70154B1B781A46144B1B78E0
:104D40001B021A43134B1B781B041A43124B1B788C
:104D50001B0613431A46114B1A60104B1B681A4668
:104D600002210F4804F04EFE044B1B78072B59D14B
:104D7000024B1B78002B55D014E000BFC806002062
:104D8000B8060020CC060020BC060020AE0600209D
:104D9000AF060020B0060020B1060020A8060020C3
:104DA000F4000020914B5B78062B3BD1904B1B68A5
:104DB000042B37D18F4B1B78012B33D18D4B5B7874
:104DC000002B2FD13E20FCF719FA8B4B1B68012BCF
:104DD00028D1894B00221A60864B00221A70874B1B
:104DE0001B78002B0CBF01230023DBB21A46834B38
:104DF0001A70834B1B781A46824B1B781B021A438E
:104E00007E4B1B781B041A437F4B1B781B061343F6
:104E10001A467E4B1A607D4B1B681A4602217C485D
:104E200004F0F0FD714B1B78072B43D16F4B1B78BF
:104E3000002B3FD06D4B5B78062B3BD16C4B1B6836
:104E4000032B37D16B4B1B78012B33D1694B5B782C
:104E5000002B2FD13F20FCF7D1F9674B1B68012BAA
:104E600028D1654B00221A60624B00221A70654BF4
:104E70001B78002B0CBF01230023DBB21A46614BC9
:104E80001A705F4B1B781A465E4B1B781B021A4345
:104E90005A4B1B781B041A435B4B1B781B061343AE
:104EA0001A465A4B1A60594B1B681A460221584839
:104EB00004F0A8FD4D4B1B78072B46D14B4B1B78BC
:104EC000002B42D0494B5B78062B3ED1484B1B68E8
:104ED000022B3AD1474B1B78012B36D1454B5B78DF
:104EE000002B32D14020FCF789F9424B00221A7086
:104EF000414B1B68012B28D13F4B00221A603D4BD0
:104F000000221A703E4B1B78002B0CBF012300239C
:104F1000DBB21A463A4B1A70394B1B781A46394B9A
:104F20001B781B021A43354B1B781B041A43364B64
:104F30001B781B0613431A46344B1A60334B1B680D
:104F40001A460221324804F05DFD284B1B78072BDE
:104F500019D1264B1B78002B15D0244B5B78062BE0
:104F600011D1234B1B68002B0DDA224B1B78002B31
:104F700009D1204B5B78002B05D13D20FCF73EF991
:104F80001B4B05221A60194B1B78072B1CD1174BA2
:104F90001B78002B18D0154B5B78062B14D1144BC3
:104FA0001B68052B10DD134B1B78012B0CD1114B0B
:104FB0005B78002B08D13820FCF720F90C4B00223D
:104FC0001A600C4B00221A70084B1B78072B6CD10F
:104FD000064B1B78002B68D0044B5B78042B64D104
:104FE000034B1B68002B60D114E000BFC8060020F3
:104FF000B8060020CC060020BC060020B006002029
:10500000AE060020AF060020B1060020A806002052
:10501000F4000020904B1B78002B46D18E4B5B7820
:10502000002B42D18D4B9B78012B07D08B4B9B786B
:10503000022B03D0894B9B78032B36D1874B9B786F
:10504000012B08D1864B1B781A46864B1B781946D4
:105050001046FCF7BDF8814B9B78022B08D1824BA0
:105060001B781A46804B5B7819461046FCF7B0F85F
:105070007A4B9B78032B08D17B4B9B781A467A4B53
:10508000DB7819461046FCF7A3F84120FCF7B6F888
:10509000764B1B68012B08D1704B00229A70734B22
:1050A00000221A60724B00221A606C4B1B78072B8F
:1050B00071D16A4B1B78002B6DD0684B5B78042B49
:1050C00069D16B4B1B68012B65D1634B1B78002B9F
:1050D00061D1614B5B78002B5DD1604B9B78012BDC
:1050E00007D05E4B9B78022B03D05C4B9B78032B45
:1050F00051D15A4B9B78012B08D1594B1B781A463A
:10510000584B1B7819461046FCF762F8534B9B78B6
:10511000022B08D1544B1B781A46534B5B78194627
:105120001046FCF755F84D4B9B78032B08D14E4B9E
:105130009B781A464C4BDB7819461046FCF748F82A
:105140004A4B1B68012B23D1434B01225A70474B1A
:1051500000221A60464B00221A60404B9B78012BBC
:1051600004D13F4B1B781A46414B1A603B4B9B784E
:10517000022B04D13C4B1B781A463D4B1A60374B2F
:105180009B78032B04D1384B9B781A46384B1A6016
:105190004220FCF733F8314B1B78072B40F082801C
:1051A0002E4B1B78002B7DD02C4B5B78042B79D1B8
:1051B0002F4B1B68022B75D1274B1B78002B71D10D
:1051C000254B5B78002B6DD1244B9B78012B07D0AE
:1051D000224B9B78022B03D0204B9B78032B61D171
:1051E0001E4B9B78012B08D11D4B1B781A461D4B7B
:1051F0001B7819461046FBF7EBFF184B9B78022BE8
:1052000008D1194B1B781A46174B5B781946104684
:10521000FBF7DEFF114B9B78032B08D1124B9B78D9
:105220001A46114BDB7819461046FBF7D1FF0F4B9E
:105230001B68012B33D1084B02225A700B4B002202
:105240001A600B4B00221A60044B9B78012B14D17F
:10525000044B1B780EE000BFCC060020C8060020DF
:105260009C0600209D060020A4060020BC0600200D
:10527000B80600201A46944B1A60944B9B78022B78
:1052800004D1934B5B781A468F4B1A608F4B9B78F7
:10529000032B04D18E4BDB781A468B4B1A604320CC
:1052A000FBF7ACFF894B1B78072B4CD1874B1B7846
:1052B000002B48D0854B5B78042B44D1824B1B6874
:1052C000002B40DA834B1B78002B3CD1814B5B7861
:1052D000002B38D17D4B9B78012B07D07B4B9B78E3
:1052E000022B03D0794B9B78032B2CD1774B9B78E7
:1052F000012B08D1784B1B781A46784B1B7819463E
:105300001046FBF765FF714B9B78022B08D1704B61
:105310001B781A466E4B5B7819461046FBF758FF10
:105320006A4B9B78032B08D1694B9B781A46684BD4
:10533000DB7819461046FBF74BFF4320FBF75EFF77
:10534000614B02221A60614B1B78072B4CD15F4BDB
:105350001B78002B48D05D4B5B78042B44D15A4B13
:105360001B68022B40DD5B4B1B78002B3CD1594B5B
:105370005B78002B38D1554B9B78012B07D0534BD2
:105380009B78022B03D0514B9B78032B2CD14F4B96
:105390009B78012B08D1504B1B781A464F4B1B783A
:1053A00019461046FBF714FF484B9B78022B08D197
:1053B000474B1B781A46464B5B7819461046FBF75D
:1053C00007FF424B9B78032B08D1414B9B781A4631
:1053D0003F4BDB7819461046FBF7FAFE4120FBF7FE
:1053E0000DFF394B00221A603A4B5B78012B40F0DD
:1053F000B680354B1B68172B02DD334B00221A6039
:10540000314B1B68002B02DA2F4B17221A602F4BEF
:105410009B78012B28D12C4B1B68DAB2304B1A70C9
:105420002F4B1B781A462E4B5B7819461046FBF71C
:10543000CFFEFBF7B1FA2A4B1B781A46284B5B7854
:105440001B021A43264B9B781B041A43244BDB7820
:105450001B0613431A46234B1A60224B1B681A463D
:105460000021214804F0CEFA184B9B78022B26D15C
:10547000154B1B68DAB2164B1A70154B1B781A467F
:10548000134B5B7819461046FBF7A2FE104B1B78B6
:105490001A460F4B5B781B021A430D4B9B781B047B
:1054A0001A430B4BDB781B0613431A460F4B1A604B
:1054B0000E4B1B681A4601210B4804F0A3FA034B5C
:1054C0009B78032B3BD113E0B8060020C8060020D0
:1054D000A4060020CC0600209C0600209D0600208B
:1054E000A006002094060020F4000020980600206A
:1054F000A24B1B68DAB2A24B9A70A14B9B781A465A
:105500009F4BDB7819461046FBF762FE9C4B1B78DD
:105510001A469B4B5B781B021A43994B9B781B04E2
:105520001A43974BDB781B0613431A46954B1A60B8
:10553000944B1B681A460121934804F063FA4220F9
:10554000FBF75CFE914B1B68012B08D1904B0022AE
:105550005A708E4B00221A60884B00221A608C4BC6
:105560005B78022B40F0A180844B1B683B2B02DD53
:10557000824B00221A60814B1B68002B02DA7F4BA2
:105580003B221A60834B9B78012B28D17B4B1B68F5
:10559000DAB2814B5A70804B1B781A467E4B5B788F
:1055A00019461046FBF714FEFBF7F6F97A4B1B7809
:1055B0001A46794B5B781B021A43774B9B781B0486
:1055C0001A43754BDB781B0613431A46734B1A605C
:1055D000724B1B681A4600216B4804F013FA6D4B9E
:1055E0009B78022B26D1654B1B68DAB2644B5A704C
:1055F000634B1B781A46624B5B7819461046FBF7E3
:10560000E7FD5F4B1B781A465D4B5B781B021A4324
:105610005B4B9B781B041A43594BDB781B061343E7
:105620001A46584B1A60574B1B681A4601215648B8
:1056300004F0E8F9574B9B78032B26D14F4B1B689E
:10564000DAB24F4BDA704E4B9B781A464C4BDB78F4
:1056500019461046FBF7BCFD494B1B781A46484BD0
:105660005B781B021A43464B9B781B041A43444B3E
:10567000DB781B0613431A46424B1A60414B1B68EA
:105680001A460121404804F0BDF94320FBF7B6FD5E
:105690003E4B1B68012B08D13D4B00225A703B4BFF
:1056A00000221A60354B00221A603A4B1B780A2BF5
:1056B00027D13B4B01221A70344B1B68012B20D1A0
:1056C000344B00221A70334B00225A70304B0022A8
:1056D0005A702E4B00221A60284B00221A60304B61
:1056E00000221A702A4B0022DA702E4B00221A7008
:1056F0002D4B00221A702D4B00221A702C4B0022C9
:105700001A70244B1B780B2B72D14520FBF776FDCA
:10571000244B01221A70244B01221A70234B0122C0
:105720001A70234B01221A70224B4FF6FF721A8017
:10573000204B4FF6FF725A801F4B4FF6FF721A80B4
:105740001D4B4FF6FF725A801C4B00221A801C4BD7
:1057500000221A801B4B00221A801B4B00221A8049
:105760000A4B1B68012B43D10A4B00221A70094BCC
:1057700000225A70064B00225A7027E0B80600201B
:10578000A406002098060020F4000020BC0600209B
:10579000CC060020C8060020A006002094060020A9
:1057A000AC060020C4060020C5060020C606002066
:1057B000C70600202406002028060020D00600206E
:1057C000D2060020D4060020D6060020094B002275
:1057D0001A60094B00221A60084B00221A70084B0D
:1057E00000221A70074B00221A70074B00221A7011
:1057F00080BD00BFBC060020B8060020C406002003
:10580000C5060020C6060020C706002080B582B06D
:1058100000AF00F041FC44F6206301227821584893
:1058200002F086FD0346002B01D00023A4E040F6E1
:10583000C4137B6002E07B68013B7B607B68002BCC
:10584000F9D1AE220021782000F098FC202200211E
:10585000782000F093FC10220021782000F08EFCCC
:10586000B0220021782000F089FCC8220021782095
:1058700000F084FC00220021782000F07FFC102240
:105880000021782000F07AFC40220021782000F0EE
:1058900075FC81220021782000F070FCFF2200219D
:1058A000782000F06BFCA1220021782000F066FC3B
:1058B000A6220021782000F061FCA8220021782097
:1058C00000F05CFC3F220021782000F057FCA4226D
:1058D0000021782000F052FCD3220021782000F033
:1058E0004DFC00220021782000F048FCD522002148
:1058F000782000F043FCF0220021782000F03EFCEC
:10590000D9220021782000F039FC222200217820C1
:1059100000F034FCDA220021782000F02FFC122263
:105920000021782000F02AFCDB220021782000F002
:1059300025FC20220021782000F020FC8D2200216F
:10594000782000F01BFC14220021782000F016FCC7
:10595000AF220021782000F011FC002000F046F872
:1059600000F012F8074B00221A80064B00225A80E2
:10597000044B01225A71012318460837BD4680BDE9
:10598000A00000201806002080B582B000AF0023E0
:10599000FB7121E0FB79503BDBB21A4600217820F5
:1059A00000F0ECFB00220021782000F0E7FB102241
:1059B0000021782000F0E2FBFA7913465B011344E2
:1059C0009B001A46084B1A4484234021782000F09B
:1059D00079FBFB790133FB71FB79072BDAD900BF27
:1059E00000BF0837BD4680BDF801002080B582B0F9
:1059F00000AF0346FB71FB79002B01D1002300E0CF
:105A0000FF234FF484621946034804F051FB00BFA2
:105A10000837BD4680BD00BFF801002090B482B0B9
:105A200000AF0346FB800B46BB801346FB70FB8830
:105A3000832B54D8BB883F2B51D82B4B1B79002B81
:105A400006D0FB78002B0CBF01230023DBB2FB70D8
:105A5000FB78012B20D1FA88BB88DB0898B201467D
:105A60000B465B010B449B001344204AD35C5AB2A3
:105A7000BB8803F00703012101FA03F35BB2134370
:105A80005CB2FA8801460B465B010B449B00134451
:105A9000E1B2164AD15423E0FA88BB88DB0898B2F9
:105AA00001460B465B010B449B0013440F4AD35C39
:105AB0005AB2BB8803F00703012101FA03F35BB27A
:105AC000DB435BB213405CB2FA8801460B465B01D4
:105AD0000B449B001344E1B2044AD15400E000BFE0
