:020000040800F2
:10000000000002205D7C0008156800081B680008DD
:1000100021680008276800082D680008000000001B
:10002000000000000000000000000000336800082D
:1000300041680008000000004F6800085D68000883
:10004000AD7C0008AD7C0008AD7C0008AD7C0008EC
:10005000AD7C0008AD7C0008AD7C0008AD7C0008DC
:10006000AD7C0008AD7C0008AD7C0008AD7C0008CC
:10007000AD7C0008AD7C0008AD7C0008AD7C0008BC
:10008000AD7C0008AD7C0008AD7C000800000000DD
:10009000000000000000000000000000AD7C00082F
:1000A000AD7C0008AD7C0008AD7C0008AD7C00088C
:1000B000AD7C0008AD7C0008AD7C0008AD7C00087C
:1000C000AD7C0008AD7C0008AD7C0008AD7C00086C
:1000D000AD7C0008AD7C0008AD7C0008000000008D
:1000E00069680008AD7C0008AD7C000800000000D5
:1000F000000000000000000000000000AD7C0008CF
:1001000000000000AD7C0008AD7C0008AD7C00085C
:1001100000000000000000000000000000000000DF
:10012000AD7C0008AD7C0008AD7C0008AD7C00080B
:10013000AD7C00080000000000000000000000008E
:10014000000000000000000000000000AD7C00087E
:10015000AD7C0008AD7C0008AD7C0008AD7C0008DB
:10016000AD7C0008AD7C000800000000000000002D
:10017000000000000000000000000000000000007F
:1001800000000000AD7C000800000000000000003E
:08019000AD7C0008AD7C000805
:1001A00010B5054C237833B9044B13B10448AFF3B1
:1001B00000800123237010BD7C000020000000009F
:1001C0008CAE000808B5034B1BB103490348AFF3DD
:1001D000008008BD00000000800000208CAE0008F8
:1001E00001F0FF01102A2BDB10F0070F08D010F8E8
:1001F000013B013A8B422DD010F0070F42B3F6D1EC
:10020000F0B441EA012141EA014122F007047FF004
:1002100000070023F0E80256083C85EA010586EA5B
:10022000010685FA47F5A3FA87F586FA47F6A5FA97
:1002300087F68EB9EED1F0BC01F0FF0102F00702A3
:1002400032B110F8013B013A83EA010313B1F8D14E
:100250000020704701387047002D06BF354603382F
:10026000073815F0010F07D1013015F4807F02BF68
:10027000013015F4C03F0130F0BC0138704700BFB9
:1002800053B94AB9002908BF00281CBF4FF0FF31FD
:100290004FF0FF3000F074B9ADF1080C6DE904CEF9
:1002A00000F006F8DDF804E0DDE9022304B0704751
:1002B0002DE9F047089D04468E46002B4DD18A4219
:1002C000944669D9B2FA82F252B101FA02F3C2F14C
:1002D000200120FA01F10CFA02FC41EA030E9440DD
:1002E0004FEA1C48210CBEFBF8F61FFA8CF708FBFE
:1002F00016E341EA034306FB07F199420AD91CEBD6
:10030000030306F1FF3080F01F81994240F21C8107
:10031000023E63445B1AA4B2B3FBF8F008FB10334F
:1003200044EA034400FB07F7A7420AD91CEB040484
:1003300000F1FF3380F00A81A74240F20781644454
:10034000023840EA0640E41B00261DB1D4400023D9
:10035000C5E900433146BDE8F0878B4209D9002D3D
:1003600000F0EF800026C5E9000130463146BDE8C7
:10037000F087B3FA83F6002E4AD18B4202D3824231
:1003800000F2F980841A61EB030301209E46002DE0
:10039000E0D0C5E9004EDDE702B9FFDEB2FA82F235
:1003A000002A40F09280A1EB0C014FEA1C471FFA93
:1003B0008CFE0126200CB1FBF7F307FB131140EA7A
:1003C00001410EFB03F0884208D91CEB010103F147
:1003D000FF3802D2884200F2CB804346091AA4B209
:1003E000B1FBF7F007FB101144EA01440EFB00FEDD
:1003F000A64508D91CEB040400F1FF3102D2A64542
:1004000000F2BB800846A4EB0E0440EA03409CE7E0
:10041000C6F12007B34022FA07FC4CEA030C20FA8D
:1004200007F401FA06F31C43F9404FEA1C4900FAAD
:1004300006F3B1FBF9F8200C1FFA8CFE09FB18112A
:1004400040EA014108FB0EF0884202FA06F20BD99D
:100450001CEB010108F1FF3A80F08880884240F2ED
:100460008580A8F102086144091AA4B2B1FBF9F031
:1004700009FB101144EA014100FB0EFE8E4508D92C
:100480001CEB010100F1FF346CD28E456AD90238B1
:10049000614440EA0840A0FB0294A1EB0E01A14296
:1004A000C846A64656D353D05DB1B3EB080261EB04
:1004B0000E0101FA07F722FA06F3F1401F43C5E9DE
:1004C000007100263146BDE8F087C2F12003D84014
:1004D0000CFA02FC21FA03F3914001434FEA1C4756
:1004E0001FFA8CFEB3FBF7F007FB10360B0C43EA48
:1004F000064300FB0EF69E4204FA02F408D91CEBF8
:10050000030300F1FF382FD29E422DD902386344F5
:100510009B1B89B2B3FBF7F607FB163341EA034195
:1005200006FB0EF38B4208D91CEB010106F1FF38E4
:1005300016D28B4214D9023E6144C91A46EA0046DB
:1005400038E72E46284605E70646E3E61846F8E66D
:100550004B45A9D2B9EB020864EB0C0E0138A3E7B6
:100560004646EAE7204694E74046D1E7D0467BE797
:10057000023B614432E7304609E76444023842E70F
:10058000704700BF80B500AFDCE27E4B1B78022BCA
:100590000ED17D4B1A887D4B1B889A4208D17B4B2C
:1005A0001B8864339AB2794B1A80764B00221A70FA
:1005B000754B1A88754B1B889A4207D2744B1A7870
:1005C000744B1A70744B00221A7027E06E4B1A8815
:1005D0006E4B1B889A421ED96D4B1B78002B0CBFAB
:1005E00001230023DBB21A466A4B1A706A4B0122C0
:1005F0001A70644B1B78012B10D1644B1B88002BA5
:100600000CD0624B1B88643B9AB2604B1A805D4BE6
:1006100002221A7002E0614B00221A70594B5B787B
:10062000022B0ED1584B5A885D4B1B889A4208D139
:100630005B4B1B8864339AB2594B1A80514B002292
:100640005A70514B5A88564B1B889A4207D2554BC9
:100650001A78554B1A70554B00221A7027E04A4BF6
:100660005A884F4B1B889A421ED94E4B1B78002B41
:100670000CBF01230023DBB21A464B4B1A704B4BC5
:1006800001221A703F4B5B78012B10D1444B1B8821
:10069000002B0CD0424B1B88643B9AB2404B1A8013
:1006A000384B02225A7002E0414B00221A70354B3F
:1006B0009B78022B0ED13F4B1A883F4B1B889A42E6
:1006C00008D13D4B1B8864339AB23B4B1A802D4BAB
:1006D00000229A70374B1A88374B1B889A4207D2F0
:1006E000364B1A78364B1A70364B00221A7027E0B8
:1006F000304B1A88304B1B889A421ED92F4B1B78DF
:10070000002B0CBF01230023DBB21A462C4B1A70BE
:100710002C4B01221A701B4B9B78012B10D1264BBE
:100720001B88002B0CD0244B1B88643B9AB2224BB5
:100730001A80144B02229A7002E0234B00221A7096
:10074000104BDB78022B0ED11A4B5A881F4B1B889B
:100750009A4208D11D4B1B8864339AB21B4B1A80F6
:10076000084B0022DA70134B5A88184B1B889A42A8
:1007700034D2174B1A78174B1A70174B00221A7085
:1007800054E000BF580600206006002098060020B4
:100790003E060020980000209C0000204C0600200F
:1007A0009A0600203F060020990000209D000020AE
:1007B0004D060020640600209C0600204006002014
:1007C0009A0000209E0000204E0600209E06002079
:1007D000410600209B0000209F0000208C4B5A887F
:1007E0008C4B1B889A421ED98B4B1B78002B0CBF5D
:1007F00001230023DBB21A46884B1A70884B012272
:100800001A70884BDB78012B10D1824B1B88002B90
:100810000CD0804B1B88643B9AB27E4B1A80814B74
:100820000222DA7002E0804B00221A707F4B1B78A4
:100830001A4610217E4807F07FFD7E4B1B781A4632
:100840004FF480617A4807F077FD7B4B1B781A469E
:100850004FF48071794807F06FFD704B1B781A4692
:100860002021764807F068FD322000F01DFA0022B2
:100870004FF40071714807F05FFD714B1B78012B3D
:1008800034D101224FF480616C4807F055FD6D4B67
:100890001B78002B13D16C4B1B780133DAB26A4BF7
:1008A0001A70694B1B78142B20D1684B1B880133BD
:1008B0009AB2664B1A80644B0A221A7016E0614B9A
:1008C0001B78012B12D1604B1B78013BDAB25E4BD7
:1008D0001A705D4B1B78002B08D15C4B1B88013BC9
:1008E0009AB25A4B1A80584B0A221A70584B1B78EE
:1008F000012B33D1012208214D4807F01DFD554B36
:100900001B78002B13D1504B5B780133DAB24E4B7E
:100910005A704D4B5B78142B20D14C4B5B880133C4
:100920009AB24A4B5A80484B0A225A7016E0494BF9
:100930001B78012B12D1444B5B78013BDAB2424B5E
:100940005A70414B5B78002B08D1404B5B88013BD0
:100950009AB23E4B5A803C4B0A225A703E4B1B784F
:10096000012B33D101222021314807F0E5FC3B4B1C
:100970001B78002B13D1344B9B780133DAB2324B06
:100980009A70314B9B78142B20D1214B1B8801335B
:100990009AB21F4B1A802C4B0A229A7016E02F4BEA
:1009A0001B78012B12D1284B9B78013BDAB2264BE6
:1009B0009A70254B9B78002B08D1154B1B88013B67
:1009C0009AB2134B1A80204B0A229A70164B1B784E
:1009D000012B5CD101224021184807F0ADFC104BDF
:1009E0001B78002B3CD1184BDB780133DAB2164B65
:1009F000DA70154BDB78142B49D1054B5B8801333A
:100A00009AB2034B5A80104B0A22DA703FE000BFC3
:100A1000640600209E060020410600209B00002066
:100A20009F000020580600204F060020980000205C
:100A300000040240990000209A00002000000240BB
:100A40004C0600209C0000205C0600206006002070
:100A50004D0600209D0000204E0600209E00002034
:100A6000464B1B78012B12D1454BDB78013BDAB2A8
:100A7000434BDA70424BDB78002B08D1414B5B884B
:100A8000013B9AB23F4B5A803D4B0A22DA703C4BF5
:100A90001B781A463A4B5B781B021A43384B9B78FB
:100AA0001B041A43364BDB781B0613431A46364B9E
:100AB0001A60354B1B681A461121344809F01AFA9E
:100AC000334B1B881A46324B5B881B0413431A4670
:100AD000304B1A602F4B1B681A460F212B4809F028
:100AE00009FA284B1B881A46264B5B881B041343C4
:100AF0001A46294B1A60284B1B681A4610212348B6
:100B000009F0F8F9254B1B88184600F0CDF80022B3
:100B10004FF48061224807F00FFC00220821214891
:100B200007F00AFC002220211E4807F005FC0022E5
:100B300040211B4807F000FC184B1B88323B18462D
:100B400000F0B2F8184B1B78012B3FF41EAD174B89
:100B50001B78012B3FF419AD154B1B78012B3FF48B
:100B600014AD144B1B78012B3FF40FAD01224FF451
:100B700000710B4807F0E0FB00BF80BD9F00002024
:100B80005C06002064060020E4060020F40000203B
:100B900060060020A0060020A40600200C00002013
:100BA00000000240000402404C0600204D060020D8
:100BB0004E0600204F06002080B586B000AF174BD0
:100BC0001B783B71154B5B787B710023BB71002355
:100BD0003B6100237B613B1D00221946104808F051
:100BE00001FF0346002B01D000F024FC01233B70E1
:100BF00001237B700123BB700023FB703B46002266
:100C00001946074808F0E6FF0346002B01D000F024
:100C100011FC00BF1837BD4680BD00BF3406002060
:100C2000F400002080B58EB002AF07F11803002257
:100C30001946184808F070FF07F12C0300221946E6
:100C4000144809F04BF83B7E1A467B7E1946BB7E62
:100C500007F10C0000930B460F4909F0A9FC97F827
:100C60002E301A4697F82D30194697F82F3003F595
:100C7000FA63384600930B46084909F099FC3A7E1E
:100C8000074B1A707A7E074B1A7000BF3037BD468B
:100C900080BD00BFF4000020A4AE0008B4AE000880
:100CA000300600203106002080B483B000AF034638
:100CB000FB80094B1B6800225A6200BF064B1B6871
:100CC0005A6AFB889A42F9D300BF00BF0C37BD4671
:100CD0005DF8047B704700BF1401002080B582B02E
:100CE00000AF0346FB80FB88B3F5005F0FD107F030
:100CF00045F80246314B1B68D31AC82B07D9304B35
:100D000001221A6007F03AF803462C4A1360FB8868
:100D1000B3F5004F03D0FB88B3F5804F43D14FF4B8
:100D20008041284807F0F0FA0346002B19D14FF410
:100D30000041244807F0E8FA0346012B11D107F0DF
:100D40001DF802461D4B5B68D31A142B09D91E4BA4
:100D50001B68013B1C4A136007F010F80346174A52
:100D600053604FF48041174807F0CEFA0346012B39
:100D700019D14FF40041134807F0C6FA0346002B7F
:100D800011D106F0FBFF02460C4B5B68D31A142B03
:100D900009D90D4B1B6801330B4A136006F0EEFFB7
:100DA0000346064A5360FFF73DFF01F0C5FF01F01F
:100DB000C3FF00BF0837BD4680BD00BFEC01002067
:100DC0002C060020000402402806002080B500AF59
:100DD00006F06EFF00F010F900F0BAFA00F076F9B4
:100DE00000F0C8F900F0A0F900F014FA00F060FA81
:100DF0006D4809F001F904F04DFF4FF4FA6006F078
:100E0000C9FF01224FF40071684807F095FA1321D9
:100E1000674809F089F803464FF2F002934202D185
:100E200005F07AFD0EE0442000F020FB614B0A2221
:100E30001A70604B0A225A705E4B0A229A705D4B00
:100E40000A22DA7006F09AFF03465B4A5360FFF706
:100E5000E9FE5A4B1B78012B0BD0594B1B78012B09
:100E600007D0584B1B78012B03D0574B1B78012B15
:100E700007D1FFF787FB06F081FF03464E4A536018
:100E800040E0524B1B78012B07D105F071FF06F0B3
:100E900075FF0346484A536034E04D4B1B78002BE6
:100EA00023D006F06DF84A4B1B78012B02D1434B3F
:100EB00001221A70464B1B78022B02D1404B0122B3
:100EC0001A70434B1B78032B02D13E4B01221A7040
:100ED0003F4B1B78042B02D13B4B01221A7006F0CA
:100EE0004DFF0346344A53600CE006F047FF0246CC
:100EF000314B5B68D31A47F23052934202D900203B
:100F000000F0B4FA334B1A78334B1B789A421DD158
:100F1000304B5A78314B1B789A4217D1274B01221C
:100F20001A70274B01221A70264B01221A70264B89
:100F300001221A702A4B00221A802A4B00221A80A2
:100F4000294B00221A80294B00221A80214B9A78C3
:100F5000214B1B789A4221D11E4BDA781F4B1B780C
:100F60009A421BD1154B01221A70154B01221A709F
:100F7000144B01221A70144B01221A701C4B1A8850
:100F8000174B1A801A4B5A88164B1A80194B1A881D
:100F9000154B1A80174B5A88144B1A804FF47A70ED
:100FA00006F0F8FE53E700BF1401002000000240E5
:100FB000F40000205C060020EC0100204C0600201C
:100FC0004D0600204E0600204F0600203C06002063
:100FD0003D060020380600203006002031060020A3
:100FE000980600209A0600209C0600209E060020FD
:100FF000680600206C06002080B594B000AF07F1B1
:10100000200330220021184609F0CAFA07F10C0328
:1010100000221A605A609A60DA601A610023BB608D
:10102000284B1B6C274A43F080531364254B1B6CE1
:1010300003F08053BB60BB6800237B60224B1B68BE
:10104000214A43F4404313601F4B1B6803F44043A1
:101050007B607B680A233B620123FB6210233B63B6
:1010600001237B630223BB630023FB6308233B64F0
:1010700054237B640223BB640423FB6407F1200335
:10108000184607F005FF0346002B01D000F0D2F907
:101090000F23FB6002233B6100237B614FF48053ED
:1010A000BB610023FB6107F10C030221184608F025
:1010B00067F90346002B01D000F0BCF900BF5037A0
:1010C000BD4680BD003802400070004080B500AFD2
:1010D000124B134A1A60114B124A5A600F4B0022EE
:1010E0009A600E4B0022DA600C4B4FF480421A617A
:1010F0000A4B00225A61094B00229A61074B0022D9
:10110000DA61064B00221A62044807F047F90346E9
:10111000002B01D000F08EF900BF80BDA0000020A0
:1011200000540040801A060080B500AF0F4B104AF3
:101130001A600E4B00225A600C4B7F229A600B4BB8
:10114000FF22DA60094B00221A61084B00225A6123
:10115000064B00229A61054808F0CEFB0346002B9F
:1011600001D000F067F900BF80BD00BFF40000208F
:101170000028004080B586B000AF07F108030022C8
:101180001A605A609A60DA603B4600221A605A6020
:101190001E4B1F4A1A601D4B63225A601B4B0022D4
:1011A0009A601A4B4FF6FE72DA60184B00221A61F1
:1011B000164B00225A61154B00229A61134808F021
:1011C000CBFE0346002B01D000F034F94FF48053DE
:1011D000BB6007F1080319460C4808F067FF034697
:1011E000002B01D000F026F900233B6000237B6038
:1011F0003B461946054809F03BF90346002B01D050
:1012000000F018F900BF1837BD4680BD140100205A
:101210000000014080B586B000AF07F1080300224E
:101220001A605A609A60DA603B4600221A605A607F
:101230001D4B1E4A1A601C4B00225A601A4B00229A
:101240009A60194B4FF6FF72DA60174B00221A6151
:10125000154B00229A61144808F07EFE0346002BCD
:1012600001D000F0E7F84FF48053BB6007F10803AA
:1012700019460D4808F01AFF0346002B01D000F074
:10128000D9F800233B6000237B603B4619460648A3
:1012900009F0EEF80346002B01D000F0CBF800BFB8
:1012A0001837BD4680BD00BF5C010020000800402B
:1012B00080B586B000AF07F1080300221A605A60BB
:1012C0009A60DA603B4600221A605A601D4B1E4A43
:1012D0001A601C4B4CF2DF425A601A4B00229A6093
:1012E000184B1A4ADA60174B00221A61154B00227C
:1012F0009A61144808F030FE0346002B01D000F03C
:1013000099F84FF48053BB6007F1080319460D4864
:1013100008F0CCFE0346002B01D000F08BF8002330
:101320003B6000237B603B461946064809F0A0F865
:101330000346002B01D000F07DF800BF1837BD46F2
:1013400080BD00BFA4010020000C00403F420F0000
:1013500080B588B000AF07F10C0300221A605A6014
:101360009A60DA601A610023BB602F4B1B6B2E4A18
:1013700043F0010313632C4B1B6B03F00103BB60B1
:10138000BB6800237B60284B1B6B274A43F002039A
:101390001363254B1B6B03F002037B607B68002209
:1013A0004FF4EC61214806F0C7FF00224FF487613B
:1013B0001F4806F0C1FF4FF4EC63FB6001233B6163
:1013C00000237B610023BB6107F10C03194617481A
:1013D00006F016FE4FF48763FB6001233B61002398
:1013E0007B610023BB6107F10C031946104806F02E
:1013F00007FE4FF46043FB604FF404133B6101238D
:101400007B6107F10C031946094806F0F9FD00223B
:101410000021282006F0BDFD282006F0D6FD00BFE3
:101420002037BD4680BD00BF0038024000000240AA
:101430000004024080B400AF72B600BFFEE70000B7
:1014400080B483B000AF78603960064A7B6813606F
:10145000054A3B68136000BF0C37BD465DF8047B4E
:10146000704700BFF4010020F801002080B582B071
:1014700000AF0346FB7105F02DF8002004F0FAFCE4
:10148000FB794C2B01F2208401A252F823F000BF1B
:10149000C5150008CD1500081316000859160008D8
:1014A0009F160008E51600082B17000871170008A2
:1014B000B7170008FD17000843180008891800082E
:1014C000CF1800083D19000883190008C919000841
:1014D0000F1A0008551A00089B1A0008E11A0008A4
:1014E000271B00086D1B0008B31B0008F91B000830
:1014F0003F1C0008A51C0008EB1C0008311D00085B
:10150000771D0008BD1D0008031E0008491E0008C5
:101510008F1E0008D51E00081B1F0008611F000851
:10152000A71F000811200008572000089D20000870
:10153000E3200008292100086F210008B5210008D8
:10154000FB2100084122000887220008CD22000864
:101550001323000881230008C72300080D24000876
:101560005324000899240008DD24000821250008E0
:1015700065250008BB25000811260008672600081D
:10158000FD26000877270008F12700086B280008CF
:10159000E52800085F290008C7290008692A000813
:1015A000D12A0008092B0008412B0008792B0008DC
:1015B000B12B0008E92B0008212C0008592C000849
:1015C000912C000804F099FF01F07FBB0B2129202A
:1015D00004F0D2FC0122CF49CF4804F063FD01237F
:1015E00003220E21142004F07DFE1F21292004F087
:1015F000C3FC0122C749C94804F054FD3321292006
:1016000004F0BAFC0122C349C54804F04BFD01F0C7
:101610005CBB0B21292004F0AFFC0122BD49BE4870
:1016200004F040FD1F21292004F0A6FC0122B94945
:10163000BA4804F037FD012303222321142004F0CB
:1016400051FE3321292004F097FC0122B149B4480E
:1016500004F028FD01F039BB0B21292004F08CFC9B
:101660000122AC49AC4804F01DFD1F21292004F0E3
:1016700083FC0122A749A94804F014FD3321292045
:1016800004F07AFC0122A349A54804F00BFD0123D4
:1016900003223821142004F025FE01F016BB0B2193
:1016A000292004F069FC01229A499C4804F0FAFCC4
:1016B0001F21292004F060FC01229649984804F07B
:1016C000F1FC3321292004F057FC0122914995486F
:1016D00004F0E8FC012303223821142004F002FE68
:1016E00001F0F3BA0B21292004F046FC01228949BC
:1016F0008B4804F0D7FC1F21292004F03DFC012277
:101700008449884804F0CEFC3321292004F034FCBD
:1017100001228049844804F0C5FC012303223821BA
:10172000142004F0DFFD01F0D0BA0B21292004F0D1
:1017300023FC012277497A4804F0B4FC1F212920B8
:1017400004F01AFC01227349764804F0ABFC012333
:1017500003222321142004F0C5FD3321292004F0A5
:101760000BFC01226B49704804F09CFC01F0ADBAFF
:101770000B21292004F000FC01226649684804F08E
:1017800091FC012303220E21142004F0ABFD1F2144
:10179000292004F0F1FB01225E49624804F082FC3A
:1017A0003321292004F0E8FB01225A495E4804F065
:1017B00079FC01F08ABA0B21292004F0DDFB01221B
:1017C0005449564804F06EFC012303220E211420D4
:1017D00004F088FD1F21292004F0CEFB01224D4991
:1017E0004F4804F05FFC3321292004F0C5FB01229F
:1017F00048494C4804F056FC01F067BA0B212920F7
:1018000004F0BAFB01224349484804F04BFC012391
:1018100003220E21142004F065FD1F21292004F06D
:10182000ABFB01223B49424804F03CFC3321292018
:1018300004F0A2FB012237493E4804F033FC01F0DA
:1018400044BA0B21292004F097FB01223149374883
:1018500004F028FC1F21292004F08EFB01222D49D1
:10186000334804F01FFC012303222321142004F039
:1018700039FD3321292004F07FFB012225492D4821
:1018800004F010FC01F021BA0B21292004F074FBB4
:1018900001222049254804F005FC1F21292004F0DD
:1018A0006BFB01221B49224804F0FCFB3321292059
:1018B00004F062FB012217491E4804F0F3FB0123E8
:1018C00003223821142004F00DFD01F0FEB90B2194
:1018D000292004F051FB01220E49154804F0E2FBD7
:1018E0001F21292004F048FB01220A49114804F075
:1018F000D9FB3321292004F03FFB012205490E4882
:1019000004F0D0FB012303223821142004F0EAFC68
:1019100001F0DBB900000020C4AE0008D0AE000822
:10192000DCAE0008E8AE0008F4AE0008FCAE00082B
:1019300004AF00080CAF000818AF00080B212920E5
:1019400004F01AFB0122CF49CF4804F0ABFB1F2162
:10195000292004F011FB0122CA49CC4804F0A2FB63
:10196000012303222321142004F0BCFC332129206D
:1019700004F002FB0122C349C54804F093FB01F0C7
:10198000A4B90B21292004F0F7FA0122BD49BE4871
:1019900004F088FB012303220E21142004F0A2FC92
:1019A0001F21292004F0E8FA0122B649B74804F0C3
:1019B00079FB3321292004F0DFFA0122B149B44830
:1019C00004F070FB01F081B90B21292004F0D4FA56
:1019D0000122AC49AF4804F065FB012303220E212C
:1019E000142004F07FFC1F21292004F0C5FA0122F5
:1019F000A449A54804F056FB3321292004F0BCFA81
:101A00000122A049A44804F04DFB01F05EB90B216E
:101A1000292004F0B1FA01229A499E4804F042FBC1
:101A20001F21292004F0A8FA01229649964804F0C3
:101A300039FB012303222321142004F053FC33211A
:101A4000292004F099FA01228E49934804F02AFBD8
:101A500001F03BB90B21292004F08EFA01228949BB
:101A60008C4804F01FFB1F21292004F085FA012275
:101A70008449854804F016FB3321292004F07CFAC0
:101A800001228049844804F00DFB01230322382100
:101A9000142004F027FC01F018B90B21292004F0D0
:101AA0006BFA01227749784804F0FCFA1F212920BB
:101AB00004F062FA01227349774804F0F3FA332103
:101AC000292004F059FA01226E49744804F0EAFA18
:101AD000012303223821142004F004FC01F0F5B89E
:101AE0000B21292004F048FA012266496A4804F0D3
:101AF000D9FA1F21292004F03FFA012261496748E1
:101B000004F0D0FA3321292004F036FA01225D498D
:101B1000634804F0C7FA012303223821142004F09B
:101B2000E1FB01F0D2B80B21292004F025FA0122B3
:101B30005449594804F0B6FA1F21292004F01CFA30
:101B400001225049554804F0ADFA01230322232114
:101B5000142004F0C7FB3321292004F00DFA0122E0
:101B600048494F4804F09EFA01F0AFB80B212920F4
:101B700004F002FA01224349474804F093FA012392
:101B800003220E21142004F0ADFB1F21292004F0B4
:101B9000F3F901223B49414804F084FA332129201A
:101BA00004F0EAF9012237493D4804F07BFA01F0DC
:101BB0008CB80B21292004F0DFF901223149354886
:101BC00004F070FA012303220E21142004F08AFB92
:101BD0001F21292004F0D0F901222A492B4804F0C2
:101BE00061FA3321292004F0C7F9012225492A4846
:101BF00004F058FA01F069B80B21292004F0BCF96F
:101C000001222049234804F04DFA1F21292004F025
:101C1000B3F901221B491D4804F044FA01230322B1
:101C20002321142004F05EFB3321292004F0A4F9C1
:101C300001221449184804F035FA01F046B80B2186
:101C4000292004F099F901220E49124804F02AFAD9
:101C50001F21292004F090F901220A490B4804F0C1
:101C600021FA3321292004F087F9012205490A4885
:101C700004F018FA012303223821142004F032FB67
:101C800001F023B80000002004AF00080CAF0008EA
:101C900018AF0008FCAE000820AF000824AF000811
:101CA00028AF00080B21292004F066F90122CF4952
:101CB000CF4804F0F7F91F21292004F05DF9012233
:101CC000CA49CC4804F0EEF93321292004F054F934
:101CD0000122C649C84804F0E5F90123032238214E
:101CE000142004F0FFFA00F0F0BF0B21292004F0CB
:101CF00043F90122BD49BF4804F0D4F91F2129202E
:101D000004F03AF90122B949BB4804F0CBF9332178
:101D1000292004F031F90122B449B84804F0C2F98D
:101D2000012303223821142004F0DCFA00F0CDBF97
:101D30000B21292004F020F90122AC49AD4804F020
:101D4000B1F91F21292004F017F90122A749AA4857
:101D500004F0A8F9012303222321142004F0C2FA7D
:101D60003321292004F008F90122A049A34804F0F6
:101D700099F900F0AABF0B21292004F0FDF80122F7
:101D80009A499C4804F08EF9012303220E21142065
:101D900004F0A8FA1F21292004F0EEF8012293494B
:101DA000954804F07FF93321292004F0E5F8012259
:101DB0008E49924804F076F900F087BF0B21292064
:101DC00004F0DAF8012289498D4804F06BF9012307
:101DD00003220E21142004F085FA1F21292004F08B
:101DE000CBF801228149874804F05CF9332129208E
:101DF00004F0C2F801227D497E4804F053F900F056
:101E000064BF0B21292004F0B7F8012277497C48F0
:101E100004F048F91F21292004F0AEF8012273498B
:101E2000784804F03FF9012303222321142004F011
:101E300059FA3321292004F09FF801226B496D489B
:101E400004F030F900F041BF0B21292004F094F890
:101E5000012266496A4804F025F91F21292004F06F
:101E60008BF801226149674804F01CF933212920CD
:101E700004F082F801225D495E4804F013F9012361
:101E800003223821142004F02DFA00F01EBF0B218C
:101E9000292004F071F8012254495A4804F002F94B
:101EA0001F21292004F068F801225049514804F00C
:101EB000F9F83321292004F05FF801224B494E48FC
:101EC00004F0F0F8012303223821142004F00AFA68
:101ED00000F0FBBE0B21292004F04EF801224349FB
:101EE000444804F0DFF81F21292004F045F80122BE
:101EF0003E49414804F0D6F83321292004F03CF84B
:101F000001223A493D4804F0CDF80123032238214B
:101F1000142004F0E7F900F0D8BE0B21292004F0CA
:101F20002BF801223149334804F0BCF81F21292045
:101F300004F022F801222D492F4804F0B3F80123C0
:101F400003222321142004F0CDF93321292004F0A9
:101F500013F801222549294804F0A4F800F0B5BE81
:101F60000B21292004F008F801222049214804F01F
:101F700099F8012303220E21142004F0B3F91F2144
:101F8000292003F0F9FF012218491B4804F08AF8C0
:101F90003321292003F0F0FF01221449174804F0EF
:101FA00081F800F092BE0B21292003F0E5FF012209
:101FB0000E49134804F076F8012303220E21142061
:101FC00004F090F91F21292003F0D6FF01220749D0
:101FD0000D4804F067F83321292003F0CDFF0122DA
:101FE00002490A4804F05EF800F06FBE00000020CD
:101FF0000CAF000820AF000824AF000828AF00088D
:10200000FCAE000818AF000830AF000838AF000879
:102010000B21292003F0B0FF0122CF49CF4804F063
:1020200041F81F21292003F0A7FF0122CA49CC480B
:1020300004F038F8012303222321142004F052F97C
:102040003321292003F098FF0122C349C54804F039
:1020500029F800F03ABE0B21292003F08DFF012260
:10206000BD49BE4804F01EF81F21292003F084FF5B
:102070000122B949BA4804F015F83321292003F0A8
:102080007BFF0122B449B74804F00CF80123032276
:102090003821142004F026F900F017BE0B21292066
:1020A00003F06AFF0122AC49AD4803F0FBFF1F219A
:1020B000292003F061FF0122A749AA4803F0F2FF9B
:1020C0003321292003F058FF0122A349A64803F039
:1020D000E9FF012303223821142004F003F900F062
:1020E000F4BD0B21292003F047FF01229A499C48A7
:1020F00003F0D8FF1F21292003F03EFF012296495B
:10210000984803F0CFFF012303222321142004F079
:10211000E9F83321292003F02FFF01228E4992484C
:1021200003F0C0FF00F0D1BD0B21292003F024FFF4
:10213000012289498A4803F0B5FF012303220E21B9
:10214000142004F0CFF81F21292003F015FF0122ED
:102150008149844803F0A6FF3321292003F00CFFB6
:1021600001227D49804803F09DFF00F0AEBD0B21A8
:10217000292003F001FF01227749784803F092FFFC
:10218000012303220E21142004F0ACF81F21292082
:1021900003F0F2FE01227049744803F083FF3321FB
:1021A000292003F0E9FE01226B49714803F07AFF10
:1021B00000F08BBD0B21292003F0DEFE01226649D1
:1021C000664803F06FFF1F21292003F0D5FE01228E
:1021D0006149664803F066FF01230322232114208E
:1021E00004F080F83321292003F0C6FE01225A4969
:1021F0005F4803F057FF00F068BD0B21292003F072
:10220000BBFE01225449554803F04CFF1F212920F1
:1022100003F0B2FE01225049544803F043FF33213A
:10222000292003F0A9FE01224B49514803F03AFF4F
:10223000012303223821142004F054F800F045BD96
:102240000B21292003F098FE01224349474803F05F
:1022500029FF1F21292003F08FFE01223E49444817
:1022600003F020FF3321292003F086FE01223A49A2
:10227000404803F017FF012303223821142004F003
:1022800031F800F022BD0B21292003F075FE012258
:102290003149364803F006FF1F21292003F06CFE68
:1022A00001222D49324803F0FDFE012303222321A0
:1022B000142004F017F83321292003F05DFE0122D9
:1022C00025492C4803F0EEFE00F0FFBC0B2129202D
:1022D00003F052FE01222049244803F0E3FE0123CB
:1022E00003220E21142003F0FDFF1F21292003F0FB
:1022F00043FE012218491E4803F0D4FE3321292051
:1023000003F03AFE012214491A4803F0CBFE00F014
:10231000DCBC0B210A2003F02FFE01220E490F48DE
:1023200003F0C0FE012303220E21022003F0DAFF96
:102330001F210A2003F020FE012207490E4803F066
:10234000B1FE33210A2003F017FE012202490B4897
:1023500003F0A8FE00F0B9BC00000020FCAE0008AD
:1023600030AF000838AF000844AF00084CAF000899
:1023700058AF000864AF000874AF000884AF0008CD
:102380000B21142003F0F8FD0122D149D14803F0BC
:1023900089FE1F210A2003F0EFFD0122CC49CE481F
:1023A00003F080FE012303222321022003F09AFF81
:1023B00033210A2003F0E0FD0122C549C74803F09C
:1023C00071FE00F082BC0B21142003F0D5FD012228
:1023D000BF49C04803F066FE1F210A2003F0CCFD70
:1023E0000122BB49BC4803F05DFE33210A2003F003
:1023F000C3FD0122B649B94803F054FE012303226C
:102400003821022003F06EFF00F05FBC0B210A2090
:1024100003F0B2FD0122AE49AF4803F043FE1F2195
:102420000A2003F0A9FD0122A949AC4803F03AFEB5
:1024300033210A2003F0A0FD0122A549A84803F09A
:1024400031FE012303223821022003F04BFF00F06C
:102450003CBC0B210A2003F08FFD01229C499F48C0
:1024600003F020FE1F210A2003F086FD0122984977
:102470009B4803F017FE33210A2003F07DFD012263
:102480009349984803F00EFE0123032238210220CD
:1024900003F028FF00F019BC0B210A2003F06CFDAB
:1024A00001228B498D4803F0FDFD1F210A2003F016
:1024B00063FD012286498A4803F0F4FD01230322CB
:1024C0002321022003F00EFF33210A2003F054FDE4
:1024D00001227F49834803F0E5FDF6E30B210A2042
:1024E00003F04AFD01227A497C4803F0DBFD012319
:1024F00003220E21022003F0F5FE1F210A2003F023
:102500003BFD01227249764803F0CCFD33210A20BD
:1025100003F032FD01226E49724803F0C3FDD4E39B
:102520000B210A2003F028FD012269496A4803F0C3
:10253000B9FD012303220E21022003F0D3FE1F2147
:102540000A2003F019FD01226149644803F0AAFD45
:1025500033210A2003F010FD01225D49604803F099
:10256000A1FDB2E30B21142003F006FD012258491E
:10257000584803F097FD012303220E21022003F0A7
:10258000B1FE1F21142003F0F7FC012250495648E8
:1025900003F088FD3321142003F0EEFC01224C49A6
:1025A000524803F07FFD33216F2003F0E5FC504BD0
:1025B0001B78184603F072FF87E30B21142003F009
:1025C000DBFC01224249434803F06CFD1F2114202B
:1025D00003F0D2FC01223E49434803F063FD01238E
:1025E000032223210A2003F07DFE3321142003F06F
:1025F000C3FC012236493D4803F054FD33216F20CE
:1026000003F0BAFC3A4B1B78184603F047FF5CE333
:102610000B21142003F0B0FC01222D492D4803F0BA
:1026200041FD1F21142003F0A7FC012228492E4858
:1026300003F038FD3321142003F09EFC01222449CD
:102640002A4803F02FFD33216F2003F095FC284B1F
:102650001B78184603F022FF0123032238210A20A9
:1026600003F040FE31E30B21142003F085FC01222E
:1026700017491D4803F016FD1F21142003F07CFCB0
:1026800001221349194803F00DFD1F216F2003F0AB
:1026900073FC174B1B78184603F000FF33211420FE
:1026A00003F06AFC01220A49124803F0FBFC3321C3
:1026B0006F2003F061FC104B1B78184603F0EEFE10
:1026C0000123032238210A2003F00CFEFDE200BFA3
:1026D00000000020FCAE000874AF000884AF0008C2
:1026E00094AF0008A4AF0008B4AF0008BCAF000866
:1026F0003E060020C8AF00083F0600200B21142032
:1027000003F03AFC0122CA49CA4803F0CBFC0B2172
:102710006F2003F031FCC84B1B78184603F0BEFE57
:102720001F21142003F028FC0122C149C34803F0F3
:10273000B9FC1F216F2003F01FFCC14B1B7818460A
:1027400003F0ACFE3321142003F016FC0122B8493B
:10275000BC4803F0A7FC33216F2003F00DFCBA4BFB
:102760001B78184603F09AFE0123032238210A2021
:1027700003F0B8FDA9E20B21142003F0FDFB0122B8
:10278000AB49AE4803F08EFC0B216F2003F0F4FB45
:10279000AB4B1B78184603F081FE1F21142003F079
:1027A000EBFB0122A249A74803F07CFC1F216F200C
:1027B00003F0E2FBA44B1B78184603F06FFE3321B5
:1027C000142003F0D9FB01229949A04803F06AFCC8
:1027D00033216F2003F0D0FB9D4B1B78184603F08C
:1027E0005DFE0123032238210A2003F07BFD6CE209
:1027F0000B21142003F0C0FB01228D498F4803F008
:1028000051FC0B216F2003F0B7FB8D4B1B78184652
:1028100003F044FE1F21142003F0AEFB0122844983
:10282000884803F03FFC1F216F2003F0A5FB864B77
:102830001B78184603F032FE0123032223210A20CD
:1028400003F050FD3321142003F096FB0122784958
:102850007E4803F027FC33216F2003F08DFB7C4B77
:102860001B78184603F01AFE2FE20B21142003F008
:1028700083FB01226E49714803F014FC0B216F2089
:1028800003F07AFB6E4B1B78184603F007FE01231A
:1028900003220E210A2003F025FD1F21142003F03E
:1028A0006BFB01226249674803F0FCFB1F216F208C
:1028B00003F062FB644B1B78184603F0EFFD3321F5
:1028C000142003F059FB01225949604803F0EAFB48
:1028D00033216F2003F050FB5D4B1B78184603F04B
:1028E000DDFDF2E10B21142003F046FB01225049EB
:1028F000504803F0D7FB0B216F2003F03DFB4E4BFC
:102900001B78184603F0CAFD012303220E210A207A
:1029100003F0E8FC1F21142003F02EFB01224449A0
:10292000464803F0BFFB1F216F2003F025FB444BFB
:102930001B78184603F0B2FD3321142003F01CFB72
:1029400001223B493F4803F0ADFB33216F2003F0E8
:1029500013FB3D4B1B78184603F0A0FDB5E10B219E
:10296000292003F009FB012231493A4803F09AFB80
:10297000012303220E21142003F0B4FC1F2129207F
:1029800003F0FAFA01222A49334803F08BFB1F2196
:102990005B2003F0F1FA314B1B68184603F07EFD13
:1029A0003321292003F0E8FA012221492C4803F0C1
:1029B00079FB33215B2003F0DFFA2A4B1B681846B2
:1029C00003F06CFD81E10B21292003F0D5FA0122EF
:1029D0001749204803F066FB1F21292003F0CCFA99
:1029E000012213491C4803F05DFB1F215B2003F00B
:1029F000C3FA1A4B1B68184603F050FD012303224B
:102A00002321142003F06EFC3321292003F0B4FAB3
:102A100001220749124803F045FB33215B2003F0F4
:102A2000ABFA104B1B68184603F038FD4DE100BFB0
:102A300000000020BCAF00083E060020C8AF000820
:102A40003F060020D4AF000840060020E0AF000899
:102A500041060020FCAE0008ECAF0008F4010020A5
:102A6000F4AF0008F80100200B21292003F084FABC
:102A700001229949994803F015FB1F21292003F0F1
:102A80007BFA01229449964803F00CFB1F215B203E
:102A900003F072FA934B1B68184603F0FFFC3321D6
:102AA000292003F069FA01228B498F4803F0FAFAD2
:102AB00033215B2003F060FA8C4B1B68184603F04F
:102AC000EDFC012303223821142003F00BFCFCE071
:102AD0000B210F2003F050FA01227F49844803F0B4
:102AE000E1FA1F210F2003F047FA01227A498148B9
:102AF00003F0D8FA33210F2003F03EFA0122764981
:102B00007D4803F0CFFAE0E00B210F2003F034FA08
:102B100001227149794803F0C5FA1F210F2003F003
:102B20002BFA01226C49764803F0BCFA33210F20BE
:102B300003F022FA012268496F4803F0B3FAC4E0B7
:102B40000B210F2003F018FA012263496D4803F0AE
:102B5000A9FA1F210F2003F00FFA01225E496A48EB
:102B600003F0A0FA33210F2003F006FA01225A499C
:102B7000664803F097FAA8E00B210F2003F0FCF958
:102B8000012255495F4803F08DFA1F210F2003F001
:102B9000F3F9012250495E4803F084FA33210F20F3
:102BA00003F0EAF901224C495A4803F07BFA8CE021
:102BB0000B210F2003F0E0F901224749514803F0AF
:102BC00071FA1F210F2003F0D7F901224249524820
:102BD00003F068FA33210F2003F0CEF901223E49B9
:102BE0004E4803F05FFA70E00B210F2003F0C4F9A8
:102BF00001223949434803F055FA1F210F2003F001
:102C0000BBF901223449424803F04CFA33210F202A
:102C100003F0B2F901223049414803F043FA54E08D
:102C20000B210F2003F0A8F901222B49354803F0AE
:102C300039FA1F210F2003F09FF901222649364857
:102C400003F030FA33210F2003F096F901222249D4
:102C5000344803F027FA38E00B210F2003F08CF9F9
:102C600001221D49274803F01DFA1F210F2003F000
:102C700083F9012218492C4803F014FA33210F205C
:102C800003F07AF901221449284803F00BFA1CE0FA
:102C90000B210F2003F070F901220F49194803F0AE
:102CA00001FA1F210F2003F067F901220A49204889
:102CB00003F0F8F933210F2003F05EF901220649F1
:102CC0001C4803F0EFF900E000BF03F0A1F800BFDB
:102CD0000837BD4680BD00BF00000020FCAE0008E4
:102CE000ECAF0008F4010020F4AF0008F801002068
:102CF000FCAF000810B0000820B0000834B0000895
:102D000040B0000850B0000858B0000868B0000893
:102D100078B000088CB0000894B00008A8B0000893
:102D2000B4B00008BCB00008C8B00008D4B00008B7
:102D3000DCB00008F0B0000880B500AF034B1B7892
:102D4000002B05D004F01CF902F096BF3D060020D0
:102D50008F4B1B78002B22D18D4B5B78002B1ED123
:102D60008C4B1B68002B1AD18B4B1B78002B16D178
:102D7000894B5B78002B12D10120FEF777FB874B44
:102D80001B68012B0BD1824B01221A70834B00224E
:102D90001A60804B00221A607F4B00221A707C4B15
:102DA0001B78002B1ED17B4B1B68012B1AD17A4B51
:102DB0001B78002B16D1784B5B78002B12D10220A8
:102DC000FEF754FB754B1B68012B0BD1704B022295
:102DD0001A70724B00221A606E4B00221A606E4B02
:102DE00000221A706A4B1B78002B22D1684B5B784B
:102DF000002B1ED1674B1B68022B1AD1664B1B7828
:102E0000002B16D1644B5B78002B12D10320FEF708
:102E10002DFB624B1B68012B0BD15D4B03221A70FB
:102E20005E4B00221A605B4B00221A605A4B002254
:102E30001A70574B1B78002B22D1554B5B78002B17
:102E40001ED1544B1B68032B1AD1534B1B78002BFC
:102E500016D1514B5B78002B12D10420FEF706FBF4
:102E60004E4B1B68012B0BD1494B04221A704B4B64
:102E700000221A60474B00221A60474B00221A704A
:102E8000434B1B78002B21D1414B5B78002B1DD18C
:102E9000404B1B68042B19D13F4B5B78002B15D19D
:102EA0000520FEF7E3FA3C4B01221A703B4B1B68EE
:102EB000012B0BD1364B07221A70384B00221A60B7
:102EC000344B00221A60344B00221A70304B1B78AE
:102ED000002B22D12E4B5B78002B1ED12D4B1B6873
:102EE000032B1AD12C4B1B78012B16D12A4B5B7864
:102EF000002B12D10620FEF7B9FA284B1B68012BD4
:102F00000BD1234B04221A70244B00221A60214B50
:102F100000221A60204B00221A701D4B1B78002BD8
:102F200022D11B4B5B78002B1ED11A4B1B68022B46
:102F30001AD1194B1B78012B16D1174B5B78002B3C
:102F400012D10720FEF792FA144B1B68012B0BD10C
:102F50000F4B03221A70114B00221A600D4B0022F6
:102F60001A600D4B00221A70094B1B78002B2BD1D5
:102F7000074B5B78002B27D1064B1B68012B23D115
:102F8000054B1B78012B1FD1034B5B78002B07E00F
:102F90005006002028060020540600202C060020A1
:102FA00012D10820FEF762FA8F4B1B68012B0BD160
:102FB0008E4B02221A708C4B00221A608C4B00221E
:102FC0001A608C4B00221A70884B1B78002B25D17D
:102FD000864B5B78002B21D1854B1B68002B1DDCB9
:102FE000844B1B78012B19D1824B5B78002B15D1B8
:102FF0000120FEF73BFA7F4B00221A707A4B1B68C8
:10300000012B0BD1794B01221A70774B00221A60E9
:10301000774B00221A60774B00221A70734B1B7893
:10302000002B15D1714B5B78002B11D1704B1B68B5
:10303000002B0DDA6F4B1B78002B09D16D4B5B78A1
:10304000002B05D10520FEF711FA694B04221A6006
:10305000664B1B78002B18D1644B5B78002B14D186
:10306000634B1B68042B10DD624B1B78012B0CD1CA
:10307000604B5B78002B08D10120FEF7F7F95C4B21
:1030800000221A605B4B00221A70584B1B78072BEA
:1030900026D0564B1B78002B22D0544B5B78002B4C
:1030A0001ED1534B1B68002B1AD1524B1B78002B9F
:1030B00016D1504B5B78002B12D10920FEF7D6F9C0
:1030C000494B1B68012B0BD1484B00221A70464B11
:1030D00000221A60464B00221A60464B00221A70EA
:1030E000424B1B78072B26D0404B1B78002B22D05D
:1030F0003E4B5B78002B1ED13D4B1B68012B1AD138
:103100003C4B1B78002B16D13A4B5B78002B12D12D
:103110000A20FEF7ABF9344B1B68012B0BD1334B64
:1031200001225A70304B00221A60314B00221A6083
:10313000304B00221A702D4B1B78072B26D02B4BBF
:103140001B78002B22D0294B5B78002B1ED1284BFB
:103150001B68022B1AD1274B1B78002B16D1254B4D
:103160005B78002B12D10B20FEF780F91E4B1B68F9
:10317000012B0BD11D4B02225A701B4B00221A60EF
:103180001B4B00221A601B4B00221A70174B1B7836
:10319000072B25D0154B1B78002B21D0134B5B78C8
:1031A000002B1DD1124B1B68032B19D1114B5B78DF
:1031B000002B15D10C20FEF759F90E4B01221A7085
:1031C000094B1B68012B0BD1084B03225A70064B8D
:1031D00000221A60064B00221A60064B00221A7069
:1031E000024B1B78072B07E02C060020500600201E
:1031F000280600205406002026D07F4B1B78002B89
:1032000022D07D4B5B78002B1ED17C4B1B68022BA0
:103210001AD17B4B1B78012B16D1794B5B78002B95
:1032200012D10D20FEF722F9764B1B68012B0BD132
:10323000714B02225A70734B00221A606F4B0022AE
:103240001A606F4B00221A706B4B1B78072B29D02A
:10325000694B1B78002B25D0674B5B78002B21D165
:10326000664B1B68012B1DD1654B1B78012B19D1B7
:10327000634B5B78002B15D10E20FEF7F7F8604BFF
:1032800000221A705F4B1B68012B0BD15A4B012295
:103290005A705C4B00221A60584B00221A60584B3F
:1032A00000221A70544B1B78072B19D0524B1B78F5
:1032B000002B15D0504B5B78002B11D14F4B1B6866
:1032C000002B0DDA4E4B1B78002B09D14C4B5B7851
:1032D000002B05D10C20FEF7C9F8484B04221A60D8
:1032E000454B1B78072B1CD0434B1B78002B18D069
:1032F000414B5B78002B14D1404B1B68032B10DD36
:103300003F4B1B78012B0CD13D4B5B78002B08D138
:103310000920FEF7ABF8394B00221A60384B002227
:103320001A70354B1B78072B26D0334B1B78002B9C
:1033300022D0314B5B78012B1ED1304B1B68002B08
:103340001AD12F4B1B78002B16D12D4B5B78002BFD
:1033500012D10F20FEF78AF82A4B1B68012B0BD1E4
:10336000254B00225A70274B00221A60234B002263
:103370001A60234B00221A701F4B1B78072B68D052
:103380001D4B1B78002B64D01B4B5B78012B60D14D
:103390001A4B1B68012B5CD1194B1B78002B58D1A1
:1033A000174B5B78002B54D11020FEF75FF8154BBC
:1033B0001B68012B4DD1104B1B78012B06D1124BF2
:1033C00001221A70114B00221A8033E00A4B1B783D
:1033D000022B06D10E4B01221A700E4B00221A80CE
:1033E00028E0054B1B78032B1AD10B4B01221A70D6
:1033F0000A4B00221A801DE05006002028060020FB
:10340000540600202C0600204C06002098060020C0
:103410004D0600209A0600204E0600209C06002043
:103420008F4B1B78042B05D18E4B01221A708E4BCB
:1034300000221A808A4B00225A70894B00221A708F
:103440008A4B00221A608A4B00221A60894B0022A4
:103450001A70834B1B78072B64D0814B1B78002B91
:1034600060D07F4B5B78012B5CD1814B1B68022BBA
:1034700058D1804B1B78002B54D17E4B5B78002BAE
:1034800050D11120FDF7F2FF784B1B68012B49D179
:10349000734B1B78012B0AD1774B01221A70774BA3
:1034A0001A88774B1A80774B01221A702BE06C4BED
:1034B0001B78022B0AD1744B01221A706F4B5A8869
:1034C000724B1A806F4B01225A701CE0644B1B78C0
:1034D000032B0AD16E4B01221A706E4B1A886E4B69
:1034E0001A80684B01229A700DE05D4B1B78042B0B
:1034F00009D15C4B01221A70664B5A885A4B1A80CC
:10350000604B0122DA70564B00225A70544B002255
:103510001A70564B00221A60554B00221A60554B08
:1035200000221A704E4B1B78072B64D04C4B1B7833
:10353000002B60D04A4B5B78012B5CD14C4B1B6855
:10354000032B58D14B4B1B78002B54D1494B5B7844
:10355000002B50D11220FDF789FF444B1B68012B33
:1035600049D13F4B1B78012B0AD1434B01221A70E2
:103570004A4B1A88424B1A80424B01221A702BE0A8
:10358000374B1B78022B0AD13F4B01221A70434B59
:103590005A883E4B1A803B4B01225A701CE0304B3C
:1035A0001B78032B0AD13A4B01221A703C4B1A8824
:1035B000394B1A80334B01229A700DE0284B1B784F
:1035C000042B09D1274B01221A70354B5A88264B00
:1035D0001A802C4B0122DA70214B00225A70204BAA
:1035E00000221A70214B00221A60214B00221A601F
:1035F000204B00221A701A4B1B78072B76D0184BE1
:103600001B78002B72D0164B5B78012B6ED1184BB8
:103610001B68042B6AD1174B5B78002B66D11320F3
:10362000FDF724FF134B01221A70104B1B68012B6E
:103630005CD10B4B1B78012B06D10F4B00221A706B
:10364000104B00221A7042E0054B1B78022B29D147
:103650000D4B00221A700B4B00225A7037E000BF4E
:10366000500600204F0600209E0600202C06002059
:1036700028060020540600204C060020700600207A
:1036800098060020580600204D0600209A060020CB
:103690004E060020740600209C06002078060020BC
:1036A0007C0600206F4B1B78032B06D16E4B00224B
:1036B0001A706E4B00229A7009E06A4B1B78042B3B
:1036C00005D16B4B00221A70684B0022DA70654BF3
:1036D00000225A70634B00221A70664B00221A6057
:1036E000654B00221A60654B00221A705D4B1B78F7
:1036F000072B64D05B4B1B78002B60D0594B5B7859
:10370000012B5CD15C4B1B68032B58D15B4B1B78A6
:10371000012B54D1594B5B78002B50D11420FDF76D
:10372000A5FE544B1B68012B49D14E4B1B78012B36
:103730000AD1534B01221A70524B1A88524B1A80ED
:103740004A4B01221A702BE0464B1B78022B0AD100
:103750004E4B01221A704B4B5A884D4B1A80434BEB
:1037600001225A701CE03F4B1B78032B0AD13E4BC1
:1037700001221A70474B1A88474B1A803B4B012293
:103780009A700DE0374B1B78042B09D1384B01227E
:103790001A70404B5A88414B1A80344B0122DA7020
:1037A000304B00225A702F4B00221A70314B0022EE
:1037B0001A60314B00221A60304B00221A70294BDC
:1037C0001B78072B00F08D80264B1B78002B00F018
:1037D0008880244B5B78012B40F08380264B1B684C
:1037E000022B7ED1254B1B78012B7AD1234B5B78A2
:1037F000002B76D11520FDF739FE204B00221A70E0
:103800001C4B1B68012B6CD1164B1B78012B0AD16A
:103810001B4B01221A70224B1A881B4B1A80134B28
:1038200001221A704EE00F4B1B78022B0AD1174B66
:1038300001221A701A4B5A88154B1A800B4B012221
:103840005A703FE0074B1B78032B2DD1064B01220A
:103850001A70144B1A88104B1A80044B01229A706C
:1038600030E000BF500600204E0600205806002021
:103870004F0600202C0600202806002054060020B9
:103880004C06002078060020980600204D060020F7
:103890009A0600207C0600209C0600209E06002040
:1038A00070060020740600208F4B1B78042B09D172
:1038B0008E4B01221A708E4B5A888E4B1A808E4B7B
:1038C0000122DA70884B00225A70874B00221A704E
:1038D0008A4B00221A608A4B00221A60894B002210
:1038E0001A70814B1B78072B19D07F4B1B78002B4C
:1038F00015D07D4B5B78012B11D1814B1B68002BC0
:103900000DDA804B1B78002B09D17E4B5B78002BA6
:1039100005D11320FDF7AAFD794B04221A60724BE2
:103920001B78072B1CD0704B1B78002B18D06E4BCC
:103930005B78012B14D1724B1B68042B10DD714B8B
:103940001B78012B0CD16F4B5B78002B08D10F201B
:10395000FDF78CFD6A4B00221A606A4B00221A7038
:10396000614B1B78072B26D05F4B1B78002B22D096
:103970005D4B5B78022B1ED1614B1B68002B1AD16B
:10398000604B1B78002B16D15E4B5B78002B12D15D
:103990001620FDF76BFD594B1B68012B0BD1524BC9
:1039A00000225A70554B00221A60554B00221A60B3
:1039B000544B00221A704C4B1B78072B64D04A4B97
:1039C0001B78002B60D0484B5B78022B5CD14C4BB2
:1039D0001B68012B58D14B4B1B78002B54D1494B02
:1039E0005B78002B50D11720FDF740FD434B1B683F
:1039F000012B49D13C4B1B78012B0AD1424B0122B0
:103A00001A70424B1A88424B1A803B4B01221A70A3
:103A10002BE0354B1B78022B0AD13E4B01221A704A
:103A20003A4B5A883C4B1A80334B01225A701CE0A7
:103A30002D4B1B78032B0AD1384B01221A70384BBF
:103A40001A88384B1A802C4B01229A700DE0264BB5
:103A50001B78042B09D1254B01221A70304B5A8850
:103A6000244B1A80244B0122DA701F4B00225A701B
:103A70001D4B00221A70214B00221A60204B00229D
:103A80001A60204B00221A70174B1B78072B00F08E
:103A90008880154B1B78002B00F08380124B5B78DD
:103AA000022B7ED1164B1B68022B7AD1154B1B784B
:103AB000002B76D1134B5B78002B72D11820FDF7C9
:103AC000D5FC0E4B1B68012B6BD1074B1B78012BD0
:103AD0002CD10D4B01221A70134B1A880C4B1A80F3
:103AE000054B01221A704DE0500600204F060020C1
:103AF000740600209E060020580600202C06002098
:103B000028060020540600204C06002068060020ED
:103B1000980600204D0600209A0600204E06002040
:103B20006C0600209C06002070060020714B1B785C
:103B3000022B0AD1704B01221A70704B5A88704BBD
:103B40001A80704B01225A701CE06A4B1B78032BC1
:103B50000AD16D4B01221A706C4B1A886C4B1A807B
:103B6000684B01229A700DE0624B1B78042B09D13F
:103B7000684B01221A70654B5A88674B1A80614B5B
:103B80000122DA705B4B00225A705A4B00221A70E5
:103B9000624B00221A60624B00221A60614B0022C5
:103BA0001A70544B1B78072B64D0524B1B78002B98
:103BB00060D0504B5B78022B5CD1594B1B68032BB8
:103BC00058D1584B1B78002B54D1564B5B78002BA7
:103BD00050D11920FDF74AFC504B1B68012B49D1ED
:103BE000444B1B78012B0AD14F4B01221A704F4BCB
:103BF0001A884F4B1A80434B01221A702BE03D4B21
:103C00001B78022B0AD13C4B01221A70474B5A8871
:103C10003B4B1A803B4B01225A701CE0354B1B7802
:103C2000032B0AD1384B01221A70424B1A88384BA9
:103C30001A80344B01229A700DE02E4B1B78042B16
:103C400009D1344B01221A703A4B5A88324B1A80F0
:103C50002C4B0122DA70274B00225A70254B002290
:103C60001A702E4B00221A602D4B00221A602D4B29
:103C700000221A701F4B1B78072B76D01D4B1B7828
:103C8000002B72D01B4B5B78022B6ED1244B1B6830
:103C9000042B6AD1234B5B78002B66D11A20FDF7E9
:103CA000E5FB204B01221A701C4B1B68012B5CD1D9
:103CB000104B1B78012B06D11B4B00221A70114BA5
:103CC00000221A7042E00B4B1B78022B06D10A4BE4
:103CD00000221A700B4B00225A7037E0054B1B78FC
:103CE000032B29D1084B00221A70064B00229A7030
:103CF0002CE000BF500600204D060020700600207A
:103D00009A060020580600204E0600207406002067
:103D10009C0600204F0600209E0600202C06002056
:103D200028060020540600204C06002078060020BB
:103D3000980600207C060020694B1B78042B05D1D7
:103D4000684B00221A70684B0022DA70644B002224
:103D50005A70634B00221A70644B00221A60644B45
:103D600000221A60634B00221A705D4B1B78072BF0
:103D700064D05B4B1B78002B60D0594B5B78022BD7
:103D80005CD15B4B1B68032B58D15A4B1B78012B22
:103D900054D1584B5B78002B50D11B20FDF766FBAC
:103DA000524B1B68012B49D14D4B1B78012B0AD17B
:103DB000514B01221A70514B1A88514B1A804A4BB1
:103DC00001221A702BE0464B1B78022B0AD14D4B77
:103DD00001221A70494B5A884B4B1A80424B0122E0
:103DE0005A701CE03E4B1B78032B0AD1474B012233
:103DF0001A70474B1A88474B1A803B4B01229A7026
:103E00000DE0374B1B78042B09D1364B01221A7079
:103E10003F4B5A88404B1A80334B0122DA70304BAB
:103E200000225A702E4B00221A70304B00221A606A
:103E30002F4B00221A602F4B00221A70284B1B7840
:103E4000072B00F08C80264B1B78002B00F087801E
:103E5000234B5B78022B40F08280254B1B68022BA2
:103E60007DD1244B1B78012B79D1224B5B78002B21
:103E700075D11C20FDF7FAFA1E4B00221A701B4B5D
:103E80001B68012B6BD1164B1B78012B0AD11A4BE7
:103E900001221A70214B1A88194B1A80124B0122E9
:103EA0001A704DE00E4B1B78022B0AD1154B0122E4
:103EB0001A701A4B5A88144B1A800B4B01225A70F5
:103EC0003EE0074B1B78032B2CD1104B01221A70BC
:103ED000134B1A880F4B1A80034B01229A702FE064
:103EE000500600204F060020580600202C06002017
:103EF00028060020540600204C06002078060020EA
:103F0000980600204D0600209A0600204E0600204C
:103F10007C0600209C0600209E06002070060020E3
:103F2000740600208F4B1B78042B09D18E4B012285
:103F30001A708E4B5A888E4B1A808E4B0122DA7083
:103F4000884B00225A70874B00221A708A4B00223D
:103F50001A608A4B00221A60894B00221A70814B2A
:103F60001B78072B19D07F4B1B78002B15D07D4B6E
:103F70005B78022B11D1814B1B68002B0DDA804B33
:103F80001B78002B09D17E4B5B78002B05D11A20C2
:103F9000FDF76CFA794B04221A60724B1B78072BE1
:103FA0001CD0704B1B78002B18D06E4B5B78022B0B
:103FB00014D1724B1B68042B10DD714B1B78012B45
:103FC0000CD16F4B5B78002B08D11620FDF74EFA11
:103FD0006A4B00221A606A4B00221A70614B1B78F0
:103FE000072B26D05F4B1B78002B22D05D4B5B78D4
:103FF000032B1ED1614B1B68002B1AD1604B1B7821
:10400000002B16D15E4B5B78002B12D11D20FDF7E3
:104010002DFA594B1B68012B0BD1524B00225A70C1
:10402000554B00221A60554B00221A60544B002257
:104030001A704C4B1B78072B64D04A4B1B78002B13
:1040400060D0484B5B78032B5CD14C4B1B68012B39
:1040500058D14B4B1B78002B54D1494B5B78002B2C
:1040600050D11E20FDF702FA434B1B68012B49D1AA
:104070003C4B1B78012B0AD1424B01221A70424B58
:104080001A88424B1A803B4B01221A702BE0354BA9
:104090001B78022B0AD13E4B01221A703A4B5A88E8
:1040A0003C4B1A80334B01225A701CE02D4B1B787D
:1040B000032B0AD1384B01221A70384B1A88384B1F
:1040C0001A802C4B01229A700DE0264B1B78042B92
:1040D00009D1254B01221A70304B5A88244B1A8083
:1040E000244B0122DA701F4B00225A701D4B002214
:1040F0001A70214B00221A60204B00221A60204BBC
:1041000000221A70174B1B78072B00F08880154B84
:104110001B78002B00F08380124B5B78032B7ED141
:10412000164B1B68022B7AD1154B1B78002B76D1CE
:10413000134B5B78002B72D11F20FDF797F90E4BC4
:104140001B68012B6BD1074B1B78012B2CD10D4B1E
:1041500001221A70134B1A880C4B1A80054B01224E
:104160001A704DE0500600204F0600207406002013
:104170009E060020580600202C060020280600205D
:10418000540600204C0600208006002098060020DF
:104190004D0600209A0600204E06002084060020CE
:1041A0009C06002088060020714B1B78022B0AD148
:1041B000704B01221A70704B5A88704B1A80704BEA
:1041C00001225A701CE06A4B1B78032B0AD16D4BFD
:1041D00001221A706C4B1A886C4B1A80684B0122B2
:1041E0009A700DE0624B1B78042B09D1684B0122B9
:1041F0001A70654B5A88674B1A80614B0122DA703E
:104200005B4B00225A705A4B00221A70624B0022FC
:104210001A60624B00221A60614B00221A70544BE4
:104220001B78072B64D0524B1B78002B60D0504B6F
:104230005B78032B5CD1594B1B68032B58D1584B2F
:104240001B78002B54D1564B5B78002B50D120208B
:10425000FDF70CF9504B1B68012B49D1444B1B78DF
:10426000012B0AD14F4B01221A704F4B1A884F4B2A
:104270001A80434B01221A702BE03D4B1B78022B16
:104280000AD13C4B01221A70474B5A883B4B1A808B
:104290003B4B01225A701CE0354B1B78032B0AD193
:1042A000384B01221A70424B1A88384B1A80344B13
:1042B00001229A700DE02E4B1B78042B09D1344B50
:1042C00001221A703A4B5A88324B1A802C4B012229
:1042D000DA70274B00225A70254B00221A702E4BA1
:1042E00000221A602D4B00221A602D4B00221A70FA
:1042F0001F4B1B78072B76D01D4B1B78002B72D0E1
:104300001B4B5B78032B6ED1244B1B68042B6AD1AB
:10431000234B5B78002B66D12120FDF7A7F8204BBB
:1043200001221A701C4B1B68012B5CD1104B1B78AF
:10433000012B06D11B4B00221A70114B00221A7060
:1043400042E00B4B1B78022B06D10A4B00221A705D
:104350000B4B00225A7037E0054B1B78032B29D1F9
:10436000084B00221A70064B00229A702CE000BF06
:10437000500600204D060020880600209A060020E6
:10438000580600204E0600208C0600209C060020C7
:104390004F0600209E0600202C0600202806002044
:1043A000540600204C0600209006002098060020AD
:1043B00094060020694B1B78042B05D1684B002222
:1043C0001A70684B0022DA70644B00225A70634BFB
:1043D00000221A70644B00221A60644B00221A609B
:1043E000634B00221A705D4B1B78072B64D05B4B2C
:1043F0001B78002B60D0594B5B78032B5CD15B4B57
:104400001B68032B58D15A4B1B78012B54D1584BA6
:104410005B78002B50D12220FDF728F8524B1B6807
:10442000012B49D14D4B1B78012B0AD1514B012255
:104430001A70514B1A88514B1A804A4B01221A703C
:104440002BE0464B1B78022B0AD14D4B01221A70F0
:10445000494B5A884B4B1A80424B01225A701CE040
:104460003E4B1B78032B0AD1474B01221A70474B56
:104470001A88474B1A803B4B01229A700DE0374B4C
:104480001B78042B09D1364B01221A703F4B5A88F6
:10449000404B1A80334B0122DA70304B00225A70A5
:1044A0002E4B00221A70304B00221A602F4B002234
:1044B0001A602F4B00221A70284B1B78072B00F034
:1044C0008C80264B1B78002B00F08780234B5B7879
:1044D000032B40F08280254B1B68022B7DD1244B9F
:1044E0001B78012B79D1224B5B78002B75D12320CF
:1044F000FCF7BCFF1E4B00221A701B4B1B68012BE4
:104500006BD1164B1B78012B0AD11A4B01221A7062
:10451000214B1A88194B1A80124B01221A704DE058
:104520000E4B1B78022B0AD1154B01221A701A4B25
:104530005A88144B1A800B4B01225A703EE0074BED
:104540001B78032B2CD1104B01221A70134B1A88A5
:104550000F4B1A80034B01229A702FE05006002067
:104560004F060020580600202C06002028060020B8
:10457000540600204C0600209006002098060020DB
:104580004D0600209A0600204E06002094060020CA
:104590009C0600209E060020880600208C06002035
:1045A0008D4B1B78042B09D18C4B01221A708C4B3C
:1045B0005A888C4B1A808C4B0122DA70864B002271
:1045C0005A70854B00221A70884B00221A60884B63
:1045D00000221A60874B00221A707F4B1B78072B32
:1045E00019D07D4B1B78002B15D07B4B5B78032BB0
:1045F00011D17F4B1B68002B0DDA7E4B1B78002BF3
:1046000009D17C4B5B78002B05D12120FCF72EFFD4
:10461000774B04221A60704B1B78072B1CD06E4B13
:104620001B78002B18D06C4B5B78032B14D1704B8C
:104630001B68042B10DD6F4B1B78012B0CD16D4BCD
:104640005B78002B08D11D20FCF710FF684B00227F
:104650001A60684B00221A705F4B1B78072B26D11B
:104660005D4B1B78002B22D05B4B5B78002B1ED15F
:104670005F4B1B68002B1AD15E4B1B78002B16D1A9
:104680005C4B5B78002B12D12420FCF7EFFE574BDC
:104690001B68012B0BD1504B00221A70534B002288
:1046A0001A60534B00221A60524B00221A704A4B78
:1046B0001B78072B26D1484B1B78002B22D0464B6A
:1046C0005B78002B1ED14A4B1B68012B1AD1494B3A
:1046D0001B78002B16D1474B5B78002B12D125207D
:1046E000FCF7C4FE414B1B68012B0BD13A4B042253
:1046F0005A703E4B00221A603D4B00221A603D4B1F
:1047000000221A70344B1B78072B26D1324B1B78B2
:10471000002B22D0304B5B78002B1ED1344B1B6812
:10472000022B1AD1334B1B78002B16D1314B5B78FF
:10473000002B12D12620FCF799FE2C4B1B68012B75
:104740000BD1254B05225A70284B00221A60284BAA
:1047500000221A60274B00221A701F4B1B78072B70
:1047600025D11D4B1B78002B21D01B4B5B78002BD8
:104770001DD11F4B1B68032B19D11E4B5B78002BDF
:1047800015D12720FCF772FE1A4B01221A70174B25
:104790001B68012B0BD1104B06225A70134B0022C1
:1047A0001A60134B00221A60124B00221A700A4B37
:1047B0001B78072B37D1084B1B78002B33D0064BC7
:1047C0005B78002B2FD10A4B1B68022B2BD1094B96
:1047D0001B78012B27D10FE0500600204F06002048
:1047E0008C0600209E060020580600202C06002083
:1047F00028060020540600208C4B5B78002B12D139
:104800002820FCF733FE8A4B1B68012B0BD1894B08
:1048100005225A70864B00221A60874B00221A60CC
:10482000824B00221A70834B1B78072B29D1814BB6
:104830001B78002B25D07F4B5B78002B21D17E4B42
:104840001B68012B1DD1794B1B78012B19D1774B9C
:104850005B78002B15D12920FCF708FE734B002252
:104860001A70734B1B68012B0BD1724B04225A70C8
:104870006F4B00221A60704B00221A606B4B0022B3
:104880001A706C4B1B78072B19D16A4B1B78002BC5
:1048900015D0684B5B78002B11D1674B1B68002B40
:1048A0000DDA624B1B78002B09D1604B5B78002B33
:1048B00005D12720FCF7DAFD5F4B03221A605D4B20
:1048C0001B78072B1CD15B4B1B78002B18D0594B46
:1048D0005B78002B14D1584B1B68032B10DD534B16
:1048E0001B78012B0CD1514B5B78002B08D1242075
:1048F000FCF7BCFD504B00221A604C4B00221A7092
:104900004C4B1B78072B2AD14A4B1B78002B26D007
:10491000484B5B78042B22D1464B9B78002B1ED151
:10492000454B1B68002B1AD1404B1B78002B16D12E
:104930003E4B5B78002B12D12A20FCF797FD3C4BB5
:104940001B68012B0BD13B4B00225A70384B0022C5
:104950001A60394B00221A60344B00221A70354B12
:104960001B78072B2AD1334B1B78002B26D0314BD9
:104970005B78042B22D12F4B9B78002B1ED12E4B22
:104980001B68012B1AD1294B1B78002B16D1274B02
:104990005B78002B12D12B20FCF768FD244B1B68A1
:1049A000012B0BD1234B01229A70214B00221A605C
:1049B000214B00221A601D4B00221A701D4B1B78E0
:1049C000072B2AD11B4B1B78002B26D0194B5B7869
:1049D000042B22D1174B9B78002B1ED1164B1B6842
:1049E000022B1AD1114B1B78002B16D10F4B5B7881
:1049F000002B12D12C20FCF739FD0D4B1B68012B2D
:104A00000BD10C4B02229A70094B00221A600A4B00
:104A100000221A60054B00221A70064B1B78072BE8
:104A200032D1044B1B78002B2ED007E05406002017
:104A30002C06002050060020280600208C4B5B78B6
:104A4000042B21D18A4B9B78002B1DD1894B1B68ED
:104A5000032B19D1884B5B78002B15D12D20FCF747
:104A600005FD854B01221A70844B1B68012B0BD16D
:104A70007F4B03229A70814B00221A607D4B0022EB
:104A80001A607D4B00221A70794B1B78072B2AD1B4
:104A9000774B1B78002B26D0754B5B78042B22D1EB
:104AA000734B9B78002B1ED1724B1B68022B1AD1C3
:104AB000714B1B78012B16D16F4B5B78002B12D1F9
:104AC0002E20FCF7D3FC6D4B1B68012B0BD1684BE0
:104AD00002229A70694B00221A60664B00221A600B
:104AE000654B00221A70624B1B78072B2DD1604B4F
:104AF0001B78002B29D05E4B5B78042B25D15C4BB7
:104B00009B78002B21D15B4B1B68012B1DD15A4B8D
:104B10001B78012B19D1584B5B78002B15D12F2016
:104B2000FCF7A4FC544B00221A70544B1B68012B59
:104B30000BD14F4B01229A70504B00221A604D4B03
:104B400000221A604C4B00221A70494B1B78072B2D
:104B50001DD1474B1B78002B19D0454B5B78042B9C
:104B600015D1434B9B78002B11D1424B1B68002B76
:104B70000DDA414B1B78002B09D13F4B5B78002BA2
:104B800005D12D20FCF772FC3A4B03221A60384BFA
:104B90001B78072B20D1364B1B78002B1CD0344BB5
:104BA0005B78042B18D1324B9B78002B14D1314BFE
:104BB0001B68032B10DD304B1B78012B0CD12E4BC7
:104BC0005B78002B08D12A20FCF750FC294B0022EF
:104BD0001A60294B00221A70254B1B78072B26D10F
:104BE000234B1B78002B22D0214B5B78052B1ED149
:104BF000204B1B68002B1AD11F4B1B78002B16D1A2
:104C00001D4B5B78002B12D13020FCF72FFC1B4B87
:104C10001B68012B0BD1164B00225A70174B002238
:104C20001A60144B00221A60134B00221A70104BAA
:104C30001B78072B30D10E4B1B78002B2CD00C4B44
:104C40005B78052B28D10B4B1B68012B24D10A4B19
:104C50001B78002B20D1084B5B78002B1CD1312016
:104C6000FCF704FC054B1B68012B15D108E000BFC5
:104C70005006002028060020540600202C060020A4
:104C80008D4B01221A708D4B00221A608C4B002232
:104C90001A608C4B00221A708B4B1B78072B26D185
:104CA000894B1B78002B22D0874B5B78052B1ED1BC
:104CB000834B1B68022B1AD1824B1B78002B16D119
:104CC000804B5B78002B12D13220FCF7CFFB7B4B63
:104CD0001B68012B0BD1784B02221A70774B0022F4
:104CE0001A60774B00221A60764B00221A70764BBE
:104CF0001B78072B26D1744B1B78002B22D0724BCC
:104D00005B78052B1ED16E4B1B68032B1AD16D4BA4
:104D10001B78002B16D16B4B5B78002B12D1332004
:104D2000FCF7A4FB654B1B68012B0BD1624B0322E4
:104D30001A70624B00221A60614B00221A60614BAC
:104D400000221A70604B1B78072B25D15E4B1B7815
:104D5000002B21D05C4B5B78052B1DD1584B1B6879
:104D6000042B19D1574B5B78002B15D13420FCF75D
:104D70007DFB544B01221A70504B1B68012B0BD149
:104D80004D4B04221A704D4B00221A604C4B0022EE
:104D90001A604C4B00221A704B4B1B78072B26D104
:104DA000494B1B78002B22D0474B5B78052B1ED13B
:104DB000434B1B68032B1AD1424B1B78012B16D196
:104DC000404B5B78002B12D13520FCF74FFB3B4B5F
:104DD0001B68012B0BD1384B03221A70374B002272
:104DE0001A60374B00221A60364B00221A70364B7D
:104DF0001B78072B29D1344B1B78002B25D0324B45
:104E00005B78052B21D12E4B1B68022B1DD12D4B1E
:104E10001B78012B19D12B4B5B78002B15D1362039
:104E2000FCF724FB274B00221A70244B1B68012B34
:104E30000BD1214B02221A70204B00221A60204B0A
:104E400000221A601F4B00221A701F4B1B78072B81
:104E500019D11D4B1B78002B15D01B4B5B78052BF4
:104E600011D1174B1B68002B0DDA164B1B78002B4A
:104E700009D1144B5B78002B05D13420FCF7F6FAEE
:104E80000F4B04221A60104B1B78072B27D10E4BB7
:104E90001B78002B23D00C4B5B78052B1FD1084BC4
:104EA0001B68042B1BDD074B1B78012B17D1054B0F
:104EB0005B78002B13D109E03D0600202C06002072
:104EC0002806002054060020500600203020FCF761
:104ED000CDFA314B00221A60304B00221A70304B51
:104EE0001B78072B26D12E4B1B78002B22D02C4B66
:104EF0005B78062B1ED1284B1B68002B1AD1274B41
:104F00001B78002B16D1254B5B78002B12D1382053
:104F1000FCF7ACFA234B1B68012B0BD1204B002272
:104F20005A70204B00221A601B4B00221A601B4B48
:104F300000221A701A4B1B78072B3AD1184B1B789A
:104F4000002B36D0164B5B78062B32D1124B1B68E8
:104F5000012B2ED1114B1B78002B2AD10F4B5B78E4
:104F6000002B26D13920FCF781FA0E4B1B68012B50
:104F70001FD10C4B00221A60084B00221A7013211B
:104F8000094804F0D1FF03464FF2F00293420DD1DD
:104F9000034B0A221A700CE0280600205406002059
:104FA000500600202C060020F4000020954B0B2218
:104FB0001A70944B1B78072B43D1924B1B78002B14
:104FC0003FD0904B5B78062B3BD18F4B1B68022B5D
:104FD00037D18E4B1B78002B33D18C4B5B78002B59
:104FE0002FD13A20FCF742FA894B1B68012B28D1BC
:104FF000874B00221A60854B00221A70854B1B7864
:10500000002B0CBF01230023DBB21A46814B1A7020
:10501000804B1B781A46804B1B781B021A437F4B30
:105020001B781B041A437E4B1B781B0613431A463E
:105030007C4B1A607B4B1B681A4602217A4804F0AD
:1050400059FF704B1B78072B43D16E4B1B78002BFD
:105050003FD06C4B5B78062B3BD16B4B1B68032B13
:1050600037D16A4B1B78002B33D1684B5B78002B10
:105070002FD13B20FCF7FAF9654B1B68012B28D197
:10508000634B00221A60614B00221A70624B1B783E
:10509000002B0CBF01230023DBB21A465E4B1A70B3
:1050A0005C4B1B781A465C4B1B781B021A435B4B0C
:1050B0001B781B041A435A4B1B781B0613431A46D2
:1050C000584B1A60574B1B681A460221564804F089
:1050D00011FF4C4B1B78072B43D14A4B1B78002BFD
:1050E0003FD0484B5B78062B3BD1474B1B68042BCA
:1050F00037D1464B1B78002B33D1444B5B78002BC8
:105100002FD13C20FCF7B2F9414B1B68012B28D171
:105110003F4B00221A603D4B00221A703F4B1B7818
:10512000002B0CBF01230023DBB21A463B4B1A7045
:10513000384B1B781A46384B1B781B021A43374BE7
:105140001B781B041A43364B1B781B0613431A4665
:10515000344B1A60334B1B681A460221324804F064
:10516000C9FE284B1B78072B42D1264B1B78002BFE
:105170003ED0244B5B78062B3AD1234B1B68052B82
:1051800036D1224B5B78002B32D13D20FCF76EF9F3
:105190001E4B01221A701E4B1B68012B28D11C4B81
:1051A00000221A60194B00221A701D4B1B78002B2D
:1051B0000CBF01230023DBB21A46194B1A70154BA2
:1051C0001B781A46144B1B781B021A43134B1B788F
:1051D0001B041A43124B1B781B0613431A46114B30
:1051E0001A60104B1B681A4602210F4804F082FE19
:1051F000044B1B78072B59D1024B1B78002B55D041
:1052000014E000BF500600202806002054060020AD
:105210002C0600203E0600203F060020400600200D
:1052200041060020E0060020F4000020914B5B784E
:10523000062B3BD1904B1B68042B37D18F4B1B782F
:10524000012B33D18D4B5B78002B2FD13E20FCF707
:105250000DF98B4B1B68012B28D1894B00221A605A
:10526000864B00221A70874B1B78002B0CBF012342
:105270000023DBB21A46834B1A70834B1B781A4605
:10528000824B1B781B021A437E4B1B781B041A436C
:105290007F4B1B781B0613431A467E4B1A607D4BCF
:1052A0001B681A4602217C4804F024FE714B1B78CF
:1052B000072B43D16F4B1B78002B3FD06D4B5B7896
:1052C000062B3BD16C4B1B68032B37D16B4B1B78E8
:1052D000012B33D1694B5B78002B2FD13F20FCF79A
:1052E000C5F8674B1B68012B28D1654B00221A605B
:1052F000624B00221A70654B1B78002B0CBF0123F8
:105300000023DBB21A46614B1A705F4B1B781A46BA
:105310005E4B1B781B021A435A4B1B781B041A4323
:105320005B4B1B781B0613431A465A4B1A60594BAA
:105330001B681A460221584804F0DCFD4D4B1B78CF
:10534000072B46D14B4B1B78002B42D0494B5B7847
:10535000062B3ED1484B1B68022B3AD1474B1B789A
:10536000012B36D1454B5B78002B32D14020FCF726
:105370007DF8424B00221A70414B1B68012B28D14B
:105380003F4B00221A603D4B00221A703E4B1B78A7
:10539000002B0CBF01230023DBB21A463A4B1A70D4
:1053A000394B1B781A46394B1B781B021A43354B75
:1053B0001B781B041A43364B1B781B0613431A46F3
:1053C000344B1A60334B1B681A460221324804F0F2
:1053D00091FD284B1B78072B19D1264B1B78002BEE
:1053E00015D0244B5B78062B11D1234B1B68002B67
:1053F0000DDA224B1B78002B09D1204B5B78002B58
:1054000005D13D20FCF732F81B4B05221A60194BE1
:105410001B78072B1CD1174B1B78002B18D0154B72
:105420005B78062B14D1144B1B68052B10DD134B36
:105430001B78012B0CD1114B5B78002B08D1382045
:10544000FCF714F80C4B00221A600C4B00221A7067
:10545000084B1B78072B6CD1064B1B78002B68D0B0
:10546000044B5B78042B64D1034B1B68002B60D189
:1054700014E000BF5006002028060020540600203B
:105480002C060020400600203E0600203F0600209B
:1054900041060020E0060020F4000020904B1B781D
:1054A000002B46D18E4B5B78002B42D18D4B9B78E5
:1054B000012B07D08B4B9B78022B03D0894B9B7819
:1054C000032B36D1874B9B78012B08D1864B1B7859
:1054D0001A46864B1B7819461046FBF7B1FF814BE5
:1054E0009B78022B08D1824B1B781A46804B5B7845
:1054F00019461046FBF7A4FF7A4B9B78032B08D183
:105500007B4B9B781A467A4BDB7819461046FBF7A3
:1055100097FF4120FBF7AAFF764B1B68012B08D1B0
:10552000704B00229A70734B00221A60724B00225B
:105530001A606C4B1B78072B71D16A4B1B78002BC0
:105540006DD0684B5B78042B69D16B4B1B68012BCA
:1055500065D1634B1B78002B61D1614B5B78002BCD
:105560005DD1604B9B78012B07D05E4B9B78022B63
:1055700003D05C4B9B78032B51D15A4B9B78012B6A
:1055800008D1594B1B781A46584B1B7819461046C0
:10559000FBF756FF534B9B78022B08D1544B1B78DB
:1055A0001A46534B5B7819461046FBF749FF4D4BA3
:1055B0009B78032B08D14E4B9B781A464C4BDB78DB
:1055C00019461046FBF73CFF4A4B1B68012B23D1C1
:1055D000434B01225A70474B00221A60464B00226F
:1055E0001A60404B9B78012B04D13F4B1B781A4625
:1055F000414B1A603B4B9B78022B04D13C4B1B78F0
:105600001A463D4B1A60374B9B78032B04D1384B1D
:105610009B781A46384B1A604220FBF727FF314B24
:105620001B78072B40F082802E4B1B78002B7DD0FF
:105630002C4B5B78042B79D12F4B1B68022B75D137
:10564000274B1B78002B71D1254B5B78002B6DD13C
:10565000244B9B78012B07D0224B9B78022B03D045
:10566000204B9B78032B61D11E4B9B78012B08D1DB
:105670001D4B1B781A461D4B1B7819461046FBF72D
:10568000DFFE184B9B78022B08D1194B1B781A466A
:10569000174B5B7819461046FBF7D2FE114B9B78EF
:1056A000032B08D1124B9B781A46114BDB78194615
:1056B0001046FBF7C5FE0F4B1B68012B33D1084B7F
:1056C00002225A700B4B00221A600B4B00221A6008
:1056D000044B9B78012B14D1044B1B780EE000BFC8
:1056E000540600205006002030060020310600201D
:1056F000380600202C060020280600201A46944B6D
:105700001A60944B9B78022B04D1934B5B781A461A
:105710008F4B1A608F4B9B78032B04D18E4BDB7819
:105720001A468B4B1A604320FBF7A0FE894B1B786F
:10573000072B4CD1874B1B78002B48D0854B5B78CF
:10574000042B44D1824B1B68002B40DA834B1B781F
:10575000002B3CD1814B5B78002B38D17D4B9B7863
:10576000012B07D07B4B9B78022B03D0794B9B7886
:10577000032B2CD1774B9B78012B08D1784B1B78CE
:105780001A46784B1B7819461046FBF759FE714BA9
:105790009B78022B08D1704B1B781A466E4B5B78B6
:1057A00019461046FBF74CFE6A4B9B78032B08D139
:1057B000694B9B781A46684BDB7819461046FBF715
:1057C0003FFE4320FBF752FE614B02221A60614B01
:1057D0001B78072B4CD15F4B1B78002B48D05D4BBF
:1057E0005B78042B44D15A4B1B68022B40DD5B4B8A
:1057F0001B78002B3CD1594B5B78002B38D1554B93
:105800009B78012B07D0534B9B78022B03D0514B35
:105810009B78032B2CD14F4B9B78012B08D1504BFD
:105820001B781A464F4B1B7819461046FBF708FEAB
:10583000484B9B78022B08D1474B1B781A46464BA6
:105840005B7819461046FBF7FBFD424B9B78032B18
:1058500008D1414B9B781A463F4BDB7819461046DE
:10586000FBF7EEFD4120FBF701FE394B00221A60E9
:105870003A4B5B78012B40F0B680354B1B68172BF9
:1058800002DD334B00221A60314B1B68002B02DA19
:105890002F4B17221A602F4B9B78012B28D12C4BB2
:1058A0001B68DAB2304B1A702F4B1B781A462E4BFE
:1058B0005B7819461046FBF7C3FDFBF77DF92A4BD1
:1058C0001B781A46284B5B781B021A43264B9B78A1
:1058D0001B041A43244BDB781B0613431A46234B45
:1058E0001A60224B1B681A460021214804F002FB73
:1058F000184B9B78022B26D1154B1B68DAB2164B3E
:105900001A70154B1B781A46134B5B7819461046D4
:10591000FBF796FD104B1B781A460F4B5B781B026A
:105920001A430D4B9B781B041A430B4BDB781B0669
:1059300013431A460F4B1A600E4B1B681A4601217F
:105940000B4804F0D7FA034B9B78032B3BD113E0B1
:1059500028060020500600203806002054060020AB
:10596000300600203106002034060020D806002032
:10597000F4000020DC060020A24B1B68DAB2A24B28
:105980009A70A14B9B781A469F4BDB7819461046BC
:10599000FBF756FD9C4B1B781A469B4B5B781B0212
:1059A0001A43994B9B781B041A43974BDB781B06D1
:1059B00013431A46954B1A60944B1B681A460121F3
:1059C000934804F097FA4220FBF750FD914B1B6877
:1059D000012B08D1904B00225A708E4B00221A6086
:1059E000884B00221A608C4B5B78022B40F0A18020
:1059F000844B1B683B2B02DD824B00221A60814BDB
:105A00001B68002B02DA7F4B3B221A60834B9B788A
:105A1000012B28D17B4B1B68DAB2814B5A70804B2B
:105A20001B781A467E4B5B7819461046FBF708FD3B
:105A3000FBF7C2F87A4B1B781A46794B5B781B024E
:105A40001A43774B9B781B041A43754BDB781B0674
:105A500013431A46734B1A60724B1B681A46002197
:105A60006B4804F047FA6D4B9B78022B26D1654BAF
:105A70001B68DAB2644B5A70634B1B781A46624B50
:105A80005B7819461046FBF7DBFC5F4B1B781A4628
:105A90005D4B5B781B021A435B4B9B781B041A43DC
:105AA000594BDB781B0613431A46584B1A60574B69
:105AB0001B681A460121564804F01CFA574B9B7884
:105AC000032B26D14F4B1B68DAB24F4BDA704E4B8B
:105AD0009B781A464C4BDB7819461046FBF7B0FC16
