:020000040800F2
:1000000000000220D57C00088D6800089368000875
:10001000996800089F680008A568000800000000B3
:10002000000000000000000000000000AB680008B5
:10003000B968000800000000C7680008D56800081B
:10004000257D0008257D0008257D0008257D000808
:10005000257D0008257D0008257D0008257D0008F8
:10006000257D0008257D0008257D0008257D0008E8
:10007000257D0008257D0008257D0008257D0008D8
:10008000257D0008257D0008257D00080000000072
:10009000000000000000000000000000257D0008B6
:1000A000257D0008257D0008257D0008257D0008A8
:1000B000257D0008257D0008257D0008257D000898
:1000C000257D0008257D0008257D0008257D000888
:1000D000257D0008257D0008257D00080000000022
:1000E000E1680008257D0008257D0008000000006B
:1000F000000000000000000000000000257D000856
:1001000000000000257D0008257D0008257D0008F1
:1001100000000000000000000000000000000000DF
:10012000257D0008257D0008257D0008257D000827
:10013000257D000800000000000000000000000015
:10014000000000000000000000000000257D000805
:10015000257D0008257D0008257D0008257D0008F7
:10016000257D0008257D000800000000000000003B
:10017000000000000000000000000000000000007F
:1001800000000000257D00080000000000000000C5
:08019000257D0008257D000813
:1001A00010B5054C237833B9044B13B10448AFF3B1
:1001B00000800123237010BD7C000020000000009F
:1001C00004AF000808B5034B1BB103490348AFF364
:1001D000008008BD000000008000002004AF00087F
:1001E00001F0FF01102A2BDB10F0070F08D010F8E8
:1001F000013B013A8B422DD010F0070F42B3F6D1EC
:10020000F0B441EA012141EA014122F007047FF004
:1002100000070023F0E80256083C85EA010586EA5B
:10022000010685FA47F5A3FA87F586FA47F6A5FA97
:1002300087F68EB9EED1F0BC01F0FF0102F00702A3
:1002400032B110F8013B013A83EA010313B1F8D14E
:100250000020704701387047002D06BF354603382F
:10026000073815F0010F07D1013015F4807F02BF68
:10027000013015F4C03F0130F0BC0138704700BFB9
:1002800053B94AB9002908BF00281CBF4FF0FF31FD
:100290004FF0FF3000F074B9ADF1080C6DE904CEF9
:1002A00000F006F8DDF804E0DDE9022304B0704751
:1002B0002DE9F047089D04468E46002B4DD18A4219
:1002C000944669D9B2FA82F252B101FA02F3C2F14C
:1002D000200120FA01F10CFA02FC41EA030E9440DD
:1002E0004FEA1C48210CBEFBF8F61FFA8CF708FBFE
:1002F00016E341EA034306FB07F199420AD91CEBD6
:10030000030306F1FF3080F01F81994240F21C8107
:10031000023E63445B1AA4B2B3FBF8F008FB10334F
:1003200044EA034400FB07F7A7420AD91CEB040484
:1003300000F1FF3380F00A81A74240F20781644454
:10034000023840EA0640E41B00261DB1D4400023D9
:10035000C5E900433146BDE8F0878B4209D9002D3D
:1003600000F0EF800026C5E9000130463146BDE8C7
:10037000F087B3FA83F6002E4AD18B4202D3824231
:1003800000F2F980841A61EB030301209E46002DE0
:10039000E0D0C5E9004EDDE702B9FFDEB2FA82F235
:1003A000002A40F09280A1EB0C014FEA1C471FFA93
:1003B0008CFE0126200CB1FBF7F307FB131140EA7A
:1003C00001410EFB03F0884208D91CEB010103F147
:1003D000FF3802D2884200F2CB804346091AA4B209
:1003E000B1FBF7F007FB101144EA01440EFB00FEDD
:1003F000A64508D91CEB040400F1FF3102D2A64542
:1004000000F2BB800846A4EB0E0440EA03409CE7E0
:10041000C6F12007B34022FA07FC4CEA030C20FA8D
:1004200007F401FA06F31C43F9404FEA1C4900FAAD
:1004300006F3B1FBF9F8200C1FFA8CFE09FB18112A
:1004400040EA014108FB0EF0884202FA06F20BD99D
:100450001CEB010108F1FF3A80F08880884240F2ED
:100460008580A8F102086144091AA4B2B1FBF9F031
:1004700009FB101144EA014100FB0EFE8E4508D92C
:100480001CEB010100F1FF346CD28E456AD90238B1
:10049000614440EA0840A0FB0294A1EB0E01A14296
:1004A000C846A64656D353D05DB1B3EB080261EB04
:1004B0000E0101FA07F722FA06F3F1401F43C5E9DE
:1004C000007100263146BDE8F087C2F12003D84014
:1004D0000CFA02FC21FA03F3914001434FEA1C4756
:1004E0001FFA8CFEB3FBF7F007FB10360B0C43EA48
:1004F000064300FB0EF69E4204FA02F408D91CEBF8
:10050000030300F1FF382FD29E422DD902386344F5
:100510009B1B89B2B3FBF7F607FB163341EA034195
:1005200006FB0EF38B4208D91CEB010106F1FF38E4
:1005300016D28B4214D9023E6144C91A46EA0046DB
:1005400038E72E46284605E70646E3E61846F8E66D
:100550004B45A9D2B9EB020864EB0C0E0138A3E7B6
:100560004646EAE7204694E74046D1E7D0467BE797
:10057000023B614432E7304609E76444023842E70F
:10058000704700BF80B500AFDCE27E4B1B78022BCA
:100590000ED17D4B1A887D4B1B889A4208D17B4B2C
:1005A0001B8864339AB2794B1A80764B00221A70FA
:1005B000754B1A88754B1B889A4207D2744B1A7870
:1005C000744B1A70744B00221A7027E06E4B1A8815
:1005D0006E4B1B889A421ED96D4B1B78002B0CBFAB
:1005E00001230023DBB21A466A4B1A706A4B0122C0
:1005F0001A70644B1B78012B10D1644B1B88002BA5
:100600000CD0624B1B88643B9AB2604B1A805D4BE6
:1006100002221A7002E0614B00221A70594B5B787B
:10062000022B0ED1584B5A885D4B1B889A4208D139
:100630005B4B1B8864339AB2594B1A80514B002292
:100640005A70514B5A88564B1B889A4207D2554BC9
:100650001A78554B1A70554B00221A7027E04A4BF6
:100660005A884F4B1B889A421ED94E4B1B78002B41
:100670000CBF01230023DBB21A464B4B1A704B4BC5
:1006800001221A703F4B5B78012B10D1444B1B8821
:10069000002B0CD0424B1B88643B9AB2404B1A8013
:1006A000384B02225A7002E0414B00221A70354B3F
:1006B0009B78022B0ED13F4B1A883F4B1B889A42E6
:1006C00008D13D4B1B8864339AB23B4B1A802D4BAB
:1006D00000229A70374B1A88374B1B889A4207D2F0
:1006E000364B1A78364B1A70364B00221A7027E0B8
:1006F000304B1A88304B1B889A421ED92F4B1B78DF
:10070000002B0CBF01230023DBB21A462C4B1A70BE
:100710002C4B01221A701B4B9B78012B10D1264BBE
:100720001B88002B0CD0244B1B88643B9AB2224BB5
:100730001A80144B02229A7002E0234B00221A7096
:10074000104BDB78022B0ED11A4B5A881F4B1B889B
:100750009A4208D11D4B1B8864339AB21B4B1A80F6
:10076000084B0022DA70134B5A88184B1B889A42A8
:1007700034D2174B1A78174B1A70174B00221A7085
:1007800054E000BF580600206006002098060020B4
:100790003E060020980000209C0000204C0600200F
:1007A0009A0600203F060020990000209D000020AE
:1007B0004D060020640600209C0600204006002014
:1007C0009A0000209E0000204E0600209E06002079
:1007D000410600209B0000209F0000208C4B5A887F
:1007E0008C4B1B889A421ED98B4B1B78002B0CBF5D
:1007F00001230023DBB21A46884B1A70884B012272
:100800001A70884BDB78012B10D1824B1B88002B90
:100810000CD0804B1B88643B9AB27E4B1A80814B74
:100820000222DA7002E0804B00221A707F4B1B78A4
:100830001A4610217E4807F0BBFD7E4B1B781A46F6
:100840004FF480617A4807F0B3FD7B4B1B781A4662
:100850004FF48071794807F0ABFD704B1B781A4656
:100860002021764807F0A4FD322000F01DFA002276
:100870004FF40071714807F09BFD714B1B78012B01
:1008800034D101224FF480616C4807F091FD6D4B2B
:100890001B78002B13D16C4B1B780133DAB26A4BF7
:1008A0001A70694B1B78142B20D1684B1B880133BD
:1008B0009AB2664B1A80644B0A221A7016E0614B9A
:1008C0001B78012B12D1604B1B78013BDAB25E4BD7
:1008D0001A705D4B1B78002B08D15C4B1B88013BC9
:1008E0009AB25A4B1A80584B0A221A70584B1B78EE
:1008F000012B33D1012208214D4807F059FD554BFA
:100900001B78002B13D1504B5B780133DAB24E4B7E
:100910005A704D4B5B78142B20D14C4B5B880133C4
:100920009AB24A4B5A80484B0A225A7016E0494BF9
:100930001B78012B12D1444B5B78013BDAB2424B5E
:100940005A70414B5B78002B08D1404B5B88013BD0
:100950009AB23E4B5A803C4B0A225A703E4B1B784F
:10096000012B33D101222021314807F021FD3B4BDF
:100970001B78002B13D1344B9B780133DAB2324B06
:100980009A70314B9B78142B20D1214B1B8801335B
:100990009AB21F4B1A802C4B0A229A7016E02F4BEA
:1009A0001B78012B12D1284B9B78013BDAB2264BE6
:1009B0009A70254B9B78002B08D1154B1B88013B67
:1009C0009AB2134B1A80204B0A229A70164B1B784E
:1009D000012B5CD101224021184807F0E9FC104BA3
:1009E0001B78002B3CD1184BDB780133DAB2164B65
:1009F000DA70154BDB78142B49D1054B5B8801333A
:100A00009AB2034B5A80104B0A22DA703FE000BFC3
:100A1000640600209E060020410600209B00002066
:100A20009F000020580600204F060020980000205C
:100A300000040240990000209A00002000000240BB
:100A40004C0600209C0000205C0600206006002070
:100A50004D0600209D0000204E0600209E00002034
:100A6000464B1B78012B12D1454BDB78013BDAB2A8
:100A7000434BDA70424BDB78002B08D1414B5B884B
:100A8000013B9AB23F4B5A803D4B0A22DA703C4BF5
:100A90001B781A463A4B5B781B021A43384B9B78FB
:100AA0001B041A43364BDB781B0613431A46364B9E
:100AB0001A60354B1B681A461121344809F056FA62
:100AC000334B1B881A46324B5B881B0413431A4670
:100AD000304B1A602F4B1B681A460F212B4809F028
:100AE00045FA284B1B881A46264B5B881B04134388
:100AF0001A46294B1A60284B1B681A4610212348B6
:100B000009F034FA254B1B88184600F0CDF8002276
:100B10004FF48061224807F04BFC00220821214855
:100B200007F046FC002220211E4807F041FC00226D
:100B300040211B4807F03CFC184B1B88323B1846F1
:100B400000F0B2F8184B1B78012B3FF41EAD174B89
:100B50001B78012B3FF419AD154B1B78012B3FF48B
:100B600014AD144B1B78012B3FF40FAD01224FF451
:100B700000710B4807F01CFC00BF80BD9F000020E7
:100B80005C06002064060020E4060020F40000203B
:100B900060060020A0060020A40600200C00002013
:100BA00000000240000402404C0600204D060020D8
:100BB0004E0600204F06002080B586B000AF174BD0
:100BC0001B783B71154B5B787B710023BB71002355
:100BD0003B6100237B613B1D00221946104808F051
:100BE0003DFF0346002B01D000F066FC01233B7063
:100BF00001237B700123BB700023FB703B46002266
:100C00001946074809F022F80346002B01D000F0EE
:100C100053FC00BF1837BD4680BD00BF340600201E
:100C2000F400002080B58EB002AF07F11803002257
:100C30001946184808F0ACFF07F12C0300221946AA
:100C4000144809F087F83B7E1A467B7E1946BB7E26
:100C500007F10C0000930B460F4909F0E5FC97F8EB
:100C60002E301A4697F82D30194697F82F3003F595
:100C7000FA63384600930B46084909F0D5FC3A7EE2
:100C8000074B1A707A7E074B1A7000BF3037BD468B
:100C900080BD00BFF40000201CAF00082CAF00088E
:100CA000300600203106002080B483B000AF034638
:100CB000FB80094B1B6800225A6200BF064B1B6871
:100CC0005A6AFB889A42F9D300BF00BF0C37BD4671
:100CD0005DF8047B704700BF1401002080B582B02E
:100CE00000AF0346FB80FB88B3F5005F0FD107F030
:100CF00081F80246314B1B68D31AC82B07D9304BF9
:100D000001221A6007F076F803462C4A1360FB882C
:100D1000B3F5004F03D0FB88B3F5804F43D14FF4B8
:100D20008041284807F02CFB0346002B19D14FF4D3
:100D30000041244807F024FB0346012B11D107F0A2
:100D400059F802461D4B5B68D31A142B09D91E4B68
:100D50001B68013B1C4A136007F04CF80346174A16
:100D600053604FF48041174807F00AFB0346012BFC
:100D700019D14FF40041134807F002FB0346002B42
:100D800011D107F037F802460C4B5B68D31A142BCD
:100D900009D90D4B1B6801330B4A136007F02AF881
:100DA0000346064A5360FFF73DFF02F001F801F0E9
:100DB000FFFF00BF0837BD4680BD00BFEC0100202B
:100DC0002C060020000402402806002080B500AF59
:100DD00006F0AAFF00F010F900F0EEFA00F076F944
:100DE00000F0FCF900F0A0F900F048FA00F094FAE5
:100DF0006D4809F03DF904F089FF4FF4FA6007F0FF
:100E000005F801224FF40071684807F0D1FA132168
:100E1000674809F0C5F803464FF2F002934202D149
:100E200005F0B6FD0EE0442000F062FB614B0A22A3
:100E30001A70604B0A225A705E4B0A229A705D4B00
:100E40000A22DA7006F0D6FF03465B4A5360FFF7CA
:100E5000E9FE5A4B1B78012B0BD0594B1B78012B09
:100E600007D0584B1B78012B03D0574B1B78012B15
:100E700007D1FFF787FB06F0BDFF03464E4A5360DC
:100E800040E0524B1B78012B07D105F0ADFF06F077
:100E9000B1FF0346484A536034E04D4B1B78002BAA
:100EA00023D006F0A9F84A4B1B78012B02D1434B03
:100EB00001221A70464B1B78022B02D1404B0122B3
:100EC0001A70434B1B78032B02D13E4B01221A7040
:100ED0003F4B1B78042B02D13B4B01221A7006F0CA
:100EE00089FF0346344A53600CE006F083FF024654
:100EF000314B5B68D31A47F23052934202D900203B
:100F000000F0F6FA334B1A78334B1B789A421DD116
:100F1000304B5A78314B1B789A4217D1274B01221C
:100F20001A70274B01221A70264B01221A70264B89
:100F300001221A702A4B00221A802A4B00221A80A2
:100F4000294B00221A80294B00221A80214B9A78C3
:100F5000214B1B789A4221D11E4BDA781F4B1B780C
:100F60009A421BD1154B01221A70154B01221A709F
:100F7000144B01221A70144B01221A701C4B1A8850
:100F8000174B1A801A4B5A88164B1A80194B1A881D
:100F9000154B1A80174B5A88144B1A804FF47A70ED
:100FA00006F034FF53E700BF1401002000000240A8
:100FB000F40000205C060020EC0100204C0600201C
:100FC0004D0600204E0600204F0600203C06002063
:100FD0003D060020380600203006002031060020A3
:100FE000980600209A0600209C0600209E060020FD
:100FF000680600206C06002080B594B000AF07F1B1
:10100000200330220021184609F006FB07F10C03EB
:1010100000221A605A609A60DA601A610023BB608D
:10102000284B1B6C274A43F080531364254B1B6CE1
:1010300003F08053BB60BB6800237B60224B1B68BE
:10104000214A43F4404313601F4B1B6803F44043A1
:101050007B607B6806233B620523BB620123FB6246
:1010600010233B630223BB630023FB6308233B6421
:1010700064237B640223BB640423FB6407F1200325
:10108000184607F041FF0346002B01D000F014FA88
:101090000F23FB6002233B6100237B614FF48053ED
:1010A000BB610023FB6107F10C030321184608F024
:1010B000A3F90346002B01D000F0FEF900BF503722
:1010C000BD4680BD003802400070004080B500AFD2
:1010D000124B134A1A60114B124A5A600F4B0022EE
:1010E0009A600E4B0022DA600C4B4FF480421A617A
:1010F0000A4B00225A61094B00229A61074B0022D9
:10110000DA61064B00221A62044807F083F90346AD
:10111000002B01D000F0D0F900BF80BDA00000205E
:1011200000540040801A060080B586B000AF3B1D19
:1011300000221A605A609A60DA601A6100233B60EC
:10114000244B254A1A60234B00225A60214B7F22F0
:101150009A60204BFF22DA601E4B00221A611D4B61
:1011600000225A611B4B00229A611A4808F000FCC9
:101170000346002B01D000F09FF910233B71372369
:101180007B710023BB7100233B6100237B613B1D0E
:10119000002219460F4808F061FC0346002B01D0DD
:1011A00000F08AF901233B7001237B700123BB709F
:1011B0000023FB703B4600221946064808F046FD16
:1011C0000346002B01D000F077F900BF1837BD4669
:1011D00080BD00BFF40000200028004080B586B02C
:1011E00000AF07F1080300221A605A609A60DA60C3
:1011F0003B4600221A605A601E4B1F4A1A601D4B64
:1012000063225A601B4B00229A601A4B4FF6FE7203
:10121000DA60184B00221A61164B00225A61154BF6
:1012200000229A61134808F0D3FE0346002B01D038
:1012300000F042F94FF48053BB6007F108031946F0
:101240000C4808F06FFF0346002B01D000F034F982
:1012500000233B6000237B603B461946054809F0AC
:1012600043F90346002B01D000F026F900BF1837E0
:10127000BD4680BD140100200000014080B586B04D
:1012800000AF07F1080300221A605A609A60DA6022
:101290003B4600221A605A601D4B1E4A1A601C4BC6
:1012A00000225A601A4B00229A60194B4FF6FF72C7
:1012B000DA60174B00221A61154B00229A6114481C
:1012C00008F086FE0346002B01D000F0F5F84FF43D
:1012D0008053BB6007F1080319460D4808F022FF50
:1012E0000346002B01D000F0E7F800233B60002309
:1012F0007B603B461946064809F0F6F80346002B8A
:1013000001D000F0D9F800BF1837BD4680BD00BF3E
:101310005C0100200008004080B586B000AF07F1F6
:10132000080300221A605A609A60DA603B46002285
:101330001A605A601D4B1E4A1A601C4B4CF2DF4269
:101340005A601A4B00229A60184B1A4ADA60174BFF
:1013500000221A61154B00229A61144808F038FEE9
:101360000346002B01D000F0A7F84FF48053BB6078
:1013700007F1080319460D4808F0D4FE0346002B78
:1013800001D000F099F800233B6000237B603B46CE
:101390001946064809F0A8F80346002B01D000F0D2
:1013A0008BF800BF1837BD4680BD00BFA4010020E8
:1013B000000C00403F420F0080B588B000AF07F13D
:1013C0000C0300221A605A609A60DA601A610023E6
:1013D000BB60364B1B6B354A43F004031363334B3E
:1013E0001B6B03F00403BB60BB6800237B602F4BC7
:1013F0001B6B2E4A43F0010313632C4B1B6B03F052
:1014000001037B607B6800233B60284B1B6B274AF2
:1014100043F002031363254B1B6B03F002033B6095
:101420003B6800224FF4EC61214806F0C1FF002226
:101430004FF487611F4806F0BBFF4FF4EC63FB607D
:1014400001233B6100237B610023BB6107F10C0397
:101450001946174806F010FE4FF48763FB6001231E
:101460003B6100237B610023BB6107F10C0319463C
:10147000104806F001FE4FF46043FB604FF4041384
:101480003B6101237B6107F10C031946094806F013
:10149000F3FD00220021282006F0B7FD282006F0E9
:1014A000D0FD00BF2037BD4680BD00BF00380240E0
:1014B000000002400004024080B400AF72B600BFDA
:1014C000FEE7000080B483B000AF78603960064A60
:1014D0007B681360054A3B68136000BF0C37BD464C
:1014E0005DF8047B704700BFF4010020F801002084
:1014F00080B582B000AF0346FB7105F027F80020ED
:1015000004F0F4FCFB794C2B01F2208401A252F888
:1015100023F000BF4916000851160008971600086E
:10152000DD1600082317000869170008AF17000828
:10153000F51700083B18000881180008C7180008B4
:101540000D19000853190008C1190008071A0008EE
:101550004D1A0008931A0008D91A00081F1B00082A
:10156000651B0008AB1B0008F11B0008371C0008B6
:101570007D1C0008C31C0008291D00086F1D000801
:10158000B51D0008FB1D0008411E0008871E00084D
:10159000CD1E0008131F0008591F00089F1F0008D8
:1015A000E51F00082B20000895200008DB2000081C
:1015B0002121000867210008AD210008F32100085F
:1015C000392200087F220008C52200080B230008EA
:1015D0005123000897230008052400084B24000825
:1015E00091240008D72400081D2500086125000863
:1015F000A5250008E92500083F26000895260008D3
:10160000EB26000881270008FB2700087528000842
:10161000EF28000869290008E32900084B2A000880
:10162000ED2A0008552B00088D2B0008C52B00085B
:10163000FD2B0008352C00086D2C0008A52C000897
:10164000DD2C0008152D000804F093FF01F07FBB8E
:101650000B21292004F0CCFC0122CF49CF4804F013
:101660005DFD012303220E21142004F077FE1F21CB
:10167000292004F0BDFC0122C749C94804F04EFDF1
:101680003321292004F0B4FC0122C349C54804F0E9
:1016900045FD01F05CBB0B21292004F0A9FC0122CF
:1016A000BD49BE4804F03AFD1F21292004F0A0FCEA
:1016B0000122B949BA4804F031FD01230322232154
:1016C000142004F04BFE3321292004F091FC012268
:1016D000B149B44804F022FD01F039BB0B212920A7
:1016E00004F086FC0122AC49AC4804F017FD1F2130
:1016F000292004F07DFC0122A749A94804F00EFD31
:101700003321292004F074FC0122A349A54804F0E8
:1017100005FD012303223821142004F01FFE01F0EF
:1017200016BB0B21292004F063FC01229A499C4836
:1017300004F0F4FC1F21292004F05AFC01229649F0
:10174000984804F0EBFC3321292004F051FC0122DD
:101750009149954804F0E2FC01230322382114202A
:1017600004F0FCFD01F0F3BA0B21292004F040FC49
:10177000012289498B4804F0D1FC1F21292004F063
:1017800037FC01228449884804F0C8FC3321292011
:1017900004F02EFC01228049844804F0BFFC0123A0
:1017A00003223821142004F0D9FD01F0D0BA0B2116
:1017B000292004F01DFC012277497A4804F0AEFC90
:1017C0001F21292004F014FC01227349764804F0FB
:1017D000A5FC012303222321142004F0BFFD3321A3
:1017E000292004F005FC01226B49704804F096FCA6
:1017F00001F0ADBA0B21292004F0FAFB0122664961
:10180000684804F08BFC012303220E21142004F00D
:10181000A5FD1F21292004F0EBFB01225E4962484F
:1018200004F07CFC3321292004F0E2FB01225A4918
:101830005E4804F073FC01F08ABA0B21292004F001
:10184000D7FB01225449564804F068FC01230322C7
:101850000E21142004F082FD1F21292004F0C8FB72
:1018600001224D494F4804F059FC3321292004F04E
:10187000BFFB012248494C4804F050FC01F067BA14
:101880000B21292004F0B4FB01224349484804F00D
:1018900045FC012303220E21142004F05FFD1F21CB
:1018A000292004F0A5FB01223B49424804F036FC04
:1018B0003321292004F09CFB012237493E4804F0E3
:1018C0002DFC01F044BA0B21292004F091FB0122E8
:1018D0003149374804F022FC1F21292004F088FBFD
:1018E00001222D49334804F019FC0123032223214E
:1018F000142004F033FD3321292004F079FB012268
:1019000025492D4804F00AFC01F021BA0B212920B9
:1019100004F06EFB01222049254804F0FFFB1F2143
:10192000292004F065FB01221B49224804F0F6FB44
:101930003321292004F05CFB012217491E4804F0E2
:10194000EDFB012303223821142004F007FD01F0F0
:10195000FEB90B21292004F04BFB01220E4915484A
:1019600004F0DCFB1F21292004F042FB01220A497C
:10197000114804F0D3FB3321292004F039FB012264
:1019800005490E4804F0CAFB012303223821142024
:1019900004F0E4FC01F0DBB9000000203CAF0008DB
:1019A00044AF00084CAF000854AF00085CAF00081B
:1019B00068AF000870AF00087CAF000888AF00086F
:1019C0000B21292004F014FB0122CF49CF4804F059
:1019D000A5FB1F21292004F00BFB0122CA49CC489A
:1019E00004F09CFB012303222321142004F0B6FC05
:1019F0003321292004F0FCFA0122C349C54804F030
:101A00008DFB01F0A4B90B21292004F0F1FA012289
:101A1000BD49BE4804F082FB012303220E2114209D
:101A200004F09CFC1F21292004F0E2FA0122B649AF
:101A3000B74804F073FB3321292004F0D9FA0122BE
:101A4000B149B44804F06AFB01F081B90B212920A7
:101A500004F0CEFA0122AC49AF4804F05FFB012349
:101A600003220E21142004F079FC1F21292004F008
:101A7000BFFA0122A449A54804F050FB33212920D4
:101A800004F0B6FA0122A049A44804F047FB01F093
:101A90005EB90B21292004F0ABFA01229A499E4835
:101AA00004F03CFB1F21292004F0A2FA01229649F0
:101AB000964804F033FB012303222321142004F071
:101AC0004DFC3321292004F093FA01228E499348DA
:101AD00004F024FB01F03BB90B21292004F088FA23
:101AE000012289498C4804F019FB1F21292004F0A8
:101AF0007FFA01228449854804F010FB3321292014
:101B000004F076FA01228049844804F007FB01239F
:101B100003223821142004F021FC01F018B90B2114
:101B2000292004F065FA01227749784804F0F6FA92
:101B30001F21292004F05CFA01227349774804F040
:101B4000EDFA3321292004F053FA01226E4974483A
:101B500004F0E4FA012303223821142004F0FEFBF0
:101B600001F0F5B80B21292004F042FA0122664960
:101B70006A4804F0D3FA1F21292004F039FA01221F
:101B80006149674804F0CAFA3321292004F030FA89
:101B900001225D49634804F0C1FA01230322382180
:101BA000142004F0DBFB01F0D2B80B21292004F053
:101BB0001FFA01225449594804F0B0FA1F21292084
:101BC00004F016FA01225049554804F0A7FA0123FF
:101BD00003222321142004F0C1FB3321292004F027
:101BE00007FA012248494F4804F098FA01F0AFB8CB
:101BF0000B21292004F0FCF901224349474804F055
:101C00008DFA012303220E21142004F0A7FB1F21CB
:101C1000292004F0EDF901223B49414804F07EFA05
:101C20003321292004F0E4F9012237493D4804F02A
:101C300075FA01F08CB80B21292004F0D9F90122A2
:101C40003149354804F06AFA012303220E21142099
:101C500004F084FB1F21292004F0CAF901222A493B
:101C60002B4804F05BFA3321292004F0C1F901224A
:101C700025492A4804F052FA01F069B80B212920BD
:101C800004F0B6F901222049234804F047FA1F2145
:101C9000292004F0ADF901221B491D4804F03EFA49
:101CA000012303222321142004F058FB332129208F
:101CB00004F09EF901221449184804F02FFA01F0AB
:101CC00046B80B21292004F093F901220E4912484D
:101CD00004F024FA1F21292004F08AF901220A497C
:101CE0000B4804F01BFA3321292004F081F901226A
:101CF00005490A4804F012FA01230322382114206E
:101D000004F02CFB01F023B80000002070AF0008A5
:101D10007CAF000888AF000868AF000890AF0008EB
:101D200094AF000898AF00080B21292004F060F957
:101D30000122CF49CF4804F0F1F91F21292004F0F6
:101D400057F90122CA49CC4804F0E8F93321292087
:101D500004F04EF90122C649C84804F0DFF9012316
:101D600003223821142004F0F9FA00F0F0BF0B210F
:101D7000292004F03DF90122BD49BF4804F0CEF905
:101D80001F21292004F034F90122B949BB4804F08D
:101D9000C5F93321292004F02BF90122B449B848B0
:101DA00004F0BCF9012303223821142004F0D6FAF0
:101DB00000F0CDBF0B21292004F01AF90122AC4913
:101DC000AD4804F0ABF91F21292004F011F90122DC
:101DD000A749AA4804F0A2F90123032223211420D1
:101DE00004F0BCFA3321292004F002F90122A049B1
:101DF000A34804F093F900F0AABF0B21292004F0B6
:101E0000F7F801229A499C4804F088F9012303223B
:101E10000E21142004F0A2FA1F21292004F0E8F872
:101E200001229349954804F079F93321292004F0DF
:101E3000DFF801228E49924804F070F900F087BF64
:101E40000B21292004F0D4F8012289498D4804F09F
:101E500065F9012303220E21142004F07FFA1F21CB
:101E6000292004F0C5F801228149874804F056F979
:101E70003321292004F0BCF801227D497E4804F07A
:101E80004DF900F064BF0B21292004F0B1F80122C4
:101E900077497C4804F042F91F21292004F0A8F872
:101EA00001227349784804F039F9012303222321E0
:101EB000142004F053FA3321292004F099F8012268
:101EC0006B496D4804F02AF900F041BF0B2129202D
:101ED00004F08EF8012266496A4804F01FF91F21B8
:101EE000292004F085F801226149674804F016F9B9
:101EF0003321292004F07CF801225D495E4804F07A
:101F00000DF9012303223821142004F027FA00F0F0
:101F10001EBF0B21292004F06BF8012254495A48B6
:101F200004F0FCF81F21292004F062F80122504936
:101F3000514804F0F3F83321292004F059F8012224
:101F40004B494E4804F0EAF80123032238211420BB
:101F500004F004FA00F0FBBE0B21292004F048F83D
:101F600001224349444804F0D9F81F21292004F0F4
:101F70003FF801223E49414804F0D0F8332129209E
:101F800004F036F801223A493D4804F0C7F801232D
:101F900003223821142004F0E1F900F0D8BE0B210F
:101FA000292004F025F801223149334804F0B6F81D
:101FB0001F21292004F01CF801222D492F4804F08C
:101FC000ADF8012303222321142004F0C7F93321A3
:101FD000292004F00DF801222549294804F09EF833
:101FE00000F0B5BE0B21292004F002F8012220499F
:101FF000214804F093F8012303220E21142004F059
:10200000ADF91F21292003F0F3FF012218491B48D5
:1020100004F084F83321292003F0EAFF0122144957
:10202000174804F07BF800F092BE0B21292003F042
:10203000DFFF01220E49134804F070F80123032248
:102040000E21142004F08AF91F21292003F0D0FF6B
:10205000012207490D4804F061F83321292003F0DB
:10206000C7FF012202490A4804F058F800F06FBE89
:10207000000000207CAF000890AF000894AF00087B
:1020800098AF000868AF000888AF0008A0AF00084C
:10209000A4AF00080B21292003F0AAFF0122CF4999
:1020A000CF4804F03BF81F21292003F0A1FF0122B3
:1020B000CA49CC4804F032F801230322232114201A
:1020C00004F04CF93321292003F092FF0122C34987
:1020D000C54804F023F800F03ABE0B21292003F094
:1020E00087FF0122BD49BE4804F018F81F212920AE
:1020F00003F07EFF0122B949BA4804F00FF83321FA
:10210000292003F075FF0122B449B74804F006F80E
:10211000012303223821142004F020F900F017BE17
:102120000B21292003F064FF0122AC49AD4803F0E4
:10213000F5FF1F21292003F05BFF0122A749AA48D0
:1021400003F0ECFF3321292003F052FF0122A349C1
:10215000A64803F0E3FF012303223821142004F0F2
:10216000FDF800F0F4BD0B21292003F041FF01220E
:102170009A499C4803F0D2FF1F21292003F038FF21
:1021800001229649984803F0C9FF01230322232125
:10219000142004F0E3F83321292003F029FF012261
:1021A0008E49924803F0BAFF00F0D1BD0B212920DF
:1021B00003F01EFF012289498A4803F0AFFF012383
:1021C00003220E21142004F0C9F81F21292003F056
:1021D0000FFF01228149844803F0A0FF3321292009
:1021E00003F006FF01227D49804803F097FF00F0CD
:1021F000AEBD0B21292003F0FBFE01227749784870
:1022000003F08CFF012303220E21142004F0A6F812
:102210001F21292003F0ECFE01227049744803F0CD
:102220007DFF3321292003F0E3FE01226B49714831
:1022300003F074FF00F08BBD0B21292003F0D8FEC2
:1022400001226649664803F069FF1F21292003F037
:10225000CFFE01226149664803F060FF012303229B
:102260002321142004F07AF83321292003F0C0FE42
:1022700001225A495F4803F051FF00F068BD0B216D
:10228000292003F0B5FE01225449554803F046FFCA
:102290001F21292003F0ACFE01225049544803F0CD
:1022A0003DFF3321292003F0A3FE01224B49514871
:1022B00003F034FF012303223821142004F04EF8E8
:1022C00000F045BD0B21292003F092FE0122434975
:1022D000474803F023FF1F21292003F089FE012234
:1022E0003E49444803F01AFF3321292003F080FEC1
:1022F00001223A49404803F011FF0123032238210B
:10230000142004F02BF800F022BD0B21292003F04B
:102310006FFE01223149364803F000FF1F212920BA
:1023200003F066FE01222D49324803F0F7FE012337
:1023300003222321142004F011F83321292003F073
:1023400057FE012225492C4803F0E8FE00F0FFBCAF
:102350000B21292003F04CFE01222049244803F0E0
:10236000DDFE012303220E21142003F0F7FF1F21BD
:10237000292003F03DFE012218491E4803F0CEFE3D
:102380003321292003F034FE012214491A4803F0B6
:10239000C5FE00F0DCBC0B21292003F029FE012240
:1023A0000E490F4803F0BAFE012303220E21142028
:1023B00003F0D4FF1F21292003F01AFE0122074950
:1023C0000E4803F0ABFE3321292003F011FE012259
:1023D00002490B4803F0A2FE00F0B9BC0000002047
:1023E00068AF0008A0AF0008A4AF0008B0AF0008B5
:1023F000B8AF0008C4AF0008D4AF0008E4AF0008CD
:10240000F0AF00080B21292003F0F2FD0122D14991
:10241000D14803F083FE1F21292003F0E9FD0122AA
:10242000CC49CE4803F07AFE012303222321142055
:1024300003F094FF3321292003F0DAFD0122C5497E
:10244000C74803F06BFE00F082BC0B21292003F08B
:10245000CFFD0122BF49C04803F060FE1F212920A3
:1024600003F0C6FD0122BB49BC4803F057FE3321EF
:10247000292003F0BDFD0122B649B94803F04EFE04
:10248000012303223821142003F068FF00F05FBC11
:102490000B21292003F0ACFD0122AE49AF4803F027
:1024A0003DFE1F21292003F0A3FD0122A949AC48CC
:1024B00003F034FE3321292003F09AFD0122A549BF
:1024C000A84803F02BFE012303223821142003F037
:1024D00045FF00F03CBC0B21292003F089FD0122BF
:1024E0009C499F4803F01AFE1F21292003F080FD1C
:1024F000012298499B4803F011FE3321292003F063
:1025000077FD01229349984803F008FE0123032236
:102510003821142003F022FF00F019BC0B212920E0
:1025200003F066FD01228B498D4803F0F7FD1F2162
:10253000292003F05DFD012286498A4803F0EEFD63
:10254000012303222321142003F008FF3321292033
:1025500003F04EFD01227F49834803F0DFFDF6E3DF
:102560000B21292003F044FD01227A497C4803F025
:10257000D5FD012303220E21142003F0EFFE1F21BD
:10258000292003F035FD01227249764803F0C6FD8B
:102590003321292003F02CFD01226E49724803F0FB
:1025A000BDFDD4E30B21292003F022FD012269495E
:1025B0006A4803F0B3FD012303220E21142003F027
:1025C000CDFE1F21292003F013FD0122614964483B
:1025D00003F0A4FD3321292003F00AFD01225D4907
:1025E000604803F09BFDB2E30B21142003F000FDD3
:1025F00001225849584803F091FD012303220E217E
:102600000A2003F0ABFE1F21142003F0F1FC01228D
:102610005049564803F082FD3321142003F0E8FCB2
:1026200001224C49524803F079FD33216F2003F019
:10263000DFFC504B1B78184603F06CFF87E30B213F
:10264000142003F0D5FC01224249434803F066FD03
:102650001F21142003F0CCFC01223E49434803F023
:102660005DFD0123032223210A2003F077FE33219D
:10267000142003F0BDFC012236493D4803F04EFD15
:1026800033216F2003F0B4FC3A4B1B78184603F05B
:1026900041FF5CE30B21142003F0AAFC01222D4929
:1026A0002D4803F03BFD1F21142003F0A1FC012263
:1026B00028492E4803F032FD3321142003F098FC02
:1026C000012224492A4803F029FD33216F2003F019
:1026D0008FFC284B1B78184603F01CFF01230322B4
:1026E00038210A2003F03AFE31E30B21142003F0D5
:1026F0007FFC012217491D4803F010FD1F21142003
:1027000003F076FC01221349194803F007FD1F214D
:102710006F2003F06DFC174B1B78184603F0FAFE90
:102720003321142003F064FC01220A49124803F00B
:10273000F5FC33216F2003F05BFC104B1B7818462F
:1027400003F0E8FE0123032238210A2003F006FEED
:10275000FDE200BF0000002068AF0008E4AF000801
:10276000F0AF0008FCAF000808B0000814B0000883
:102770001CB000083E0600202CB000083F060020D8
:102780000B21142003F034FC0122CA49CA4803F08B
:10279000C5FC0B216F2003F02BFCC84B1B7818469F
:1027A00003F0B8FE1F21142003F022FC0122C149CE
:1027B000C34803F0B3FC1F216F2003F019FCC14B89
:1027C0001B78184603F0A6FE3321142003F010FCFA
:1027D0000122B849BC4803F0A1FC33216F2003F06B
:1027E00007FCBA4B1B78184603F094FE0123032222
:1027F00038210A2003F0B2FDA9E20B21142003F0D6
:10280000F7FB0122AB49AE4803F088FC0B216F2097
:1028100003F0EEFBAB4B1B78184603F07BFE1F2149
:10282000142003F0E5FB0122A249A74803F076FC3F
:102830001F216F2003F0DCFBA44B1B78184603F02C
:1028400069FE3321142003F0D3FB01229949A048EB
:1028500003F064FC33216F2003F0CAFB9D4B1B780F
:10286000184603F057FE0123032238210A2003F003
:1028700075FD6CE20B21142003F0BAFB01228D4997
:102880008F4803F04BFC0B216F2003F0B1FB8D4B05
:102890001B78184603F03EFE1F21142003F0A8FB0E
:1028A00001228449884803F039FC1F216F2003F07E
:1028B0009FFB864B1B78184603F02CFE0123032256
:1028C00023210A2003F04AFD3321142003F090FB5A
:1028D000012278497E4803F021FC33216F2003F068
:1028E00087FB7C4B1B78184603F014FE2FE20B216C
:1028F000142003F07DFB01226E49714803F00EFCA9
:102900000B216F2003F074FB6E4B1B78184603F00D
:1029100001FE012303220E210A2003F01FFD1F21C7
:10292000142003F065FB01226249674803F0F6FBBF
:102930001F216F2003F05CFB644B1B78184603F0EB
:10294000E9FD3321142003F053FB0122594960486B
:1029500003F0E4FB33216F2003F04AFB5D4B1B784F
:10296000184603F0D7FDF2E10B21142003F040FBE1
:1029700001225049504803F0D1FB0B216F2003F096
:1029800037FB4E4B1B78184603F0C4FD012303228E
:102990000E210A2003F0E2FC1F21142003F028FB83
:1029A00001224449464803F0B9FB1F216F2003F080
:1029B0001FFB444B1B78184603F0ACFD3321142059
:1029C00003F016FB01223B493F4803F0A7FB3321EC
:1029D0006F2003F00DFB3D4B1B78184603F09AFD6A
:1029E000B5E10B21292003F003FB012231493A48CC
:1029F00003F094FB012303220E21142003F0AEFC0C
:102A00001F21292003F0F4FA01222A49334803F058
:102A100085FB1F215B2003F0EBFA314B1B68184646
:102A200003F078FD3321292003F0E2FA0122214945
:102A30002C4803F073FB33215B2003F0D9FA2A4BB7
:102A40001B68184603F066FD81E10B21292003F085
:102A5000CFFA01221749204803F060FB1F212920EB
:102A600003F0C6FA012213491C4803F057FB1F214B
:102A70005B2003F0BDFA1A4B1B68184603F04AFDB1
:102A8000012303222321142003F068FC3321292091
:102A900003F0AEFA01220749124803F03FFB33214D
:102AA0005B2003F0A5FA104B1B68184603F032FDBB
:102AB0004DE100BF000000201CB000083E060020D1
:102AC0002CB000083F0600203CB000084006002063
:102AD0004CB000084106002068AF00085CB0000858
:102AE000F401002064B00008F80100200B21292027
:102AF00003F07EFA01229949994803F00FFB1F2148
:102B0000292003F075FA01229449964803F006FB48
:102B10001F215B2003F06CFA934B1B68184603F0EF
:102B2000F9FC3321292003F063FA01228B498F48F5
:102B300003F0F4FA33215B2003F05AFA8C4B1B6844
:102B4000184603F0E7FC012303223821142003F088
:102B500005FCFCE00B21192003F04AFA01227F4911
:102B6000844803F0DBFA1F21192003F041FA012207
:102B70007A49814803F0D2FA3321192003F038FA58
:102B8000012276497D4803F0C9FAE0E00B211920C3
:102B900003F02EFA01227149794803F0BFFA1F2190
:102BA000192003F025FA01226C49764803F0B6FAA1
:102BB0003321192003F01CFA012268496F4803F001
:102BC000ADFAC4E00B21192003F012FA0122634987
:102BD0006D4803F0A3FA1F21192003F009FA01221E
:102BE0005E496A4803F09AFA3321192003F000FA8B
:102BF00001225A49664803F091FAA8E00B211920F6
:102C000003F0F6F9012255495F4803F087FA1F21C6
:102C1000192003F0EDF9012250495E4803F07EFAD5
:102C20003321192003F0E4F901224C495A4803F0FA
:102C300075FA8CE00B21192003F0DAF901224749DB
:102C4000514803F06BFA1F21192003F0D1F901223A
:102C50004249524803F062FA3321192003F0C8F9BF
:102C600001223E494C4803F059FA70E00B2119202B
:102C700003F0BEF901223949434803F04FFA1F21FE
:102C8000192003F0B5F901223449424803F046FA0D
:102C90003321192003F0ACF901223049404803F0F8
:102CA0003DFA54E00B21192003F0A2F901222B492F
:102CB000354803F033FA1F21192003F099F9012256
:102CC0002649364803F02AFA3321192003F090F9F7
:102CD00001222249324803F021FA38E00B21192061
:102CE00003F086F901221D49274803F017FA1F2136
:102CF000192003F07DF9012218492A4803F00EFA41
:102D00003321192003F074F901221449264803F0F5
:102D100005FA1CE00B21192003F06AF901220F4982
:102D2000194803F0FBF91F21192003F061F9012272
:102D30000A491C4803F0F2F93321192003F058F92D
:102D400001220649194803F0E9F900E000BF03F049
:102D50009BF800BF0837BD4680BD00BF00000020C3
:102D600068AF00085CB00008F401002064B00008FF
:102D7000F80100206CB000087CB000088CB000089E
:102D800098B00008A4B00008B0B00008BCB00008BB
:102D9000CCB00008D8B00008E8B00008F0B00008D7
:102DA00000B1000808B1000814B100081CB1000807
:102DB00080B500AF034B1B78002B05D004F01CF945
:102DC00002F096BF3D0600208F4B1B78002B22D1CE
:102DD0008D4B5B78002B1ED18C4B1B68002B1AD1BE
:102DE0008B4B1B78002B16D1894B5B78002B12D1B3
:102DF0000120FEF77DFB874B1B68012B0BD1824B1B
:102E000001221A70834B00221A60804B00221A6044
:102E10007F4B00221A707C4B1B78002B1ED17B4B02
:102E20001B68012B1AD17A4B1B78002B16D1784BDB
:102E30005B78002B12D10220FEF75AFB754B1B6802
:102E4000012B0BD1704B02221A70724B00221A60B8
:102E50006E4B00221A606E4B00221A706A4B1B7870
:102E6000002B22D1684B5B78002B1ED1674B1B686F
:102E7000022B1AD1664B1B78002B16D1644B5B7862
:102E8000002B12D10320FEF733FB624B1B68012B92
:102E90000BD15D4B03221A705E4B00221A605B4B14
:102EA00000221A605A4B00221A70574B1B78002BD5
:102EB00022D1554B5B78002B1ED1544B1B68032B42
:102EC0001AD1534B1B78002B16D1514B5B78002B3A
:102ED00012D10420FEF70CFB4E4B1B68012B0BD1CB
:102EE000494B04221A704B4B00221A60474B0022B8
:102EF0001A60474B00221A70434B1B78002B21D1DC
:102F0000414B5B78002B1DD1404B1B68042B19D122
:102F10003F4B5B78002B15D10520FEF7E9FA3C4BBF
:102F200001221A703B4B1B68012B0BD1364B072239
:102F30001A70384B00221A60344B00221A60344B4E
:102F400000221A70304B1B78002B22D12E4B5B785D
:102F5000002B1ED12D4B1B68032B1AD12C4B1B7839
:102F6000012B16D12A4B5B78002B12D10620FEF7DD
:102F7000BFFA284B1B68012B0BD1234B04221A707C
:102F8000244B00221A60214B00221A60204B0022A1
:102F90001A701D4B1B78002B22D11B4B5B78002B2A
:102FA0001ED11A4B1B68022B1AD1194B1B78012B0F
:102FB00016D1174B5B78002B12D10720FEF798FA39
:102FC000144B1B68012B0BD10F4B03221A70114BB2
:102FD00000221A600D4B00221A600D4B00221A705D
:102FE000094B1B78002B2BD1074B5B78002B27D18B
:102FF000064B1B68012B23D1054B1B78012B1FD1DE
:10300000034B5B78002B07E05006002028060020C9
:10301000540600202C06002012D10820FEF768FA82
:103020008F4B1B68012B0BD18E4B02221A708C4BDD
:1030300000221A608C4B00221A608C4B00221A70FE
:10304000884B1B78002B25D1864B5B78002B21D138
:10305000854B1B68002B1DDC844B1B78012B19D181
:10306000824B5B78002B15D10120FEF741FA7F4B94
:1030700000221A707A4B1B68012B0BD1794B01226D
:103080001A70774B00221A60774B00221A60774B38
:1030900000221A70734B1B78002B15D1714B5B7893
:1030A000002B11D1704B1B68002B0DDA6F4B1B7876
:1030B000002B09D16D4B5B78002B05D10520FEF765
:1030C00017FA694B04221A60664B1B78002B18D143
:1030D000644B5B78002B14D1634B1B68042B10DD11
:1030E000624B1B78012B0CD1604B5B78002B08D115
:1030F0000120FEF7FDF95C4B00221A605B4B0022B9
:103100001A70584B1B78072B26D0564B1B78002B78
:1031100022D0544B5B78002B1ED1534B1B68002BE5
:103120001AD1524B1B78002B16D1504B5B78002BD9
:1031300012D10920FEF7DCF9494B1B68012B0BD19A
:10314000484B00221A70464B00221A60464B002260
:103150001A60464B00221A70424B1B78072B26D070
:10316000404B1B78002B22D03E4B5B78002B1ED1AE
:103170003D4B1B68012B1AD13C4B1B78002B16D101
:103180003A4B5B78002B12D10A20FEF7B1F9344B91
:103190001B68012B0BD1334B01225A70304B00229C
:1031A0001A60314B00221A60304B00221A702D4BEE
:1031B0001B78072B26D02B4B1B78002B22D0294BBA
:1031C0005B78002B1ED1284B1B68022B1AD1274B92
:1031D0001B78002B16D1254B5B78002B12D10B20CE
:1031E000FEF786F91E4B1B68012B0BD11D4B0222EB
:1031F0005A701B4B00221A601B4B00221A601B4B9B
:1032000000221A70174B1B78072B25D0154B1B7803
:10321000002B21D0134B5B78002B1DD1124B1B6868
:10322000032B19D1114B5B78002B15D10C20FEF725
:103230005FF90E4B01221A70094B1B68012B0BD151
:10324000084B03225A70064B00221A60064B0022DC
:103250001A60064B00221A70024B1B78072B07E0FE
:103260002C060020500600202806002054060020CE
:1032700026D07F4B1B78002B22D07D4B5B78002B18
:103280001ED17C4B1B68022B1AD17B4B1B78012B68
:1032900016D1794B5B78002B12D10D20FEF728F95F
:1032A000764B1B68012B0BD1714B02225A70734B6A
:1032B00000221A606F4B00221A606F4B00221A70B6
:1032C0006B4B1B78072B29D0694B1B78002B25D023
:1032D000674B5B78002B21D1664B1B68012B1DD1FE
:1032E000654B1B78012B19D1634B5B78002B15D1F3
:1032F0000E20FEF7FDF8604B00221A705F4B1B6832
:10330000012B0BD15A4B01225A705C4B00221A60E0
:10331000584B00221A60584B00221A70544B1B78ED
:10332000072B19D0524B1B78002B15D0504B5B78D4
:10333000002B11D14F4B1B68002B0DDA4E4B1B7825
:10334000002B09D14C4B5B78002B05D10C20FEF7EC
:10335000CFF8484B04221A60454B1B78072B1CD032
:10336000434B1B78002B18D0414B5B78002B14D1BA
:10337000404B1B68032B10DD3F4B1B78012B0CD1FE
:103380003D4B5B78002B08D10920FEF7B1F8394B93
:1033900000221A60384B00221A70354B1B78072B1D
:1033A00026D0334B1B78002B22D0314B5B78012B7E
:1033B0001ED1304B1B68002B1AD12F4B1B78002BD2
:1033C00016D12D4B5B78002B12D10F20FEF790F811
:1033D0002A4B1B68012B0BD1254B00225A70274B1F
:1033E00000221A60234B00221A60234B00221A701D
:1033F0001F4B1B78072B68D01D4B1B78002B64D00C
:103400001B4B5B78012B60D11A4B1B68012B5CD1E5
:10341000194B1B78002B58D1174B5B78002B54D1DC
:103420001020FEF765F8154B1B68012B4DD1104B92
:103430001B78012B06D1124B01221A70114B00226E
:103440001A8033E00A4B1B78022B06D10E4B012267
:103450001A700E4B00221A8028E0054B1B78032BB4
:103460001AD10B4B01221A700A4B00221A801DE060
:103470005006002028060020540600202C060020BC
:103480004C060020980600204D0600209A060020D9
:103490004E0600209C0600208F4B1B78042B05D184
:1034A0008E4B01221A708E4B00221A808A4B00220A
:1034B0005A70894B00221A708A4B00221A608A4B7C
:1034C00000221A60894B00221A70834B1B78072B4D
:1034D00064D0814B1B78002B60D07F4B5B78012B35
:1034E0005CD1814B1B68022B58D1804B1B78002B81
:1034F00054D17E4B5B78002B50D11120FDF7F8FFA3
:10350000784B1B68012B49D1734B1B78012B0AD1D7
:10351000774B01221A70774B1A88774B1A80774BBA
:1035200001221A702BE06C4B1B78022B0AD1744BD2
:1035300001221A706F4B5A88724B1A806F4B01220E
:103540005A701CE0644B1B78032B0AD16E4B01228E
:103550001A706E4B1A886E4B1A80684B01229A7053
:103560000DE05D4B1B78042B09D15C4B01221A70D6
:10357000664B5A885A4B1A80604B0122DA70564BC0
:1035800000225A70544B00221A70564B00221A60C7
:10359000554B00221A60554B00221A704E4B1B7877
:1035A000072B64D04C4B1B78002B60D04A4B5B78C8
:1035B000012B5CD14C4B1B68032B58D14B4B1B7818
:1035C000002B54D1494B5B78002B50D11220FDF7D2
:1035D0008FFF444B1B68012B49D13F4B1B78012BBC
:1035E0000AD1434B01221A704A4B1A88424B1A8067
:1035F000424B01221A702BE0374B1B78022B0AD169
:103600003F4B01221A70434B5A883E4B1A803B4B6A
:1036100001225A701CE0304B1B78032B0AD13A4B25
:1036200001221A703C4B1A88394B1A80334B012205
:103630009A700DE0284B1B78042B09D1274B0122EF
:103640001A70354B5A88264B1A802C4B0122DA709F
:10365000214B00225A70204B00221A70214B00226D
:103660001A60214B00221A60204B00221A701A4B5C
:103670001B78072B76D0184B1B78002B72D0164B7B
:103680005B78012B6ED1184B1B68042B6AD1174B4A
:103690005B78002B66D11320FDF72AFF134B012224
:1036A0001A70104B1B68012B5CD10B4B1B78012B44
:1036B00006D10F4B00221A70104B00221A7042E004
:1036C000054B1B78022B29D10D4B00221A700B4B96
:1036D00000225A7037E000BF500600204F0600203D
:1036E0009E0600202C0600202806002054060020FC
:1036F0004C06002070060020980600205806002086
:103700004D0600209A0600204E0600207406002078
:103710009C060020780600207C0600206F4B1B785A
:10372000032B06D16E4B00221A706E4B00229A704A
:1037300009E06A4B1B78042B05D16B4B00221A70F1
:10374000684B0022DA70654B00225A70634B0022EE
:103750001A70664B00221A60654B00221A60654B96
:1037600000221A705D4B1B78072B64D05B4B1B78D3
:10377000002B60D0594B5B78012B5CD15C4B1B68F4
:10378000032B58D15B4B1B78012B54D1594B5B78E1
:10379000002B50D11420FDF7ABFE544B1B68012BBE
:1037A00049D14E4B1B78012B0AD1534B01221A7081
:1037B000524B1A88524B1A804A4B01221A702BE046
:1037C000464B1B78022B0AD14E4B01221A704B4BF1
:1037D0005A884D4B1A80434B01225A701CE03F4BD4
:1037E0001B78032B0AD13E4B01221A70474B1A88D3
:1037F000474B1A803B4B01229A700DE0374B1B78E8
:10380000042B09D1384B01221A70404B5A88414B86
:103810001A80344B0122DA70304B00225A702F4B41
:1038200000221A70314B00221A60314B00221A60BC
:10383000304B00221A70294B1B78072B00F08D802B
:10384000264B1B78002B00F08880244B5B78012BE3
:1038500040F08380264B1B68022B7ED1254B1B78C2
:10386000012B7AD1234B5B78002B76D11520FDF705
:103870003FFE204B00221A701C4B1B68012B6CD1A1
:10388000164B1B78012B0AD11B4B01221A70224BBD
:103890001A881B4B1A80134B01221A704EE00F4BF3
:1038A0001B78022B0AD1174B01221A701A4B5A8827
:1038B000154B1A800B4B01225A703FE0074B1B78C7
:1038C000032B2DD1064B01221A70144B1A88104B72
:1038D0001A80044B01229A7030E000BF500600208D
:1038E0004E060020580600204F0600202C0600201F
:1038F00028060020540600204C06002078060020F0
:10390000980600204D0600209A0600207C06002024
:103910009C0600209E0600207006002074060020F1
:103920008F4B1B78042B09D18E4B01221A708E4BC2
:103930005A888E4B1A808E4B0122DA70884B0022F7
:103940005A70874B00221A708A4B00221A608A4BE9
:1039500000221A60894B00221A70814B1B78072BBA
:1039600019D07F4B1B78002B15D07D4B5B78012B3A
:1039700011D1814B1B68002B0DDA804B1B78002B7B
:1039800009D17E4B5B78002B05D11320FDF7B0FDEC
:10399000794B04221A60724B1B78072B1CD0704B9A
:1039A0001B78002B18D06E4B5B78012B14D1724B17
:1039B0001B68042B10DD714B1B78012B0CD16F4B56
:1039C0005B78002B08D10F20FDF792FD6A4B002297
:1039D0001A606A4B00221A70614B1B78072B26D0A5
:1039E0005F4B1B78002B22D05D4B5B78022B1ED1E6
:1039F000614B1B68002B1AD1604B1B78002B16D132
:103A00005E4B5B78002B12D11620FDF771FD594BF0
:103A10001B68012B0BD1524B00225A70554B0022D0
:103A20001A60554B00221A60544B00221A704C4BFE
:103A30001B78072B64D04A4B1B78002B60D0484B77
:103A40005B78022B5CD14C4B1B68012B58D14B4B44
:103A50001B78002B54D1494B5B78002B50D1172099
:103A6000FDF746FD434B1B68012B49D13C4B1B78AE
:103A7000012B0AD1424B01221A70424B1A88424B49
:103A80001A803B4B01221A702BE0354B1B78022B1E
:103A90000AD13E4B01221A703A4B5A883C4B1A808D
:103AA000334B01225A701CE02D4B1B78032B0AD19B
:103AB000384B01221A70384B1A88384B1A802C4B1D
:103AC00001229A700DE0264B1B78042B09D1254B5F
:103AD00001221A70304B5A88244B1A80244B012241
:103AE000DA701F4B00225A701D4B00221A70214BB6
:103AF00000221A60204B00221A60204B00221A700C
:103B0000174B1B78072B00F08880154B1B78002B78
:103B100000F08380124B5B78022B7ED1164B1B6822
:103B2000022B7AD1154B1B78002B76D1134B5B7887
:103B3000002B72D11820FDF7DBFC0E4B1B68012B0C
:103B40006BD1074B1B78012B2CD10D4B01221A7026
:103B5000134B1A880C4B1A80054B01221A704DE04A
:103B6000500600204F060020740600209E0600200C
:103B7000580600202C0600202806002054060020AD
:103B80004C06002068060020980600204D06002004
:103B90009A0600204E0600206C0600209C0600209D
:103BA00070060020714B1B78022B0AD1704B01224A
:103BB0001A70704B5A88704B1A80704B01225A70E1
:103BC0001CE06A4B1B78032B0AD16D4B01221A7043
:103BD0006C4B1A886C4B1A80684B01229A700DE06E
:103BE000624B1B78042B09D1684B01221A70654B7C
:103BF0005A88674B1A80614B0122DA705B4B0022B6
:103C00005A705A4B00221A70624B00221A60624BA3
:103C100000221A60614B00221A70544B1B78072B4C
:103C200064D0524B1B78002B60D0504B5B78022B3A
:103C30005CD1594B1B68032B58D1584B1B78002B78
:103C400054D1564B5B78002B50D11920FDF750FC16
:103C5000504B1B68012B49D1444B1B78012B0AD1D7
:103C60004F4B01221A704F4B1A884F4B1A80434B0F
:103C700001221A702BE03D4B1B78022B0AD13C4BE2
:103C800001221A70474B5A883B4B1A803B4B01224A
:103C90005A701CE0354B1B78032B0AD1384B01229C
:103CA0001A70424B1A88384B1A80344B01229A7092
:103CB0000DE02E4B1B78042B09D1344B01221A70D6
:103CC0003A4B5A88324B1A802C4B0122DA70274B20
:103CD00000225A70254B00221A702E4B00221A60C7
:103CE0002D4B00221A602D4B00221A701F4B1B789F
:103CF000072B76D01D4B1B78002B72D01B4B5B78AB
:103D0000022B6ED1244B1B68042B6AD1234B5B78AA
:103D1000002B66D11A20FDF7EBFB204B01221A7015
:103D20001C4B1B68012B5CD1104B1B78012B06D15F
:103D30001B4B00221A70114B00221A7042E00B4BF1
:103D40001B78022B06D10A4B00221A700B4B002263
:103D50005A7037E0054B1B78032B29D1084B002202
:103D60001A70064B00229A702CE000BF500600200B
:103D70004D060020700600209A06002058060020FC
:103D80004E060020740600209C0600204F060020EE
:103D90009E0600202C060020280600205406002045
:103DA0004C06002078060020980600207C060020A3
:103DB000694B1B78042B05D1684B00221A70684BA5
:103DC0000022DA70644B00225A70634B00221A7092
:103DD000644B00221A60644B00221A60634B00227D
:103DE0001A705D4B1B78072B64D05B4B1B78002B44
:103DF00060D0594B5B78022B5CD15B4B1B68032B6B
:103E000058D15A4B1B78012B54D1584B5B78002B5F
:103E100050D11B20FDF76CFB524B1B68012B49D185
:103E20004D4B1B78012B0AD1514B01221A70514B7B
:103E30001A88514B1A804A4B01221A702BE0464BCC
:103E40001B78022B0AD14D4B01221A70494B5A881C
:103E50004B4B1A80424B01225A701CE03E4B1B78A0
:103E6000032B0AD1474B01221A70474B1A88474B44
:103E70001A803B4B01229A700DE0374B1B78042BC4
:103E800009D1364B01221A703F4B5A88404B1A8099
:103E9000334B0122DA70304B00225A702E4B002235
:103EA0001A70304B00221A602F4B00221A602F4BE1
:103EB00000221A70284B1B78072B00F08C80264BB1
:103EC0001B78002B00F08780234B5B78022B40F09F
:103ED0008280254B1B68022B7DD1244B1B78012B44
:103EE00079D1224B5B78002B75D11C20FDF700FBAC
:103EF0001E4B00221A701B4B1B68012B6BD1164BFB
:103F00001B78012B0AD11A4B01221A70214B1A88F7
:103F1000194B1A80124B01221A704DE00E4B1B7880
:103F2000022B0AD1154B01221A701A4B5A88144BD6
:103F30001A800B4B01225A703EE0074B1B78032B73
:103F40002CD1104B01221A70134B1A880F4B1A8078
:103F5000034B01229A702FE0500600204F060020EC
:103F6000580600202C0600202806002054060020B9
:103F70004C06002078060020980600204D06002000
:103F80009A0600204E0600207C0600209C06002099
:103F90009E06002070060020740600208F4B1B78C0
:103FA000042B09D18E4B01221A708E4B5A888E4BEE
:103FB0001A808E4B0122DA70884B00225A70874B90
:103FC00000221A708A4B00221A608A4B00221A6063
:103FD000894B00221A70814B1B78072B19D07F4B1D
:103FE0001B78002B15D07D4B5B78022B11D1814BB8
:103FF0001B68002B0DDA804B1B78002B09D17E4B00
:104000005B78002B05D11A20FDF772FA794B042258
:104010001A60724B1B78072B1CD0704B1B78002B3F
:1040200018D06E4B5B78022B14D1724B1B68042B9B
:1040300010DD714B1B78012B0CD16F4B5B78002B83
:1040400008D11620FDF754FA6A4B00221A606A4B19
:1040500000221A70614B1B78072B26D05F4B1B7810
:10406000002B22D05D4B5B78032B1ED1614B1B686C
:10407000002B1AD1604B1B78002B16D15E4B5B785E
:10408000002B12D11D20FDF733FA594B1B68012B71
:104090000BD1524B00225A70554B00221A60554BDF
:1040A00000221A60544B00221A704C4B1B78072BCD
:1040B00064D04A4B1B78002B60D0484B5B78032BB5
:1040C0005CD14C4B1B68012B58D14B4B1B78002B00
:1040D00054D1494B5B78002B50D11E20FDF708FAD4
:1040E000434B1B68012B49D13C4B1B78012B0AD158
:1040F000424B01221A70424B1A88424B1A803B4BAA
:1041000001221A702BE0354B1B78022B0AD13E4B53
:1041100001221A703A4B5A883C4B1A80334B0122C9
:104120005A701CE02D4B1B78032B0AD1384B01220F
:104130001A70384B1A88384B1A802C4B01229A700F
:104140000DE0264B1B78042B09D1254B01221A7058
:10415000304B5A88244B1A80244B0122DA701F4BB3
:1041600000225A701D4B00221A70214B00221A6047
:10417000204B00221A60204B00221A70174B1B782C
:10418000072B00F08880154B1B78002B00F08380F4
:10419000124B5B78032B7ED1164B1B68022B7AD116
:1041A000154B1B78002B76D1134B5B78002B72D10B
:1041B0001F20FDF79DF90E4B1B68012B6BD1074BA0
:1041C0001B78012B2CD10D4B01221A70134B1A882E
:1041D0000C4B1A80054B01221A704DE0500600204E
:1041E0004F060020740600209E060020580600207E
:1041F0002C06002028060020540600204C06002033
:1042000080060020980600204D0600209A06002017
:104210004E060020840600209C0600208806002010
:10422000714B1B78022B0AD1704B01221A70704B14
:104230005A88704B1A80704B01225A701CE06A4BEE
:104240001B78032B0AD16D4B01221A706C4B1A8814
:104250006C4B1A80684B01229A700DE0624B1B7800
:10426000042B09D1684B01221A70654B5A88674BA1
:104270001A80614B0122DA705B4B00225A705A4B54
:1042800000221A70624B00221A60624B00221A60F0
:10429000614B00221A70544B1B78072B64D0524B91
:1042A0001B78002B60D0504B5B78032B5CD1594BB3
:1042B0001B68032B58D1584B1B78002B54D1564BFD
:1042C0005B78002B50D12020FDF712F9504B1B6872
:1042D000012B49D1444B1B78012B0AD14F4B0122B2
:1042E0001A704F4B1A884F4B1A80434B01221A7099
:1042F0002BE03D4B1B78022B0AD13C4B01221A705C
:10430000474B5A883B4B1A803B4B01225A701CE0AA
:10431000354B1B78032B0AD1384B01221A70424BC4
:104320001A88384B1A80344B01229A700DE02E4BBC
:104330001B78042B09D1344B01221A703A4B5A884E
:10434000324B1A802C4B0122DA70274B00225A7014
:10435000254B00221A702E4B00221A602D4B002292
:104360001A602D4B00221A701F4B1B78072B76D03A
:104370001D4B1B78002B72D01B4B5B78032B6ED12F
:10438000244B1B68042B6AD1234B5B78002B66D12E
:104390002120FDF7ADF8204B01221A701C4B1B6841
:1043A000012B5CD1104B1B78012B06D11B4B00223B
:1043B0001A70114B00221A7042E00B4B1B78022B33
:1043C00006D10A4B00221A700B4B00225A7037E0BC
:1043D000054B1B78032B29D1084B00221A70064B82
:1043E00000229A702CE000BF500600204D060020ED
:1043F000880600209A060020580600204E0600205D
:104400008C0600209C0600204F0600209E060020FF
:104410002C06002028060020540600204C06002010
:10442000900600209806002094060020694B1B7817
:10443000042B05D1684B00221A70684B0022DA70F9
:10444000644B00225A70634B00221A70644B0022A6
:104450001A60644B00221A60634B00221A705D4B95
:104460001B78072B64D05B4B1B78002B60D0594B1B
:104470005B78032B5CD15B4B1B68032B58D15A4BE9
:104480001B78012B54D1584B5B78002B50D1222044
:10449000FDF72EF8524B1B68012B49D14D4B1B7871
:1044A000012B0AD1514B01221A70514B1A88514BE2
:1044B0001A804A4B01221A702BE0464B1B78022BC4
:1044C0000AD14D4B01221A70494B5A884B4B1A8026
:1044D000424B01225A701CE03E4B1B78032B0AD141
:1044E000474B01221A70474B1A88474B1A803B4BA7
:1044F00001229A700DE0374B1B78042B09D1364B03
:1045000001221A703F4B5A88404B1A80334B0122CC
:10451000DA70304B00225A702E4B00221A70304B4A
:1045200000221A602F4B00221A602F4B00221A70B3
:10453000284B1B78072B00F08C80264B1B78002B18
:1045400000F08780234B5B78032B40F08280254B63
:104550001B68022B7DD1244B1B78012B79D1224B78
:104560005B78002B75D12320FCF7C2FF1E4B002285
:104570001A701B4B1B68012B6BD1164B1B78012B40
:104580000AD11A4B01221A70214B1A88194B1A8032
:10459000124B01221A704DE00E4B1B78022B0AD1F0
:1045A000154B01221A701A4B5A88144B1A800B4B68
:1045B00001225A703EE0074B1B78032B2CD1104B85
:1045C00001221A70134B1A880F4B1A80034B0122D9
:1045D0009A702FE0500600204F0600205806002059
:1045E0002C06002028060020540600204C0600203F
:1045F00090060020980600204D0600209A06002014
:104600004E060020940600209C0600209E060020F6
:10461000880600208C0600208D4B1B78042B09D1C6
:104620008C4B01221A708C4B5A888C4B1A808C4B05
:104630000122DA70864B00225A70854B00221A70D4
:10464000884B00221A60884B00221A60874B002298
:104650001A707F4B1B78072B19D07D4B1B78002BD2
:1046600015D07B4B5B78032B11D17F4B1B68002B44
:104670000DDA7E4B1B78002B09D17C4B5B78002B2D
:1046800005D12120FCF734FF774B04221A60704BD0
:104690001B78072B1CD06E4B1B78002B18D06C4B53
:1046A0005B78032B14D1704B1B68042B10DD6F4B10
:1046B0001B78012B0CD16D4B5B78002B08D11D2092
:1046C000FCF716FF684B00221A60684B00221A7034
:1046D0005F4B1B78072B26D15D4B1B78002B22D01C
:1046E0005B4B5B78002B1ED15F4B1B68002B1AD1F4
:1046F0005E4B1B78002B16D15C4B5B78002B12D1E4
:104700002420FCF7F5FE574B1B68012B0BD1504BB7
:1047100000221A70534B00221A60534B00221A6079
:10472000524B00221A704A4B1B78072B26D1484B5C
:104730001B78002B22D0464B5B78002B1ED14A4BB6
:104740001B68012B1AD1494B1B78002B16D1474B04
:104750005B78002B12D12520FCF7CAFE414B1B6869
:10476000012B0BD13A4B04225A703E4B00221A60A7
:104770003D4B00221A603D4B00221A70344B1B78CF
:10478000072B26D1324B1B78002B22D0304B5B7885
:10479000002B1ED1344B1B68022B1AD1334B1B78D4
:1047A000002B16D1314B5B78002B12D12620FCF761
:1047B0009FFE2C4B1B68012B0BD1254B05225A70F9
:1047C000284B00221A60284B00221A60274B002237
:1047D0001A701F4B1B78072B25D11D4B1B78002B04
:1047E00021D01B4B5B78002B1DD11F4B1B68032B6B
:1047F00019D11E4B5B78002B15D12720FCF778FED2
:104800001A4B01221A70174B1B68012B0BD1104B4E
:1048100006225A70134B00221A60134B00221A60B2
:10482000124B00221A700A4B1B78072B37D1084B0A
:104830001B78002B33D0064B5B78002B2FD10A4B13
:104840001B68022B2BD1094B1B78012B27D10FE0C2
:10485000500600204F0600208C0600209E060020F7
:10486000580600202C0600202806002054060020B0
:104870008C4B5B78002B12D12820FCF739FE8A4B39
:104880001B68012B0BD1894B05225A70864B0022E5
:104890001A60874B00221A60824B00221A70834BE9
:1048A0001B78072B29D1814B1B78002B25D07F4B00
:1048B0005B78002B21D17E4B1B68012B1DD1794BDE
:1048C0001B78012B19D1774B5B78002B15D1292050
:1048D000FCF70EFE734B00221A70734B1B68012B02
:1048E0000BD1724B04225A706F4B00221A60704B2E
:1048F00000221A606B4B00221A706C4B1B78072B3E
:1049000019D16A4B1B78002B15D0684B5B78002BB4
:1049100011D1674B1B68002B0DDA624B1B78002B03
:1049200009D1604B5B78002B05D12720FCF7E0FD17
:104930005F4B03221A605D4B1B78072B1CD15B4B2E
:104940001B78002B18D0594B5B78002B14D1584B97
:104950001B68032B10DD534B1B78012B0CD1514BE3
:104960005B78002B08D12420FCF7C2FD504B0022BD
:104970001A604C4B00221A704C4B1B78072B2AD123
:104980004A4B1B78002B26D0484B5B78042B22D156
:10499000464B9B78002B1ED1454B1B68002B1AD130
:1049A000404B1B78002B16D13E4B5B78002B12D16D
:1049B0002A20FCF79DFD3C4B1B68012B0BD13B4B88
:1049C00000225A70384B00221A60394B00221A60BC
:1049D000344B00221A70354B1B78072B2AD1334BEE
:1049E0001B78002B26D0314B5B78042B22D12F4B28
:1049F0009B78002B1ED12E4B1B68012B1AD1294B03
:104A00001B78002B16D1274B5B78002B12D12B2063
:104A1000FCF76EFD244B1B68012B0BD1234B0122AD
:104A20009A70214B00221A60214B00221A601D4B04
:104A300000221A701D4B1B78072B2AD11B4B1B78A9
:104A4000002B26D0194B5B78042B22D1174B9B7877
:104A5000002B1ED1164B1B68022B1AD1114B1B7851
:104A6000002B16D10F4B5B78002B12D12C20FCF7BA
:104A70003FFD0D4B1B68012B0BD10C4B02229A7092
:104A8000094B00221A600A4B00221A60054B0022D3
:104A90001A70064B1B78072B32D1044B1B78002B66
:104AA0002ED007E0540600202C06002050060020DF
:104AB000280600208C4B5B78042B21D18A4B9B78F5
:104AC000002B1DD1894B1B68032B19D1884B5B78B8
:104AD000002B15D12D20FCF70BFD854B01221A7000
:104AE000844B1B68012B0BD17F4B03229A70814BA7
:104AF00000221A607D4B00221A607D4B00221A7042
:104B0000794B1B78072B2AD1774B1B78002B26D0AB
:104B1000754B5B78042B22D1734B9B78002B1ED1F5
:104B2000724B1B68022B1AD1714B1B78012B16D1CB
:104B30006F4B5B78002B12D12E20FCF7D9FC6D4B0C
:104B40001B68012B0BD1684B02229A70694B002223
:104B50001A60664B00221A60654B00221A70624B85
:104B60001B78072B2DD1604B1B78002B29D05E4B77
:104B70005B78042B25D15C4B9B78002B21D15B4BC0
:104B80001B68012B1DD15A4B1B78012B19D1584B97
:104B90005B78002B15D12F20FCF7AAFC544B002288
:104BA0001A70544B1B68012B0BD14F4B01229A708A
:104BB000504B00221A604D4B00221A604C4B0022D1
:104BC0001A70494B1B78072B1DD1474B1B78002BC4
:104BD00019D0454B5B78042B15D1434B9B78002BA8
:104BE00011D1424B1B68002B0DDA414B1B78002B77
:104BF00009D13F4B5B78002B05D12D20FCF778FCC9
:104C00003A4B03221A60384B1B78072B20D1364BC6
:104C10001B78002B1CD0344B5B78042B18D1324B03
:104C20009B78002B14D1314B1B68032B10DD304BCC
:104C30001B78012B0CD12E4B5B78002B08D12A203E
:104C4000FCF756FC294B00221A60294B00221A70EF
:104C5000254B1B78072B26D1234B1B78002B22D00A
:104C6000214B5B78052B1ED1204B1B68002B1AD1E2
:104C70001F4B1B78002B16D11D4B5B78002B12D1DC
:104C80003020FCF735FC1B4B1B68012B0BD1164B5E
:104C900000225A70174B00221A60144B00221A602F
:104CA000134B00221A70104B1B78072B30D10E4B80
:104CB0001B78002B2CD00C4B5B78052B28D10B4B91
:104CC0001B68012B24D10A4B1B78002B20D1084BE9
:104CD0005B78002B1CD13120FCF70AFC054B1B68CC
:104CE000012B15D108E000BF500600202806002047
:104CF000540600202C0600208D4B01221A708D4B8B
:104D000000221A608C4B00221A608C4B00221A7011
:104D10008B4B1B78072B26D1894B1B78002B22D07D
:104D2000874B5B78052B1ED1834B1B68022B1AD156
:104D3000824B1B78002B16D1804B5B78002B12D155
:104D40003220FCF7D5FB7B4B1B68012B0BD1784B3A
:104D500002221A70774B00221A60774B00221A60E9
:104D6000764B00221A70764B1B78072B26D1744B9A
:104D70001B78002B22D0724B5B78052B1ED16E4B1B
:104D80001B68032B1AD16D4B1B78002B16D16B4B74
:104D90005B78002B12D13320FCF7AAFB654B1B6814
:104DA000012B0BD1624B03221A70624B00221A6056
:104DB000614B00221A60614B00221A70604B1B7815
:104DC000072B25D15E4B1B78002B21D05C4B5B78E9
:104DD000052B1DD1584B1B68042B19D1574B5B7801
:104DE000002B15D13420FCF783FB544B01221A70A1
:104DF000504B1B68012B0BD14D4B04221A704D4BAD
:104E000000221A604C4B00221A604C4B00221A7090
:104E10004B4B1B78072B26D1494B1B78002B22D0FC
:104E2000474B5B78052B1ED1434B1B68032B1AD1D4
:104E3000424B1B78012B16D1404B5B78002B12D1D3
:104E40003520FCF755FB3B4B1B68012B0BD1384B36
:104E500003221A70374B00221A60374B00221A6067
:104E6000364B00221A70364B1B78072B29D1344B56
:104E70001B78002B25D0324B5B78052B21D12E4B94
:104E80001B68022B1DD12D4B1B78012B19D12B4BED
:104E90005B78002B15D13620FCF72AFB274B00222C
:104EA0001A70244B1B68012B0BD1214B02221A7064
:104EB000204B00221A60204B00221A601F4B002258
:104EC0001A701F4B1B78072B19D11D4B1B78002B19
:104ED00015D01B4B5B78052B11D1174B1B68002B92
:104EE0000DDA164B1B78002B09D1144B5B78002B85
:104EF00005D13420FCF7FCFA0F4B04221A60104B4A
:104F00001B78072B27D10E4B1B78002B23D00C4B83
:104F10005B78052B1FD1084B1B68042B1BDD074B4F
:104F20001B78012B17D1054B5B78002B13D109E0BF
:104F30003D0600202C0600202806002054060020F4
:104F4000500600203020FCF7D3FA314B00221A60C3
:104F5000304B00221A70304B1B78072B26D12E4B7A
:104F60001B78002B22D02C4B5B78062B1ED1284BB4
:104F70001B68002B1AD1274B1B78002B16D1254B11
:104F80005B78002B12D13820FCF7B2FA234B1B6858
:104F9000012B0BD1204B00225A70204B00221A60AB
:104FA0001B4B00221A601B4B00221A701A4B1B78F5
:104FB000072B3AD1184B1B78002B36D0164B5B7859
:104FC000062B32D1124B1B68012B2ED1114B1B78B3
:104FD000002B2AD10F4B5B78002B26D13920FCF710
:104FE00087FA0E4B1B68012B1FD10C4B00221A6055
:104FF000084B00221A701321094804F0D1FF034620
:105000004FF2F00293420DD1034B0A221A700CE0CA
:105010002806002054060020500600202C06002000
:10502000F4000020954B0B221A70944B1B78072B31
:1050300043D1924B1B78002B3FD0904B5B78062BD3
:105040003BD18F4B1B68022B37D18E4B1B78002B2B
:1050500033D18C4B5B78002B2FD13A20FCF748FAE8
:10506000894B1B68012B28D1874B00221A60854B86
:1050700000221A70854B1B78002B0CBF01230023E4
:10508000DBB21A46814B1A70804B1B781A46804B54
:105090001B781B021A437F4B1B781B041A437E4B61
:1050A0001B781B0613431A467C4B1A607B4B1B680C
:1050B0001A4602217A4804F059FF704B1B78072BDF
:1050C00043D16E4B1B78002B3FD06C4B5B78062B8B
:1050D0003BD16B4B1B68032B37D16A4B1B78002BE2
:1050E00033D1684B5B78002B2FD13B20FCF700FAC3
:1050F000654B1B68012B28D1634B00221A60614B62
:1051000000221A70624B1B78002B0CBF0123002376
:10511000DBB21A465E4B1A705C4B1B781A465C4B2E
:105120001B781B021A435B4B1B781B041A435A4B18
:105130001B781B0613431A46584B1A60574B1B68C3
:105140001A460221564804F011FF4C4B1B78072BDE
:1051500043D14A4B1B78002B3FD0484B5B78062B42
:105160003BD1474B1B68042B37D1464B1B78002B98
:1051700033D1444B5B78002B2FD13C20FCF7B8F99E
:10518000414B1B68012B28D13F4B00221A603D4B3D
:1051900000221A703F4B1B78002B0CBF0123002309
:1051A000DBB21A463B4B1A70384B1B781A46384B09
:1051B0001B781B021A43374B1B781B041A43364BD0
:1051C0001B781B0613431A46344B1A60334B1B687B
:1051D0001A460221324804F0C9FE284B1B78072BDF
:1051E00042D1264B1B78002B3ED0244B5B78062BFC
:1051F0003AD1234B1B68052B36D1224B5B78002B11
:1052000032D13D20FCF774F91E4B01221A701E4B5F
:105210001B68012B28D11C4B00221A60194B00225D
:105220001A701D4B1B78002B0CBF01230023DBB22F
:105230001A46194B1A70154B1B781A46144B1B78DB
:105240001B021A43134B1B781B041A43124B1B7887
:105250001B0613431A46114B1A60104B1B681A4663
:1052600002210F4804F082FE044B1B78072B59D112
:10527000024B1B78002B55D014E000BF50060020D5
:1052800028060020540600202C0600203E060020A0
:105290003F0600204006002041060020E0060020D6
:1052A000F4000020914B5B78062B3BD1904B1B68A0
:1052B000042B37D18F4B1B78012B33D18D4B5B786F
:1052C000002B2FD13E20FCF713F98B4B1B68012BD1
:1052D00028D1894B00221A60864B00221A70874B16
:1052E0001B78002B0CBF01230023DBB21A46834B33
:1052F0001A70834B1B781A46824B1B781B021A4389
:105300007E4B1B781B041A437F4B1B781B061343F1
:105310001A467E4B1A607D4B1B681A4602217C4858
:1053200004F024FE714B1B78072B43D16F4B1B7885
:10533000002B3FD06D4B5B78062B3BD16C4B1B6831
:10534000032B37D16B4B1B78012B33D1694B5B7827
:10535000002B2FD13F20FCF7CBF8674B1B68012BAC
:1053600028D1654B00221A60624B00221A70654BEF
:105370001B78002B0CBF01230023DBB21A46614BC4
:105380001A705F4B1B781A465E4B1B781B021A4340
:105390005A4B1B781B041A435B4B1B781B061343A9
:1053A0001A465A4B1A60594B1B681A460221584834
:1053B00004F0DCFD4D4B1B78072B46D14B4B1B7883
:1053C000002B42D0494B5B78062B3ED1484B1B68E3
:1053D000022B3AD1474B1B78012B36D1454B5B78DA
:1053E000002B32D14020FCF783F8424B00221A7088
:1053F000414B1B68012B28D13F4B00221A603D4BCB
:1054000000221A703E4B1B78002B0CBF0123002397
:10541000DBB21A463A4B1A70394B1B781A46394B95
:105420001B781B021A43354B1B781B041A43364B5F
:105430001B781B0613431A46344B1A60334B1B6808
:105440001A460221324804F091FD284B1B78072BA5
:1054500019D1264B1B78002B15D0244B5B78062BDB
:1054600011D1234B1B68002B0DDA224B1B78002B2C
:1054700009D1204B5B78002B05D13D20FCF738F893
:105480001B4B05221A60194B1B78072B1CD1174B9D
:105490001B78002B18D0154B5B78062B14D1144BBE
:1054A0001B68052B10DD134B1B78012B0CD1114B06
:1054B0005B78002B08D13820FCF71AF80C4B00223F
:1054C0001A600C4B00221A70084B1B78072B6CD10A
:1054D000064B1B78002B68D0044B5B78042B64D1FF
:1054E000034B1B68002B60D114E000BF5006002066
:1054F00028060020540600202C060020400600202C
:105500003E0600203F06002041060020E006002065
:10551000F4000020904B1B78002B46D18E4B5B781B
:10552000002B42D18D4B9B78012B07D08B4B9B7866
:10553000022B03D0894B9B78032B36D1874B9B786A
:10554000012B08D1864B1B781A46864B1B781946CF
:105550001046FBF7B7FF814B9B78022B08D1824B9B
:105560001B781A46804B5B7819461046FBF7AAFF5A
:105570007A4B9B78032B08D17B4B9B781A467A4B4E
:10558000DB7819461046FBF79DFF4120FBF7B0FF83
:10559000764B1B68012B08D1704B00229A70734B1D
:1055A00000221A60724B00221A606C4B1B78072B8A
:1055B00071D16A4B1B78002B6DD0684B5B78042B44
:1055C00069D16B4B1B68012B65D1634B1B78002B9A
:1055D00061D1614B5B78002B5DD1604B9B78012BD7
:1055E00007D05E4B9B78022B03D05C4B9B78032B40
:1055F00051D15A4B9B78012B08D1594B1B781A4635
:10560000584B1B7819461046FBF75CFF534B9B78B1
:10561000022B08D1544B1B781A46534B5B78194622
:105620001046FBF74FFF4D4B9B78032B08D14E4B99
:105630009B781A464C4BDB7819461046FBF742FF25
:105640004A4B1B68012B23D1434B01225A70474B15
:1056500000221A60464B00221A60404B9B78012BB7
:1056600004D13F4B1B781A46414B1A603B4B9B7849
:10567000022B04D13C4B1B781A463D4B1A60374B2A
:105680009B78032B04D1384B9B781A46384B1A6011
:105690004220FBF72DFF314B1B78072B40F0828017
:1056A0002E4B1B78002B7DD02C4B5B78042B79D1B3
:1056B0002F4B1B68022B75D1274B1B78002B71D108
:1056C000254B5B78002B6DD1244B9B78012B07D0A9
:1056D000224B9B78022B03D0204B9B78032B61D16C
:1056E0001E4B9B78012B08D11D4B1B781A461D4B76
:1056F0001B7819461046FBF7E5FE184B9B78022BEA
:1057000008D1194B1B781A46174B5B78194610467F
:10571000FBF7D8FE114B9B78032B08D1124B9B78DB
:105720001A46114BDB7819461046FBF7CBFE0F4BA0
:105730001B68012B33D1084B02225A700B4B0022FD
:105740001A600B4B00221A60044B9B78012B14D17A
:10575000044B1B780EE000BF5406002050060020CA
:105760003006002031060020380600202C060020DC
:10577000280600201A46944B1A60944B9B78022B03
:1057800004D1934B5B781A468F4B1A608F4B9B78F2
:10579000032B04D18E4BDB781A468B4B1A604320C7
:1057A000FBF7A6FE894B1B78072B4CD1874B1B7848
:1057B000002B48D0854B5B78042B44D1824B1B686F
:1057C000002B40DA834B1B78002B3CD1814B5B785C
:1057D000002B38D17D4B9B78012B07D07B4B9B78DE
:1057E000022B03D0794B9B78032B2CD1774B9B78E2
:1057F000012B08D1784B1B781A46784B1B78194639
:105800001046FBF75FFE714B9B78022B08D1704B63
:105810001B781A466E4B5B7819461046FBF752FE12
:105820006A4B9B78032B08D1694B9B781A46684BCF
:10583000DB7819461046FBF745FE4320FBF758FE80
:10584000614B02221A60614B1B78072B4CD15F4BD6
:105850001B78002B48D05D4B5B78042B44D15A4B0E
:105860001B68022B40DD5B4B1B78002B3CD1594B56
:105870005B78002B38D1554B9B78012B07D0534BCD
:105880009B78022B03D0514B9B78032B2CD14F4B91
:105890009B78012B08D1504B1B781A464F4B1B7835
:1058A00019461046FBF70EFE484B9B78022B08D199
:1058B000474B1B781A46464B5B7819461046FBF758
:1058C00001FE424B9B78032B08D1414B9B781A4633
:1058D0003F4BDB7819461046FBF7F4FD4120FBF700
:1058E00007FE394B00221A603A4B5B78012B40F0DF
:1058F000B680354B1B68172B02DD334B00221A6034
:10590000314B1B68002B02DA2F4B17221A602F4BEA
:105910009B78012B28D12C4B1B68DAB2304B1A70C4
:105920002F4B1B781A462E4B5B7819461046FBF717
:10593000C9FDFBF741F92A4B1B781A46284B5B78C7
:105940001B021A43264B9B781B041A43244BDB781B
:105950001B0613431A46234B1A60224B1B681A4638
:105960000021214804F002FB184B9B78022B26D122
:10597000154B1B68DAB2164B1A70154B1B781A467A
:10598000134B5B7819461046FBF79CFD104B1B78B8
:105990001A460F4B5B781B021A430D4B9B781B0476
:1059A0001A430B4BDB781B0613431A460F4B1A6046
:1059B0000E4B1B681A4601210B4804F0D7FA034B23
:1059C0009B78032B3BD113E02806002050060020D3
:1059D0003806002054060020300600203106002042
:1059E00034060020D8060020F4000020DC06002049
:1059F000A24B1B68DAB2A24B9A70A14B9B781A4655
:105A00009F4BDB7819461046FBF75CFD9C4B1B78DF
:105A10001A469B4B5B781B021A43994B9B781B04DD
:105A20001A43974BDB781B0613431A46954B1A60B3
:105A3000944B1B681A460121934804F097FA4220C0
:105A4000FBF756FD914B1B68012B08D1904B0022B0
:105A50005A708E4B00221A60884B00221A608C4BC1
:105A60005B78022B40F0A180844B1B683B2B02DD4E
:105A7000824B00221A60814B1B68002B02DA7F4B9D
:105A80003B221A60834B9B78012B28D17B4B1B68F0
:105A9000DAB2814B5A70804B1B781A467E4B5B788A
:105AA00019461046FBF70EFDFBF786F87A4B1B787C
:105AB0001A46794B5B781B021A43774B9B781B0481
:105AC0001A43754BDB781B0613431A46734B1A6057
:105AD000724B1B681A4600216B4804F047FA6D4B65
