:020000040800F2
:100000000000022079770008996300089F630008C8
:10001000A5630008AB630008B1630008000000009E
:10002000000000000000000000000000B7630008AE
:10003000C563000800000000D3630008E163000806
:10004000C9770008C9770008C9770008C977000890
:10005000C9770008C9770008C9770008C977000880
:10006000C9770008C9770008C9770008C977000870
:10007000C9770008C9770008C9770008C977000860
:10008000C9770008C9770008C97700080000000098
:10009000000000000000000000000000C977000818
:1000A000C9770008C9770008C9770008C977000830
:1000B000C9770008C9770008C9770008C977000820
:1000C000C9770008C9770008C9770008C977000810
:1000D000C9770008C9770008C97700080000000048
:1000E000ED630008C9770008C97700080000000028
:1000F000000000000000000000000000C9770008B8
:1001000000000000C9770008C9770008C977000817
:1001100000000000000000000000000000000000DF
:10012000C9770008C9770008C9770008C9770008AF
:10013000C977000800000000000000000000000077
:10014000000000000000000000000000C977000867
:10015000C9770008C9770008C9770008C97700087F
:10016000C9770008C97700080000000000000000FF
:10017000000000000000000000000000000000007F
:1001800000000000C9770008000000000000000027
:08019000C9770008C9770008D7
:1001A00010B5054C237833B9044B13B10448AFF3B1
:1001B00000800123237010BD7C000020000000009F
:1001C000A8A9000808B5034B1BB103490348AFF3C6
:1001D000008008BD0000000080000020A8A90008E1
:1001E00001F0FF01102A2BDB10F0070F08D010F8E8
:1001F000013B013A8B422DD010F0070F42B3F6D1EC
:10020000F0B441EA012141EA014122F007047FF004
:1002100000070023F0E80256083C85EA010586EA5B
:10022000010685FA47F5A3FA87F586FA47F6A5FA97
:1002300087F68EB9EED1F0BC01F0FF0102F00702A3
:1002400032B110F8013B013A83EA010313B1F8D14E
:100250000020704701387047002D06BF354603382F
:10026000073815F0010F07D1013015F4807F02BF68
:10027000013015F4C03F0130F0BC0138704700BFB9
:1002800053B94AB9002908BF00281CBF4FF0FF31FD
:100290004FF0FF3000F074B9ADF1080C6DE904CEF9
:1002A00000F006F8DDF804E0DDE9022304B0704751
:1002B0002DE9F047089D04468E46002B4DD18A4219
:1002C000944669D9B2FA82F252B101FA02F3C2F14C
:1002D000200120FA01F10CFA02FC41EA030E9440DD
:1002E0004FEA1C48210CBEFBF8F61FFA8CF708FBFE
:1002F00016E341EA034306FB07F199420AD91CEBD6
:10030000030306F1FF3080F01F81994240F21C8107
:10031000023E63445B1AA4B2B3FBF8F008FB10334F
:1003200044EA034400FB07F7A7420AD91CEB040484
:1003300000F1FF3380F00A81A74240F20781644454
:10034000023840EA0640E41B00261DB1D4400023D9
:10035000C5E900433146BDE8F0878B4209D9002D3D
:1003600000F0EF800026C5E9000130463146BDE8C7
:10037000F087B3FA83F6002E4AD18B4202D3824231
:1003800000F2F980841A61EB030301209E46002DE0
:10039000E0D0C5E9004EDDE702B9FFDEB2FA82F235
:1003A000002A40F09280A1EB0C014FEA1C471FFA93
:1003B0008CFE0126200CB1FBF7F307FB131140EA7A
:1003C00001410EFB03F0884208D91CEB010103F147
:1003D000FF3802D2884200F2CB804346091AA4B209
:1003E000B1FBF7F007FB101144EA01440EFB00FEDD
:1003F000A64508D91CEB040400F1FF3102D2A64542
:1004000000F2BB800846A4EB0E0440EA03409CE7E0
:10041000C6F12007B34022FA07FC4CEA030C20FA8D
:1004200007F401FA06F31C43F9404FEA1C4900FAAD
:1004300006F3B1FBF9F8200C1FFA8CFE09FB18112A
:1004400040EA014108FB0EF0884202FA06F20BD99D
:100450001CEB010108F1FF3A80F08880884240F2ED
:100460008580A8F102086144091AA4B2B1FBF9F031
:1004700009FB101144EA014100FB0EFE8E4508D92C
:100480001CEB010100F1FF346CD28E456AD90238B1
:10049000614440EA0840A0FB0294A1EB0E01A14296
:1004A000C846A64656D353D05DB1B3EB080261EB04
:1004B0000E0101FA07F722FA06F3F1401F43C5E9DE
:1004C000007100263146BDE8F087C2F12003D84014
:1004D0000CFA02FC21FA03F3914001434FEA1C4756
:1004E0001FFA8CFEB3FBF7F007FB10360B0C43EA48
:1004F000064300FB0EF69E4204FA02F408D91CEBF8
:10050000030300F1FF382FD29E422DD902386344F5
:100510009B1B89B2B3FBF7F607FB163341EA034195
:1005200006FB0EF38B4208D91CEB010106F1FF38E4
:1005300016D28B4214D9023E6144C91A46EA0046DB
:1005400038E72E46284605E70646E3E61846F8E66D
:100550004B45A9D2B9EB020864EB0C0E0138A3E7B6
:100560004646EAE7204694E74046D1E7D0467BE797
:10057000023B614432E7304609E76444023842E70F
:10058000704700BF80B500AFC9E18F4B1A888F4B11
:100590001B889A4207D28E4B1A788E4B1A708E4B5C
:1005A00000221A7016E0884B1A88884B1B889A42E2
:1005B0000DD9874B1B78002B0CBF01230023DBB226
:1005C0001A46844B1A70844B01221A7002E0834B46
:1005D00000221A707C4B5A88814B1B889A4207D2A2
:1005E000804B1A78804B1A70804B00221A7016E0EC
:1005F000754B5A887A4B1B889A420DD9794B1B78D8
:10060000002B0CBF01230023DBB21A46764B1A7075
:10061000764B01221A7002E0754B00221A70754B5E
:100620001A88754B1B889A4207D2744B1A78744B00
:100630001A70744B00221A7016E06E4B1A886E4BBB
:100640001B889A420DD96D4B1B78002B0CBF0123E0
:100650000023DBB21A466A4B1A706A4B01221A70E9
:1006600002E0694B00221A70624B5A88674B1B8864
:100670009A4207D2664B1A78664B1A70664B002274
:100680001A7016E05B4B5A88604B1B889A420DD952
:100690005F4B1B78002B0CBF01230023DBB21A46F3
:1006A0005C4B1A705C4B01221A7002E05B4B00221B
:1006B0001A70484B1B781A461021594807F0CAFB9C
:1006C000494B1B781A464FF48061554807F0C2FB2E
:1006D0004B4B1B781A464FF48071524807F0BAFB17
:1006E0004C4B1B781A4620214E4807F0B3FB3220B2
:1006F00000F0CAF900224FF400714A4807F0AAFB43
:10070000364B1B78012B23D101224FF480614548E1
:1007100007F0A0FB304B1B78002B06D12A4B1B881F
:1007200001339AB2284B1A8009E02B4B1B78012B1E
:1007300005D1254B1B88013B9AB2234B1A80224BD3
:100740001A88224B1B889A4202D1244B00221A702D
:10075000274B1B78012B22D101220821304807F0BA
:1007600079FB224B1B78002B06D1174B5B8801339A
:100770009AB2154B5A8009E01C4B1B78012B05D10E
:10078000114B5B88013B9AB20F4B5A800E4B5A8833
:10079000134B1B889A4202D1154B00221A701A4B38
:1007A0001B78012B53D1012220211D4807F052FB59
:1007B000144B1B78002B37D10E4B1B8801339AB298
:1007C0000C4B1A803AE000BF24060020D00600201F
:1007D000AE060020980000209C000020C4060020E7
:1007E000D2060020AF060020990000209D000020C6
:1007F000C506002028060020D4060020B0060020F0
:100800009A0000209E000020C6060020D606002088
:10081000B10600209B0000209F000020C70600209A
:1008200000040240000002404B4B1B78012B05D115
:100830004A4B1B88013B9AB2484B1A80474B1A8897
:10084000474B1B889A4202D1464B00221A70464BF6
:100850001B78012B22D101224021444807F0FAFAEB
:10086000434B1B78002B06D13C4B5B8801339AB27B
:100870003A4B5A8009E03E4B1B78012B05D1374B90
:100880005B88013B9AB2354B5A80344B5A88394BBE
:100890001B889A4202D1344B00221A70364B1B88B7
:1008A0001A46354B5B881B0413431A46334B1A60B8
:1008B000324B1B681A460F21314809F0A9F8274B23
:1008C0001B881A46254B5B881B0413431A462D4B85
:1008D0001A602C4B1B681A461021294809F098F819
:1008E000294B1B88184600F0CFF800224FF4806196
:1008F0001E4807F0AFFA00220821244807F0AAFAA0
:1009000000222021214807F0A5FA002240211748A3
:1009100007F0A0FA1C4B1B88184600F0B5F81C4BDA
:100920001B78012B3FF431AE1A4B1B78012B3FF49F
:100930002CAE0C4B1B78012B3FF427AE0A4B1B78D7
:10094000012B3FF422AE01224FF40071074807F05B
:1009500081FA00BF80BD00BF9E0000202806002055
:10096000D4060020C6060020C70600200000024072
:100970009F000020D6060020240600205C060020F0
:10098000F4000020600600200C000020000402405B
:10099000C4060020C506002080B586B000AF174B06
:1009A0001B783B71154B5B787B710023BB71002377
:1009B0003B6100237B613B1D00221946104808F073
:1009C0009FFD0346002B01D000F0FCFB01233B7090
:1009D00001237B700123BB700023FB703B46002288
:1009E0001946074808F084FE0346002B01D000F0AA
:1009F000E9FB00BF1837BD4680BD00BFA006002040
:100A0000F400002080B58EB002AF07F11803002279
:100A10001946184808F00EFE07F12C03002219466B
:100A2000144808F0E9FE3B7E1A467B7E1946BB7EE1
:100A300007F10C0000930B460F4909F047FB97F8AC
:100A40002E301A4697F82D30194697F82F3003F5B7
:100A5000FA63384600930B46084909F037FB3A7EA3
:100A6000074B1A707A7E074B1A7000BF3037BD46AD
:100A700080BD00BFF4000020C0A90008D0A9000874
:100A80009C0600209D06002080B483B000AF034682
:100A9000FB80094B1B6800225A6200BF064B1B6893
:100AA0005A6AFB889A42F9D300BF00BF0C37BD4693
:100AB0005DF8047B704700BF1401002080B582B050
:100AC00000AF0346FB80FB88B3F5005F0FD106F053
:100AD000E3FE0246314B1B68D31AC82B07D9304BB3
:100AE00001221A6006F0D8FE03462C4A1360FB88E8
:100AF000B3F5004F03D0FB88B3F5804F43D14FF4DB
:100B00008041284807F08EF90346002B19D14FF495
:100B10000041244807F086F90346012B11D106F065
:100B2000BBFE02461D4B5B68D31A142B09D91E4B22
:100B30001B68013B1C4A136006F0AEFE0346174AD1
:100B400053604FF48041174807F06CF90346012BBE
:100B500019D14FF40041134807F064F90346002B04
:100B600011D106F099FE02460C4B5B68D31A142B88
:100B700009D90D4B1B6801330B4A136006F08CFE3C
:100B80000346064A5360FFF73DFF01F09DFF01F069
:100B90009BFF00BF0837BD4680BD00BFEC010020B1
:100BA000BC06002000040240B806002080B500AF5B
:100BB00006F00CFE00F0DAF800F084FA00F040F9DC
:100BC00000F092F900F06AF900F0DEF900F02AFA7C
:100BD000544808F09FFF04F01FFE4FF4FA6006F03F
:100BE00067FE01224FF400714F4807F033F91321DB
:100BF0004E4808F027FF03464FF2F002934202D11D
:100C000005F04CFC02E0442000F0F8FAFFF7FAFE91
:100C1000474B1B78012B0BD0464B1B78012B07D081
:100C2000454B1B78012B03D0444B1B78012B02D181
:100C3000FFF7A8FC28E0424B1B78012B02D105F0FE
:100C400033FE21E03F4B1B78002B1DD005F026FF23
:100C50003C4B1B78012B02D1354B01221A70394BCA
:100C60001B78022B02D1334B01221A70354B1B78B3
:100C7000032B02D1304B01221A70324B1B78042B0C
:100C800002D12E4B01221A702F4B1A782F4B1B7852
:100C90009A421DD12C4B5A782D4B1B789A4217D172
:100CA000234B01221A70234B01221A70224B01227E
:100CB0001A70224B01221A70264B00221A80264BF2
:100CC00000221A80254B00221A80254B00221A8010
:100CD0001D4B9A781D4B1B789A4297D11A4BDA78A4
:100CE0001B4B1B789A4291D1114B01221A70114B68
:100CF00001221A70104B01221A70104B01221A7037
:100D0000184B1A88134B1A80164B5A88124B1A80AC
:100D1000154B1A88114B1A80134B5A88104B1A80A6
:100D200074E700BF1401002000000240F40000201E
:100D3000C4060020C5060020C6060020C706002005
:100D4000AC060020AD060020A40600209C06002072
:100D50009D060020D0060020D2060020D4060020E8
:100D6000D60600202C0600203006002080B594B066
:100D700000AF07F1200330220021184609F09EF948
:100D800007F10C0300221A605A609A60DA601A6157
:100D90000023BB60284B1B6C274A43F0805313642D
:100DA000254B1B6C03F08053BB60BB6800237B604A
:100DB000224B1B68214A43F4404313601F4B1B68BE
:100DC00003F440437B607B6806233B620123BB62E4
:100DD0000123FB6210233B630223BB630023FB63FD
:100DE00008233B6454237B640223BB640423FB6419
:100DF00007F12003184607F0D9FD0346002B01D068
:100E000000F0E0F90F23FB6002233B6100237B61CC
:100E10004FF48053BB610023FB6107F10C030221F7
:100E2000184608F03BF80346002B01D000F0CAF941
:100E300000BF5037BD4680BD003802400070004002
:100E400080B500AF124B134A1A60114B124A5A6018
:100E50000F4B00229A600E4B0022DA600C4B4FF4CD
:100E600080421A610A4B00225A61094B00229A61A2
:100E7000074B0022DA61064B00221A62044807F091
:100E80001BF80346002B01D000F09CF900BF80BD89
:100E9000A000002000540040801A060080B500AF7A
:100EA0000F4B104A1A600E4B00225A600C4B7F22E7
:100EB0009A600B4BFF22DA60094B00221A61084B43
:100EC00000225A61064B00229A61054808F0A2FAF6
:100ED0000346002B01D000F075F900BF80BD00BFB4
:100EE000F40000200028004080B586B000AF07F174
:100EF000080300221A605A609A60DA603B460022BA
:100F00001A605A601E4B1F4A1A601D4B63225A60BA
:100F10001B4B00229A601A4B4FF6FE72DA60184B98
:100F200000221A61164B00225A61154B00229A6169
:100F3000134808F09FFD0346002B01D000F042F952
:100F40004FF48053BB6007F1080319460C4808F0C2
:100F50003BFE0346002B01D000F034F900233B6038
:100F600000237B603B461946054809F00FF803460D
:100F7000002B01D000F026F900BF1837BD4680BD18
:100F8000140100200000014080B586B000AF07F1D9
:100F9000080300221A605A609A60DA603B46002219
:100FA0001A605A601D4B1E4A1A601C4B00225A6080
:100FB0001A4B00229A60194B4FF6FF72DA60174BFA
:100FC00000221A61154B00229A61144808F052FD64
:100FD0000346002B01D000F0F5F84FF48053BB60BE
:100FE00007F1080319460D4808F0EEFD0346002BF3
:100FF00001D000F0E7F800233B6000237B603B4614
:101000001946064808F0C2FF0346002B01D000F045
:10101000D9F800BF1837BD4680BD00BF5C01002075
:101020000008004080B586B000AF07F10803002239
:101030001A605A609A60DA603B4600221A605A6071
:101040001D4B1E4A1A601C4B4CF2DF425A601A4B71
:1010500000229A60184B1A4ADA60174B00221A6174
:10106000154B00229A61144808F004FD0346002B3A
:1010700001D000F0A7F84FF48053BB6007F10803DC
:1010800019460D4808F0A0FD0346002B01D000F0E2
:1010900099F800233B6000237B603B4619460648D5
:1010A00008F074FF0346002B01D000F08BF800BF5E
:1010B0001837BD4680BD00BFA4010020000C0040D1
:1010C0003F420F0080B588B000AF07F10C0300224B
:1010D0001A605A609A60DA601A610023BB60364B6E
:1010E0001B6B354A43F004031363334B1B6B03F054
:1010F0000403BB60BB6800237B602F4B1B6B2E4A35
:1011000043F0010313632C4B1B6B03F001037B6063
:101110007B6800233B60284B1B6B274A43F002038C
:101120001363254B1B6B03F002033B603B680022FB
:101130004FF4EC61214806F08DFE00224FF48761E8
:101140001F4806F087FE4FF4EC63FB6001233B6110
:1011500000237B610023BB6107F10C03194617488C
:1011600006F0DCFC4FF48763FB6001233B61002346
:101170007B610023BB6107F10C031946104806F0A0
:10118000CDFC4FF46043FB604FF404133B6101233B
:101190007B6107F10C031946094806F0BFFC0022E9
:1011A0000021282006F083FC282006F09CFC00BFCC
:1011B0002037BD4680BD00BF00380240000002401D
:1011C0000004024080B400AF72B600BFFEE700002A
:1011D00080B483B000AF78603960064A7B681360E2
:1011E000054A3B68136000BF0C37BD465DF8047BC1
:1011F000704700BFF0010020F401002080B582B0EC
:1012000000AF0346FB7104F027FF002004F0F4FB5D
:10121000FB794C2B01F2208401A252F823F000BF8D
:10122000551300085D130008A3130008E913000814
:101230002F14000875140008BB14000801150008DD
:10124000471500088D150008D31500081916000869
:101250005F160008CD16000813170008591700087C
:101260009F170008E51700082B18000871180008E0
:10127000B7180008FD18000843190008891900086C
:10128000CF190008351A00087B1A0008C11A000897
:10129000071B00084D1B0008931B0008D91B000802
:1012A0001F1C0008651C0008AB1C0008F11C00088E
:1012B000371D0008A11D0008E71D00082D1E0008AD
:1012C000731E0008B91E0008FF1E0008451F000815
:1012D0008B1F0008D11F0008172000085D200008A0
:1012E000A320000811210008572100089D210008B3
:1012F000E3210008292200086D220008B12200081D
:10130000F52200084B230008A1230008F72300085A
:101310008D2400080725000881250008FB2500080A
:1013200075260008EF26000857270008F92700084F
:101330006128000899280008D12800080929000818
:101340004129000879290008B1290008E929000885
:10135000212A000804F093FE01F07FBB0B21292015
:1013600004F0CCFB0122CF49CF4804F05DFC0123FF
:1013700003220E21142004F077FD1F21292004F000
:10138000BDFB0122C749C94804F04EFC3321292086
:1013900004F0B4FB0122C349C54804F045FC01F048
:1013A0005CBB0B21292004F0A9FB0122BD49BE48EA
:1013B00004F03AFC1F21292004F0A0FB0122B949C6
:1013C000BA4804F031FC012303222321142004F045
:1013D0004BFD3321292004F091FB0122B149B4488F
:1013E00004F022FC01F039BB0B21292004F086FB1C
:1013F0000122AC49AC4804F017FC1F21292004F05D
:101400007DFB0122A749A94804F00EFC33212920C5
:1014100004F074FB0122A349A54804F005FC012354
:1014200003223821142004F01FFD01F016BB0B210C
:10143000292004F063FB01229A499C4804F0F4FB44
:101440001F21292004F05AFB01229649984804F0F4
:10145000EBFB3321292004F051FB012291499548EF
:1014600004F0E2FB012303223821142004F0FCFCE9
:1014700001F0F3BA0B21292004F040FB0122894935
:101480008B4804F0D1FB1F21292004F037FB0122F7
:101490008449884804F0C8FB3321292004F02EFB3E
:1014A00001228049844804F0BFFB01230322382134
:1014B000142004F0D9FC01F0D0BA0B21292004F04B
:1014C0001DFB012277497A4804F0AEFB1F21292039
:1014D00004F014FB01227349764804F0A5FB0123B4
:1014E00003222321142004F0BFFC3321292004F01F
:1014F00005FB01226B49704804F096FB01F0ADBA80
:101500000B21292004F0FAFA01226649684804F008
:101510008BFB012303220E21142004F0A5FC1F21C4
:10152000292004F0EBFA01225E49624804F07CFBBA
:101530003321292004F0E2FA01225A495E4804F0DE
:1015400073FB01F08ABA0B21292004F0D7FA01229B
:101550005449564804F068FB012303220E2114204D
:1015600004F082FC1F21292004F0C8FA01224D4911
:101570004F4804F059FB3321292004F0BFFA01221F
:1015800048494C4804F050FB01F067BA0B21292070
:1015900004F0B4FA01224349484804F045FB012312
:1015A00003220E21142004F05FFC1F21292004F0E7
:1015B000A5FA01223B49424804F036FB3321292099
:1015C00004F09CFA012237493E4804F02DFB01F05B
:1015D00044BA0B21292004F091FA012231493748FD
:1015E00004F022FB1F21292004F088FA01222D4952
:1015F000334804F019FB012303222321142004F0B3
:1016000033FC3321292004F079FA012225492D48A1
:1016100004F00AFB01F021BA0B21292004F06EFA34
:1016200001222049254804F0FFFA1F21292004F057
:1016300065FA01221B49224804F0F6FA33212920D9
:1016400004F05CFA012217491E4804F0EDFA012368
:1016500003223821142004F007FC01F0FEB90B210D
:10166000292004F04BFA01220E49154804F0DCFA57
:101670001F21292004F042FA01220A49114804F0EE
:10168000D3FA3321292004F039FA012205490E4802
:1016900004F0CAFA012303223821142004F0E4FBE9
:1016A00001F0DBB900000020E0A90008ECA9000867
:1016B000F8A9000804AA000810AA000818AA00083F
:1016C00020AA000828AA000834AA00080B21292013
:1016D00004F014FA0122CF49CF4804F0A5FA1F21E3
:1016E000292004F00BFA0122CA49CC4804F09CFAE4
:1016F000012303222321142004F0B6FB33212920E7
:1017000004F0FCF90122C349C54804F08DFA01F048
:10171000A4B90B21292004F0F1F90122BD49BE48EA
:1017200004F082FA012303220E21142004F09CFB12
:101730001F21292004F0E2F90122B649B74804F03C
:1017400073FA3321292004F0D9F90122B149B448B0
:1017500004F06AFA01F081B90B21292004F0CEF9D6
:101760000122AC49AF4804F05FFA012303220E21A5
:10177000142004F079FB1F21292004F0BFF9012275
:10178000A449A54804F050FA3321292004F0B6F901
:101790000122A049A44804F047FA01F05EB90B21E8
:1017A000292004F0ABF901229A499E4804F03CFA42
:1017B0001F21292004F0A2F901229649964804F03D
:1017C00033FA012303222321142004F04DFB33219B
:1017D000292004F093F901228E49934804F024FA59
:1017E00001F03BB90B21292004F088F90122894935
:1017F0008C4804F019FA1F21292004F07FF90122F6
:101800008449854804F010FA3321292004F076F940
:1018100001228049844804F007FA01230322382179
:10182000142004F021FB01F018B90B21292004F049
:1018300065F901227749784804F0F6F91F2129203B
:1018400004F05CF901227349774804F0EDF9332183
:10185000292004F053F901226E49744804F0E4F998
:10186000012303223821142004F0FEFA01F0F5B818
:101870000B21292004F042F9012266496A4804F04C
:10188000D3F91F21292004F039F901226149674861
:1018900004F0CAF93321292004F030F901225D490E
:1018A000634804F0C1F9012303223821142004F015
:1018B000DBFA01F0D2B80B21292004F01FF9012234
:1018C0005449594804F0B0F91F21292004F016F9B1
:1018D00001225049554804F0A7F90123032223218E
:1018E000142004F0C1FA3321292004F007F9012261
:1018F00048494F4804F098F901F0AFB80B2129206E
:1019000004F0FCF801224349474804F08DF9012313
:1019100003220E21142004F0A7FA1F21292004F02D
:10192000EDF801223B49414804F07EF9332129209A
:1019300004F0E4F8012237493D4804F075F901F05C
:101940008CB80B21292004F0D9F8012231493548FF
:1019500004F06AF9012303220E21142004F084FA12
:101960001F21292004F0CAF801222A492B4804F03B
:101970005BF93321292004F0C1F8012225492A48C6
:1019800004F052F901F069B80B21292004F0B6F8EF
:1019900001222049234804F047F91F21292004F09F
:1019A000ADF801221B491D4804F03EF90123032232
:1019B0002321142004F058FA3321292004F09EF842
:1019C00001221449184804F02FF901F046B80B2100
:1019D000292004F093F801220E49124804F024F95A
:1019E0001F21292004F08AF801220A490B4804F03B
:1019F0001BF93321292004F081F8012205490A4806
:101A000004F012F9012303223821142004F02CFAE7
:101A100001F023B80000002020AA000828AA00082E
:101A200034AA000818AA00083CAA000840AA000826
:101A300044AA00080B21292004F060F80122CF49B4
:101A4000CF4804F0F1F81F21292004F057F80122B3
:101A5000CA49CC4804F0E8F83321292004F04EF8B4
:101A60000122C649C84804F0DFF8012303223821C7
:101A7000142004F0F9F900F0F0BF0B21292004F044
:101A80003DF80122BD49BF4804F0CEF81F212920AE
:101A900004F034F80122B949BB4804F0C5F83321F9
:101AA000292004F02BF80122B449B84804F0BCF80E
:101AB000012303223821142004F0D6F900F0CDBF11
:101AC0000B21292004F01AF80122AC49AD4804F09A
:101AD000ABF81F21292004F011F80122A749AA48D8
:101AE00004F0A2F8012303222321142004F0BCF9FE
:101AF0003321292004F002F80122A049A34804F070
:101B000093F800F0AABF0B21292003F0F7FF012270
:101B10009A499C4804F088F8012303220E211420DE
:101B200004F0A2F91F21292003F0E8FF01229349C4
:101B3000954804F079F83321292003F0DFFF0122D2
:101B40008E49924804F070F800F087BF0B212920DD
:101B500003F0D4FF012289498D4804F065F8012380
:101B600003220E21142004F07FF91F21292003F005
:101B7000C5FF01228149874804F056F83321292006
:101B800003F0BCFF01227D497E4804F04DF800F0CF
:101B900064BF0B21292003F0B1FF012277497C4863
:101BA00004F042F81F21292003F0A8FF0122734905
:101BB000784804F039F8012303222321142004F08B
:101BC00053F93321292003F099FF01226B496D4815
:101BD00004F02AF800F041BF0B21292003F08EFF0A
:101BE000012266496A4804F01FF81F21292003F0EA
:101BF00085FF01226149674804F016F83321292046
:101C000003F07CFF01225D495E4804F00DF80123DA
:101C100003223821142004F027F900F01EBF0B2105
:101C2000292003F06BFF012254495A4803F0FCFFBE
:101C30001F21292003F062FF01225049514803F07F
:101C4000F3FF3321292003F059FF01224B494E486D
:101C500003F0EAFF012303223821142004F004F9E1
:101C600000F0FBBE0B21292003F048FF012243496D
:101C7000444803F0D9FF1F21292003F03FFF012230
:101C80003E49414803F0D0FF3321292003F036FFBD
:101C900001223A493D4803F0C7FF012303223821BE
:101CA000142004F0E1F800F0D8BE0B21292003F045
:101CB00025FF01223149334803F0B6FF1F212920B7
:101CC00003F01CFF01222D492F4803F0ADFF012333
:101CD00003222321142004F0C7F83321292003F024
:101CE0000DFF01222549294803F09EFF00F0B5BEF3
:101CF0000B21292003F002FF01222049214803F093
:101D000093FF012303220E21142004F0ADF81F21BC
:101D1000292003F0F3FE012218491B4803F084FF39
:101D20003321292003F0EAFE01221449174803F069
:101D30007BFF00F092BE0B21292003F0DFFE012281
:101D40000E49134803F070FF012303220E211420D3
:101D500004F08AF81F21292003F0D0FE0122074950
:101D60000D4803F061FF3321292003F0C7FE012253
:101D700002490A4803F058FF00F06FBE000000203F
:101D800028AA00083CAA000840AA000844AA0008A3
:101D900018AA000834AA00084CAA000854AA00088F
:101DA0000B21292003F0AAFE0122CF49CF4803F0DE
:101DB0003BFF1F21292003F0A1FE0122CA49CC4884
:101DC00003F032FF012303222321142004F04CF8F6
:101DD0003321292003F092FE0122C349C54803F0B4
:101DE00023FF00F03ABE0B21292003F087FE0122D9
:101DF000BD49BE4803F018FF1F21292003F07EFED5
:101E00000122B949BA4803F00FFF3321292003F01A
:101E100075FE0122B449B74803F006FF01230322EF
:101E20003821142004F020F800F017BE0B212920DF
:101E300003F064FE0122AC49AD4803F0F5FE1F211A
:101E4000292003F05BFE0122A749AA4803F0ECFE1B
:101E50003321292003F052FE0122A349A64803F0B2
:101E6000E3FE012303223821142003F0FDFF00F0DC
:101E7000F4BD0B21292003F041FE01229A499C4820
:101E800003F0D2FE1F21292003F038FE01229649DB
:101E9000984803F0C9FE012303222321142003F0F4
:101EA000E3FF3321292003F029FE01228E499248C5
:101EB00003F0BAFE00F0D1BD0B21292003F01EFE75
:101EC000012289498A4803F0AFFE012303220E2133
:101ED000142003F0C9FF1F21292003F00FFE012267
:101EE0008149844803F0A0FE3321292003F006FE37
:101EF00001227D49804803F097FE00F0AEBD0B2122
:101F0000292003F0FBFD01227749784803F08CFE7D
:101F1000012303220E21142003F0A6FF1F212920F4
:101F200003F0ECFD01227049744803F07DFE33217B
:101F3000292003F0E3FD01226B49714803F074FE90
:101F400000F08BBD0B21292003F0D8FD012266494A
:101F5000664803F069FE1F21292003F0CFFD01220E
:101F60006149664803F060FE012303222321142007
:101F700003F07AFF3321292003F0C0FD01225A49E2
:101F80005F4803F051FE00F068BD0B21292003F0EB
:101F9000B5FD01225449554803F046FE1F21292072
:101FA00003F0ACFD01225049544803F03DFE3321BB
:101FB000292003F0A3FD01224B49514803F034FED0
:101FC000012303223821142003F04EFF00F045BD09
:101FD0000B21292003F092FD01224349474803F0D9
:101FE00023FE1F21292003F089FD01223E49444898
:101FF00003F01AFE3321292003F080FD01223A4923
:10200000404803F011FE012303223821142003F07D
:102010002BFF00F022BD0B21292003F06FFD0122D0
:102020003149364803F000FE1F21292003F066FDE8
:1020300001222D49324803F0F7FD01230322232119
:10204000142003F011FF3321292003F057FD012252
:1020500025492C4803F0E8FD00F0FFBC0B212920A6
:1020600003F04CFD01222049244803F0DDFD01234B
:1020700003220E21142003F0F7FE1F21292003F074
:102080003DFD012218491E4803F0CEFD33212920D1
:1020900003F034FD012214491A4803F0C5FD00F095
:1020A000DCBC0B210A2003F029FD01220E490F4858
:1020B00003F0BAFD012303220E21022003F0D4FE17
:1020C0001F210A2003F01AFD012207490E4803F0E0
:1020D000ABFD33210A2003F011FD012202490B4818
:1020E00003F0A2FD00F0B9BC0000002018AA00080F
:1020F0004CAA000854AA000860AA000868AA0008B0
:1021000074AA000880AA000890AA0008A0AA0008E3
:102110000B21142003F0F2FC0122D149D14803F035
:1021200083FD1F210A2003F0E9FC0122CC49CE489F
:1021300003F07AFD012303222321022003F094FE01
:1021400033210A2003F0DAFC0122C549C74803F015
:102150006BFD00F082BC0B21142003F0CFFC0122A8
:10216000BF49C04803F060FD1F210A2003F0C6FCF0
:102170000122BB49BC4803F057FD33210A2003F07C
:10218000BDFC0122B649B94803F04EFD01230322EC
:102190003821022003F068FE00F05FBC0B210A200A
:1021A00003F0ACFC0122AE49AF4803F03DFD1F2116
:1021B0000A2003F0A3FC0122A949AC4803F034FD36
:1021C00033210A2003F09AFC0122A549A84803F014
:1021D0002BFD012303223821022003F045FE00F0ED
:1021E0003CBC0B210A2003F089FC01229C499F483A
:1021F00003F01AFD1F210A2003F080FC01229849F8
:102200009B4803F011FD33210A2003F077FC0122E3
:102210009349984803F008FD012303223821022046
:1022200003F022FE00F019BC0B210A2003F066FC2B
:1022300001228B498D4803F0F7FC1F210A2003F08F
:102240005DFC012286498A4803F0EEFC012303224B
:102250002321022003F008FE33210A2003F04EFC64
:1022600001227F49834803F0DFFCF6E30B210A20BB
:1022700003F044FC01227A497C4803F0D5FC012399
:1022800003220E21022003F0EFFD1F210A2003F09C
:1022900035FC01227249764803F0C6FC33210A203E
:1022A00003F02CFC01226E49724803F0BDFCD4E31C
:1022B0000B210A2003F022FC012269496A4803F03D
:1022C000B3FC012303220E21022003F0CDFD1F21C8
:1022D0000A2003F013FC01226149644803F0A4FCC6
:1022E00033210A2003F00AFC01225D49604803F013
:1022F0009BFCB2E30B21142003F000FC012258499F
:10230000584803F091FC012303220E21022003F020
:10231000ABFD1F21142003F0F1FB01225049564868
:1023200003F082FC3321142003F0E8FB01224C4926
:10233000524803F079FC33216F2003F0DFFB504B50
:102340001B78184603F06CFE87E30B21142003F082
:10235000D5FB01224249434803F066FC1F211420AB
:1023600003F0CCFB01223E49434803F05DFC01230E
:10237000032223210A2003F077FD3321142003F0E8
:10238000BDFB012236493D4803F04EFC33216F204E
:1023900003F0B4FB3A4B1B78184603F041FE5CE3B4
:1023A0000B21142003F0AAFB01222D492D4803F034
:1023B0003BFC1F21142003F0A1FB012228492E48D9
:1023C00003F032FC3321142003F098FB012224494E
:1023D0002A4803F029FC33216F2003F08FFB284BA0
:1023E0001B78184603F01CFE0123032238210A2023
:1023F00003F03AFD31E30B21142003F07FFB0122AF
:1024000017491D4803F010FC1F21142003F076FB30
:1024100001221349194803F007FC1F216F2003F024
:102420006DFB174B1B78184603F0FAFD332114207F
:1024300003F064FB01220A49124803F0F5FB332143
:102440006F2003F05BFB104B1B78184603F0E8FD90
:102450000123032238210A2003F006FDFDE200BF1C
:102460000000002018AA000890AA0008A0AA0008EE
:10247000B0AA0008C0AA0008D0AA0008D8AA00087C
:10248000AE060020E4AA0008AF0600200B211420AD
:1024900003F034FB0122CA49CA4803F0C5FB0B21F3
:1024A0006F2003F02BFBC84B1B78184603F0B8FDD8
:1024B0001F21142003F022FB0122C149C34803F06D
:1024C000B3FB1F216F2003F019FBC14B1B7818468B
:1024D00003F0A6FD3321142003F010FB0122B849BC
:1024E000BC4803F0A1FB33216F2003F007FBBA4B7C
:1024F0001B78184603F094FD0123032238210A209B
:1025000003F0B2FCA9E20B21142003F0F7FA012238
:10251000AB49AE4803F088FB0B216F2003F0EEFAC5
:10252000AB4B1B78184603F07BFD1F21142003F0F2
:10253000E5FA0122A249A74803F076FB1F216F208C
:1025400003F0DCFAA44B1B78184603F069FD332135
:10255000142003F0D3FA01229949A04803F064FB48
:1025600033216F2003F0CAFA9D4B1B78184603F005
:1025700057FD0123032238210A2003F075FC6CE289
:102580000B21142003F0BAFA01228D498F4803F081
:102590004BFB0B216F2003F0B1FA8D4B1B781846D3
:1025A00003F03EFD1F21142003F0A8FA0122844904
:1025B000884803F039FB1F216F2003F09FFA864BF8
:1025C0001B78184603F02CFD0123032223210A2047
:1025D00003F04AFC3321142003F090FA01227849D9
:1025E0007E4803F021FB33216F2003F087FA7C4BF8
:1025F0001B78184603F014FD2FE20B21142003F082
:102600007DFA01226E49714803F00EFB0B216F2009
:1026100003F074FA6E4B1B78184603F001FD01239A
:1026200003220E210A2003F01FFC1F21142003F0B7
:1026300065FA01226249674803F0F6FA1F216F200C
:1026400003F05CFA644B1B78184603F0E9FC332175
:10265000142003F053FA01225949604803F0E4FAC8
:1026600033216F2003F04AFA5D4B1B78184603F0C4
:10267000D7FCF2E10B21142003F040FA012250496B
:10268000504803F0D1FA0B216F2003F037FA4E4B7C
:102690001B78184603F0C4FC012303220E210A20F4
:1026A00003F0E2FB1F21142003F028FA0122444921
:1026B000464803F0B9FA1F216F2003F01FFA444B7C
:1026C0001B78184603F0ACFC3321142003F016FAF3
:1026D00001223B493F4803F0A7FA33216F2003F062
:1026E0000DFA3D4B1B78184603F09AFCB5E10B211F
:1026F000292003F003FA012231493A4803F094FA01
:10270000012303220E21142003F0AEFB1F212920F8
:1027100003F0F4F901222A49334803F085FA1F2116
:102720005B2003F0EBF9314B1B68184603F078FC93
:102730003321292003F0E2F9012221492C4803F03A
:1027400073FA33215B2003F0D9F92A4B1B68184632
:1027500003F066FC81E10B21292003F0CFF901226F
:102760001749204803F060FA1F21292003F0C6F919
:10277000012213491C4803F057FA1F215B2003F084
:10278000BDF91A4B1B68184603F04AFC01230322CB
:102790002321142003F068FB3321292003F0AEF934
:1027A00001220749124803F03FFA33215B2003F06E
:1027B000A5F9104B1B68184603F032FC4DE100BF31
:1027C00000000020D8AA0008AE060020E4AA0008F5
:1027D000AF060020F0AA0008B0060020FCAA0008FE
:1027E000B106002018AA000808AB0008F00100207C
:1027F00010AB0008F40100200B21292003F07EF922
:1028000001229949994803F00FFA1F21292003F06A
:1028100075F901229449964803F006FA1F215B20BE
:1028200003F06CF9934B1B68184603F0F9FB332156
:10283000292003F063F901228B498F4803F0F4F952
:1028400033215B2003F05AF98C4B1B68184603F0C8
:10285000E7FB012303223821142003F005FBFCE0F1
:102860000B210F2003F04AF901227F49844803F02D
:10287000DBF91F210F2003F041F901227A49814839
:1028800003F0D2F933210F2003F038F90122764901
:102890007D4803F0C9F9E0E00B210F2003F02EF989
:1028A00001227149794803F0BFF91F210F2003F07D
:1028B00025F901226C49764803F0B6F933210F203F
:1028C00003F01CF9012268496F4803F0ADF9C4E038
:1028D0000B210F2003F012F9012263496D4803F028
:1028E000A3F91F210F2003F009F901225E496A486C
:1028F00003F09AF933210F2003F000F901225A491D
:10290000664803F091F9A8E00B210F2003F0F6F8D8
:10291000012255495F4803F087F91F210F2003F07A
:10292000EDF8012250495E4803F07EF933210F2073
:1029300003F0E4F801224C495A4803F075F98CE0A1
:102940000B210F2003F0DAF801224749514803F028
:102950006BF91F210F2003F0D1F8012242495248A0
:1029600003F062F933210F2003F0C8F801223E4939
:102970004E4803F059F970E00B210F2003F0BEF828
:1029800001223949434803F04FF91F210F2003F07A
:10299000B5F801223449424803F046F933210F20AB
:1029A00003F0ACF801223049414803F03DF954E00E
:1029B0000B210F2003F0A2F801222B49354803F028
:1029C00033F91F210F2003F099F8012226493648D8
:1029D00003F02AF933210F2003F090F80122224955
:1029E000344803F021F938E00B210F2003F086F87A
:1029F00001221D49274803F017F91F210F2003F07A
:102A00007DF8012218492C4803F00EF933210F20DC
:102A100003F074F801221449284803F005F91CE07A
:102A20000B210F2003F06AF801220F49194803F027
:102A3000FBF81F210F2003F061F801220A4920480A
:102A400003F0F2F833210F2003F058F80122064971
:102A50001C4803F0E9F800E000BF02F09BFF00BF54
:102A60000837BD4680BD00BF0000002018AA00083E
:102A700008AB0008F001002010AB0008F4010020B2
:102A800018AB00082CAB00083CAB000850AB0008AA
:102A90005CAB00086CAB000874AB000884AB0008AA
:102AA00094AB0008A8AB0008B0AB0008C4AB0008AA
:102AB000D0AB0008D8AB0008E4AB0008F0AB0008CE
:102AC000F8AB00080CAC000880B500AF034B1B78D6
:102AD000002B05D003F0E2FF02F090BEAD0600200F
:102AE0008F4B1B78002B22D18D4B5B78002B1ED196
:102AF0008C4B1B68002B1AD18B4B1B78002B16D1EB
:102B0000894B5B78002B12D10120FEF777FB874BB6
:102B10001B68012B0BD1824B01221A70834B0022C0
:102B20001A60804B00221A607F4B00221A707C4B87
:102B30001B78002B1ED17B4B1B68012B1AD17A4BC3
:102B40001B78002B16D1784B5B78002B12D102201A
:102B5000FEF754FB754B1B68012B0BD1704B022207
:102B60001A70724B00221A606E4B00221A606E4B74
:102B700000221A706A4B1B78002B22D1684B5B78BD
:102B8000002B1ED1674B1B68022B1AD1664B1B789A
:102B9000002B16D1644B5B78002B12D10320FEF77B
:102BA0002DFB624B1B68012B0BD15D4B03221A706E
:102BB0005E4B00221A605B4B00221A605A4B0022C7
:102BC0001A70574B1B78002B22D1554B5B78002B8A
:102BD0001ED1544B1B68032B1AD1534B1B78002B6F
:102BE00016D1514B5B78002B12D10420FEF706FB67
:102BF0004E4B1B68012B0BD1494B04221A704B4BD7
:102C000000221A60474B00221A60474B00221A70BC
:102C1000434B1B78002B21D1414B5B78002B1DD1FE
:102C2000404B1B68042B19D13F4B5B78002B15D10F
:102C30000520FEF7E3FA3C4B01221A703B4B1B6860
:102C4000012B0BD1364B07221A70384B00221A6029
:102C5000344B00221A60344B00221A70304B1B7820
:102C6000002B22D12E4B5B78002B1ED12D4B1B68E5
:102C7000032B1AD12C4B1B78012B16D12A4B5B78D6
:102C8000002B12D10620FEF7B9FA284B1B68012B46
:102C90000BD1234B04221A70244B00221A60214BC3
:102CA00000221A60204B00221A701D4B1B78002B4B
:102CB00022D11B4B5B78002B1ED11A4B1B68022BB9
:102CC0001AD1194B1B78012B16D1174B5B78002BAF
:102CD00012D10720FEF792FA144B1B68012B0BD17F
:102CE0000F4B03221A70114B00221A600D4B002269
:102CF0001A600D4B00221A70094B1B78002B2BD148
:102D0000074B5B78002B27D1064B1B68012B23D187
:102D1000054B1B78012B1FD1034B5B78002B07E081
:102D2000C8060020B8060020CC060020BC06002003
:102D300012D10820FEF762FA8F4B1B68012B0BD1D2
:102D40008E4B02221A708C4B00221A608C4B002290
:102D50001A608C4B00221A70884B1B78002B25D1EF
:102D6000864B5B78002B21D1854B1B68002B1DDC2B
:102D7000844B1B78012B19D1824B5B78002B15D12A
:102D80000120FEF73BFA7F4B00221A707A4B1B683A
:102D9000012B0BD1794B01221A70774B00221A605C
:102DA000774B00221A60774B00221A70734B1B7806
:102DB000002B15D1714B5B78002B11D1704B1B6828
:102DC000002B0DDA6F4B1B78002B09D16D4B5B7814
:102DD000002B05D10520FEF711FA694B04221A6079
:102DE000664B1B78002B18D1644B5B78002B14D1F9
:102DF000634B1B68042B10DD624B1B78012B0CD13D
:102E0000604B5B78002B08D10120FEF7F7F95C4B93
:102E100000221A605B4B00221A70584B1B78072B5C
:102E200026D0564B1B78002B22D0544B5B78002BBE
:102E30001ED1534B1B68002B1AD1524B1B78002B11
:102E400016D1504B5B78002B12D10920FEF7D6F932
:102E5000494B1B68012B0BD1484B00221A70464B83
:102E600000221A60464B00221A60464B00221A705C
:102E7000424B1B78072B26D0404B1B78002B22D0CF
:102E80003E4B5B78002B1ED13D4B1B68012B1AD1AA
:102E90003C4B1B78002B16D13A4B5B78002B12D1A0
:102EA0000A20FEF7ABF9344B1B68012B0BD1334BD7
:102EB00001225A70304B00221A60314B00221A60F6
:102EC000304B00221A702D4B1B78072B26D02B4B32
:102ED0001B78002B22D0294B5B78002B1ED1284B6E
:102EE0001B68022B1AD1274B1B78002B16D1254BC0
:102EF0005B78002B12D10B20FEF780F91E4B1B686C
:102F0000012B0BD11D4B02225A701B4B00221A6061
:102F10001B4B00221A601B4B00221A70174B1B78A8
:102F2000072B25D0154B1B78002B21D0134B5B783A
:102F3000002B1DD1124B1B68032B19D1114B5B7851
:102F4000002B15D10C20FEF759F90E4B01221A70F7
:102F5000094B1B68012B0BD1084B03225A70064BFF
:102F600000221A60064B00221A60064B00221A70DB
:102F7000024B1B78072B07E0BC060020C806002088
:102F8000B8060020CC06002026D07F4B1B78002BF3
:102F900022D07D4B5B78002B1ED17C4B1B68022B13
:102FA0001AD17B4B1B78012B16D1794B5B78002B08
:102FB00012D10D20FEF722F9764B1B68012B0BD1A5
:102FC000714B02225A70734B00221A606F4B002221
:102FD0001A606F4B00221A706B4B1B78072B29D09D
:102FE000694B1B78002B25D0674B5B78002B21D1D8
:102FF000664B1B68012B1DD1654B1B78012B19D12A
:10300000634B5B78002B15D10E20FEF7F7F8604B71
:1030100000221A705F4B1B68012B0BD15A4B012207
:103020005A705C4B00221A60584B00221A60584BB1
:1030300000221A70544B1B78072B19D0524B1B7867
:10304000002B15D0504B5B78002B11D14F4B1B68D8
:10305000002B0DDA4E4B1B78002B09D14C4B5B78C3
:10306000002B05D10C20FEF7C9F8484B04221A604A
:10307000454B1B78072B1CD0434B1B78002B18D0DB
:10308000414B5B78002B14D1404B1B68032B10DDA8
:103090003F4B1B78012B0CD13D4B5B78002B08D1AB
:1030A0000920FEF7ABF8394B00221A60384B00229A
:1030B0001A70354B1B78072B26D0334B1B78002B0F
:1030C00022D0314B5B78012B1ED1304B1B68002B7B
:1030D0001AD12F4B1B78002B16D12D4B5B78002B70
:1030E00012D10F20FEF78AF82A4B1B68012B0BD157
:1030F000254B00225A70274B00221A60234B0022D6
:103100001A60234B00221A701F4B1B78072B68D0C4
:103110001D4B1B78002B64D01B4B5B78012B60D1BF
:103120001A4B1B68012B5CD1194B1B78002B58D113
:10313000174B5B78002B54D11020FEF75FF8154B2E
:103140001B68012B4DD1104B1B78012B06D1124B64
:1031500001221A70114B00221A8033E00A4B1B78AF
:10316000022B06D10E4B01221A700E4B00221A8040
:1031700028E0054B1B78032B1AD10B4B01221A7048
:103180000A4B00221A801DE0C8060020B806002065
:10319000CC060020BC060020C4060020D00600207B
:1031A000C5060020D2060020C6060020D406002056
:1031B000844B1B78042B05D1834B01221A70834B5F
:1031C00000221A807F4B00225A707E4B00221A7018
:1031D0007F4B00221A607F4B00221A607E4B002238
:1031E0001A70784B1B78072B58D0764B1B78002B26
:1031F00054D0744B5B78012B50D1764B1B68022B5B
:103200004CD1754B1B78002B48D1734B5B78002B4E
:1032100044D11120FDF7F2FF6D4B1B68012B3DD10E
:10322000684B1B78012B07D16C4B01221A706C4B39
:103230001A886C4B1A8022E0624B1B78022B07D154
:10324000694B01221A70664B5A88684B1A8016E047
:103250005C4B1B78032B07D1654B01221A70654B21
:103260001A88654B1A800AE0564B1B78042B06D14E
:10327000554B01221A705F4B5A88544B1A80514BA0
:1032800000225A704F4B00221A70514B00221A60D4
:10329000504B00221A60504B00221A70494B1B7889
:1032A000072B58D0474B1B78002B54D0454B5B78ED
:1032B000012B50D1474B1B68032B4CD1464B1B783D
:1032C000002B48D1444B5B78002B44D11220FDF7F2
:1032D00095FF3F4B1B68012B3DD13A4B1B78012BCF
:1032E00007D13E4B01221A70444B1A883D4B1A807D
:1032F00022E0344B1B78022B07D13B4B01221A7082
:103300003E4B5A88394B1A8016E02E4B1B78032B04
:1033100007D1374B01221A70394B1A88364B1A8065
:103320000AE0284B1B78042B06D1274B01221A7088
:10333000334B5A88254B1A80224B00225A70214B5E
:1033400000221A70224B00221A60224B00221A60BF
:10335000214B00221A701B4B1B78072B68D0194B8E
:103360001B78002B64D0174B5B78012B60D1194B75
:103370001B68042B5CD1184B5B78002B58D11320B1
:10338000FDF73CFF144B01221A70114B1B68012BF7
:103390004ED10C4B1B78012B03D1104B00221A701D
:1033A00037E0084B1B78022B03D10F4B00221A7019
:1033B0002FE0044B1B78032B24D10D4B00221A70F5
:1033C00027E000BFC8060020C7060020D606002060
:1033D000BC060020B8060020CC060020C406002051
:1033E00034060020D0060020C5060020D2060020AA
:1033F000C606002038060020D40600203C06002027
:10340000400600205C4B1B78042B02D15B4B002252
:103410001A70594B00225A70574B00221A70584BA1
:1034200000221A60574B00221A60574B00221A7074
:10343000514B1B78072B58D04F4B1B78002B54D087
:103440004D4B5B78012B50D14E4B1B68032B4CD15D
:103450004D4B1B78012B48D14B4B5B78002B44D153
:103460001420FDF7CBFE464B1B68012B3DD1424B90
:103470001B78012B07D1454B01221A70444B1A8847
:10348000444B1A8022E03C4B1B78022B07D1424B65
:1034900001221A703E4B5A88404B1A8016E0364B78
:1034A0001B78032B07D13E4B01221A703D4B1A8823
:1034B0003D4B1A800AE0304B1B78042B06D12F4B72
:1034C00001221A70374B5A88384B1A802A4B002237
:1034D0005A70294B00221A70294B00221A60294B7E
:1034E00000221A60284B00221A70234B1B78072BEE
:1034F0007CD0214B1B78002B78D01F4B5B78012BA5
:1035000074D1204B1B68022B70D11F4B1B78012BF1
:103510006CD11D4B5B78002B68D11520FDF76EFE3A
:10352000194B00221A70164B1B68012B5ED1124BEF
:103530001B78012B07D1154B01221A701C4B1A88DE
:10354000144B1A8043E00C4B1B78022B07D1124B13
:1035500001221A70164B5A88104B1A8037E0064B1E
:103560001B78032B28D10E4B01221A70114B1A889D
:103570000D4B1A802BE000BFC8060020C7060020B4
:10358000BC060020B8060020CC060020C40600209F
:103590003C060020D0060020C5060020D2060020F0
:1035A000C606002040060020D4060020D6060020D3
:1035B00034060020380600208B4B1B78042B06D1E4
:1035C0008A4B01221A708A4B5A888A4B1A80864B82
:1035D00000225A70844B00221A70874B00221A6016
:1035E000864B00221A60864B00221A707E4B1B7895
:1035F000072B19D07C4B1B78002B15D07A4B5B78AE
:10360000012B11D17D4B1B68002B0DDA7C4B1B78F5
:10361000002B09D17A4B5B78002B05D11320FDF7E5
:10362000EDFD764B04221A606F4B1B78072B1CD0E4
:103630006D4B1B78002B18D06B4B5B78012B14D192
:103640006E4B1B68042B10DD6D4B1B78012B0CD1CE
:103650006B4B5B78002B08D10F20FDF7CFFD674B3C
:1036600000221A60664B00221A705F4B1B78072BF2
:1036700026D05D4B1B78002B22D05B4B5B78022B56
:103680001ED15E4B1B68002B1AD15D4B1B78002BA3
:1036900016D15B4B5B78002B12D11620FDF7AEFDE7
:1036A000554B1B68012B0BD14F4B00225A70524BCC
:1036B00000221A60514B00221A60514B00221A70EE
:1036C000494B1B78072B58D0474B1B78002B54D005
:1036D000454B5B78022B50D1484B1B68012B4CD1DA
:1036E000474B1B78002B48D1454B5B78002B44D1CE
:1036F0001720FDF783FD404B1B68012B3DD13A4B52
:103700001B78012B07D13F4B01221A703E4B1A88C0
:103710003E4B1A8022E0344B1B78022B07D13C4BE6
:1037200001221A70384B5A883A4B1A8016E02E4BF9
:103730001B78032B07D1384B01221A70374B1A889C
:10374000374B1A800AE0284B1B78042B06D1274BF5
:1037500001221A70314B5A88264B1A80224B0022C4
:103760005A70214B00221A70234B00221A60234BFF
:1037700000221A60224B00221A701B4B1B78072B69
:1037800078D0194B1B78002B74D0174B5B78022B29
:1037900070D11A4B1B68022B6CD1194B1B78002B74
:1037A00068D1174B5B78002B64D11820FDF726FDFC
:1037B000114B1B68012B5DD10B4B1B78012B07D1E3
:1037C000104B01221A70174B1A88104B1A8042E0D6
:1037D000054B1B78022B27D10D4B01221A70114B80
:1037E0005A880C4B1A8036E0C8060020C706002015
:1037F00038060020D6060020BC060020B8060020AF
:10380000CC060020C40600202C060020D006002094
:10381000C5060020D2060020C60600203006002083
:10382000D406002034060020884B1B78032B07D1D8
:10383000874B01221A70874B1A88874B1A800AE03F
:10384000824B1B78042B06D1844B01221A70814BCA
:103850005A88834B1A807D4B00225A707B4B002282
:103860001A70804B00221A607F4B00221A607F4B37
:1038700000221A70754B1B78072B58D0734B1B789E
:10388000002B54D0714B5B78022B50D1764B1B68C8
:10389000032B4CD1754B1B78002B48D1734B5B78B5
:1038A000002B44D11920FDF7A9FC6E4B1B68012B9E
:1038B0003DD1664B1B78012B07D16D4B01221A704D
:1038C0006C4B1A886C4B1A8022E0604B1B78022BE1
:1038D00007D16A4B01221A70664B5A88684B1A80CE
:1038E00016E05A4B1B78032B07D1594B01221A7053
:1038F000644B1A88584B1A800AE0544B1B78042BEF
:1039000006D1564B01221A705E4B5A88544B1A80CE
:103910004E4B00225A704D4B00221A70514B002220
:103920001A60514B00221A60504B00221A70474B0C
:103930001B78072B47D0454B1B78002B43D0434BBC
:103940005B78022B3FD1484B1B68042B3BD1474B84
:103950005B78002B37D11A20FDF750FC434B012236
:103960001A70404B1B68012B2DD1384B1B78012B53
:1039700003D13F4B00221A7016E0344B1B78022B08
:1039800003D13E4B00221A700EE0304B1B78032B04
:1039900003D12F4B00221A7006E02C4B1B78042B0E
:1039A00002D12E4B00221A70284B00225A70274B4E
:1039B00000221A702B4B00221A602B4B00221A6037
:1039C0002A4B00221A70214B1B78072B76D01F4BF5
:1039D0001B78002B72D01D4B5B78022B6ED1224BD3
:1039E0001B68032B6AD1214B1B78012B66D11F4B1F
:1039F0005B78002B62D11B20FDF700FC194B1B6884
:103A0000012B5BD1114B1B78012B07D1184B0122E5
:103A10001A70184B1A88184B1A8040E00B4B1B7811
:103A2000022B07D1154B01221A70124B5A88144BE6
:103A30001A8034E0054B1B78032B25D1044B01225F
:103A40001A70104B1A88044B1A8028E0C806002010
:103A5000C606002038060020D4060020C706002035
:103A6000D6060020BC060020B8060020CC060020A8
:103A7000C40600203C060020D0060020C506002019
:103A8000D206002040060020874B1B78042B06D16D
:103A9000864B01221A70864B5A88864B1A80824BBD
:103AA00000225A70804B00221A70834B00221A6049
:103AB000824B00221A60824B00221A707A4B1B78CC
:103AC000072B5BD0784B1B78002B57D0764B5B785D
:103AD000022B53D1794B1B68022B4FD1784B1B78AB
:103AE000012B4BD1764B5B78002B47D11C20FDF787
:103AF00085FB734B00221A706F4B1B68012B3DD165
:103B0000694B1B78012B07D16E4B01221A706E4B4B
:103B10001A886E4B1A8022E0634B1B78022B07D168
:103B20006B4B01221A70684B5A886A4B1A8016E058
:103B30005D4B1B78032B07D1674B01221A70674B33
:103B40001A88674B1A800AE0574B1B78042B06D162
:103B5000564B01221A70614B5A88564B1A80524BB1
:103B600000225A70504B00221A70534B00221A60E8
:103B7000524B00221A60524B00221A704A4B1B789B
:103B8000072B19D0484B1B78002B15D0464B5B7880
:103B9000022B11D1494B1B68002B0DDA484B1B78C7
:103BA000002B09D1464B5B78002B05D11A20FDF77D
:103BB00025FB424B04221A603B4B1B78072B1CD081
:103BC000394B1B78002B18D0374B5B78022B14D164
:103BD0003A4B1B68042B10DD394B1B78012B0CD1A1
:103BE000374B5B78002B08D11620FDF707FB334BD2
:103BF00000221A60324B00221A702B4B1B78072BC5
:103C000026D0294B1B78002B22D0274B5B78032B27
:103C10001ED12A4B1B68002B1AD1294B1B78002B75
:103C200016D1274B5B78002B12D11D20FDF7E6FA49
:103C3000214B1B68012B0BD11B4B00225A701E4BD2
:103C400000221A601D4B00221A601D4B00221A70C0
:103C5000154B1B78072B79D0134B1B78002B75D095
:103C6000114B5B78032B71D1144B1B68012B6DD169
:103C7000134B1B78002B69D1114B5B78002B65D15E
:103C80001E20FDF7BBFA0C4B1B68012B5ED1064BC7
:103C90001B78012B28D10B4B01221A70114B1A886B
:103CA0000A4B1A8043E000BFC8060020C706002068
:103CB00040060020D6060020BC060020B8060020E2
:103CC000CC060020C406002034060020D0060020C8
:103CD000C5060020D2060020C606002038060020B7
:103CE000D4060020440600208C4B1B78022B07D101
:103CF0008B4B01221A708B4B5A888B4B1A8016E023
:103D0000864B1B78032B07D1884B01221A70884BF6
:103D10001A88884B1A800AE0804B1B78042B06D146
:103D2000854B01221A70824B5A88844B1A807B4B38
:103D300000225A70794B00221A70814B00221A60BF
:103D4000804B00221A60804B00221A70734B1B7844
:103D5000072B58D0714B1B78002B54D06F4B5B78DE
:103D6000032B50D1774B1B68022B4CD1764B1B7821
:103D7000002B48D1744B5B78002B44D11F20FDF7FA
:103D80003DFA6F4B1B68012B3DD1644B1B78012B17
:103D900007D16E4B01221A706D4B1A886D4B1A8039
:103DA00022E05E4B1B78022B07D15D4B01221A707B
:103DB000674B5A885C4B1A8016E0584B1B78032BD4
:103DC00007D15A4B01221A70634B1A88594B1A803B
:103DD0000AE0524B1B78042B06D1574B01221A7074
:103DE0005D4B5A88554B1A804C4B00225A704B4BF6
:103DF00000221A70524B00221A60524B00221A60A5
:103E0000514B00221A70454B1B78072B58D0434B5F
:103E10001B78002B54D0414B5B78032B50D1494B7E
:103E20001B68032B4CD1484B1B78002B48D1464BC9
:103E30005B78002B44D12020FDF7E0F9404B1B6854
:103E4000012B3DD1354B1B78012B07D13F4B012274
:103E50001A70424B1A883F4B1A8022E02F4B1B7876
:103E6000022B07D12E4B01221A703C4B5A882E4B45
:103E70001A8016E0294B1B78032B07D12B4B01220C
:103E80001A70374B1A882B4B1A800AE0234B1B7889
:103E9000042B06D1284B01221A70314B5A88274B2C
:103EA0001A801E4B00225A701C4B00221A70244BA1
:103EB00000221A60234B00221A60234B00221A7042
:103EC000164B1B78072B6BD0144B1B78002B67D03D
:103ED000124B5B78032B63D11A4B1B68042B5FD109
:103EE000194B5B78002B5BD12120FDF787F9164B2E
:103EF00001221A70124B1B68012B51D1074B1B7802
:103F0000012B03D1114B00221A703AE0034B1B78AE
:103F1000022B27D1024B00221A7032E0C806002083
:103F2000C506002044060020D2060020C606002058
:103F300048060020D4060020C7060020D606002030
:103F4000BC060020B8060020CC060020C4060020D5
:103F50004C060020D0060020500600205406002009
:103F600058060020604B1B78032B03D15F4B0022C7
:103F70001A7006E05C4B1B78042B02D15C4B0022CC
:103F80001A70594B00225A70574B00221A70594B25
:103F900000221A60584B00221A60584B00221A70F7
:103FA000514B1B78072B58D04F4B1B78002B54D00C
:103FB0004D4B5B78032B50D14F4B1B68032B4CD1DF
:103FC0004E4B1B78012B48D14C4B5B78002B44D1D6
:103FD0002220FDF713F9474B1B68012B3DD1424BC3
:103FE0001B78012B07D1464B01221A70454B1A88CA
:103FF000454B1A8022E03C4B1B78022B07D1434BE8
:1040000001221A703F4B5A88414B1A8016E0364BFA
:104010001B78032B07D1354B01221A703D4B1A88B0
:104020003D4B1A800AE0304B1B78042B06D1304BF5
:1040300001221A70374B5A88384B1A802A4B0022BB
:104040005A70294B00221A702A4B00221A602A4B00
:1040500000221A60294B00221A70234B1B78072B71
:104060007CD0214B1B78002B78D01F4B5B78032B27
:1040700074D1214B1B68022B70D1204B1B78012B74
:104080006CD11E4B5B78002B68D12320FDF7B6F86E
:104090001A4B00221A70174B1B68012B5ED1124B72
:1040A0001B78012B07D1164B01221A701C4B1A8862
:1040B000154B1A8043E00C4B1B78022B07D1134B96
:1040C00001221A70164B5A88114B1A8037E0064BA2
:1040D0001B78032B28D1054B01221A70114B1A882B
:1040E0000D4B1A802BE000BFC8060020C60600203A
:1040F000C7060020BC060020B8060020CC06002021
:10410000C406002054060020D0060020C50600206A
:10411000D206002058060020D4060020D606002033
:104120004C060020500600208D4B1B78042B06D136
:104130008C4B01221A708C4B5A888C4B1A80884BFE
:1041400000225A70864B00221A70894B00221A6096
:10415000884B00221A60884B00221A70804B1B7813
:10416000072B19D07E4B1B78002B15D07C4B5B782E
:10417000032B11D17F4B1B68002B0DDA7E4B1B7874
:10418000002B09D17C4B5B78002B05D12120FDF75A
:1041900035F8784B04221A60714B1B78072B1CD022
:1041A0006F4B1B78002B18D06D4B5B78032B14D111
:1041B000704B1B68042B10DD6F4B1B78012B0CD14F
:1041C0006D4B5B78002B08D11D20FDF717F8694B6C
:1041D00000221A60684B00221A70614B1B78072B73
:1041E00026D15F4B1B78002B22D05D4B5B78002BD8
:1041F0001ED1604B1B68002B1AD15F4B1B78002B24
:1042000016D15D4B5B78002B12D12420FCF7F6FF12
:10421000574B1B68012B0BD1514B00221A70544B8A
:1042200000221A60534B00221A60534B00221A706E
:104230004B4B1B78072B26D1494B1B78002B22D0E8
:10424000474B5B78002B1ED14A4B1B68012B1AD1C0
:10425000494B1B78002B16D1474B5B78002B12D1B2
:104260002520FCF7CBFF424B1B68012B0BD13C4BAD
:1042700004225A703E4B00221A603E4B00221A6004
:104280003D4B00221A70364B1B78072B26D1344B3E
:104290001B78002B22D0324B5B78002B1ED1354B84
:1042A0001B68022B1AD1344B1B78002B16D1324BD2
:1042B0005B78002B12D12620FCF7A0FF2C4B1B684B
:1042C000012B0BD1264B05225A70294B00221A6074
:1042D000284B00221A60284B00221A70204B1B78B2
:1042E000072B25D11E4B1B78002B21D01C4B5B7854
:1042F000002B1DD11F4B1B68032B19D11E4B5B7864
:10430000002B15D12720FCF779FF1B4B01221A70D7
:10431000174B1B68012B0BD1114B06225A70144B03
:1043200000221A60134B00221A60134B00221A70ED
:104330000B4B1B78072B35D1094B1B78002B31D049
:10434000074B5B78002B2DD10A4B1B68022B29D120
:10435000094B1B78012B25D1074B5B78002B0DE017
:10436000C8060020C706002050060020D606002000
:10437000BC060020B8060020CC06002012D1282060
:10438000FCF73CFF8C4B1B68012B0BD18B4B0522A0
:104390005A70894B00221A60894B00221A60894B9F
:1043A00000221A70854B1B78072B29D1834B1B7871
:1043B000002B25D0814B5B78002B21D1804B1B68D3
:1043C000012B1DD17F4B1B78012B19D17D4B5B78C5
:1043D000002B15D12920FCF711FF7A4B00221A700F
:1043E000754B1B68012B0BD1744B04225A70724B16
:1043F00000221A60724B00221A60724B00221A705F
:104400006E4B1B78072B19D16C4B1B78002B15D0EA
:104410006A4B5B78002B11D1694B1B68002B0DDABE
:10442000684B1B78002B09D1664B5B78002B05D1BC
:104430002720FCF7E3FE624B03221A605F4B1B78D8
:10444000072B1CD15D4B1B78002B18D05B4B5B7886
:10445000002B14D15A4B1B68032B10DD594B1B78D2
:10446000012B0CD1574B5B78002B08D12420FCF793
:10447000C5FE534B00221A60524B00221A704F4B5C
:104480001B78072B2AD14D4B1B78002B26D04B4B8A
:104490005B78042B22D1494B9B78002B1ED1484BD3
:1044A0001B68002B1AD1474B1B78002B16D1454BAC
:1044B0005B78002B12D12A20FCF7A0FE3E4B1B6834
:1044C000012B0BD13D4B00225A703B4B00221A604E
:1044D0003B4B00221A603B4B00221A70374B1B7873
:1044E000072B2AD1354B1B78002B26D0334B5B781A
:1044F000042B22D1314B9B78002B1ED1304B1B68F3
:10450000012B1AD12F4B1B78002B16D12D4B5B782A
:10451000002B12D12B20FCF771FE274B1B68012BBF
:104520000BD1264B01229A70234B00221A60244B98
:1045300000221A60234B00221A70204B1B78072B95
:104540002AD11E4B1B78002B26D01C4B5B78042BEA
:1045500022D11A4B9B78002B1ED1194B1B68022BC2
:104560001AD1184B1B78002B16D1164B5B78002BF9
:1045700012D12C20FCF742FE0F4B1B68012B0BD1F4
:104580000E4B02229A700C4B00221A600C4B002238
:104590001A600C4B00221A70084B1B78072B32D183
:1045A000064B1B78002B2ED0044B5B78042B2AD1B2
:1045B000024B9B78002B07E0BC060020C8060020B9
:1045C000B8060020CC0600201DD18D4B1B68032BA4
:1045D00019D18C4B5B78002B15D12D20FCF70EFEEA
:1045E000884B01221A70884B1B68012B0BD1874B1B
:1045F00003229A70844B00221A60814B00221A60B9
:10460000804B00221A70814B1B78072B2AD17F4BDD
:104610001B78002B26D07D4B5B78042B22D17B4B63
:104620009B78002B1ED1764B1B68022B1AD1754B41
:104630001B78012B16D1734B5B78002B12D12E20E7
:10464000FCF7DCFD704B1B68012B0BD16F4B02227A
:104650009A706D4B00221A60694B00221A60694BF8
:1046600000221A70694B1B78072B2DD1674B1B78E2
:10467000002B29D0654B5B78042B25D1634B9B78AD
:10468000002B21D15E4B1B68012B1DD15D4B1B788C
:10469000012B19D15B4B5B78002B15D12F20FCF738
:1046A000ADFD584B00221A70574B1B68012B0BD1E4
:1046B000564B01229A70544B00221A60504B002234
:1046C0001A60504B00221A70504B1B78072B1DD1DB
:1046D0004E4B1B78002B19D04C4B5B78042B15D11B
:1046E0004A4B9B78002B11D1454B1B68002B0DDAF0
:1046F000444B1B78002B09D1424B5B78002B05D132
:104700002D20FCF77BFD3E4B03221A603F4B1B78AC
:10471000072B20D13D4B1B78002B1CD03B4B5B78EB
:10472000042B18D1394B9B78002B14D1344B1B68C8
:10473000032B10DD334B1B78012B0CD1314B5B78F5
:10474000002B08D12A20FCF759FD2D4B00221A60BE
:104750002C4B00221A702D4B1B78072B26D12B4B8C
:104760001B78002B22D0294B5B78052B1ED1244BC4
:104770001B68002B1AD1234B1B78002B16D1214B21
:104780005B78002B12D13020FCF738FD1E4B1B68E4
:10479000012B0BD11D4B00225A701B4B00221A60BB
:1047A000174B00221A60174B00221A70174B1B7808
:1047B000072B32D1154B1B78002B2ED0134B5B7877
:1047C000052B2AD10E4B1B68012B26D10D4B1B78D4
:1047D000002B22D10B4B5B78002B1ED13120FCF734
:1047E0000DFD094B1B68012B17D1094B01221A70D3
:1047F000054B00221A60024B00221A600AE000BF3B
:10480000B8060020CC060020BC060020C806002008
:10481000AD0600208D4B00221A708D4B1B78072BA4
:1048200026D18B4B1B78002B22D0894B5B78052B34
:104830001ED1884B1B68022B1AD1844B1B78002B8E
:1048400016D1824B5B78002B12D13220FCF7D6FCBC
:10485000814B1B68012B0BD1804B02221A707E4BBF
:1048600000221A607B4B00221A60784B00221A70DB
:10487000774B1B78072B26D1754B1B78002B22D04A
:10488000734B5B78052B1ED1724B1B68032B1AD11F
:104890006E4B1B78002B16D16C4B5B78002B12D122
:1048A0003320FCF7ABFC6C4B1B68012B0BD16B4B23
:1048B00003221A70684B00221A60664B00221A60AD
:1048C000624B00221A70624B1B78072B25D1604B7C
:1048D0001B78002B21D05E4B5B78052B1DD15D4BE7
:1048E0001B68042B19D1594B5B78002B15D1342050
:1048F000FCF784FC554B01221A70574B1B68012BA7
:104900000BD1564B04221A70534B00221A60514BA4
:1049100000221A604D4B00221A704D4B1B78072B5A
:1049200026D14B4B1B78002B22D0494B5B78052BB3
:104930001ED1484B1B68032B1AD1444B1B78012B0B
:1049400016D1424B5B78002B12D13520FCF756FC78
:10495000414B1B68012B0BD1404B03221A703E4B7D
:1049600000221A603B4B00221A60384B00221A705A
:10497000374B1B78072B29D1354B1B78002B25D0C3
:10498000334B5B78052B21D1324B1B68022B1DD199
:104990002E4B1B78012B19D12C4B5B78002B15D19A
:1049A0003620FCF72BFC294B00221A702A4B1B687F
:1049B000012B0BD1294B02221A70274B00221A60BF
:1049C000244B00221A60214B00221A70204B1B78C6
:1049D000072B19D11E4B1B78002B15D01C4B5B7875
:1049E000052B11D11B4B1B68002B0DDA174B1B78C5
:1049F000002B09D1154B5B78002B05D13420FCF737
:104A0000FDFB144B04221A60114B1B78072B27D196
:104A10000F4B1B78002B23D00D4B5B78052B1FD140
:104A20000C4B1B68042B1BDD084B1B78012B17D18B
:104A3000064B5B78002B13D13020FCF7DFFB054BD6
:104A400000221A60014B00221A7009E0CC060020F7
:104A5000C8060020B8060020BC060020AD060020D5
:104A60002E4B1B78072B26D12C4B1B78002B22D0EA
:104A70002A4B5B78062B1ED1294B1B68002B1AD1C1
:104A8000284B1B78002B16D1264B5B78002B12D1BC
:104A90003820FCF7B3FB244B1B68012B0BD11F4BB9
:104AA00000225A70204B00221A601D4B00221A600F
:104AB0001C4B00221A70194B1B78072B3BD1174B4C
:104AC0001B78002B37D0154B5B78062B33D1144B5A
:104AD0001B68012B2FD1134B1B78002B2BD1114BB3
:104AE0005B78002B27D13920FCF788FB0E4B1B6825
:104AF000012B20D10C4B00221A600A4B00221A70A5
:104B000013210A4804F09EFF03464FF2F00293423D
:104B10000ED1024B0A221A700DE000BFC806002019
:104B2000B8060020CC060020BC060020F4000020BF
:104B3000954B0B221A70944B1B78072B43D1924B49
:104B40001B78002B3FD0904B5B78062B3BD18F4BD3
:104B50001B68022B37D18E4B1B78002B33D18C4B2B
:104B60005B78002B2FD13A20FCF748FB894B1B6860
:104B7000012B28D1874B00221A60854B00221A7026
:104B8000854B1B78002B0CBF01230023DBB21A4698
:104B9000814B1A70804B1B781A46804B1B781B0286
:104BA0001A437F4B1B781B041A437E4B1B781B0652
:104BB00013431A467C4B1A607B4B1B681A46022132
:104BC0007A4804F025FF704B1B78072B43D16E4BBE
:104BD0001B78002B3FD06C4B5B78062B3BD16B4B8B
:104BE0001B68032B37D16A4B1B78002B33D1684BE2
:104BF0005B78002B2FD13B20FCF700FB654B1B683B
:104C0000012B28D1634B00221A60614B00221A70DD
:104C1000624B1B78002B0CBF01230023DBB21A462A
:104C20005E4B1A705C4B1B781A465C4B1B781B0260
:104C30001A435B4B1B781B041A435A4B1B781B0609
:104C400013431A46584B1A60574B1B681A460221E9
:104C5000564804F0DDFE4C4B1B78072B43D14A4BE2
:104C60001B78002B3FD0484B5B78062B3BD1474B42
:104C70001B68042B37D1464B1B78002B33D1444B98
:104C80005B78002B2FD13C20FCF7B8FA414B1B6816
:104C9000012B28D13F4B00221A603D4B00221A7095
:104CA0003F4B1B78002B0CBF01230023DBB21A46BD
:104CB0003B4B1A70384B1B781A46384B1B781B023B
:104CC0001A43374B1B781B041A43364B1B781B06C1
:104CD00013431A46344B1A60334B1B681A460221A1
:104CE000324804F095FE284B1B78072B42D1264B07
:104CF0001B78002B3ED0244B5B78062B3AD1234BFC
:104D00001B68052B36D1224B5B78002B32D13D201E
:104D1000FCF774FA1E4B01221A701E4B1B68012B04
:104D200028D11C4B00221A60194B00221A701D4B0F
:104D30001B78002B0CBF01230023DBB21A46194B52
:104D40001A70154B1B781A46144B1B781B021A431A
:104D5000134B1B781B041A43124B1B781B0613437F
:104D60001A46114B1A60104B1B681A4602210F4855
:104D700004F04EFE044B1B78072B59D1024B1B78D5
:104D8000002B55D014E000BFC8060020B806002054
:104D9000CC060020BC060020AE060020AF06002096
:104DA000B0060020B1060020A8060020F400002074
:104DB000914B5B78062B3BD1904B1B68042B37D172
:104DC0008F4B1B78012B33D18D4B5B78002B2FD170
:104DD0003E20FCF713FA8B4B1B68012B28D1894B23
:104DE00000221A60864B00221A70874B1B78002B1A
:104DF0000CBF01230023DBB21A46834B1A70834B8E
:104E00001B781A46824B1B781B021A437E4B1B7879
:104E10001B041A437F4B1B781B0613431A467E4B19
:104E20001A607D4B1B681A4602217C4804F0F0FD95
:104E3000714B1B78072B43D16F4B1B78002B3FD056
:104E40006D4B5B78062B3BD16C4B1B68032B37D12A
:104E50006B4B1B78012B33D1694B5B78002B2FD127
:104E60003F20FCF7CBF9674B1B68012B28D1654B22
:104E700000221A60624B00221A70654B1B78002BCF
:104E80000CBF01230023DBB21A46614B1A705F4B43
:104E90001B781A465E4B1B781B021A435A4B1B7831
:104EA0001B041A435B4B1B781B0613431A465A4BD1
:104EB0001A60594B1B681A460221584804F0A8FD95
:104EC0004D4B1B78072B46D14B4B1B78002B42D008
:104ED000494B5B78062B3ED1484B1B68022B3AD1DD
:104EE000474B1B78012B36D1454B5B78002B32D1D9
:104EF0004020FCF783F9424B00221A70414B1B689B
:104F0000012B28D13F4B00221A603D4B00221A7022
:104F10003E4B1B78002B0CBF01230023DBB21A464B
:104F20003A4B1A70394B1B781A46394B1B781B02C7
:104F30001A43354B1B781B041A43364B1B781B0650
:104F400013431A46344B1A60334B1B681A4602212E
:104F5000324804F05DFD284B1B78072B19D1264BF6
:104F60001B78002B15D0244B5B78062B11D1234BDB
:104F70001B68002B0DDA224B1B78002B09D1204B2C
:104F80005B78002B05D13D20FCF738F91B4B05223F
:104F90001A60194B1B78072B1CD1174B1B78002B61
:104FA00018D0154B5B78062B14D1144B1B68052BBE
:104FB00010DD134B1B78012B0CD1114B5B78002BB0
:104FC00008D13820FCF71AF90C4B00221A600C4B60
:104FD00000221A70084B1B78072B6CD1064B1B78EC
:104FE000002B68D0044B5B78042B64D1034B1B6807
:104FF000002B60D114E000BFC8060020B8060020D6
:10500000CC060020BC060020B0060020AE06002022
:10501000AF060020B1060020A8060020F400002002
:10502000904B1B78002B46D18E4B5B78002B42D1E6
:105030008D4B9B78012B07D08B4B9B78022B03D099
:10504000894B9B78032B36D1874B9B78012B08D15A
:10505000864B1B781A46864B1B7819461046FCF780
:10506000B7F8814B9B78022B08D1824B1B781A46EC
:10507000804B5B7819461046FCF7AAF87A4B9B7870
:10508000032B08D17B4B9B781A467A4BDB78194669
:105090001046FCF79DF84120FCF7B0F8764B1B68F2
:1050A000012B08D1704B00229A70734B00221A60BA
:1050B000724B00221A606C4B1B78072B71D16A4B24
:1050C0001B78002B6DD0684B5B78042B69D16B4B40
:1050D0001B68012B65D1634B1B78002B61D1614BA1
:1050E0005B78002B5DD1604B9B78012B07D05E4B2A
:1050F0009B78022B03D05C4B9B78032B51D15A4BEE
:105100009B78012B08D1594B1B781A46584B1B78BA
:1051100019461046FCF75CF8534B9B78022B08D1DC
:10512000544B1B781A46534B5B7819461046FCF7D4
:105130004FF84D4B9B78032B08D14E4B9B781A466A
:105140004C4BDB7819461046FCF742F84A4B1B687B
:10515000012B23D1434B01225A70474B00221A6086
:10516000464B00221A60404B9B78012B04D13F4BE9
:105170001B781A46414B1A603B4B9B78022B04D19B
:105180003C4B1B781A463D4B1A60374B9B78032BE0
:1051900004D1384B9B781A46384B1A604220FCF7F2
:1051A0002DF8314B1B78072B40F082802E4B1B785B
:1051B000002B7DD02C4B5B78042B79D12F4B1B68B7
:1051C000022B75D1274B1B78002B71D1254B5B78B7
:1051D000002B6DD1244B9B78012B07D0224B9B7861
:1051E000022B03D0204B9B78032B61D11E4B9B7865
:1051F000012B08D11D4B1B781A461D4B1B781946F5
:105200001046FBF7E5FF184B9B78022B08D1194B92
:105210001B781A46174B5B7819461046FBF7D8FFE8
:10522000114B9B78032B08D1124B9B781A46114BDC
:10523000DB7819461046FBF7CBFF0F4B1B68012BA1
:1052400033D1084B02225A700B4B00221A600B4BD1
:1052500000221A60044B9B78012B14D1044B1B785D
:105260000EE000BFCC060020C80600209C060020EF
:105270009D060020A4060020BC060020B8060020E1
:105280001A46944B1A60944B9B78022B04D1934B93
:105290005B781A468F4B1A608F4B9B78032B04D197
:1052A0008E4BDB781A468B4B1A604320FBF7A6FF28
:1052B000894B1B78072B4CD1874B1B78002B48D090
:1052C000854B5B78042B44D1824B1B68002B40DA62
:1052D000834B1B78002B3CD1814B5B78002B38D162
:1052E0007D4B9B78012B07D07B4B9B78022B03D007
:1052F000794B9B78032B2CD1774B9B78012B08D1D2
:10530000784B1B781A46784B1B7819461046FBF7EA
:105310005FFF714B9B78022B08D1704B1B781A46AC
:105320006E4B5B7819461046FBF752FF6A4B9B7831
:10533000032B08D1694B9B781A46684BDB781946DA
:105340001046FBF745FF4320FBF758FF614B022255
:105350001A60614B1B78072B4CD15F4B1B78002BDD
:1053600048D05D4B5B78042B44D15A4B1B68022B11
:1053700040DD5B4B1B78002B3CD1594B5B78002BFD
:1053800038D1554B9B78012B07D0534B9B78022B80
:1053900003D0514B9B78032B2CD14F4B9B78012B87
:1053A00008D1504B1B781A464F4B1B7819461046B4
:1053B000FBF70EFF484B9B78022B08D1474B1B781D
:1053C0001A46464B5B7819461046FBF701FF424BE5
:1053D0009B78032B08D1414B9B781A463F4BDB78D7
:1053E00019461046FBF7F4FE4120FBF707FF394B47
:1053F00000221A603A4B5B78012B40F0B680354BA7
:105400001B68172B02DD334B00221A60314B1B68DF
:10541000002B02DA2F4B17221A602F4B9B78012B9F
:1054200028D12C4B1B68DAB2304B1A702F4B1B78EB
:105430001A462E4B5B7819461046FBF7C9FEFBF760
:10544000ABFA2A4B1B781A46284B5B781B021A438F
:10545000264B9B781B041A43244BDB781B06134313
:105460001A46234B1A60224B1B681A46002121481A
:1054700004F0CEFA184B9B78022B26D1154B1B68F3
:10548000DAB2164B1A70154B1B781A46134B5B7821
:1054900019461046FBF79CFE104B1B781A460F4B23
:1054A0005B781B021A430D4B9B781B041A430B4B72
:1054B000DB781B0613431A460F4B1A600E4B1B6812
:1054C0001A4601210B4804F0A3FA034B9B78032BE7
:1054D0003BD113E0B8060020C8060020A406002037
:1054E000CC0600209C0600209D060020A00600207F
:1054F00094060020F400002098060020A24B1B68B0
:10550000DAB2A24B9A70A14B9B781A469F4BDB787C
:1055100019461046FBF75CFE9C4B1B781A469B4BCA
:105520005B781B021A43994B9B781B041A43974BD9
:10553000DB781B0613431A46954B1A60944B1B6885
:105540001A460121934804F063FA4220FBF756FE05
:10555000914B1B68012B08D1904B00225A708E4B47
:1055600000221A60884B00221A608C4B5B78022B59
:1055700040F0A180844B1B683B2B02DD824B002254
:105580001A60814B1B68002B02DA7F4B3B221A60AA
:10559000834B9B78012B28D17B4B1B68DAB2814B64
:1055A0005A70804B1B781A467E4B5B781946104622
:1055B000FBF70EFEFBF7F0F97A4B1B781A46794B96
:1055C0005B781B021A43774B9B781B041A43754B7D
:1055D000DB781B0613431A46734B1A60724B1B6829
:1055E0001A4600216B4804F013FA6D4B9B78022B8E
:1055F00026D1654B1B68DAB2644B5A70634B1B783B
:105600001A46624B5B7819461046FBF7E1FD5F4B8B
:105610001B781A465D4B5B781B021A435B4B9B78E9
:105620001B041A43594BDB781B0613431A46584B8D
:105630001A60574B1B681A460121564804F0E8F9D6
:10564000574B9B78032B26D14F4B1B68DAB24F4B3D
:10565000DA704E4B9B781A464C4BDB781946104655
:10566000FBF7B6FD494B1B781A46484B5B781B028B
:105670001A43464B9B781B041A43444BDB781B06AA
:1056800013431A46424B1A60414B1B681A460121CC
:10569000404804F0BDF94320FBF7B0FD3E4B1B68CA
:1056A000012B08D13D4B00225A703B4B00221A605F
:1056B000354B00221A603A4B1B780A2B27D13B4B03
:1056C00001221A70344B1B68012B20D1344B00226D
:1056D0001A70334B00225A70304B00225A702E4BF6
:1056E00000221A60284B00221A60304B00221A70E8
:1056F0002A4B0022DA702E4B00221A702D4B00220A
:105700001A702D4B00221A702C4B00221A70244B59
:105710001B780B2B72D14520FBF770FD244B012227
:105720001A70244B01221A70234B01221A70234B4A
:1057300001221A70224B4FF6FF721A80204B4FF64F
:10574000FF725A801F4B4FF6FF721A801D4B4FF6A7
:10575000FF725A801C4B00221A801C4B00221A80B8
:105760001B4B00221A801B4B00221A800A4B1B681D
:10577000012B43D10A4B00221A70094B00225A70A8
:10578000064B00225A7027E0B8060020A40600202D
:1057900098060020F4000020BC060020CC06002063
:1057A000C8060020A006002094060020AC060020B9
:1057B000C4060020C5060020C6060020C70600203B
:1057C0002406002028060020D0060020D206002053
:1057D000D4060020D6060020094B00221A60094B8F
:1057E00000221A60084B00221A70084B00221A701F
:1057F000074B00221A70074B00221A7080BD00BFB1
:10580000BC060020B8060020C4060020C506002003
:10581000C6060020C706002080B582B000AF00F0A9
:1058200041FC44F6206301227821584802F086FDAD
:105830000346002B01D00023A4E040F6C4137B6094
:1058400002E07B68013B7B607B68002BF9D1AE22D4
:105850000021782000F098FC20220021782000F020
:1058600093FC10220021782000F08EFCB022002151
:10587000782000F089FCC8220021782000F084FC08
:1058800000220021782000F07FFC102200217820E7
:1058900000F07AFC40220021782000F075FC812283
:1058A0000021782000F070FCFF220021782000F019
:1058B0006BFCA1220021782000F066FCA6220021CA
:1058C000782000F061FCA8220021782000F05CFC28
:1058D0003F220021782000F057FCA42200217820EC
:1058E00000F052FCD3220021782000F04DFC002271
:1058F0000021782000F048FCD5220021782000F01B
:1059000043FCF0220021782000F03EFCD922002147
:10591000782000F039FC22220021782000F034FCAD
:10592000DA220021782000F02FFC122200217820BA
:1059300000F02AFCDB220021782000F025FC202248
:105940000021782000F020FC8D220021782000F03A
:105950001BFC14220021782000F016FCAF2200214D
:10596000782000F011FC002000F046F800F012F85A
:10597000074B00221A80064B00225A80044B01225A
:105980005A71012318460837BD4680BDA00000208B
:105990001806002080B582B000AF0023FB7121E023
:1059A000FB79503BDBB21A460021782000F0ECFB7B
:1059B00000220021782000F0E7FB1022002178204F
:1059C00000F0E2FBFA7913465B0113449B001A4690
:1059D000084B1A4484234021782000F079FBFB799E
:1059E0000133FB71FB79072BDAD900BF00BF083701
:1059F000BD4680BDF801002080B582B000AF0346EF
:105A0000FB71FB79002B01D1002300E0FF234FF451
:105A100084621946034804F051FB00BF0837BD46B5
:105A200080BD00BFF801002090B482B000AF0346F3
:105A3000FB800B46BB801346FB70FB88832B54D83E
:105A4000BB883F2B51D82B4B1B79002B06D0FB7802
:105A5000002B0CBF01230023DBB2FB70FB78012B72
:105A600020D1FA88BB88DB0898B201460B465B015F
:105A70000B449B001344204AD35C5AB2BB8803F00A
:105A80000703012101FA03F35BB213435CB2FA8806
:105A900001460B465B010B449B001344E1B2164ADE
:105AA000D15423E0FA88BB88DB0898B201460B4644
:105AB0005B010B449B0013440F4AD35C5AB2BB8872
:105AC00003F00703012101FA03F35BB2DB435BB28E
:105AD00013405CB2FA8801460B465B010B449B0005
