:020000040800F2
:100000000000012069880008858700088B870008A8
:1000100091870008978700089D870008000000006E
:10002000000000000000000000000000A38700089E
:10003000B187000800000000BF870008CD870008D6
:10004000B9880008B9880008B9880008B98800088C
:10005000B9880008B9880008B9880008B98800087C
:10006000B9880008B9880008B9880008B98800086C
:10007000B9880008B9880008B9880008B98800085C
:10008000B9880008B9880008B98800080000000095
:10009000000000000000000000000000B988000817
:1000A000B9880008B9880008B9880008B98800082C
:1000B000B9880008B9880008B9880008B98800081C
:1000C000B9880008B9880008B9880008B98800080C
:1000D000B9880008B9880008B98800080000000045
:1000E000B9880008B9880008B98800080000000035
:1000F000000000000000000000000000B9880008B7
:1001000000000000B9880008B9880008B988000814
:1001100000000000000000000000000000000000DF
:10012000B9880008B9880008B9880008B9880008AB
:10013000B988000800000000000000000000000076
:10014000000000000000000000000000B988000866
:10015000B9880008B9880008B9880008B98800087B
:10016000B9880008B98800080000000000000000FD
:10017000000000000000000000000000000000007F
:1001800000000000B9880008000000000000000026
:04019000B988000822
:1001A00010B5054C237833B9044B13B10448AFF3B1
:1001B00000800123237010BDD80000200000000043
:1001C000B8BF000808B5034B1BB103490348AFF3A0
:1001D000008008BD00000000DC000020B8BF00085F
:1001E00001F0FF01102A2BDB10F0070F08D010F8E8
:1001F000013B013A8B422DD010F0070F42B3F6D1EC
:10020000F0B441EA012141EA014122F007047FF004
:1002100000070023F0E80256083C85EA010586EA5B
:10022000010685FA47F5A3FA87F586FA47F6A5FA97
:1002300087F68EB9EED1F0BC01F0FF0102F00702A3
:1002400032B110F8013B013A83EA010313B1F8D14E
:100250000020704701387047002D06BF354603382F
:10026000073815F0010F07D1013015F4807F02BF68
:10027000013015F4C03F0130F0BC0138704700BFB9
:1002800053B94AB9002908BF00281CBF4FF0FF31FD
:100290004FF0FF3000F074B9ADF1080C6DE904CEF9
:1002A00000F006F8DDF804E0DDE9022304B0704751
:1002B0002DE9F047089D04468E46002B4DD18A4219
:1002C000944669D9B2FA82F252B101FA02F3C2F14C
:1002D000200120FA01F10CFA02FC41EA030E9440DD
:1002E0004FEA1C48210CBEFBF8F61FFA8CF708FBFE
:1002F00016E341EA034306FB07F199420AD91CEBD6
:10030000030306F1FF3080F01F81994240F21C8107
:10031000023E63445B1AA4B2B3FBF8F008FB10334F
:1003200044EA034400FB07F7A7420AD91CEB040484
:1003300000F1FF3380F00A81A74240F20781644454
:10034000023840EA0640E41B00261DB1D4400023D9
:10035000C5E900433146BDE8F0878B4209D9002D3D
:1003600000F0EF800026C5E9000130463146BDE8C7
:10037000F087B3FA83F6002E4AD18B4202D3824231
:1003800000F2F980841A61EB030301209E46002DE0
:10039000E0D0C5E9004EDDE702B9FFDEB2FA82F235
:1003A000002A40F09280A1EB0C014FEA1C471FFA93
:1003B0008CFE0126200CB1FBF7F307FB131140EA7A
:1003C00001410EFB03F0884208D91CEB010103F147
:1003D000FF3802D2884200F2CB804346091AA4B209
:1003E000B1FBF7F007FB101144EA01440EFB00FEDD
:1003F000A64508D91CEB040400F1FF3102D2A64542
:1004000000F2BB800846A4EB0E0440EA03409CE7E0
:10041000C6F12007B34022FA07FC4CEA030C20FA8D
:1004200007F401FA06F31C43F9404FEA1C4900FAAD
:1004300006F3B1FBF9F8200C1FFA8CFE09FB18112A
:1004400040EA014108FB0EF0884202FA06F20BD99D
:100450001CEB010108F1FF3A80F08880884240F2ED
:100460008580A8F102086144091AA4B2B1FBF9F031
:1004700009FB101144EA014100FB0EFE8E4508D92C
:100480001CEB010100F1FF346CD28E456AD90238B1
:10049000614440EA0840A0FB0294A1EB0E01A14296
:1004A000C846A64656D353D05DB1B3EB080261EB04
:1004B0000E0101FA07F722FA06F3F1401F43C5E9DE
:1004C000007100263146BDE8F087C2F12003D84014
:1004D0000CFA02FC21FA03F3914001434FEA1C4756
:1004E0001FFA8CFEB3FBF7F007FB10360B0C43EA48
:1004F000064300FB0EF69E4204FA02F408D91CEBF8
:10050000030300F1FF382FD29E422DD902386344F5
:100510009B1B89B2B3FBF7F607FB163341EA034195
:1005200006FB0EF38B4208D91CEB010106F1FF38E4
:1005300016D28B4214D9023E6144C91A46EA0046DB
:1005400038E72E46284605E70646E3E61846F8E66D
:100550004B45A9D2B9EB020864EB0C0E0138A3E7B6
:100560004646EAE7204694E74046D1E7D0467BE797
:10057000023B614432E7304609E76444023842E70F
:10058000704700BF80B586B000AF40F23D23C2F295
:1005900000031B78DBB23B7140F23C23C2F2000344
:1005A0001B78DBB27B710023BB7100233B6100230E
:1005B0007B613B1D0022194640F24810C2F2000048
:1005C00009F0E4FF0346002B01D007F015FB0123DF
:1005D0003B7001237B700123BB700023FB703B4603
:1005E0000022194640F24810C2F200000AF0C6F894
:1005F0000346002B01D007F0FFFA00BF1837BD46B5
:1006000080BD80B588B002AF3B460022194640F25B
:100610004810C2F200000AF053F807F11403002258
:10062000194640F24810C2F200000AF02BF93B785C
:100630001A467B781946BB7800930B464BF6D0716F
:10064000C0F6000140F21C20C2F200000BF046F898
:10065000BB7D1A467B7D1946FB7D03F5FA6300934B
:100660000B464BF6E071C0F6000140F22820C2F2C2
:1006700000000BF033F83B781A4640F23423C2F204
:1006800000031A607B781A4640F23823C2F2000356
:100690001A6000BF1837BD4680BD80B483B000AF7C
:1006A0000346FB8040F26813C2F200031B6800227D
:1006B0005A6200BF40F26813C2F200031B685A6A14
:1006C000FB889A42F6D300BF00BF0C37BD465DF8E9
:1006D000047B704780B582B000AF786043F6381273
:1006E0007B6892FBF3F39BB21846FFF7D6FF00BF7F
:1006F0000837BD4680BD000080B582B000AF78608D
:1007000039607B68082B00F2718701A252F823F050
:1007100035070008D90800087D0A0008210C0008E8
:10072000C50D0008670F000809110008AB1200088A
:100730004D1400083B68012B1BD101220121002030
:10074000C4F2020008F0D2FB002202210020C4F211
:10075000020008F0CBFB002204210020C4F20200BA
:1007600008F0C4FB002208210020C4F2020008F0B7
:10077000BDFB3B68022B1BD1012210210020C4F2DB
:10078000020008F0B3FB002220210020C4F2020086
:1007900008F0ACFB002240210020C4F2020008F067
:1007A000A5FB002280210020C4F2020008F09EFB7D
:1007B0003B68032B20D1012201214FF48060C4F259
:1007C000020008F093FB002202214FF48060C4F283
:1007D000020008F08BFB002204214FF48060C4F279
:1007E000020008F083FB00224FF480614FF4806028
:1007F000C4F2020008F07AFB3B68042B23D10122EB
:100800004FF480514FF48060C4F2020008F06EFB98
:1008100000224FF400514FF48060C4F2020008F04F
:1008200065FB00224FF480414FF48060C4F2020067
:1008300008F05CFB00224FF400414FF48060C4F2EA
:10084000020008F053FB3B68052B1FD101224FF437
:1008500080710020C4F2020008F048FB00224FF42F
:1008600000710020C4F2020008F040FB00224FF4A7
:1008700080610020C4F2020008F038FB00224FF42F
:1008800000610020C4F2020008F030FB3B68062B38
:1008900040F0AE8601224FF400410020C4F2020075
:1008A00008F024FB002208214FF48060C4F202000B
:1008B00008F01CFB002210214FF48060C4F20200FB
:1008C00008F014FB002220214FF48060C4F20200E3
:1008D00008F00CFB00F08CBE3B68012B1BD1012201
:1008E00001210020C4F2020008F000FB01220221D5
:1008F0000020C4F2020008F0F9FA002204210020CE
:10090000C4F2020008F0F2FA002208210020C4F22A
:10091000020008F0EBFA3B68022B1BD101221021E8
:100920000020C4F2020008F0E1FA01222021002098
:10093000C4F2020008F0DAFA002240210020C4F2DA
:10094000020008F0D3FA002280210020C4F2020045
:1009500008F0CCFA3B68032B20D1012201214FF48F
:100960008060C4F2020008F0C1FA012202214FF4B3
:100970008060C4F2020008F0B9FA002204214FF4AA
:100980008060C4F2020008F0B1FA00224FF48061E6
:100990004FF48060C4F2020008F0A8FA3B68042B10
:1009A00023D101224FF480514FF48060C4F2020041
:1009B00008F09CFA01224FF400514FF48060C4F219
:1009C000020008F093FA00224FF480414FF4806057
:1009D000C4F2020008F08AFA00224FF400414FF4FA
:1009E0008060C4F2020008F081FA3B68052B1FD139
:1009F00001224FF480710020C4F2020008F076FA60
:100A000001224FF400710020C4F2020008F06EFAD7
:100A100000224FF480610020C4F2020008F066FA60
:100A200000224FF400610020C4F2020008F05EFAD8
:100A30003B68062B40F0DE8501224FF40041002088
:100A4000C4F2020008F052FA012208214FF480603B
:100A5000C4F2020008F04AFA002210214FF480602C
:100A6000C4F2020008F042FA002220214FF4806014
:100A7000C4F2020008F03AFA00F0BCBD3B68012B5A
:100A80001BD1002201210020C4F2020008F02EFA3E
:100A9000012202210020C4F2020008F027FA0022FD
:100AA00004210020C4F2020008F020FA00220821EC
:100AB0000020C4F2020008F019FA3B68022B1BD197
:100AC000002210210020C4F2020008F00FFA0122D7
:100AD00020210020C4F2020008F008FA0022402180
:100AE0000020C4F2020008F001FA00228021002058
:100AF000C4F2020008F0FAF93B68032B20D100226F
:100B000001214FF48060C4F2020008F0EFF90122E5
:100B100002214FF48060C4F2020008F0E7F90022DD
:100B200004214FF48060C4F2020008F0DFF90022D3
:100B30004FF480614FF48060C4F2020008F0D6F9EF
:100B40003B68042B23D100224FF480514FF4806086
:100B5000C4F2020008F0CAF901224FF400514FF428
:100B60008060C4F2020008F0C1F900224FF4804115
:100B70004FF48060C4F2020008F0B8F900224FF48C
:100B800000414FF48060C4F2020008F0AFF93B6806
:100B9000052B1FD100224FF480710020C4F2020007
:100BA00008F0A4F901224FF400710020C4F2020001
:100BB00008F09CF900224FF480610020C4F202008A
:100BC00008F094F900224FF400610020C4F2020002
:100BD00008F08CF93B68062B40F00E8500224FF49C
:100BE00000410020C4F2020008F080F9012208212F
:100BF0004FF48060C4F2020008F078F9002210215E
:100C00004FF48060C4F2020008F070F90022202145
:100C10004FF48060C4F2020008F068F900F0ECBC08
:100C20003B68012B1BD1002201210020C4F20200ED
:100C300008F05CF9012202210020C4F2020008F051
:100C400055F9012204210020C4F2020008F04EF9F7
:100C5000002208210020C4F2020008F047F93B6896
:100C6000022B1BD1002210210020C4F2020008F048
:100C70003DF9012220210020C4F2020008F036F9DB
:100C8000012240210020C4F2020008F02FF90022C6
:100C900080210020C4F2020008F028F93B68032BF1
:100CA00020D1002201214FF48060C4F2020008F03C
:100CB0001DF9012202214FF48060C4F2020008F005
:100CC00015F9012204214FF48060C4F2020008F0FB
:100CD0000DF900224FF480614FF48060C4F20200ED
:100CE00008F004F93B68042B23D100224FF4805113
:100CF0004FF48060C4F2020008F0F8F801224FF4CB
:100D000000514FF48060C4F2020008F0EFF80122B5
:100D10004FF480414FF48060C4F2020008F0E6F81E
:100D200000224FF400414FF48060C4F2020008F04A
:100D3000DDF83B68052B1FD100224FF480710020A5
:100D4000C4F2020008F0D2F801224FF40071002032
:100D5000C4F2020008F0CAF801224FF480610020BA
:100D6000C4F2020008F0C2F800224FF40061002033
:100D7000C4F2020008F0BAF83B68062B40F03E844B
:100D800000224FF400410020C4F2020008F0AEF847
:100D9000012208214FF48060C4F2020008F0A6F896
:100DA000012210214FF48060C4F2020008F09EF886
:100DB000002220214FF48060C4F2020008F096F86F
:100DC00000F01CBC3B68012B1BD10022012100203C
:100DD000C4F2020008F08AF8002202210020C4F2C6
:100DE000020008F083F8012204210020C4F202006E
:100DF00008F07CF8002208210020C4F2020008F06C
:100E000075F83B68022B1BD1002210210020C4F290
:100E1000020008F06BF8002220210020C4F202003A
:100E200008F064F8012240210020C4F2020008F01A
:100E30005DF8002280210020C4F2020008F056F87C
:100E40003B68032B20D1002201214FF48060C4F2C3
:100E5000020008F04BF8002202214FF48060C4F237
:100E6000020008F043F8012204214FF48060C4F22C
:100E7000020008F03BF800224FF480614FF48060DC
:100E8000C4F2020008F032F83B68042B23D10022A0
:100E90004FF480514FF48060C4F2020008F026F84D
:100EA00000224FF400514FF48060C4F2020008F0B9
:100EB0001DF801224FF480414FF48060C4F202001B
:100EC00008F014F800224FF400414FF48060C4F29F
:100ED000020008F00BF83B68052B1FD100224FF4ED
:100EE00080710020C4F2020008F000F800224FF4E4
:100EF00000710020C4F2020007F0F8FF01224FF455
:100F000080610020C4F2020007F0F0FF00224FF4DD
:100F100000610020C4F2020007F0E8FF3B68062BE6
:100F200040F06E8300224FF400410020C4F2020022
:100F300007F0DCFF002208214FF48060C4F20200B9
:100F400007F0D4FF012210214FF48060C4F20200A8
:100F500007F0CCFF002220214FF48060C4F2020091
:100F600007F0C4FF4CE33B68012B1BD10022012199
:100F70000020C4F2020007F0B9FF00220221002085
:100F8000C4F2020007F0B2FF012204210020C4F2E3
:100F9000020007F0ABFF012208210020C4F202008A
:100FA00007F0A4FF3B68022B1BD100221021002078
:100FB000C4F2020007F09AFF002220210020C4F2B0
:100FC000020007F093FF012240210020C4F202003A
:100FD00007F08CFF012280210020C4F2020007F0FC
:100FE00085FF3B68032B20D1002201214FF4806054
:100FF000C4F2020007F07AFF002202214FF4806061
:10100000C4F2020007F072FF012204214FF4806055
:10101000C4F2020007F06AFF01224FF480614FF42E
:101020008060C4F2020007F061FF3B68042B23D10B
:1010300000224FF480514FF48060C4F2020007F0A8
:1010400055FF00224FF400514FF48060C4F20200BB
:1010500007F04CFF01224FF480414FF48060C4F24E
:10106000020007F043FF01224FF400414FF480607B
:10107000C4F2020007F03AFF3B68052B1FD10022A3
:101080004FF480710020C4F2020007F02FFF00220D
:101090004FF400710020C4F2020007F027FF012284
:1010A0004FF480610020C4F2020007F01FFF01220C
:1010B0004FF400610020C4F2020007F017FF3B6804
:1010C000062B40F09F8200224FF400410020C4F222
:1010D000020007F00BFF002208214FF48060C4F2E9
:1010E000020007F003FF012210214FF48060C4F2D8
:1010F000020007F0FBFE012220214FF48060C4F2C1
:10110000020007F0F3FE7DE23B68012B1BD10022B9
:1011100001210020C4F2020007F0E8FE00220221B3
:101120000020C4F2020007F0E1FE002204210020AA
:10113000C4F2020007F0DAFE012208210020C4F206
:10114000020007F0D3FE3B68022B1BD100221021C6
:101150000020C4F2020007F0C9FE00222021002076
:10116000C4F2020007F0C2FE002240210020C4F2B7
:10117000020007F0BBFE012280210020C4F2020021
:1011800007F0B4FE3B68032B20D1002201214FF46D
:101190008060C4F2020007F0A9FE002202214FF491
:1011A0008060C4F2020007F0A1FE002204214FF487
:1011B0008060C4F2020007F099FE01224FF48061C2
:1011C0004FF48060C4F2020007F090FE3B68042BED
:1011D00023D100224FF480514FF48060C4F202000A
:1011E00007F084FE00224FF400514FF48060C4F2F7
:1011F000020007F07BFE00224FF480414FF4806034
:10120000C4F2020007F072FE01224FF400414FF4D5
:101210008060C4F2020007F069FE3B68052B1FD115
:1012200000224FF480710020C4F2020007F05EFE3D
:1012300000224FF400710020C4F2020007F056FEB5
:1012400000224FF480610020C4F2020007F04EFE3D
:1012500001224FF400610020C4F2020007F046FEB4
:101260003B68062B40F0D08100224FF40041002063
:10127000C4F2020007F03AFE002208214FF4806019
:10128000C4F2020007F032FE002210214FF4806009
:10129000C4F2020007F02AFE012220214FF48060F0
:1012A000C4F2020007F022FEAEE13B68012B1BD125
:1012B000012201210020C4F2020007F017FE0022E3
:1012C00002210020C4F2020007F010FE00220421D7
:1012D0000020C4F2020007F009FE012208210020CC
:1012E000C4F2020007F002FE3B68022B1BD1012270
:1012F00010210020C4F2020007F0F8FD0022202196
:101300000020C4F2020007F0F1FD0022402100207D
:10131000C4F2020007F0EAFD012280210020C4F29D
:10132000020007F0E3FD3B68032B20D101220121DD
:101330004FF48060C4F2020007F0D8FD00220221C1
:101340004FF48060C4F2020007F0D0FD00220421B7
:101350004FF48060C4F2020007F0C8FD01224FF490
:1013600080614FF48060C4F2020007F0BFFD3B686B
:10137000042B23D101224FF480514FF48060C4F23A
:10138000020007F0B3FD00224FF400514FF48060DB
:10139000C4F2020007F0AAFD00224FF480414FF48E
:1013A0008060C4F2020007F0A1FD01224FF4004169
:1013B0004FF48060C4F2020007F098FD3B68052BF3
:1013C0001FD101224FF480710020C4F2020007F007
:1013D0008DFD00224FF400710020C4F2020007F0DE
:1013E00085FD00224FF480610020C4F2020007F066
:1013F0007DFD01224FF400610020C4F2020007F0DD
:1014000075FD3B68062B40F0018101224FF400413D
:101410000020C4F2020007F069FD002208214FF409
:101420008060C4F2020007F061FD002210214FF439
:101430008060C4F2020007F059FD012220214FF420
:101440008060C4F2020007F051FDDFE03B68012B31
:101450001BD1002201210020C4F2020007F046FD4A
:10146000002202210020C4F2020007F03FFD00220A
:1014700004210020C4F2020007F038FD00220821F8
:101480000020C4F2020007F031FD3B68022B1BD1A3
:10149000002210210020C4F2020007F027FD0022E4
:1014A00020210020C4F2020007F020FD002240218C
:1014B0000020C4F2020007F019FD00228021002064
:1014C000C4F2020007F012FD3B68032B20D100227A
:1014D00001214FF48060C4F2020007F007FD0022F2
:1014E00002214FF48060C4F2020007F0FFFC0022EA
:1014F00004214FF48060C4F2020007F0F7FC0022E0
:101500004FF480614FF48060C4F2020007F0EEFCFB
:101510003B68042B23D100224FF480514FF48060AC
:10152000C4F2020007F0E2FC00224FF400514FF435
:101530008060C4F2020007F0D9FC00224FF4804121
:101540004FF48060C4F2020007F0D0FC00224FF498
:1015500000414FF48060C4F2020007F0C7FC3B6812
:10156000052B1FD100224FF480710020C4F202002D
:1015700007F0BCFC00224FF400710020C4F202000E
:1015800007F0B4FC00224FF480610020C4F2020096
:1015900007F0ACFC00224FF400610020C4F202000E
:1015A00007F0A4FC3B68062B32D100224FF4004127
:1015B0000020C4F2020007F099FC002208214FF439
:1015C0008060C4F2020007F091FC002210214FF469
:1015D0008060C4F2020007F089FC002220214FF451
:1015E0008060C4F2020007F081FC11E000BF10E04F
:1015F00000BF0EE000BF0CE000BF0AE000BF08E043
:1016000000BF06E000BF04E000BF02E000BF00E052
:1016100000BF00BF0837BD4680BD00BF80B58AB09F
:1016200000AF87ED030AB86079600023C3F6347316
:10163000BB61D7ED036A97ED067AC6EE877AFDEEB9
:10164000E77A17EE903A7B6100237B6233E0BB6858
:10165000002B15D108233B620EE040F21823C2F2A2
:1016600000031B681946386AFFF746F87868FFF7E9
:1016700031F83B6A013B3B623B6A002BEDDA17E035
:10168000BB68012B14D10023FB610EE040F218234C
:10169000C2F200031B681946F869FFF72DF8786855
:1016A000FFF718F8FB690133FB61FB69062BEDDDE1
:1016B0007B6A01337B627A6A7B699A42C7DB0823C3
:1016C0003B6140F21823C2F200031B6819463869D7
:1016D000FFF712F800BF2837BD4680BD80B584B043
:1016E00000AF786007F10C037A684BF6F071C0F632
:1016F0000001184609F0F2FF07F10C03012240F245
:101700000001C2F20001184606F084FC06F038FB26
:1017100000BF1037BD4680BD80B582B000AF786095
:1017200006F073FE002006F05DFB7B68013B292B71
:1017300001F2138001A252F823F000BFE517000860
:10174000ED17000857180008C11800082B190008E9
:1017500095190008FF190008691A0008D31A000833
:101760003D1B0008A71B0008111C00087B1C00087B
:10177000E51C00084F1D0008B91D0008231E0008C5
:101780008D1E0008F71E00085F1F0008C71F000815
:101790002F20000897200008FF200008672100087C
:1017A000CF210008372200089F22000807230008E5
:1017B0006F230008B9230008032400086B240008E5
:1017C000D32400083B250008A3250008C3250008F2
:1017D000E325000803260008232600088B260008BE
:1017E000F326000806F024FE00F0B8BF0B212920E4
:1017F00006F07AFB012240F20001C2F200014BF632
:10180000F470C0F6000006F005FC012303220E214F
:10181000142006F01FFD1F21292006F065FB012280
:1018200040F20001C2F200014BF6FC70C0F600006D
:1018300006F0F0FB3321292006F056FB012240F28E
:101840000001C2F200014CF20400C0F6000006F0F4
:10185000E1FB00F083BF0B21292006F045FB0122AC
:1018600040F20001C2F200014BF6F470C0F6000035
:1018700006F0D0FB1F21292006F036FB012240F2A2
:101880000001C2F200014BF6FC70C0F6000006F049
:10189000C1FB012303222321142006F0DBFC3321AA
:1018A000292006F021FB012240F20001C2F20001D2
:1018B0004CF20400C0F6000006F0ACFB00F04EBF96
:1018C0000B21292006F010FB012240F20001C2F298
:1018D00000014BF6F470C0F6000006F09BFB1F21E0
:1018E000292006F001FB012240F20001C2F20001B2
:1018F0004BF6FC70C0F6000006F08CFB332129206B
:1019000006F0F2FA012240F20001C2F200014CF2AC
:101910000400C0F6000006F07DFB012303223821FD
:10192000142006F097FC00F019BF0B21292006F0C7
:10193000DBFA012240F20001C2F200014BF6FC701A
:10194000C0F6000006F066FB1F21292006F0CCFA45
:10195000012240F20001C2F200014CF20400C0F684
:10196000000006F057FB3321292006F0BDFA0122C2
:1019700040F20001C2F200014CF20C00C0F600007F
:1019800006F048FB012303223821142006F062FCF4
:1019900000F0E4BE0B21292006F0A6FA012240F255
:1019A0000001C2F200014BF6F470C0F6000006F030
:1019B00031FB012303220E21142006F04BFC1F21D2
:1019C000292006F091FA012240F20001C2F2000142
:1019D0004BF6FC70C0F6000006F01CFB33212920FA
:1019E00006F082FA012240F20001C2F200014CF23C
:1019F0000400C0F6000006F00DFB00F0AFBE0B21A6
:101A0000292006F071FA012240F20001C2F2000121
:101A10004CF21800C0F6000006F0FCFA0123032285
:101A20000E21142006F016FC1F21292006F05CFA76
:101A3000012240F20001C2F200014CF22000C0F687
:101A4000000006F0E7FA3321292006F04DFA0122C2
:101A500040F20001C2F200014CF22C00C0F600007E
:101A600006F0D8FA00F07ABE0B21292006F03CFAE5
:101A7000012240F20001C2F200014CF21800C0F64F
:101A8000000006F0C7FA1F21292006F02DFA0122D6
:101A900040F20001C2F200014CF22000C0F600004A
:101AA00006F0B8FA012303222321142006F0D2FB0A
:101AB0003321292006F018FA012240F20001C2F277
:101AC00000014CF22C00C0F6000006F0A3FA00F072
:101AD00045BE0B21292006F007FA012240F2000141
:101AE000C2F200014CF21800C0F6000006F092FAB3
:101AF0001F21292006F0F8F9012240F20001C2F26C
:101B000000014CF22000C0F6000006F083FA3321F9
:101B1000292006F0E9F9012240F20001C2F2000199
:101B20004CF22C00C0F6000006F074FA01230322E8
:101B30003821142006F08EFB00F010BE0B21292066
:101B400006F0D2F9012240F20001C2F200014CF28B
:101B50002000C0F6000006F05DFA1F21292006F0E3
:101B6000C3F9012240F20001C2F200014CF22C0044
:101B7000C0F6000006F04EFA3321292006F0B4F931
:101B8000012240F20001C2F200014CF23800C0F61E
:101B9000000006F03FFA012303223821142006F04A
:101BA00059FB00F0DBBD0B21292006F09DF9012235
:101BB00040F20001C2F200014CF21800C0F6000031
:101BC00006F028FA012303220E21142006F042FB1E
:101BD0001F21292006F088F9012240F20001C2F2FB
:101BE00000014CF22C00C0F6000006F013FA33217D
:101BF000292006F079F9012240F20001C2F2000129
:101C00004CF24000C0F6000006F004FA00F0A6BD59
:101C10000B21292006F068F9012240F20001C2F2EE
:101C200000014CF21800C0F6000006F0F3F91F2185
:101C3000292006F059F9012240F20001C2F2000108
:101C40004CF22C00C0F6000006F0E4F90123032258
:101C50002321142006F0FEFA3321292006F044F94E
:101C6000012240F20001C2F200014CF24000C0F635
:101C7000000006F0CFF900F071BD0B21292006F01D
:101C800033F9012240F20001C2F200014CF21800C7
:101C9000C0F6000006F0BEF91F21292006F024F945
:101CA000012240F20001C2F200014CF22C00C0F609
:101CB000000006F0AFF93321292006F015F90122C2
:101CC00040F20001C2F200014CF24000C0F60000F8
:101CD00006F0A0F9012303223821142006F0BAFAF5
:101CE00000F03CBD0B21292006F0FEF8012240F255
:101CF0000001C2F200014CF22C00C0F6000006F018
:101D000089F91F21292006F0EFF8012240F2000195
:101D1000C2F200014CF24000C0F6000006F07AF971
:101D20003321292006F0E0F8012240F20001C2F23E
:101D300000014CF24400C0F6000006F06BF90123EC
:101D400003223821142006F085FA00F007BD0B218C
:101D5000292006F0C9F8012240F20001C2F2000178
:101D60004CF21800C0F6000006F054F901230322DB
:101D70000E21142006F06EFA1F21292006F0B4F877
:101D8000012240F20001C2F200014CF22000C0F634
:101D9000000006F03FF93321292006F0A5F80122C2
:101DA00040F20001C2F200014CF24000C0F6000017
:101DB00006F030F900F0D2BC0B21292006F094F88F
:101DC000012240F20001C2F200014CF21800C0F6FC
:101DD000000006F01FF91F21292006F085F80122D6
:101DE00040F20001C2F200014CF22000C0F60000F7
:101DF00006F010F9012303222321142006F02AFA09
:101E00003321292006F070F8012240F20001C2F2CD
:101E100000014CF24000C0F6000006F0FBF800F0B4
:101E20009DBC0B21292006F05FF8012240F2000141
:101E3000C2F200014CF21800C0F6000006F0EAF809
:101E40001F21292006F050F8012240F20001C2F2C1
:101E500000014CF22000C0F6000006F0DBF8332150
:101E6000292006F041F8012240F20001C2F20001EF
:101E70004CF24000C0F6000006F0CCF8012303222B
:101E80003821142006F0E6F900F068BC0B21292067
:101E900006F02AF8012240F20001C2F200014CF2E1
:101EA0002000C0F6000006F0B5F81F21292006F03A
:101EB0001BF8012240F20001C2F200014CF2400086
:101EC000C0F6000006F0A6F83321292006F00CF831
:101ED000012240F20001C2F200014CF24400C0F6BF
:101EE000000006F097F8012303223821142006F0A1
:101EF000B1F900F033BC0B21292005F0F5FF0122D8
:101F000040F20001C2F200014CF21800C0F60000DD
:101F100006F080F8012303220E21142006F09AF91E
:101F20001F21292005F0E0FF012240F20001C2F24A
:101F300000014CF23800C0F6000006F06BF83321C7
:101F4000292005F0D1FF012240F20001C2F2000178
:101F50004CF24000C0F6000006F05CF8FEE30B21F6
:101F6000292005F0C1FF012240F20001C2F2000168
:101F70004CF21800C0F6000006F04CF81F21292092
:101F800005F0B2FF012240F20001C2F200014CF262
:101F90003800C0F6000006F03DF80123032223219B
:101FA000142006F057F93321292005F09DFF012266
:101FB00040F20001C2F200014CF24000C0F6000005
:101FC00006F028F8CAE30B21292005F08DFF012235
:101FD00040F20001C2F200014CF21800C0F600000D
:101FE00006F018F81F21292005F07EFF012240F29B
:101FF0000001C2F200014CF23800C0F6000006F009
:1020000009F83321292005F06FFF012240F2000179
:10201000C2F200014CF24000C0F6000005F0FAFFE9
:10202000012303223821142006F014F996E30B2132
:10203000292005F059FF012240F20001C2F20001FF
:102040004CF23800C0F6000005F0E4FF1F21292003
:1020500005F04AFF012240F20001C2F200014CF2F9
:102060004000C0F6000005F0D5FF3321292005F01F
:102070003BFF012240F20001C2F200014CF2440099
:10208000C0F6000005F0C6FF01230322382114200A
:1020900006F0E0F862E30B21292005F025FF01227C
:1020A00040F20001C2F200014CF24800C0F600000C
:1020B00005F0B0FF012303220E21142006F0CAF818
:1020C0001F21292005F010FF012240F20001C2F279
:1020D00000014CF25000C0F6000005F09BFF3321D8
:1020E000292005F001FF012240F20001C2F20001A7
:1020F0004CF25C00C0F6000005F08CFF2EE30B21D3
:10210000292005F0F1FE012240F20001C2F2000197
:102110004CF24800C0F6000005F07CFF1F2129208A
:1021200005F0E2FE012240F20001C2F200014CF291
:102130005000C0F6000005F06DFF012303222321AB
:10214000142006F087F83321292005F0CDFE012266
:1021500040F20001C2F200014CF25C00C0F6000047
:1021600005F058FFFAE20B21292005F0BDFE0122FF
:1021700040F20001C2F200014CF24800C0F600003B
:1021800005F048FF1F21292005F0AEFE012240F294
:102190000001C2F200014CF25000C0F6000005F050
:1021A00039FF3321292005F09FFE012240F2000172
:1021B000C2F200014CF25C00C0F6000005F02AFFFC
:1021C000012303223821142006F044F8C6E20B2133
:1021D000292005F089FE012240F20001C2F200012F
:1021E0004CF24800C0F6000005F014FF0123032262
:1021F0000E21142006F02EF81F21292005F074FE70
:10220000012240F20001C2F200014CF26000C0F66F
:10221000000005F0FFFE3321292005F065FE0122B4
:1022200040F20001C2F200014CF26800C0F600006A
:1022300005F0F0FE92E20B21292005F055FE012267
:1022400040F20001C2F200014CF24800C0F600006A
:1022500005F0E0FE1F21292005F046FE012240F294
:102260000001C2F200014CF26000C0F6000005F06F
:10227000D1FE012303222321142005F0EBFF33219B
:10228000292005F031FE012240F20001C2F20001D6
:102290004CF26800C0F6000005F0BCFE5EE20B21C7
:1022A000292005F021FE012240F20001C2F20001C6
:1022B0004CF24800C0F6000005F0ACFE1F212920BA
:1022C00005F012FE012240F20001C2F200014CF2C0
:1022D0006000C0F6000005F09DFE3321292005F0C6
:1022E00003FE012240F20001C2F200014CF268003C
:1022F000C0F6000005F08EFE0123032238211420D1
:1023000005F0A8FF2AE20B21292005F0EDFD0122AE
:1023100040F20001C2F200014CF26000C0F6000081
:1023200005F078FE1F21292005F0DEFD012240F294
:102330000001C2F200014CF26800C0F6000005F096
:1023400069FE3321292005F0CFFD012240F2000172
:10235000C2F200014CF27000C0F6000005F05AFE17
:10236000012303223821142005F074FFF6E10B212C
:10237000292005F0B9FD012240F20001C2F200015E
:102380004CF24800C0F6000005F044FE0123032291
:102390000E21142005F05EFF1F21292005F0A4FD69
:1023A000012240F20001C2F200014CF27800C0F6B6
:1023B000000005F02FFED1E10B21292005F094FD4E
:1023C000012240F20001C2F200014CF24800C0F6C6
:1023D000000005F01FFE1F21292005F085FD0122C8
:1023E00040F20001C2F200014CF27800C0F6000099
:1023F00005F010FE012303222321142005F02AFFFB
:10240000ACE10B21292005F06FFD012240F2000113
:10241000C2F200014CF24800C0F6000005F0FAFDDF
:10242000012303220E21142005F014FF1F2129206F
:1024300005F05AFD012240F20001C2F200014CF207
:102440005C00C0F6000005F0E5FD3321292005F011
:102450004BFD012240F20001C2F200014CF2880063
:10246000C0F6000005F0D6FD78E10B21292005F02B
:102470003BFD012240F20001C2F200014CF2480093
:10248000C0F6000005F0C6FD1F21292005F02CFD37
:10249000012240F20001C2F200014CF25C00C0F6E1
:1024A000000005F0B7FD012303222321142005F0CD
:1024B000D1FE3321292005F017FD012240F2000151
:1024C000C2F200014CF28800C0F6000005F0A2FD47
:1024D00044E10B21292005F007FD012240F2000113
:1024E000C2F200014CF24800C0F6000005F092FD77
:1024F0001F21292005F0F8FC012240F20001C2F260
:1025000000014CF25C00C0F6000005F083FD3321B1
:10251000292005F0E9FC012240F20001C2F200018D
:102520004CF28800C0F6000005F074FD0123032280
:102530003821142005F08EFE10E10B21292005F032
:10254000D3FC012240F20001C2F200014CF25C0017
:10255000C0F6000005F05EFD1F21292005F0C4FC37
:10256000012240F20001C2F200014CF29800C0F6D4
:10257000000005F04FFD3321292005F0B5FC0122B4
:1025800040F20001C2F200014CF2A800C0F60000C7
:1025900005F040FD012303223821142005F05AFEE6
:1025A000DCE01F21052005F09FFC012240F208011C
:1025B000C2F200014CF2B800C0F6000005F02AFD9E
:1025C000CCE01F21052005F08FFC012240F208011C
:1025D000C2F200014CF2C800C0F6000005F01AFD7E
:1025E000BCE01F21052005F07FFC012240F208011C
:1025F000C2F200014CF2D400C0F6000005F00AFD62
:10260000ACE01F21052005F06FFC012240F208011B
:10261000C2F200014CF2E000C0F6000005F0FAFC46
:102620009CE00B21292005F05FFC012240F2000113
:10263000C2F200014CF24800C0F6000005F0EAFCCE
:10264000012303220E21142005F004FE1F2129205E
:1026500005F04AFC012240F20001C2F200014CF2F6
:10266000EC00C0F6000005F0D5FC3321292005F070
:102670003BFC012240F20001C2F200014CF2F400E6
:10268000C0F6000005F0C6FC68E00B21292005F02B
:102690002BFC012240F20001C2F200014CF2480082
:1026A000C0F6000005F0B6FC1F21292005F01CFC37
:1026B000012240F20001C2F200014CF2EC00C0F62F
:1026C000000005F0A7FC012303222321142005F0BC
:1026D000C1FD3321292005F007FC012240F2000151
:1026E000C2F200014CF2F400C0F6000005F092FCCA
:1026F00034E00B21292005F0F7FB012240F2000114
:10270000C2F200014CF24800C0F6000005F082FC65
:102710001F21292005F0E8FB012240F20001C2F24E
:1027200000014CF2EC00C0F6000005F073FC332110
:10273000292005F0D9FB012240F20001C2F200017C
:102740004CF2F400C0F6000005F064FC0123032203
:102750003821142005F07EFD00E000BF05F010FBDD
:1027600000BF0837BD4680BD80B5CAB000AF07F5D1
:102770009473A3F59273186007F59473A3F594739B
:10278000196007F59473A3F592731B68032B02F08D
:102790003B8507F59473A3F592731B68032B02F333
:1027A000268707F59473A3F592731B68012B09D054
:1027B00007F59473A3F592731B68022B00F0A180B8
:1027C00002F015BF07F59473A3F594731B68092BEA
:1027D00012D140F2F413C2F2000300221A8040F238
:1027E000F413C2F200031B881A46072140F2481076
:1027F000C2F2000008F052F907F59473A3F5947340
:102800001B680A2B12D140F2F613C2F20003002219
:102810001A8040F2F613C2F200031B881A46082100
:1028200040F24810C2F2000008F038F907F594733E
:10283000A3F594731B680B2B12D140F2F813C2F26C
:10284000000300221A8040F2F813C2F200031B8832
:102850001A46092140F24810C2F2000008F01EF9A1
:1028600007F59473A3F594731B680C2B12D140F2F7
:10287000FA13C2F2000300221A8040F2FA13C2F2E5
:1028800000031B881A460A2140F24810C2F20000D9
:1028900008F004F907F59473A3F594731B680D2BE6
:1028A00012D140F2FC13C2F2000300221A8040F25F
:1028B000FC13C2F200031B881A460B2140F2481099
:1028C000C2F2000008F0EAF807F59473A3F59473D8
:1028D0001B680E2B42F08D8640F2FE13C2F20003FD
:1028E00000221A8040F2FE13C2F200031B881A462F
:1028F0000C2140F24810C2F2000008F0CFF802F0BC
:1029000078BE07F59473A3F594731B68012B40F010
:10291000948040F21023C2F200031B68012B40F0A8
:102920008C8040F21823C2F2000301221A60242096
:10293000FEF7F2FE34E040F2F413C2F200031B880B
:10294000013B9AB240F2F413C2F200031A80002352
:10295000C3F6B473C7F8083140F21003C2F20003A3
:102960001B681946012097ED420AFEF757FE40F218
:10297000F413C2F200031B881A46072140F24810E4
:10298000C2F2000008F08AF84FF400414FF40060F2
:10299000C4F2020006F092FA0346002B02F02B86E6
:1029A00040F2F413C2F200031B88002BC3D140F2A3
:1029B0001823C2F2000302221A602420FEF7ACFEA4
:1029C00034E040F2F613C2F200031B88013B9AB2D6
:1029D00040F2F613C2F200031A800023C3F6B47368
:1029E000C7F80C3140F21003C2F200031B6819460D
:1029F000002097ED430AFEF711FE40F2F613C2F2F3
:102A000000031B881A46082140F24810C2F2000059
:102A100008F044F84FF400414FF40060C4F20200A3
:102A200006F04CFA0346002B02F0E78540F2F6135D
:102A3000C2F200031B88002BC3D107F59473A3F5E2
:102A400094731B68012B40F0948040F21023C2F273
:102A500000031B68022B40F08C8040F21823C2F266
:102A6000000303221A602420FEF756FE34E040F2F1
:102A7000F813C2F200031B88013B9AB240F2F8132C
:102A8000C2F200031A800023C3F6B473C7F8003102
:102A900040F21003C2F200031B681946012097EDB3
:102AA000400AFEF7BBFD40F2F813C2F200031B8898
:102AB0001A46092140F24810C2F2000007F0EEFF6A
:102AC0004FF400414FF40060C4F2020006F0F6F942
:102AD0000346002B02F0938540F2F813C2F2000384
:102AE0001B88002BC3D140F21823C2F2000304223A
:102AF0001A602420FEF710FE34E040F2FA13C2F20E
:102B000000031B88013B9AB240F2FA13C2F20003A1
:102B10001A800023C3F6B473C7F8043140F21003DF
:102B2000C2F200031B681946002097ED410AFEF728
:102B300075FD40F2FA13C2F200031B881A460A21FF
:102B400040F24810C2F2000007F0A8FF4FF4004125
:102B50004FF40060C4F2020006F0B0F90346002B07
:102B600002F04F8540F2FA13C2F200031B88002BDB
:102B7000C3D107F59473A3F594731B68012B40F040
:102B8000948040F21023C2F200031B68032B40F034
:102B90008C8040F21823C2F2000305221A60242020
:102BA000FEF7BAFD34E040F2FC13C2F200031B88CA
:102BB000013B9AB240F2FC13C2F200031A800023D8
:102BC000C3F6B473C7F8F83040F21003C2F2000342
:102BD0001B681946012097ED3E0AFEF71FFD40F2E3
:102BE000FC13C2F200031B881A460B2140F2481066
:102BF000C2F2000007F052FF4FF400414FF40060B2
:102C0000C4F2020006F05AF90346002B02F0FB84DE
:102C100040F2FC13C2F200031B88002BC3D140F228
:102C20001823C2F2000306221A602420FEF774FD66
:102C300034E040F2FE13C2F200031B88013B9AB25B
:102C400040F2FE13C2F200031A800023C3F6B473ED
:102C5000C7F8FC3040F21003C2F200031B681946AB
:102C6000002097ED3F0AFEF7D9FC40F2FE13C2F2B6
:102C700000031B881A460C2140F24810C2F20000E3
:102C800007F00CFF4FF400414FF40060C4F2020063
:102C900006F014F90346002B02F0B78440F2FE134D
:102CA000C2F200031B88002BC3D107F59473A3F570
:102CB00094731B68022B40F0348140F21023C2F25F
:102CC00000031B68012B40F02C8140F21823C2F254
:102CD000000301221A602420FEF71EFD34E00023C9
:102CE000C3F6B473C7F8E83040F2F413C2F200033D
:102CF0001B88013B9AB240F2F413C2F200031A801F
:102D000040F21003C2F200031B681946012097ED40
:102D10003A0AFEF783FC40F2F413C2F200031B8868
:102D20001A46072140F24810C2F2000007F0B6FE32
:102D30004FF400414FF40060C4F2020006F0BEF808
:102D40000346002B02F0638440F2F413C2F2000346
:102D50001A8840F22003C2F200031B889A42BED8B0
:102D600040F21823C2F2000302221A602420FEF768
:102D7000D3FC34E00023C3F6B473C7F8EC3040F260
:102D8000F613C2F200031B88013B9AB240F2F6131D
:102D9000C2F200031A8040F21003C2F200031B6863
:102DA0001946002097ED3B0AFEF738FC40F2F61377
:102DB000C2F200031B881A46082140F24810C2F2F2
:102DC000000007F06BFE4FF400414FF40060C4F2C6
:102DD000020006F073F80346002B02F01A8440F25A
:102DE000F613C2F200031A8840F22203C2F2000373
:102DF0001B889A42BED840F21823C2F20003012277
:102E00001A602520FEF788FC34E00023C3F6B47373
:102E1000C7F8F03040F2F413C2F200031B8801330C
:102E20009AB240F2F413C2F200031A8040F2100387
:102E3000C2F200031B681946002097ED3C0AFEF71A
:102E4000EDFB40F2F413C2F200031B881A4607217F
:102E500040F24810C2F2000007F020FE4FF400419B
:102E60004FF40060C4F2020006F028F80346002B7D
:102E700002F0D18340F2F413C2F200031A8840F248
:102E80002003C2F200031B889A42BED340F21823EB
:102E9000C2F2000302221A602520FEF73DFC34E056
:102EA0000023C3F6B473C7F8F43040F21003C2F243
:102EB00000031B681946012097ED3D0AFEF7AEFBA3
:102EC00040F2F613C2F200031B8801339AB240F2BB
:102ED000F613C2F200031A8040F2F613C2F20003A6
:102EE0001B881A46082140F24810C2F2000007F081
:102EF000D5FD4FF400414FF40060C4F2020005F02C
:102F0000DDFF0346002B02F0888340F2F613C2F285
:102F100000031A8840F22203C2F200031B889A427F
:102F2000BED307F59473A3F594731B68022B40F08E
:102F3000348140F21023C2F200031B68022B40F0E0
:102F40002C8140F21823C2F2000303221A602420CD
:102F5000FEF7E2FB34E00023C3F6B473C7F8D830C1
:102F600040F21003C2F200031B681946012097EDDE
:102F7000360AFEF753FB40F2F813C2F200031B8837
:102F8000013B9AB240F2F813C2F200031A8040F2F9
:102F9000F813C2F200031B881A46092140F24810B8
:102FA000C2F2000007F07AFD4FF400414FF40060D8
:102FB000C4F2020005F082FF0346002B02F02F83CB
:102FC00040F2F813C2F200031A8840F22403C2F25E
:102FD00000031B889A42BED840F21823C2F20003B5
:102FE00004221A602420FEF797FB34E00023C3F686
:102FF000B473C7F8DC3040F21003C2F200031B6860
:103000001946002097ED370AFEF708FB40F2FA1345
:10301000C2F200031B88013B9AB240F2FA13C2F2DB
:1030200000031A8040F2FA13C2F200031B881A460A
:103030000A2140F24810C2F2000007F02FFD4FF4C1
:1030400000414FF40060C4F2020005F037FF034670
:10305000002B02F0E68240F2FA13C2F200031A8853
:1030600040F22603C2F200031B889A42BED840F207
:103070001823C2F2000303221A602520FEF74CFB3E
:1030800034E00023C3F6B473C7F8E03040F2100315
:10309000C2F200031B681946002097ED380AFEF7BC
:1030A000BDFA40F2F813C2F200031B8801339AB252
:1030B00040F2F813C2F200031A8040F2F813C2F291
:1030C00000031B881A46092140F24810C2F2000092
:1030D00007F0E4FC4FF400414FF40060C4F202003A
:1030E00005F0ECFE0346002B02F09D8240F2F8133F
:1030F000C2F200031A8840F22403C2F200031B88C4
:103100009A42BED340F21823C2F2000304221A608E
:103110002520FEF701FB34E00023C3F6B473C7F8A3
:10312000E43040F21003C2F200031B68194601208C
:1031300097ED390AFEF772FA40F2FA13C2F2000371
:103140001B8801339AB240F2FA13C2F200031A80CC
:1031500040F2FA13C2F200031B881A460A2140F219
:103160004810C2F2000007F099FC4FF400414FF400
:103170000060C4F2020005F0A1FE0346002B02F03D
:10318000548240F2FA13C2F200031A8840F2260376
:10319000C2F200031B889A42BED307F59473A3F5CD
:1031A00094731B68022B40F0348140F21023C2F26A
:1031B00000031B68032B40F02C8140F21823C2F25D
:1031C000000305221A602420FEF7A6FA34E000234B
:1031D000C3F6B473C7F8C83040F21003C2F200035C
:1031E0001B681946012097ED320AFEF717FA40F2E4
:1031F000FC13C2F200031B88013B9AB240F2FC139D
:10320000C2F200031A8040F2FC13C2F200031B88D2
:103210001A460B2140F24810C2F2000007F03EFCB3
:103220004FF400414FF40060C4F2020005F046FE86
:103230000346002B02F0FB8140F2FC13C2F20003B4
:103240001A8840F22803C2F200031B889A42BED8B3
:1032500040F21823C2F2000306221A602420FEF76F
:103260005BFA34E00023C3F6B473C7F8CC3040F205
:103270001003C2F200031B681946002097ED330AC1
:10328000FEF7CCF940F2FE13C2F200031B88013BAB
:103290009AB240F2FE13C2F200031A8040F2FE130B
:1032A000C2F200031B881A460C2140F24810C2F2F9
:1032B000000007F0F3FB4FF400414FF40060C4F24C
:1032C000020005F0FBFD0346002B02F0B28140F244
:1032D000FE13C2F200031A8840F22A03C2F200036E
:1032E0001B889A42BED840F21823C2F2000305227E
:1032F0001A602520FEF710FA34E00023C3F6B473F9
:10330000C7F8D03040F21003C2F200031B68194620
:10331000002097ED340AFEF781F940F2FC13C2F267
:1033200000031B8801339AB240F2FC13C2F200037F
:103330001A8040F2FC13C2F200031B881A460B21CC
:1033400040F24810C2F2000007F0A8FB4FF4004121
:103350004FF40060C4F2020005F0B0FD0346002BFC
:1033600002F0698140F2FC13C2F200031A8840F2B5
:103370002803C2F200031B889A42BED340F21823EE
:10338000C2F2000306221A602520FEF7C5F934E0D8
:103390000023C3F6B473C7F8D43040F21003C2F26E
:1033A00000031B681946012097ED350AFEF736F930
:1033B00040F2FE13C2F200031B8801339AB240F2BE
:1033C000FE13C2F200031A8040F2FE13C2F20003A1
:1033D0001B881A460C2140F24810C2F2000007F088
:1033E0005DFB4FF400414FF40060C4F2020005F0B1
:1033F00065FD0346002B02F0208140F2FE13C2F26D
:1034000000031A8840F22A03C2F200031B889A4282
:10341000BED307F59473A3F594731B68032B40F098
:10342000348140F21023C2F200031B68012B40F0EC
:103430002C8140F21823C2F2000301221A602420DA
:10344000FEF76AF934E00023C3F6B473C7F8B83066
:1034500040F21003C2F200031B681946012097EDE9
:103460002E0AFEF7DBF840F2F413C2F200031B88C9
:10347000013B9AB240F2F413C2F200031A8040F208
:10348000F413C2F200031B881A46072140F24810C9
:10349000C2F2000007F002FB4FF400414FF400605D
:1034A000C4F2020005F00AFD0346002B02F0C780BB
:1034B00040F2F413C2F200031A8840F22C03C2F265
:1034C00000031B889A42BED840F21823C2F20003C0
:1034D00002221A602420FEF71FF934E00023C3F60D
:1034E000B473C7F8BC3040F21003C2F200031B688B
:1034F0001946002097ED2F0AFEF790F840F2F613D8
:10350000C2F200031B88013B9AB240F2F613C2F2EA
:1035100000031A8040F2F613C2F200031B881A4619
:10352000082140F24810C2F2000007F0B7FA4FF449
:1035300000414FF40060C4F2020005F0BFFC0346F6
:10354000002B02F07E8040F2F613C2F200031A88CC
:1035500040F22E03C2F200031B889A42BED840F20A
:103560001823C2F2000301221A602520FEF7D4F8C6
:1035700034E00023C3F6B473C7F8C03040F2100340
:10358000C2F200031B681946002097ED300AFEF7CF
:1035900045F840F2F413C2F200031B8801339AB2DB
:1035A00040F2F413C2F200031A8040F2F413C2F2A4
:1035B00000031B881A46072140F24810C2F200009F
:1035C00007F06CFA4FF400414FF40060C4F20200BF
:1035D00005F074FC0346002B02F0358040F2F41332
:1035E000C2F200031A8840F22C03C2F200031B88C7
:1035F0009A42BED340F21823C2F2000302221A609C
:103600002520FEF789F834E00023C3F6B473C7F829
:10361000C43040F21003C2F200031B6819460120B7
:1036200097ED310AFDF7FAFF40F2F613C2F20003FC
:103630001B8801339AB240F2F613C2F200031A80DB
:1036400040F2F613C2F200031B881A46082140F22A
:103650004810C2F2000007F021FA4FF400414FF485
:103660000060C4F2020005F029FC0346002B01F0C3
:10367000EC8740F2F613C2F200031A8840F22E03E0
:10368000C2F200031B889A42BED307F59473A3F5D8
:1036900094731B68032B40F0348140F21023C2F274
:1036A00000031B68022B40F02C8140F21823C2F269
:1036B000000303221A602420FEF72EF834E00023D2
:1036C000C3F6B473C7F8A83040F21003C2F2000387
:1036D0001B681946012097ED2A0AFDF79FFF40F26B
:1036E000F813C2F200031B88013B9AB240F2F813B0
:1036F000C2F200031A8040F2F813C2F200031B88E2
:103700001A46092140F24810C2F2000007F0C6F93B
:103710004FF400414FF40060C4F2020005F0CEFB0C
:103720000346002B01F0938740F2F813C2F2000326
:103730001A8840F23003C2F200031B889A42BED8B6
:1037400040F21823C2F2000304221A602420FDF77D
:10375000E3FF34E00023C3F6B473C7F8AC3040F2A3
:103760001003C2F200031B681946002097ED2B0AD4
:10377000FDF754FF40F2FA13C2F200031B88013B2D
:103780009AB240F2FA13C2F200031A8040F2FA131E
:10379000C2F200031B881A460A2140F24810C2F206
:1037A000000007F07BF94FF400414FF40060C4F2D1
:1037B000020005F083FB0346002B01F04A8740F22C
:1037C000FA13C2F200031A8840F23203C2F2000375
:1037D0001B889A42BED840F21823C2F2000303228B
:1037E0001A602520FDF798FF34E00023C3F6B47378
:1037F000C7F8B03040F21003C2F200031B6819464C
:10380000002097ED2C0AFDF709FF40F2F813C2F2F1
:1038100000031B8801339AB240F2F813C2F200038E
:103820001A8040F2F813C2F200031B881A460921DD
:1038300040F24810C2F2000007F030F94FF40041A6
:103840004FF40060C4F2020005F038FB0346002B81
:1038500001F0018740F2F813C2F200031A8840F227
:103860003003C2F200031B889A42BED340F21823F1
:10387000C2F2000304221A602520FDF74DFF34E058
:103880000023C3F6B473C7F8B43040F21003C2F299
:1038900000031B681946012097ED2D0AFDF7BEFEB7
:1038A00040F2FA13C2F200031B8801339AB240F2CD
:1038B000FA13C2F200031A8040F2FA13C2F20003B4
:1038C0001B881A460A2140F24810C2F2000007F095
:1038D000E5F84FF400414FF40060C4F2020005F037
:1038E000EDFA0346002B01F0B88640F2FA13C2F25B
:1038F00000031A8840F23203C2F200031B889A4286
:10390000BED307F59473A3F594731B68032B40F0A3
:10391000348140F21023C2F200031B68032B40F0F5
:103920002C8140F21823C2F2000305221A602420E1
:10393000FDF7F2FE34E00023C3F6B473C7F8983005
:1039400040F21003C2F200031B681946012097EDF4
:10395000260AFDF763FE40F2FC13C2F200031B8847
:10396000013B9AB240F2FC13C2F200031A8040F20B
:10397000FC13C2F200031B881A460B2140F24810C8
:10398000C2F2000007F08AF84FF400414FF40060E3
:10399000C4F2020005F092FA0346002B01F05F86A4
:1039A00040F2FC13C2F200031A8840F23403C2F260
:1039B00000031B889A42BED840F21823C2F20003CB
:1039C00006221A602420FDF7A7FE34E00023C3F688
:1039D000B473C7F89C3040F21003C2F200031B68B6
:1039E0001946002097ED270AFDF718FE40F2FE1356
:1039F000C2F200031B88013B9AB240F2FE13C2F2EE
:103A000000031A8040F2FE13C2F200031B881A461C
:103A10000C2140F24810C2F2000007F03FF84FF4CA
:103A200000414FF40060C4F2020005F047FA03467B
:103A3000002B01F0168640F2FE13C2F200031A8832
:103A400040F23603C2F200031B889A42BED840F20D
:103A50001823C2F2000305221A602520FDF75CFE40
:103A600034E00023C3F6B473C7F8A03040F210036B
:103A7000C2F200031B681946002097ED280AFDF7E3
:103A8000CDFD40F2FC13C2F200031B8801339AB251
:103A900040F2FC13C2F200031A8040F2FC13C2F29F
:103AA00000031B881A460B2140F24810C2F20000A6
:103AB00006F0F4FF4FF400414FF40060C4F202003E
:103AC00005F0FCF90346002B01F0CD8540F2FC1314
:103AD000C2F200031A8840F23403C2F200031B88CA
:103AE0009A42BED340F21823C2F2000306221A60A3
:103AF0002520FDF711FE34E00023C3F6B473C7F8A8
:103B0000A43040F21003C2F200031B6819460120E2
:103B100097ED290AFDF782FD40F2FE13C2F2000381
:103B20001B8801339AB240F2FE13C2F200031A80DE
:103B300040F2FE13C2F200031B881A460C2140F229
:103B40004810C2F2000006F0A9FF4FF400414FF404
:103B50000060C4F2020005F0B1F90346002B01F049
:103B6000848540F2FE13C2F200031A8840F2360345
:103B7000C2F200031B889A42BED307F59473A3F5E3
:103B800094731B68062B40F0348140F21023C2F27C
:103B900000031B68012B40F02C8140F21823C2F275
:103BA000000301221A602620FDF7B6FD34E0002351
:103BB000C3F6B473C7F8883040F21003C2F20003B2
:103BC0001B681946012097ED220AFDF727FD40F2F8
:103BD000F413C2F200031B88013B9AB240F2F413C3
:103BE000C2F200031A8040F2F413C2F200031B88F1
:103BF0001A46072140F24810C2F2000006F04EFFBC
:103C00004FF400414FF40060C4F2020005F056F991
:103C10000346002B01F02B8540F2F413C2F200039F
:103C20001A8840F23803C2F200031B889A42BED8B9
:103C300040F21823C2F2000302221A602620FDF788
:103C40006BFD34E00023C3F6B473C7F88C3040F248
:103C50001003C2F200031B681946002097ED230AE7
:103C6000FDF7DCFC40F2F613C2F200031B88013BB7
:103C70009AB240F2F613C2F200031A8040F2F61331
:103C8000C2F200031B881A46082140F24810C2F213
:103C9000000006F003FF4FF400414FF40060C4F24F
:103CA000020005F00BF90346002B01F0E28440F21C
:103CB000F613C2F200031A8840F23A03C2F200037C
:103CC0001B889A42BED840F21823C2F20003012298
:103CD0001A602620FDF720FD34E00023C3F6B473FC
:103CE000C7F8903040F21003C2F200031B68194677
:103CF000002097ED240AFDF791FC40F2F413C2F284
:103D000000031B8801339AB240F2F413C2F200039D
:103D10001A8040F2F413C2F200031B881A460721EE
:103D200040F24810C2F2000006F0B8FE4FF4004125
:103D30004FF40060C4F2020005F0C0F80346002B07
:103D400001F0998440F2F413C2F200031A8840F2A1
:103D50003803C2F200031B889A42BED340F21823F4
:103D6000C2F2000302221A602620FDF7D5FC34E0DF
:103D70000023C3F6B473C7F8943040F21003C2F2C4
:103D800000031B681946012097ED250AFDF746FC44
:103D900040F2F613C2F200031B8801339AB240F2DC
:103DA000F613C2F200031A8040F2F613C2F20003C7
:103DB0001B881A46082140F24810C2F2000006F0A3
:103DC0006DFE4FF400414FF40060C4F2020005F0B4
:103DD00075F80346002B01F0508440F2F613C2F24E
:103DE00000031A8840F23A03C2F200031B889A4289
:103DF000BED307F59473A3F594731B68062B40F0AC
:103E0000328140F21023C2F200031B68022B40F003
:103E10002A812620FDF780FC40F21823C2F200031D
:103E200003221A6033E00023C3F6B473BB6740F289
:103E30001003C2F200031B681946012097ED1E0A09
:103E4000FDF7ECFB40F2F813C2F200031B88013BC4
:103E50009AB240F2F813C2F200031A8040F2F8134B
:103E6000C2F200031B881A46092140F24810C2F230
:103E7000000006F013FE4FF400414FF40060C4F25E
:103E8000020005F01BF80346002B01F0F88340F216
:103E9000F813C2F200031A8840F23C03C2F2000396
:103EA0001B889A42BFD840F21823C2F200030422B2
:103EB0001A602620FDF730FC33E00023C3F6B4730C
:103EC000FB6740F21003C2F200031B681946002092
:103ED00097ED1F0AFDF7A2FB40F2FA13C2F20003AE
:103EE0001B88013B9AB240F2FA13C2F200031A8017
:103EF00040F2FA13C2F200031B881A460A2140F26C
:103F00004810C2F2000006F0C9FD4FF400414FF422
:103F10000060C4F2020004F0D1FF0346002B01F060
:103F2000B08340F2FA13C2F200031A8840F23E0353
:103F3000C2F200031B889A42BFD840F21823C2F293
:103F4000000303221A602620FDF7E6FB34E000237D
:103F5000C3F6B473C7F8803040F21003C2F2000316
:103F60001B681946002097ED200AFDF757FB40F229
:103F7000F813C2F200031B8801339AB240F2F8131F
:103F8000C2F200031A8040F2F813C2F200031B8849
:103F90001A46092140F24810C2F2000006F07EFDE8
:103FA0004FF400414FF40060C4F2020004F086FFB9
:103FB0000346002B01F0678340F2F813C2F20003BE
:103FC0001A8840F23C03C2F200031B889A42BED317
:103FD00040F21823C2F2000304221A602620FDF7E3
:103FE0009BFB34E00023C3F6B473C7F8843040F27F
:103FF0001003C2F200031B681946012097ED210A45
:10400000FDF70CFB40F2FA13C2F200031B880133E8
:104010009AB240F2FA13C2F200031A8040F2FA1385
:10402000C2F200031B881A460A2140F24810C2F26D
:10403000000006F033FD4FF400414FF40060C4F27D
:10404000020004F03BFF0346002B01F01E8340F208
:10405000FA13C2F200031A8840F23E03C2F20003D0
:104060001B889A42BED307F59473A3F594731B681B
:10407000062B40F0308140F21023C2F200031B688F
:10408000032B40F0288140F21823C2F200030522DE
:104090001A602620FDF740FB33E00023C3F6B4731B
:1040A000BB6640F21003C2F200031B6819460120F0
:1040B00097ED1A0AFDF7B2FA40F2FC13C2F20003C0
:1040C0001B88013B9AB240F2FC13C2F200031A8033
:1040D00040F2FC13C2F200031B881A460B2140F287
:1040E0004810C2F2000006F0D9FC4FF400414FF432
:1040F0000060C4F2020004F0E1FE0346002B01F070
:10410000C68240F2FC13C2F200031A8840F2400358
:10411000C2F200031B889A42BFD840F21823C2F2B1
:10412000000306221A602620FDF7F6FA33E000238A
:10413000C3F6B473FB6640F21003C2F200031B68BF
:104140001946002097ED1B0AFDF768FA40F2FE13AE
:10415000C2F200031B88013B9AB240F2FE13C2F286
:1041600000031A8040F2FE13C2F200031B881A46B5
:104170000C2140F24810C2F2000006F08FFC4FF410
:1041800000414FF40060C4F2020004F097FE0346C1
:10419000002B01F07E8240F2FE13C2F200031A8867
:1041A00040F24203C2F200031B889A42BFD840F299
:1041B0001823C2F2000305221A602620FDF7ACFA8C
:1041C00033E00023C3F6B4733B6740F21003C2F23E
:1041D00000031B681946002097ED1C0AFDF71EFA24
:1041E00040F2FC13C2F200031B8801339AB240F282
:1041F000FC13C2F200031A8040F2FC13C2F2000367
:104200001B881A460B2140F24810C2F2000006F04B
:1042100045FC4FF400414FF40060C4F2020004F08A
:104220004DFE0346002B01F0368240F2FC13C2F231
:1042300000031A8840F24003C2F200031B889A422E
:10424000BFD340F21823C2F2000306221A602620D0
:10425000FDF762FA33E00023C3F6B4737B6740F2E4
:104260001003C2F200031B681946012097ED1D0AD6
:10427000FDF7D4F940F2FE13C2F200031B880133AC
:104280009AB240F2FE13C2F200031A8040F2FE130B
:10429000C2F200031B881A460C2140F24810C2F2F9
:1042A000000006F0FBFB4FF400414FF40060C4F245
:1042B000020004F003FE0346002B01F0EE8140F201
:1042C000FE13C2F200031A8840F24203C2F2000356
:1042D0001B889A42BFD307F59473A3F594731B68A8
:1042E000072B40F0308140F21023C2F200031B681C
:1042F000012B40F0288140F21823C2F20003012272
:104300001A602620FDF708FA33E00023C3F6B473E1
:10431000BB6540F21003C2F200031B68194601207E
:1043200097ED160AFDF77AF940F2F413C2F2000392
:104330001B88013B9AB240F2F413C2F200031A80C8
:1043400040F2F413C2F200031B881A46072140F220
:104350004810C2F2000006F0A1FB4FF400414FF4F8
:104360000060C4F2020004F0A9FD0346002B01F036
:10437000968140F2F413C2F200031A8840F244031B
:10438000C2F200031B889A42BFD840F21823C2F23F
:10439000000302221A602620FDF7BEF933E0002355
:1043A000C3F6B473FB6540F21003C2F200031B684E
:1043B0001946002097ED170AFDF730F940F2F61381
:1043C000C2F200031B88013B9AB240F2F613C2F21C
:1043D00000031A8040F2F613C2F200031B881A464B
:1043E000082140F24810C2F2000006F057FB4FF4DB
:1043F00000414FF40060C4F2020004F05FFD034688
:10440000002B01F04E8140F2F613C2F200031A882D
:1044100040F24603C2F200031B889A42BFD840F222
:104420001823C2F2000301221A602620FDF774F956
:1044300033E00023C3F6B4733B6640F21003C2F2CC
:1044400000031B681946002097ED180AFDF7E6F8EF
:1044500040F2F413C2F200031B8801339AB240F217
:10446000F413C2F200031A8040F2F413C2F2000304
:104470001B881A46072140F24810C2F2000006F0DD
:104480000DFB4FF400414FF40060C4F2020004F051
:1044900015FD0346002B01F0068140F2F413C2F231
:1044A00000031A8840F24403C2F200031B889A42B8
:1044B000BFD340F21823C2F2000302221A60262062
:1044C000FDF72AF933E00023C3F6B4737B6640F2AC
:1044D0001003C2F200031B681946012097ED190A68
:1044E000FDF79CF840F2F613C2F200031B8801337B
:1044F0009AB240F2F613C2F200031A8040F2F613A9
:10450000C2F200031B881A46082140F24810C2F28A
:10451000000006F0C3FA4FF400414FF40060C4F20B
:10452000020004F0CBFC0346002B01F0BE8040F2F9
:10453000F613C2F200031A8840F24603C2F20003E7
:104540001B889A42BFD307F59473A3F594731B6835
:10455000072B40F0308140F21023C2F200031B68A9
:10456000022B40F0288140F21823C2F200030322FC
:104570001A602620FDF7D0F833E00023C3F6B473A9
:10458000BB6440F21003C2F200031B68194601200D
:1045900097ED120AFDF742F840F2F813C2F2000359
:1045A0001B88013B9AB240F2F813C2F200031A8052
:1045B00040F2F813C2F200031B881A46092140F2A8
:1045C0004810C2F2000006F069FA4FF400414FF4BF
:1045D0000060C4F2020004F071FC0346002B01F0FD
:1045E000668040F2F813C2F200031A8840F24803D2
:1045F000C2F200031B889A42BFD840F21823C2F2CD
:10460000000304221A602620FDF786F833E0002319
:10461000C3F6B473FB6440F21003C2F200031B68DC
:104620001946002097ED130AFCF7F8FF40F2FA1341
:10463000C2F200031B88013B9AB240F2FA13C2F2A5
:1046400000031A8040F2FA13C2F200031B881A46D4
:104650000A2140F24810C2F2000006F01FFA4FF49F
:1046600000414FF40060C4F2020004F027FC03464E
:10467000002B01F01E8040F2FA13C2F200031A88E8
:1046800040F24A03C2F200031B889A42BFD840F2AC
:104690001823C2F2000303221A602620FDF73CF81B
:1046A00033E00023C3F6B4733B6540F21003C2F25B
:1046B00000031B681946002097ED140AFCF7AEFFB3
:1046C00040F2F813C2F200031B8801339AB240F2A1
:1046D000F813C2F200031A8040F2F813C2F200038A
:1046E0001B881A46092140F24810C2F2000006F069
:1046F000D5F94FF400414FF40060C4F2020004F019
:10470000DDFB0346002B00F0D68740F2F813C2F21F
:1047100000031A8840F24803C2F200031B889A4241
:10472000BFD340F21823C2F2000304221A602620ED
:10473000FCF7F2FF33E00023C3F6B4737B6540F26D
:104740001003C2F200031B681946012097ED150AF9
:10475000FCF764FF40F2FA13C2F200031B88013336
:104760009AB240F2FA13C2F200031A8040F2FA132E
:10477000C2F200031B881A460A2140F24810C2F216
:10478000000006F08BF94FF400414FF40060C4F2D2
:10479000020004F093FB0346002B00F08E8740F2EA
:1047A000FA13C2F200031A8840F24A03C2F200036D
:1047B0001B889A42BFD307F59473A3F594731B68C3
:1047C000072B40F0308140F21023C2F200031B6837
:1047D000032B40F0288140F21823C2F20003052287
:1047E0001A602620FCF798FF33E00023C3F6B47369
:1047F000BB6340F21003C2F200031B68194601209C
:1048000097ED0E0AFCF70AFF40F2FC13C2F2000318
:104810001B88013B9AB240F2FC13C2F200031A80DB
:1048200040F2FC13C2F200031B881A460B2140F22F
:104830004810C2F2000006F031F94FF400414FF485
:104840000060C4F2020004F039FB0346002B00F0C4
:10485000368740F2FC13C2F200031A8840F24C0380
:10486000C2F200031B889A42BFD840F21823C2F25A
:10487000000306221A602620FCF74EFF33E00023D7
:10488000C3F6B473FB6340F21003C2F200031B686B
:104890001946002097ED0F0AFCF7C0FE40F2FE1308
:1048A000C2F200031B88013B9AB240F2FE13C2F22F
:1048B00000031A8040F2FE13C2F200031B881A465E
:1048C0000C2140F24810C2F2000006F0E7F84FF465
:1048D00000414FF40060C4F2020004F0EFFA034616
:1048E000002B00F0EE8640F2FE13C2F200031A889D
:1048F00040F24E03C2F200031B889A42BFD840F236
:104900001823C2F2000305221A602620FCF704FFD8
:1049100033E00023C3F6B4733B6440F21003C2F2E9
:1049200000031B681946002097ED100AFCF776FE7D
:1049300040F2FC13C2F200031B8801339AB240F22A
:10494000FC13C2F200031A8040F2FC13C2F200030F
:104950001B881A460B2140F24810C2F2000006F0F4
:104960009DF84FF400414FF40060C4F2020004F0DF
:10497000A5FA0346002B00F0A68640F2FC13C2F213
:1049800000031A8840F24C03C2F200031B889A42CB
:10499000BFD340F21823C2F2000306221A60262079
:1049A000FCF7BAFE33E00023C3F6B4737B6440F235
:1049B0001003C2F200031B681946012097ED110A8B
:1049C000FCF72CFE40F2FE13C2F200031B880133F9
:1049D0009AB240F2FE13C2F200031A8040F2FE13B4
:1049E000C2F200031B881A460C2140F24810C2F2A2
:1049F000000006F053F84FF400414FF40060C4F299
:104A0000020004F05BFA0346002B00F05E8640F2E1
:104A1000FE13C2F200031A8840F24E03C2F20003F2
:104A20001B889A42BFD307F59473A3F594731B6850
:104A3000082B40F0388140F21023C2F200031B68BB
:104A4000012B40F0308140F21823C2F20003012212
:104A50001A602620FCF760FE3BE007F59473A3F58F
:104A600080720023C3F6B473136040F21003C2F2E5
:104A700000031A6807F59473A3F5807311460120AB
:104A800093ED000AFCF7CAFD40F2F413C2F20003F2
:104A90001B88013B9AB240F2F413C2F200031A8061
:104AA00040F2F413C2F200031B881A46072140F2B9
:104AB0004810C2F2000005F0F1FF4FF400414FF43E
:104AC0000060C4F2020004F0F9F90346002B00F084
:104AD000FE8540F2F413C2F200031A8840F250033C
:104AE000C2F200031B889A42B7D840F21823C2F2E0
:104AF000000302221A602620FCF70EFE33E000239A
:104B0000C3F6B473FB6240F21003C2F200031B68E9
:104B10001946002097ED0B0AFCF780FD40F2F613D2
:104B2000C2F200031B88013B9AB240F2F613C2F2B4
:104B300000031A8040F2F613C2F200031B881A46E3
:104B4000082140F24810C2F2000005F0A7FF4FF420
:104B500000414FF40060C4F2020004F0AFF90346D4
:104B6000002B00F0B68540F2F613C2F200031A885B
:104B700040F25203C2F200031B889A42BFD840F2AF
:104B80001823C2F2000301221A602620FCF7C4FD9C
:104B900033E00023C3F6B4733B6340F21003C2F268
:104BA00000031B681946002097ED0C0AFCF736FD40
:104BB00040F2F413C2F200031B8801339AB240F2B0
:104BC000F413C2F200031A8040F2F413C2F200039D
:104BD0001B881A46072140F24810C2F2000005F077
:104BE0005DFF4FF400414FF40060C4F2020004F096
:104BF00065F90346002B00F06E8540F2F413C2F213
:104C000000031A8840F25003C2F200031B889A4244
:104C1000BFD340F21823C2F2000302221A602620FA
:104C2000FCF77AFD33E00023C3F6B4737B6340F2F4
:104C30001003C2F200031B681946012097ED0D0A0C
:104C4000FCF7ECFC40F2F613C2F200031B880133C0
:104C50009AB240F2F613C2F200031A8040F2F61341
:104C6000C2F200031B881A46082140F24810C2F223
:104C7000000005F013FF4FF400414FF40060C4F250
:104C8000020004F01BF90346002B00F0268540F2D9
:104C9000F613C2F200031A8840F25203C2F2000374
:104CA0001B889A42BFD307F59473A3F594731B68CE
:104CB000082B40F0508140F21023C2F200031B6821
:104CC000022B40F0488140F21823C2F20003032275
:104CD0001A602620FCF720FD3BE007F59473A3F54E
:104CE00088720023C3F6B473136040F21003C2F25B
:104CF00000031A6807F59473A3F588731146012021
:104D000093ED000AFCF78AFC40F2F813C2F20003AC
:104D10001B88013B9AB240F2F813C2F200031A80DA
:104D200040F2F813C2F200031B881A46092140F230
:104D30004810C2F2000005F0B1FE4FF400414FF4FC
:104D40000060C4F2020004F0B9F80346002B00F042
:104D5000C68440F2F813C2F200031A8840F25403EA
:104D6000C2F200031B889A42B7D840F21823C2F25D
:104D7000000304221A602620FCF7CEFC3BE007F576
:104D80009473A3F586720023C3F6B473136040F2E4
:104D90001003C2F200031A6807F59473A3F5867333
:104DA0001146002093ED000AFCF738FC40F2FA139C
:104DB000C2F200031B88013B9AB240F2FA13C2F21E
:104DC00000031A8040F2FA13C2F200031B881A464D
:104DD0000A2140F24810C2F2000005F05FFE4FF4D5
:104DE00000414FF40060C4F2020004F067F803468B
:104DF000002B00F0768440F2FA13C2F200031A8806
:104E000040F25603C2F200031B889A42B7D840F220
:104E10001823C2F2000303221A602620FCF77CFC50
:104E20003BE007F59473A3F584720023C3F6B473D3
:104E3000136040F21003C2F200031A6807F594737E
:104E4000A3F584731146002093ED000AFCF7E6FBFE
:104E500040F2F813C2F200031B8801339AB240F209
:104E6000F813C2F200031A8040F2F813C2F20003F2
:104E70001B881A46092140F24810C2F2000005F0D2
:104E80000DFE4FF400414FF40060C4F2020004F044
:104E900015F80346002B00F0268440F2F813C2F206
:104EA00000031A8840F25403C2F200031B889A429E
:104EB000B7D340F21823C2F2000304221A6026205E
:104EC000FCF72AFC3BE007F59473A3F582720023FC
:104ED000C3F6B473136040F21003C2F200031A6801
:104EE00007F59473A3F582731146012093ED000A30
:104EF000FCF794FB40F2FA13C2F200031B88013363
:104F00009AB240F2FA13C2F200031A8040F2FA1386
:104F1000C2F200031B881A460A2140F24810C2F26E
:104F2000000005F0BBFD4FF400414FF40060C4F2F7
:104F3000020003F0C3FF0346002B00F0D68340F2CB
:104F4000FA13C2F200031A8840F25603C2F20003B9
:104F50001B889A42B7D307F59473A3F594731B6823
:104F6000082B40F0C48340F21023C2F200031B68F8
:104F7000032B40F0BC8340F21823C2F20003052249
:104F80001A602620FCF7C8FB3BE007F59473A3F5F5
:104F900090720023C3F6B473136040F21003C2F2A0
:104FA00000031A6807F59473A3F590731146012066
:104FB00093ED000AFCF732FB40F2FC13C2F200034F
:104FC0001B88013B9AB240F2FC13C2F200031A8024
:104FD00040F2FC13C2F200031B881A460B2140F278
:104FE0004810C2F2000005F059FD4FF400414FF4A3
:104FF0000060C4F2020003F061FF0346002B00F0E2
:10500000788340F2FC13C2F200031A8840F258037E
:10501000C2F200031B889A42B7D840F21823C2F2AA
:10502000000306221A602620FCF776FB3BE007F51A
:105030009473A3F58E720023C3F6B473136040F229
:105040001003C2F200031A6807F59473A3F58E7378
:105050001146002093ED000AFCF7E0FA40F2FE133F
:10506000C2F200031B88013B9AB240F2FE13C2F267
:1050700000031A8040F2FE13C2F200031B881A4696
:105080000C2140F24810C2F2000005F007FD4FF479
:1050900000414FF40060C4F2020003F00FFF03462A
:1050A000002B00F0288340F2FE13C2F200031A889E
:1050B00040F25A03C2F200031B889A42B7D840F26A
:1050C0001823C2F2000305221A602620FCF724FBF5
:1050D0003BE007F59473A3F58C720023C3F6B47319
:1050E000136040F21003C2F200031A6807F59473CC
:1050F000A3F58C731146002093ED000AFCF78EFA9D
:1051000040F2FC13C2F200031B8801339AB240F252
:10511000FC13C2F200031A8040F2FC13C2F2000337
:105120001B881A460B2140F24810C2F2000005F01D
:10513000B5FC4FF400414FF40060C4F2020003F0EC
:10514000BDFE0346002B00F0D88240F2FC13C2F2F1
:1051500000031A8840F25803C2F200031B889A42E7
:10516000B7D340F21823C2F2000306221A602620A9
:10517000FCF7D2FA3BE007F59473A3F58A7200239B
:10518000C3F6B473136040F21003C2F200031A684E
:1051900007F59473A3F58A731146012093ED000A75
:1051A000FCF73CFA40F2FE13C2F200031B88013305
:1051B0009AB240F2FE13C2F200031A8040F2FE13CC
:1051C000C2F200031B881A460C2140F24810C2F2BA
:1051D000000005F063FC4FF400414FF40060C4F29E
:1051E000020003F06BFE0346002B00F0888240F2C1
:1051F000FE13C2F200031A8840F25A03C2F20003FF
:105200001B889A42B7D372E207F59473A3F594739F
:105210001B68042B40F09E8040F21023C2F2000372
:105220001B68012B40F0968040F21823C2F2000365
:1052300001221A602520FCF76FFA34E00023C3F640
:10524000B473C7F8203140F21003C2F200031B68A8
:105250001946002097ED480AFCF7E0F940F2F413F4
:10526000C2F200031B8801339AB240F2F413C2F277
:1052700000031A8040F2F413C2F200031B881A469E
:10528000072140F24810C2F2000005F007FC4FF47D
:1052900000414FF40060C4F2020003F00FFE034629
:1052A000002B00F02E8240F2F413C2F200031A88A1
:1052B00040F21403C2F200031B889A42BED340F2AC
:1052C0001823C2F2000302221A602520FCF724FAF8
:1052D00034E00023C3F6B473C7F8243140F210035E
:1052E000C2F200031B681946012097ED490AFCF73A
:1052F00095F940F2F613C2F200031B8801339AB20B
:1053000040F2F613C2F200031A8040F2F613C2F222
:1053100000031B881A46082140F24810C2F2000020
:1053200005F0BCFB4FF400414FF40060C4F20200F2
:1053300003F0C4FD0346002B00F0E58140F2F613B4
:10534000C2F200031A8840F21603C2F200031B885F
:105350009A42BED307F59473A3F594731B68042B8C
:1053600040F09E8040F21023C2F200031B68022B23
:1053700040F0968040F21823C2F2000303221A6024
:105380002520FCF7C9F934E00023C3F6B473C7F84D
:10539000183140F21003C2F200031B6819460020C6
:1053A00097ED460AFCF73AF940F2F813C2F200030F
:1053B0001B8801339AB240F2F813C2F200031A803C
:1053C00040F2F813C2F200031B881A46092140F28A
:1053D0004810C2F2000005F061FB4FF400414FF4A9
:1053E0000060C4F2020003F069FD0346002B00F0E8
:1053F0008C8140F2F813C2F200031A8840F21803BD
:10540000C2F200031B889A42BED340F21823C2F2B4
:10541000000304221A602520FCF77EF934E0002303
:10542000C3F6B473C7F81C3140F21003C2F2000394
:105430001B681946012097ED470AFCF7EFF840F288
:10544000FA13C2F200031B8801339AB240F2FA1336
:10545000C2F200031A8040F2FA13C2F200031B8862
:105460001A460A2140F24810C2F2000005F016FB6D
:105470004FF400414FF40060C4F2020003F01EFD3F
:105480000346002B00F0438140F2FA13C2F20003FE
:105490001A8840F21A03C2F200031B889A42BED354
:1054A00007F59473A3F594731B68042B40F03181C6
:1054B00040F21023C2F200031B68032B40F0298145
:1054C00040F21823C2F2000305221A602520FCF7DF
:1054D00023F934E00023C3F6B473C7F8103140F267
:1054E0001003C2F200031B681946002097ED440A1E
:1054F000FCF794F840F2FC13C2F200031B8801335E
:105500009AB240F2FC13C2F200031A8040F2FC137C
:10551000C2F200031B881A460B2140F24810C2F267
:10552000000005F0BBFA4FF400414FF40060C4F2F4
:10553000020003F0C3FC0346002B00F0EC8040F2B5
:10554000FC13C2F200031A8840F21C03C2F20003EB
:105550001B889A42BED340F21823C2F200030622EF
:105560001A602520FCF7D8F834E00023C3F6B473A2
:10557000C7F8143140F21003C2F200031B68194649
:10558000012097ED450AFCF749F840F2FE13C2F2FC
:1055900000031B8801339AB240F2FE13C2F20003EB
:1055A0001A8040F2FE13C2F200031B881A460C2137
:1055B00040F24810C2F2000005F070FA4FF40041CA
:1055C0004FF40060C4F2020003F078FC0346002BA5
:1055D00000F0A38040F2FE13C2F200031A8840F2EA
:1055E0001E03C2F200031B889A42BED391E000BFA3
:1055F00094E000BF92E000BF90E000BF8EE000BFEB
:105600008CE000BF8AE000BF88E000BF86E000BFFA
:1056100084E000BF82E000BF80E000BF7EE000BF0A
:105620007CE000BF7AE000BF78E000BF76E000BF1A
:1056300074E000BF72E000BF70E000BF6EE000BF2A
:105640006CE000BF6AE000BF68E000BF66E000BF3A
:1056500064E000BF62E000BF60E000BF5EE000BF4A
:105660005CE000BF5AE000BF58E000BF56E000BF5A
:1056700054E000BF52E000BF50E000BF4EE000BF6A
:105680004CE000BF4AE000BF48E000BF46E000BF7A
:1056900044E000BF42E000BF40E000BF3EE000BF8A
:1056A0003CE000BF3AE000BF38E000BF36E000BF9A
:1056B00034E000BF32E000BF30E000BF2EE000BFAA
:1056C0002CE000BF2AE000BF28E000BF26E000BFBA
:1056D00024E000BF22E000BF20E000BF1EE000BFCA
:1056E0001CE000BF1AE000BF18E000BF16E000BFDA
:1056F00014E000BF12E000BF10E000BF0EE000BFEA
:105700000CE000BF0AE000BF08E000BF06E000BFF9
:1057100004E000BF02E000BF00E000BF07F594779F
:10572000BD4680BD80B500AF40F26003C2F2000309
:105730001B68002B05DC40F26003C2F20003042268
:105740001A6040F26003C2F200031B68042B05DDFF
:1057500040F26003C2F2000301221A6040F26403C7
:10576000C2F200031B68012B64D140F26003C2F255
:1057700000031B68012B0BD140F25C03C2F2000353
:1057800002221A6040F20423C2F2000301221A60CE
:1057900040F26003C2F200031B68022B0BD140F2FF
:1057A0005C03C2F2000303221A6040F20423C2F237
:1057B000000302221A6040F26003C2F200031B6879
:1057C000032B0BD140F25C03C2F2000304221A60E7
:1057D00040F20423C2F2000303221A6040F2600385
:1057E000C2F200031B68042B0BD140F25C03C2F22F
:1057F000000305221A6040F20423C2F200030022D3
:105800001A6040F20023C2F200031B68012B11D181
:1058100040F26403C2F2000302221A6040F2002345
:10582000C2F2000300221A6040F26003C2F20003D9
:1058300001221A6040F26403C2F200031B68022BCB
:1058400072D140F20423C2F200031B68012B6BD11A
:1058500040F26003C2F200031B68012B0BD140F23F
:105860005C03C2F2000307221A6040F20C23C2F26A
:10587000000300221A6040F26003C2F200031B68BA
:10588000022B0BD140F25C03C2F2000308221A6023
:1058900040F20C23C2F2000301221A6040F26003BE
:1058A000C2F200031B68032B0BD140F25C03C2F26F
:1058B000000309221A6040F20C23C2F20003022204
:1058C0001A6040F26003C2F200031B68042B0BD184
:1058D00040F25C03C2F200030A221A6040F20C2379
:1058E000C2F2000303221A6040F20023C2F2000356
:1058F0001B68012B18D140F26003C2F200031B6841
:10590000012B11D040F26403C2F2000303221A609B
:1059100040F20023C2F2000300221A6040F260034A
:10592000C2F2000301221A6040F26403C2F20003D3
:105930001B68022B72D140F20423C2F200031B68E1
:10594000022B6BD140F26003C2F200031B68012BF3
:105950000BD140F25C03C2F2000307221A6040F24E
:105960000C23C2F2000300221A6040F26003C2F26C
:1059700000031B68022B0BD140F25C03C2F2000350
:1059800008221A6040F20C23C2F2000301221A60BE
:1059900040F26003C2F200031B68032B0BD140F2FC
:1059A0005C03C2F2000309221A6040F20C23C2F227
:1059B000000302221A6040F26003C2F200031B6877
:1059C000042B0BD140F25C03C2F200030A221A60DE
:1059D00040F20C23C2F2000303221A6040F20023BB
:1059E000C2F200031B68012B18D140F26003C2F21F
:1059F00000031B68012B11D040F26403C2F20003C4
:105A000003221A6040F20023C2F2000300221A604F
:105A100040F26003C2F2000301221A6040F2640304
:105A2000C2F200031B68022B72D140F20423C2F2BF
:105A300000031B68032B6BD140F26003C2F200032A
:105A40001B68012B0BD140F25C03C2F2000307225A
:105A50001A6040F20C23C2F2000300221A6040F2E6
:105A60006003C2F200031B68022B0BD140F25C03FF
:105A7000C2F2000308221A6040F20C23C2F20003B3
:105A800001221A6040F26003C2F200031B68032B7C
:105A90000BD140F25C03C2F2000309221A6040F20B
:105AA0000C23C2F2000302221A6040F26003C2F229
:105AB00000031B68042B0BD140F25C03C2F200030D
:105AC0000A221A6040F20C23C2F2000303221A6079
:105AD00040F20023C2F200031B68012B18D140F2F0
